:020000040800F2
:100000000009002001010008CD0C00089909000832
:10001000C90C0008D3070008F11600080000000012
:10002000000000000000000000000000ED100008CB
:10003000D707000800000000B50F000819010008EC
:100040001B0100081B0100081B0100081B01000820
:100050001B0100081B0100081B0100081B01000810
:100060001B0100081B0100081B0100081B01000800
:100070001B0100081B0100081B0100081B010008F0
:100080001B0100081B0100081B0100081B010008E0
:100090001B0100081B0100081B0100081B010008D0
:1000A0001B010008311300081B0100081B01000898
:1000B0001B0100081B0100081B0100081B010008B0
:1000C0001B0100081B0100081B0100081B010008A0
:1000D0001B0100081B0100081B0100081B01000890
:1000E0001B0100081B0100081B010008DFF80CD0F1
:1000F00000F0A4FA00480047BD20000800090020D5
:100100000648804706480047FEE7FEE7FEE7FEE7B1
:10011000FEE7FEE7FEE7FEE7FEE7FEE7D112000896
:10012000ED00000830B480EA010202F0004530F032
:10013000004221F0004013D090B1C30DD40DC2F3A2
:100140001601C0F31600E41A41F4000140F4000265
:100150007D34914201D3641C00E04900002C02DA96
:1001600030BC002070474FF400000023914201D3BF
:10017000891A034340084FEA4101F7D151B1914236
:1001800002D14FF0004105E002D24FF0010101E041
:100190006FF0010103EBC450284430BC00F05FB89D
:1001A00096230022114600F063B800F0004230F0C0
:1001B00000400AD0C10D01F56071C0F3160042EA9B
:1001C0000151C208400711437047002001467047A3
:1001D00030B50B46014600202022012409E021FA17
:1001E00002F59D4205D303FA02F5491B04FA02F514
:1001F0002844151EA2F10102F1DC30BD2DE9F05FAB
:100200000546002092469B46884606468146402485
:100210001BE0284641464746224600F030FA534646
:100220005A46C01A914110D311461846224600F092
:1002300017FA2D1A67EB01084F46224601200021CC
:1002400000F00EFA17EB00094E41201EA4F1010444
:10025000DFDC484631462A464346BDE8F09F002988
:10026000A8BF7047401C490008BF20F0010070473C
:1002700010B4B0FA80FC00FA0CF050EA010404BF9C
:1002800010BC704749B1CCF1200421FA04F411FAF2
:100290000CF118BF012121430843A3EB0C01CB1D36
:1002A0004FEA00614FEA102042BF002010BC7047A7
:1002B00000EBC35010440029A4BF10BC7047401C81
:1002C000490008BF20F0010010BC70472DE9FE4F27
:1002D000804681EA0300C00F0C46009021F00041E7
:1002E00023F00045B8EB0200A94105D24046214663
:1002F00090461C460B46024623F00040104347D070
:10030000270DC7F30A00C3F30A510290401A019067
:1003100040286BDAC3F3130040F4801B0098924628
:1003200020B10023D2EB030A63EB0B0B0198594673
:10033000C0F14002504600F093F906460D46504683
:100340005946019A00F0ABF910EB08006141002416
:1003500087EA115284EAE7731A4340D0009A62B3E5
:10036000019A012A4FEA075215DC001B61EB0201DA
:100370004FF0004202EA0752CDE90042001C41F56D
:10038000801132462B4600F0ABF903B0BDE8F08F88
:1003900040462146F9E7001B61EB0201001C41F5D4
:1003A000801300185B412018A2F5001747EB0301EA
:1003B00040EAD570B6196D4111E06D084FEA360676
:1003C00045EAC0754FEA0752001B61EB0201001CB1
:1003D00041F5801149084FEA300000195141324679
:1003E0002B4603B0BDE8F04F00F06BB90098012236
:1003F00040000023D0EB020263EBE073009821463B
:100400004FEAE074B8EB000061EB0401E9E783F028
:1004100000435BE781F0004158E72DE9FE4F81EA98
:10042000030404F0004421F0004100944FF0000B5D
:1004300023F0004350EA01045ED052EA03045BD08B
:10044000C3F30A54C1F30A552C44A4F2F3340194C3
:10045000A0FB0254C1F3130141F48011C3F3130351
:1004600043F4801301FB024400FB034E840A970A05
:1004700044EA815447EA8357A4FB076802958D0A32
:1004800005FB07854FEA932C04FB0C542705029DBE
:100490004FEA065847EA1637B5EB08056EEB070C2E
:1004A000870E920E47EA811742EA8312A7FB0201E8
:1004B000B6EB0B0164EB00042B0D43EA0C335E1822
:1004C00044EB1C50DA465146E7FB0201C5F3130426
:1004D0004FEA0B3343EA14534FEA0432019C43EAD8
:1004E0000603A4F10C040294009CCDE900B400F0D2
:1004F000F7F803B0BDE8F08F00200146F9E72DE9D9
:10050000F04D81EA030404F0004B21F0004514464D
:100510004FF0000A23F0004150EA050220D054EACF
:1005200001021DD0C5F30A570246C5F31303C1F3F8
:100530001300C1F30A5640F4801543F48013A7EB6F
:100540000608101BD64608F2FD3873EB050002D3EF
:1005500008F1010801E092185B41B8F1000F03DADD
:1005600000200146BDE8F08D00204FF480110646C2
:1005700084460EE0171B73EB050705D3121B63EBD4
:10058000050306434CEA010C49084FEA3000921873
:100590005B4150EA0107EDD152EA030012D082EA32
:1005A000040083EA0501084305D0101BAB4106D2C5
:1005B0000122002306E000224FF0004302E06FF02A
:1005C000010253101AEB06004CEB085110EB0A0025
:1005D00041EB0B01BDE8F04D00F073B8C1F30A52D6
:1005E000C1F3130140F2FF3341F480119A4202DA61
:1005F00000200146704740F233439A42A2F2334250
:1006000002DC524200F03BB800F02AB830B5041EBC
:1006100071F1000404DB4FF00044404264EB01013F
:10062000141E73F1000405DB1C464FF000435242D8
:1006300063EB0403994208BF904230BD064C074D5E
:1006400006E0E06840F0010394E8070098471034A2
:10065000AC42F6D3FFF74EFDC4290008E429000898
:10066000202A04DB203A00FA02F100207047914072
:10067000C2F1200320FA03F3194390407047202A67
:1006800004DB203A21FA02F00021704721FA02F33C
:10069000D040C2F120029140084319467047202AF9
:1006A00006DBCB17203A41FA02F043EAE07306E09A
:1006B00041FA02F3D040C2F12002914008431946AA
:1006C000704710B5141E73F1000408DA401C41F1A4
:1006D000000192185B411A4301D120F0010010BDC6
:1006E0002DE9F04D92469B4611B1B1FA81F202E03C
:1006F000B0FA80F220329046FFF7B2FF04460F4670
:1007000040EA0A0041EA0B0153465A46084313D017
:10071000114653EA010019D0C8F140025046FFF7D4
:10072000AEFF05460E46504659464246FFF798FF33
:10073000084305D0012004E020463946BDE8F08D8D
:100740000020054346EAE0762C4337430A986305C8
:10075000E40AA0EB08000022FD0A44EA47540A30EC
:1007600002D500200146E9E7010510196941DDE9DC
:10077000084500196941BDE8F04DA2E770B58C1835
:1007800010F8015B15F0070301D110F8013B2A11A5
:1007900006D110F8012B03E010F8016B01F8016B92
:1007A0005B1EF9D12B0705D40023521E0DD401F88E
:1007B000013BFAE710F8013BCB1A921C03E013F857
:1007C000015B01F8015B521EF9D5A142D8D300208C
:1007D00070BD00BFFEE770472DE9F04102460025DD
:1007E0000026002000230024002791F803C00CF00D
:1007F0000F0591F803C00CF0100CBCF1000F03D0F2
:1008000091F802C04CEA050591F800C0BCF1000F58
:1008100031D0146800202BE04FF0010C0CFA00F3EB
:10082000B1F800C00CEA03069E4220D183004FF0CD
:100830000F0C0CFA03F7BC4305FA03FC4CEA040462
:1008400091F803C0BCF1280F06D14FF0010C0CFA4F
:1008500000FCC2F814C00AE091F803C0BCF1480FD4
:1008600005D14FF0010C0CFA00FCC2F810C0401C7E
:100870000828D1D31460B1F800C0BCF1FF0F34DDFB
:10088000546800202EE000F1080C4FF0010808FA2F
:100890000CF3B1F800C00CEA03069E4221D183009C
:1008A0004FF00F0C0CFA03F7BC4305FA03FC4CEABB
:1008B000040491F803C0BCF1280F05D100F1080C25
:1008C00008FA0CF8C2F8148091F803C0BCF1480F84
:1008D00007D100F1080C4FF0010808FA0CF8C2F833
:1008E0001080401C0828CED35460BDE8F081024639
:1008F000002093680B400BB1012000E000207047FE
:10090000416170470161704710B500F013FC054963
:10091000086008460068044908600120034908701F
:1009200010BD00002C000020300000201800002026
:1009300010B500F0FFFB1349086008460068124933
:100940000860084600681149096888420FD90E49B5
:1009500009680E4A1268881AFFF722FC04460C4800
:1009600001682046FFF7DEFB0A49086008E00648F8
:10097000006806490968884202D8002005490860D5
:1009800010BD00002C0000203400002030000020AA
:10099000280000203800002000BFFEE770B50246A6
:1009A0000024002500230020958A138B1B0445EAB0
:1009B000030626F07F4404EA01068E4201D101209D
:1009C00000E0002070BD21B1028842F001020280E7
:1009D00004E002884FF6FE731A4002807047000060
:1009E00000B585B00121880500F0E6FA0121082054
:1009F00000F002FB4FF44060ADF8000003208DF8DA
:100A000002001C208DF8030069461148FFF7E4FE40
:100A1000104800F023F80020ADF808004BF6FF70F6
:100A2000ADF80A003020ADF80C004FF48060ADF84E
:100A30000E000001ADF810000748019001210548A3
:100A4000FFF7C1FF01A9034800F05AF805B000BD47
:100A5000000C014000580040801A060010B5044602
:100A60000B48844209D10121480500F0B5FA002164
:100A70004FF4001000F0B0FA08E00121880500F002
:100A8000ABFA00214FF4800000F0A6FA10BD000080
:100A90000054004021B1028842F48072028004E0D8
:100AA00002884FF6FF631A400280704721B1028826
:100AB00042F40072028004E002884FF6FF531A40AD
:100AC000028070470CB5024600200023019300937A
:100AD00000920B0F019321F07F41019B1BB1009B02
:100AE0001433009303E0090C009B18330093009B20
:100AF0001B680B400BB1012000E000200CBD000082
:100B00002DE9F04385B004460D460026B146042782
:100B1000DFF8CC80A6884FF6C0700640684600F02B
:100B20007BFADDF808802F48B8FBF0F01FFA80F957
:100B300046EA0906A68020884FF6FE71084020800C
:100B400000262949286888420CD828684000B8FB4C
:100B5000F0F087B2042F00DA04273E4309F10100C8
:100B6000208427E0E8884BF6FF71884206D1286888
:100B700000EB4000B8FBF0F087B209E0286800EB1A
:100B8000C00101EB0010B8FBF0F087B247F48047DA
:100B9000C7F30B0008B947F0010747F400400643CC
:100BA0004FF4967009FB00F04FF47A7190FBF1F06E
:100BB000401C2084A683208840F0010020802688E5
:100BC0004FF6F5300640A888698908430643268019
:100BD000A88929890843208105B0BDE8F083000079
:100BE00000127A0040420F00A086010012B141F0CD
:100BF000010102E04FF6FE73194001827047018245
:100C00007047000070B504460D4600BF4FF4003138
:100C10001C48FFF757FF0028F8D101211948FFF7BA
:100C200039FF00BF18491748FFF7B8FE0028F9D070
:100C3000002278211348FFF7D9FF00BF134911485C
:100C4000FFF7ACFE0028F9D021460E48FFF7D7FF8A
:100C500000BF0E49891C0B48FFF7A0FE0028F8D002
:100C600029460848FFF7CBFF00BF0849891C054803
:100C7000FFF794FE0028F8D001210248FFF716FF85
:100C800070BD000000580040010003008200070012
:100C900008B50121102000F0AFF94FF40050ADF875
:100CA000000010208DF8030003208DF80200694633
:100CB0000448FFF791FD4FF400510248FFF722FE70
:100CC00008BD00000010014000BFFEE770470000B3
:100CD00070B5002100230F22C47804B3154C24689A
:100CE00004F4E064C4F5E064210AC1F10403CA40DD
:100CF000447804FA03F184781440214309010E4C2E
:100D00000678A155047804F01F050124AC4005784D
:100D10006D11AD0005F1E025C5F8004109E004784A
:100D200004F01F050124AC40044D0678761145F807
:100D3000264070BD0CED00E000E400E080E100E042
:100D400002490143024A1160704700000000FA05A1
:100D50000CED00E010B5002000F001F810BD70B5FA
:100D60000646002415E004F1B001C8B200F0C2FC50
:100D7000002000F0BFFC102000F0BCFC002504E0C7
:100D8000304600F0BEFC681CC5B2802DF8DB601C4C
:100D9000C4B2082CE7DB70BD10B5642001F04FF938
:100DA000AE2000F0A7FC202000F0A4FC102000F0F2
:100DB000A1FCB02000F09EFCC82000F09BFC0020AD
:100DC00000F098FC102000F095FC402000F092FC10
:100DD000812000F08FFCFF2000F08CFCA12000F0AF
:100DE00089FCA62000F086FCA82000F083FC3F20B0
:100DF00000F080FCA42000F07DFCD32000F07AFC01
:100E0000002000F077FCD52000F074FCF02000F00A
:100E100071FCD92000F06EFC222000F06BFCDA207F
:100E200000F068FC122000F065FCDB2000F062FCA2
:100E3000202000F05FFC8D2000F05CFC142000F00E
:100E400059FCAF2000F056FC10BD70B504460D46AD
:100E500005F1B001C8B200F04DFC102141EA1410B8
:100E600000F048FC04F00F0141F0010000F042FCEA
:100E700070BD00002DE9F04180460E461746002463
:100E80007D0131464046FFF7E0FF00BF06E00D4917
:100E9000485D00F036FC6D1C601CC4B2102CF6DB03
:100EA000701CC1B24046FFF7D0FF002406E00549A0
:100EB000485D00F026FC6D1C601CC4B2102CF6DBF3
:100EC000BDE8F0813C0000202DE9F0470646894648
:100ED00017469A464FF0000800240025BAF1010F8A
:100EE00003D0BAF1020F5ED125E020E0785D203812
:100EF00000F0FF087E2E04DD002609F1010000F05D
:100F0000FF0949463046FFF7A0FF002409E008EB3F
:100F10004801264A02EB4101085D00F0F2FB601C2B
:100F2000C4B2062CF3DBB01DC6B2681CC5B2785D36
:100F30000028DBD137E032E0785D203800F0FF0890
:100F4000782E04DD002609F1010000F0FF09494672
:100F50003046FFF77AFF002407E004EB0811144A3B
:100F6000505C00F0CEFB601CC4B2082CF5DB09F12C
:100F70000100C1B23046FFF768FF002408E004EB2F
:100F8000081108310A4A505C00F0BBFB601CC4B277
:100F9000082CF4DB06F10800C6B2681CC5B2785D07
:100FA0000028C9D100BF00BFBDE8F087AC21000810
:100FB000D42300087047000029B1064AD2690243D1
:100FC000044BDA6104E0034AD2698243014BDA61DF
:100FD000704700000010024029B1064A126902431E
:100FE000044B1A6104E0034A12698243014B1A61FF
:100FF000704700000010024029B1064A926902437E
:10100000044B9A6104E0034A92698243014B9A615E
:10101000704700000010024030B50021002200247B
:1010200000232D4D6D6805F00C0121B1042905D078
:10103000082923D105E0294D056022E0274D0560F0
:101040001FE0254D6D6805F47012234D6D6805F4A1
:101050008034022505EB92421CB9214D55430560B1
:101060000BE01D4D6D6805F400351DB11C4D554359
:10107000056002E0194D5543056002E0174D05601B
:1010800000BF00BF144D6D6805F0F0010909154D52
:101090006B5C0568DD4045600F4D6D6805F4E061EF
:1010A000090A104D6B5C4568DD4085600A4D6D682E
:1010B00005F46051C90A0B4D6B5C4568DD40C560A5
:1010C000054D6D6805F44041890B074D6B5CC568A3
:1010D000B5FBF3F5056130BD0010024000127A0047
:1010E00000093D00020000201200002070470000AF
:1010F00008B501210420FFF77FFF0220ADF80000B2
:1011000010208DF8030003208DF80200694608487E
:10111000FFF762FB0120ADF8000004208DF803000A
:1011200003208DF8020069460148FFF755FB08BD12
:101130000008014070B501212048FFF7E3FB0220C1
:1011400000F09EFF02211D48FFF7DAFB022000F0AD
:1011500097FF00BF01211948FFF7C9FB0028F9D10B
:10116000002516E002211548FFF7CCFB022000F015
:1011700087FF640002211148FFF7C2FB022000F044
:101180007FFF01210D48FFF7B2FB00B1641C681C12
:10119000C5B2182DE6DB02210848FFF7B3FB022099
:1011A00000F06EFF84F4000402210448FFF7A8FB5E
:1011B000022000F065FF204670BD000000080140DD
:1011C00010B500F001F810BD0CB5002001900090A2
:1011D0003348006840F480303149086000BF30482F
:1011E000006800F4003000900198401C01900098C5
:1011F00018B90198B0F5A06FF1D12948006800F442
:10120000003010B10120009001E000200090009813
:10121000012843D12348006840F0100021490860AC
:101220000846006820F0030008600846006840F0A7
:10123000020008601A48406819494860084640683A
:1012400048600846406840F480604860084640684E
:1012500020F47C1048600846406840F4E81048607C
:101260000846006840F08070086000BF0C480068C5
:1012700000F000700028F9D00948406820F0030011
:10128000074948600846406840F00200486000BFD7
:101290000348406800F00C000828F9D10CBD00009C
:1012A0000010024000200240042808D14FF0E02145
:1012B000096941F004014FF0E022116107E04FF0AD
:1012C000E021096921F004014FF0E022116170472B
:1012D00010B51348006840F0010011490860084645
:1012E0004068104908400E494860084600680E49A9
:1012F00008400B4908600846006820F48020086018
:101300000846406820F4FE0048604FF41F008860E3
:10131000FFF756FF4FF000600449086010BD000061
:10132000001002400000FFF8FFFFF6FE08ED00E0AD
:1013300070B586B00121434800F0B8F800287ED08F
:1013400041480078012876D140480078012872D1C0
:101350003F480088401C3E490880084600880A2112
:1013600090FBF1F201FB120028BB002409E00C21E4
:1013700001EB0411C8B222460021FFF77BFD601C7F
:10138000C4B2062CF3DB33480068FEF70EFF0546B7
:101390002A460B4630A101A800F0BAF9022301AA9F
:1013A00004210020FFF790FD02232EA204216420D7
:1013B000FFF78AFD00BF26480088642190FBF1F208
:1013C00001FB120020B92848007808B9FFF79CFA01
:1013D0001F480088642190FBF1F201FB120068B9FC
:1013E0002148007820B9FFF7B5FCFFF78DFA05E03A
:1013F0001D480078012801D1FFF79AFA14480088A7
:101400004FF4FA7190FBF1F201FB120028B9174872
:10141000C06880F400501549C8600D480088B0F5D8
:101420007A7F02DB00200A4908800121054800F08C
:101430002EF804E0FFE70121024800F028F806B08A
:1014400070BD0000002C01400000002001000020C1
:101450001600002038000020202025362E3366207C
:10146000202020006720000018000020001001400C
:1014700021B1028842F08002028004E002884FF627
:101480007F731A4002807047CA4302827047CA4382
:101490000282704721B1028842F00102028004E01A
:1014A00002884FF6FE731A400280704730B502463C
:1014B000002000230024158A05EA0103958905EA26
:1014C000010413B10CB1012000E0002030BD1AB1BD
:1014D00083890B43838102E083898B438381704737
:1014E000002202881D4B98420ED01D4B98420BD013
:1014F000B0F1804F08D01B4B984205D01A4B984250
:1015000002D01A4B984204D14FF68F731A404B8881
:101510001A43174B984207D0164B984204D04FF607
:10152000FF431A40CB881A4302808B8883850B883F
:1015300003850A4B98420BD0094B984208D00E4BBA
:10154000984205D00D4B984202D00D4B984201D1E4
:101550000B7A03860123838270470000002C014030
:10156000003401400004004000080040000C00402E
:1015700000100040001400400040014000440140C1
:10158000004801401FB50121C802FFF735FD4FF4A7
:101590007A70ADF808004720ADF804000020ADF8DF
:1015A0000A00ADF806008DF80C0001A91348FFF7FA
:1015B00097FF19208DF8000000208DF801008DF8AC
:1015C000020001208DF803006846FFF781FB01222D
:1015D00011460A48FFF77BFF01210848FFF748FF43
:1015E00001210648FFF750FF01210448FFF74FFF94
:1015F00001210248FFF74EFF1FBD0000002C0140F3
:1016000021B1828942F40052828104E082894DF640
:10161000FF731A40828170472DE9F04786B0054676
:101620000E460024A24600BFA1460027B08900B1A3
:1016300000BF2F462C8A4CF6FF700440F08804430C
:101640002C82AC894EF6F3100440B08831890843EF
:10165000718908430443AC81AC8A4FF6FF400440D3
:10166000B0890443AC8201A8FFF7D6FC1F4887422B
:1016700002D1DDF810A001E0DDF80CA0A88900F48B
:10168000004040B10AEBCA0000EB0A103168490083
:10169000B0FBF1F807E00AEBCA0000EB0A10316872
:1016A0008900B0FBF1F86420B8FBF0F004012009D8
:1016B000642101FB1089A88900F4004040B1322068
:1016C00000EBC900B0FBF1F000F00700044308E0B4
:1016D000322000EB09106421B0FBF1F000F00F00A4
:1016E00004432C8106B0BDE8F087000000380140BB
:1016F00000BFFEE710B5044621460020FFF782FA3E
:1017000010BD10B5044621464020FFF77BFA10BDFE
:101710000FB4084B10B504A902AA039800F0DEF834
:10172000044602A9002000F070FC204610BC5DF8C1
:1017300014FB00000B20000802E008C8121F08C1BB
:10174000002AFAD170477047002001E001C1121F42
:10175000002AFBD1704700002DE9FF5F82B0002115
:10176000DDE90430020DDDF840B0034318D044F643
:101770001050A2F2FF3242431514119801281FD0D5
:10178000A5EB0B00401C5FEA000A4FF000064E4F2D
:10179000DFF83891B046504615D5CAF1000413E081
:1017A000119801244AA3012801D16FEA0B01029884
:1017B000119AC0E90031C0E9024206B0BDE8F09FCD
:1017C000CBF10000DFE704460021404A491842EB14
:1017D0000450CDE9001012E0E00707D032463B4646
:1017E00040464946FEF719FE8046894632463B464A
:1017F00010461946FEF711FE06460F466410002CEF
:10180000EAD1DDE90401DDE90023BAF1000F06DACF
:10181000FEF703FE42464B46FEF7FFFD05E0FEF7EE
:101820006EFE42464B46FEF76AFE04460E46002216
:10183000284BFEF7EBFE03D84FF0FF30014607E0E0
:101840000022254B20463146FEF740FDFEF7C6FE3E
:10185000102409E0002C0ADB0A220023FEF7CEFC4C
:10186000039B30321A55641E50EA0102F2D1641C07
:10187000039AC4F111031444119A012A03D00122DE
:1018800008430DD10AE0084304D000204FF0110BAB
:10189000119072E7A3EB0B056D1E0DE05B4504DDB7
:1018A0004FF0000205F1010504E003DA4FF00002F9
:1018B000A5F10105002AECD002981199C0E9023186
:1018C000C0E9004579E70000000014400000F03F47
:1018D000300000000000F0430000E03F2DE9FF4F22
:1018E00095B09B468946064600250FE2252877D10C
:1018F00000242746F84A0121059400E0044316F825
:10190000013F203B01FA03F01042F7D130782A283A
:1019100011D06FF02F033078A0F13002092A16D8C9
:10192000059A44F0020402EB820203EB42021044E7
:10193000761C0590EFE759F8042B0592002A03DA8C
:10194000504244F40054059044F00204761C307870
:101950002E2816D116F8010F44F004042A280DD0C1
:101960006FF02F023078A0F13003092B09D807EB74
:10197000870302EB4303C718761CF3E759F8047B8F
:10198000761C30786C280FD006DC4C2817D06828DD
:101990000DD06A2814D104E0742810D07A280FD111
:1019A0000DE044F400140AE044F4801401E044F42F
:1019B00040147278824202D104F58014761C761CA1
:1019C000307866280BD013DC582877D009DC002843
:1019D00075D04528F6D04628F4D047281AD19DE185
:1019E00018E0632835D0642879D0652812D195E1B4
:1019F000702873D008DC6728F1D069286FD06E2872
:101A00000DD06F2806D1B5E073282CD0752875D07D
:101A1000782874D05A46179990476D1C75E1C4F325
:101A20000250022809D003280DD0D9F8001004284C
:101A30000DD00D6009F1040967E1D9F80010EA172B
:101A4000C1E90052F6E7D9F800100D80F2E70D70F9
:101A5000F0E719F8041B8DF8001000208DF8010044
:101A6000EA46012003E059F804AB4FF0FF3061076C
:101A70004FF0000102D40DE008F101018846B9429F
:101A80000FDA8045F8DB1AF808100029F4D108E0D5
:101A900008F1010188468142FADB1AF80810002992
:101AA000F6D105985B46A0EB080721463846179A01
:101AB00000F094FA284400EB080507E04DE029E126
:101AC0000DE01AF8010B5A4617999047B8F1010832
:101AD000F7D25B4621463846179A13E142E00A22C4
:101AE0000092C4F302524FF0000A022A08D059F8BB
:101AF00004CB032A4FEAEC710AD00DE029E02AE07A
:101B000009F1070121F00702F2E802C1914609E05C
:101B10000FFA8CFC4FEAEC71042A03D14FFA8CFCCB
:101B20004FEAEC71002907DA0A460021DCF1000CCB
:101B300061EB02012D2202E0220504D52B228DF853
:101B40000420012203E0E20701D02022F7E79046BB
:101B500059E00A2102E010220DE010214FF0000AA6
:101B600000910BE010224FF0000A44F00404082713
:101B7000009203E008224FF0000A0092C4F30252E0
:101B8000022A05D059F804CB0021032A08D009E025
:101B900009F1070121F00702F2E802C1914605E0D0
:101BA0001FFA8CFC042A01D10CF0FF0C4FF0000846
:101BB000220728D5702806D0009B83F0100353EA33
:101BC0000A0305D00EE040228DF80420012208E02F
:101BD0005CEA010206D030228DF804208DF8050061
:101BE00002229046009B83F0080353EA0A030AD1BD
:101BF0005CEA010201D1620705D530228DF804208C
:101C00004FF001087F1E582804D034A003900EA87E
:101C100002900DE036A0F9E753466046009AFEF7C1
:101C2000EDFA84460398825C0298401E029002708E
:101C30005CEA0100F0D1029806A9081A00F1200A16
:101C4000600702D524F4803400E00127574502DD07
:101C5000A7EB0A0000E0002000EB0A0100900598C5
:101C60004144401A0590E00306D45B462146179A8A
:101C7000059800F0B3F90544002706E001A85A468C
:101C8000C05D179990476D1C7F1C4745F6DBE0034C
:101C90000CD55B462146179A059800F09FF905443C
:101CA00004E030205A46179990476D1C0099481E51
:101CB00000900029F5DC08E0029802995A46007865
:101CC000491C0291179990476D1CBAF10001AAF1C5
:101CD000010AF1DC65E100000928010030313233EE
:101CE0003435363738396162636465660000000058
:101CF0003031323334353637383941424344454642
:101D00000000000000F058F90544761C30780028E7
:101D10007FF4ECAD19B02846BDE8F08F620700D41F
:101D2000062709F1070222F0070CFCE80223E1462E
:101D300003F000485FEA080C02D00FF2702C0DE0AF
:101D40005FEA045C02D50FF2682C07E05FEAC47C0E
:101D500002D00FF2602C01E0AFF2700C4FF0FF38B0
:101D600023F00043CDF850C065280CD006DC452890
:101D700009D046281DD047283DD13DE0662818D01F
:101D800067287ED138E00021112F01DB112000E00F
:101D9000781CCDE9000106A90EA8FFF7DDFCDDE9FE
:101DA0000F010E9A03910021009207F1010A04919C
:101DB0004DE04FF000400097CDE9011006A90EA8B4
:101DC000FFF7CAFCDDE90F0203920E9B1199002276
:101DD000DDF80CA00093049211B9791C00EB010A04
:101DE000B7EB0A0004D4C0F1FF3007F1010A0490F8
:101DF000AAEB0700019044E0012F00DA012700213F
:101E0000112F01DD112000E03846CDE9000106A9BF
:101E10000EA8FFF7A1FCDDE90F010E9A0391002146
:101E200004910092BA4621070CD40399514500DA77
:101E30008A46BAF1010F05DD009AAAF10101515C51
:101E4000302908D0B84202DA10F1040F06DA012175
:101E5000CDE9011015E0AAF10101E9E7002805DC50
:101E6000049901440491AAEB000102E0411C514590
:101E700000DD8A460499401A401C01904FF0004052
:101E80000290200704D40198504501DBCDF804806E
:101E900000208DF84F0002980DF14F07B0F1004F70
:101EA00025D02B200E9002984FF0020800280CDA63
:101EB000404202902D200E9007E00A210298FEF782
:101EC00087F93031029007F8011DB8F10001A8F13F
:101ED0000108F2DC02980028EFD1791E0E980870F4
:101EE000307800F0200040F0450007F8020D12A8FD
:101EF000C01B00F107081498007800B1012000EB26
:101F00000A01019801EBE07105984144401A401E16
:101F10000590E00306D45B462146179A059800F029
:101F20005DF805441498007818B15A4617999047FF
:101F30006D1CE00324D55B462146179A059800F0F6
:101F40004DF805441CE00498002807DBDDE9030197
:101F5000884203DD0098405C179901E01799302012
:101F60005A469047049805F10105401C04900198D9
:101F7000401E019004D12E205A46179990476D1C9F
:101F8000BAF10001AAF1010ADDDC05E017F8010B46
:101F90005A46179990476D1CB8F10001A8F1010845
:101FA000F4DC5B462146179A0598ABE62D0000004D
:101FB0002B000000200000002DE9F0410446002520
:101FC0001E461746880404D405E039462020B04751
:101FD0006D1C641EF9D52846BDE8F0812DE9F0415D
:101FE000044600251E469046C80301D5302700E070
:101FF0002027880404D505E041463846B0476D1CCB
:10200000641EF9D52846BDE8F0810A68531C0B60B0
:1020100010707047012001490870704701000020CE
:1020200010B50420FFF740F94FF0E020006940F0C0
:1020300001004FF0E02108614720486110BD4FF4D6
:102040007A7148434FF0E021096941F001014FF0F6
:10205000E022116107E000BF4FF0E021096901F4BF
:1020600080310029F8D0011EA0F10100F3D14FF01A
:10207000E021096921F001014FF0E0221161704770
:102080004FF0E021096941F001014FF0E0221161B8
:1020900007E000BF4FF0E021096901F48031002919
:1020A000F8D0011EA0F10100F3D14FF0E021096941
:1020B00021F001014FF0E0221161704700F00EF8AD
:1020C0006420FFF7BCFFFFF7A5FF6420FFF7B7FF11
:1020D0000020FEF744FE00BFFEE7000010B54FF4FD
:1020E000A060FEF72DFEFFF79BFFFEF7D1FD00F08D
:1020F0000FF8FEF7FDFFFEF773FCFEF74DFEFFF74E
:1021000041FA01200149087010BD000000000020C4
:1021100000B587B001218803FEF76EFF012104207E
:10212000FEF76AFF4FF40070ADF8180003208DF839
:102130001A0018208DF81B0006A91A48FEF74CFB60
:102140004FF48060ADF8180004208DF81B0006A93C
:102150001448FEF741FB25208DF8040003208DF87C
:1021600005008DF8060001208DF8070001A8FEF794
:10217000AFFD4FF4E13002900020ADF80C00ADF857
:102180000E00ADF81000ADF814000C20ADF81200F0
:1021900002A90548FFF740FA01210348FFF730FA8A
:1021A00007B000BD000801400038014000000000F9
:1021B00000000000002F00000000070007000014CE
:1021C0007F147F1400242A7F2A12006264081323DC
:1021D00000364955225000000503000000001C2273
:1021E0004100000041221C000014083E08140008B1
:1021F000083E0808000000A0600000080808080861
:10220000000060600000002010080402003E5149F8
:10221000453E0000427F4000004261514946002196
:1022200041454B31001814127F10002745454539B0
:10223000003C4A494930000171090503003649490B
:10224000493600064949291E0000363600000000C4
:10225000563600000008142241000014141414140F
:1022600000004122140800020151090600324959B8
:10227000513E007C1211127C007F49494936003ED4
:1022800041414122007F4141221C007F494949418F
:10229000007F09090901003E4149497A007F080889
:1022A000087F0000417F4100002040413F01007F46
:1022B00008142241007F40404040007F020C027F12
:1022C000007F0408107F003E4141413E007F090924
:1022D0000906003E4151215E007F0919294600464A
:1022E000494949310001017F0101003F4040403F21
:1022F000001F2040201F003F4038403F006314086B
:102300001463000708700807006151494543000045
:102310007F41410000552A552A55000041417F0068
:10232000000402010204004040404040000001025D
:102330000400002054545478007F48444438003846
:102340004444442000384444487F003854545418CE
:1023500000087E0901020018A4A4A47C007F0804E0
:1023600004780000447D4000004080847D00007FB0
:10237000102844000000417F4000007C04180478CD
:10238000007C0804047800384444443800FC2424C9
:1023900024180018242418FC007C080404080048B1
:1023A0005454542000043F444020003C4040207CD2
:1023B000001C2040201C003C4030403C00442810C1
:1023C0002844001CA0A0A07C004464544C44141475
:1023D00014141414000000000000000000000000AD
:1023E00000000000000000F80000000000000033C2
:1023F0003000000000100C06100C06000000000069
:102400000000000040C07840C0784000043F040451
:102410003F040400007088FC08300000001820FF12
:10242000211E0000F008F000E018000000211C034D
:102430001E211E0000F00888700000001E212324C9
:102440001927211010160E000000000000000000E7
:1024500000000000000000E0180402000000000777
:102460001820400000020418E0000000004020187E
:1024700007000000404080F0804040000202010F51
:1024800001020200000000F0000000000101011F35
:1024900001010100000000000000000080B0700099
:1024A0000000000000000000000000000001010129
:1024B00001010101000000000000000000303000B8
:1024C0000000000000000000806018040060180692
:1024D0000100000000E010080810E000000F1020CC
:1024E00020100F00001010F8000000000020203F16
:1024F00020200000007008080888700000302824A0
:102500002221300000300888884830000018202040
:1025100020110E000000C02010F800000007042465
:10252000243F240000F808888808080000192120AA
:1025300020110E0000E0108888180000000F112004
:1025400020110E0000380808C83808000000003FBD
:10255000000000000070880808887000001C22211C
:1025600021221C0000E010080810E00000003122C9
:1025700022110F00000000C0C00000000000003069
:1025800030000000000000800000000000008060BB
:10259000000000000000804020100800000102043C
:1025A0000810200040404040404040000404040423
:1025B00004040400000810204080000000201008DF
:1025C00004020100007048080808F0000000003014
:1025D00036010000C030C828E810E00007182724A2
:1025E00023140B000000C038E0000000203C230250
:1025F0000227382008F8888888700000203F2020B3
:1026000020110E00C03008080808380007182020E4
:102610002010080008F808080810E000203F2020DB
:1026200020100F0008F88888E8081000203F2020BC
:102630002320180008F88888E8081000203F2000B0
:1026400003000000C03008080838000007182020E8
:10265000221E020008F808000008F808203F2101A7
:1026600001213F20000808F8080800000020203F52
:102670002020000000000808F8080800C0808080C2
:102680007F00000008F888C028180800203F2001BB
:102690002638200008F8080000000000203F202015
:1026A0002020300008F8F800F8F80800203F003F2C
:1026B000003F200008F830C00008F808203F200044
:1026C00007183F00E01008080810E0000F10202055
:1026D00020100F0008F808080808F000203F21012A
:1026E00001010000E01008080810E0000F18242481
:1026F00038504F0008F8888888887000203F2000F4
:10270000030C3020007088080808380000382021A9
:1027100021221C00180808F8080818000000203FB3
:102720002000000008F808000008F808001F20201A
:1027300020201F000878880000C8380800000738EB
:102740000E010000F80800F80008F800033C07003C
:10275000073C0300081868808068180820302C03A4
:10276000032C30200838C800C83808000000203F7B
:102770002000000010080808C8380800203826216A
:1027800020201800000000FE020202000000007F6E
:1027900040404000000C30C000000000000000017C
:1027A0000638C00000020202FE0000000040404067
:1027B0007F0000000000040202020400000000008C
:1027C0000000000000000000000000008080808009
:1027D00080808080000202040000000000000000F1
:1027E000000000000000808080800000001924228A
:1027F00022223F2008F8008080000000003F1120C6
:1028000020110E000000008080800000000E1120CA
:1028100020201100000000808088F800000E1120A8
:1028200020103F200000808080800000001F2222B6
:1028300022221300008080F0888888180020203F22
:10284000202000000000808080808000006B949435
:102850009493600008F8008080800000203F2100F1
:1028600000203F2000809898000000000020203FBA
:1028700020200000000000809898000000C08080A8
:10288000807F000008F8000080808000203F240244
:102890002D302000000808F8000000000020203F34
:1028A000202000008080808080808000203F2000E9
:1028B0003F20003F8080008080800000203F21007A
:1028C00000203F200000808080800000001F20202A
:1028D00020201F00808000808000000080FFA12059
:1028E00020110E000000008080808000000E11206A
:1028F00020A0FF80808080008080800020203F21F9
:1029000020000100000080808080800000332424AB
:1029100024241900008080E0808000000000001F57
:10292000202000008080000000808000001F202008
:1029300020103F20808080000080808000010E30C9
:102940000806010080800080008080800F300C032A
:102950000C300F0000808000808080000020312E2D
:102960000E312000808080000080808080818E7009
:102970001806010000808080808080000021302CBB
:102980002221300000000000807C020200000000D4
:10299000003F404000000000FF0000000000000079
:1029A000FF0000000002027C800000000040403F69
:1029B0000000000000060101020204040000000003
:1029C00000000000E429000800000020FC040000D2
:1029D0007C070008A02B0008FC0400200404000071
:1029E00048170008612D01020304040009130607BB
:1029F0000809020406080413809243500B3090101B
:102A00005214F008081810400D04444425120E0317
:102A10000A123262021EF01010F0400145FC4440E0
:102A2000401D1F09091F6D7420631C154042FC20C6
:102A30004640404CC8A0480E080C04223F1010111C
:102A400012100E090885500A4040C0704C2020E04A
:102A500020162010080403852060380F600908F84C
:102A6000A8A898447C18180D20202C203F20203F37
:102A700024222220322A80011E88888848488451D6
:102A80001B18063E1A3FA92A0C5F100A03050911FC
:102A9000FF118905C312E012F072F8073D4428FFC8
:102AA00011AA44700B830138448292927401831EF0
:102AB0007C44C7017D01990562FF9A0102818A0168
:102AC0000B013669419949FA0101A12A4001212AE5
:102AD0006D01212A6001791501642ADB01091507BE
:102AE0002ADA01212AD801212AC0010915072A80E2
:102AF0000101352A06010918071CE66620076A86C7
:102B0000157A861C2A8601180A80808686068686A3
:102B1000C0C00C0E1C0606D030764D2907013113BB
:102B2000601C12FE1301021009C41820029E63B239
:102B30000E1DFF8181FFF24440300F12FF18092360
:102B4000EAAABFAAEA033F0B012DBC8080800801DE
:102B500015240E0C082A01013149041D8180808151
:102B6000021901B91706110101090C0E0A14C0015E
:102B70002178081E21404050215E08012A4DFFFFA8
:102B8000C1C10409232D101680FCF3EFF3FC80FF74
:102B900080EEEEEEF5FBFF9CBEB6B688FF000000AF
:04000005080000ED02
:00000001FF
