:020000040000FA
:10000000104800206D020000810200008302000001
:10001000850200008502000085020000000000004B
:100020000000000000000000000000008502000049
:10003000850200000000000085020000850200002B
:100040008502000085020000850200008502000094
:100050008502000085020000850200008502000084
:100060008502000085020000850200008502000074
:100070008502000085020000850200008502000064
:100080008502000085020000850200008502000054
:100090008502000085020000850200008502000044
:1000A0008502000085020000850200008502000034
:1000B0008502000085020000850200008502000024
:1000C0008502000085020000850200008502000014
:1000D0008502000085020000850200008502000004
:1000E000850200008502000000000000850200007B
:1000F00085020000850200008502000085020000E4
:1001000085020000850200008502000085020000D3
:1001100000000000000000008502000085020000D1
:1001200085020000850200008502000085020000B3
:1001300085020000850200008502000085020000A3
:1001400000000000000000000000000000000000AF
:100150008502000085020000850200008502000083
:10016000000000000000000000000000000000008F
:10017000000000000000000000000000000000007F
:10018000000000000000000000000000000000006F
:10019000000000000000000000000000000000005F
:1001A000000000000000000000000000000000004F
:1001B0008502000085020000850200008502000023
:1001C0008502000085020000850200008502000013
:1001D0008502000085020000850200008502000003
:1001E000850200008502000085020000000000007A
:1001F000000000008502000085020000850200006A
:1002000085020000850200000000000000000000E0
:1002100085020000850200008502000085020000C2
:1002200085020000850200008502000085020000B2
:1002300085020000850200008502000085020000A2
:100240008502000085020000850200008502000092
:100250008502000085020000850200008502000082
:100260008502000085020000850200004EF68850DD
:10027000CEF20000016841F47001016000F004B8A2
:10028000FEE7FEE7FEE7000000F002F800F069F884
:100290000AA090E8000C82448344AAF10107DA45E1
:1002A00001D100F05EF8AFF2090EBAE80F0013F0CA
:1002B000010F18BFFB1A43F001031847D4C7010010
:1002C000F4C701000A444FF0000C10F8013B13F092
:1002D000070408BF10F8014B1D1108BF10F8015B9F
:1002E000641E05D010F8016B641E01F8016BF9D192
:1002F00013F0080F1EBF10F8014BAD1C0C1B09D1E9
:100300006D1E58BF01F801CBFAD505E014F8016B5A
:1003100001F8016B6D1EF9D59142D6D370470000EC
:100320000023002400250026103A28BF78C1FBD8FE
:10033000520728BF30C148BF0B607047662919F0CB
:10034000A280002070471FB519F093F800F060FB01
:1003500004000020002118F0F9F9E0601FBD10B57D
:1003600010BD00F071FC1146FFF7EDFF16F0E0FC48
:1003700000F08FFC03B4FFF7F2FF03BC15F022FB83
:10038000EFF3108072B67047EFF310807047EFF311
:10039000108062B6704730BF704780F31188704795
:1003A000EFF31180704700000138FDD17047000065
:1003B00002480349014A034B7047000010460020E1
:1003C0001048002010460020704700000FB4044978
:1003D00010B503AA029800F009FB10BC5DF814FBED
:1003E000C40300202DE9F0410E460446002020629F
:1003F0002046E168884730B3252805D0D4E901219B
:100400009047206A401CF2E7E168204600278847B1
:10041000050018D0A5F14100192802D820354FF465
:1004200000673246294620462760FFF787FF40B124
:10043000012804D0F61D26F007060836D8E7361D39
:10044000D6E72846DAE7206ABDE8F0810649074A80
:100450000868504343F2390210440860C0F30E406C
:100460007047014908607047140B00206D4EC6416B
:10047000032A40F2308010F0030C00F0158011F8D0
:10048000013BBCF1020F624498BF11F801CB00F8A8
:10049000013B38BF11F8013BA2F1040298BF00F8FC
:1004A00001CB38BF00F8013B11F0030300F02980B5
:1004B000083AC0F0088051F8043B083A51F804CBE0
:1004C000A0E80810F5E7121D5CBF51F8043B40F8A6
:1004D000043BAFF30080D20724BF11F8013B11F8B1
:1004E00001CB48BF11F8012B24BF00F8013B00F8F5
:1004F00001CB48BF00F8012B704701B5FFF7B8FFEB
:1005000001BD10B5203AC0F00B80B1E81850203A78
:10051000A0E81850B1E81850A0E81850BFF4F5AFA3
:100520005FEA027C24BFB1E81850A0E8185044BF2D
:1005300018C918C0BDE810405FEA827C24BF51F89A
:10054000043B40F8043B08BF7047D20728BF31F88E
:10055000023B48BF11F8012B28BF20F8023B48BFDF
:1005600000F8012B70474FF0000200B51346944687
:100570009646203922BFA0E80C50A0E80C50B1F1FB
:100580002001BFF4F7AF090728BFA0E80C5048BF0F
:100590000CC05DF804EB890028BF40F8042B08BFAD
:1005A000704748BF20F8022B11F0804F18BF00F8A9
:1005B000012B7047704770477047704710B500F0C7
:1005C0002BFA006810BD10B5044600F025FA04604F
:1005D00010BD70472DE9FF4F0C461E464FF0FF3708
:1005E0008BB0D2E90001DDF860800A908A46C1F341
:1005F0000A5505B93D46002108464FF00000BAF102
:10060000000F00F4400005DA00EB80004FF44001D9
:1006100001EA50004FEA9059B9F1010F00DDB946E7
:100620000A9850EA4A000ED044F61050A5F2FF3561
:1006300045432F14B8F1000F1ED07542291E1EDD50
:10064000C9F100021CE0B8F1010F4FF0000001D029
:10065000302103E0F24305E02154401CB042FBDBB3
:1006600030460022002121540B99C1F80880C1E9CD
:1006700000200FB0BDE8F08FBD1B6D1CDEE74A46C1
:1006800000DA694206A800F069FA06AB93E80700B1
:1006900003AB83E8070050460A9900F041FB8DE860
:1006A0000700A0F500501F3800900398002D09DDC9
:1006B00042F21F014A46084403A90390684600F02D
:1006C000A0FD08E0A0F500504A461F3803A903909A
:1006D000684600F0AAFD8DE807000004000C03D076
:1006E0004FF0FF30410800E01046B8F1000F03D092
:1006F0000022009215461EE0751E05D400F090F908
:10070000303262556D1EF9D5B3460122084302D03E
:1007100000227F1C04E02078302801D100227F1EB7
:10072000002A099786D01DE0112D07DA00F078F92C
:10073000303262556D1C50EA0102F5D1084302D0F7
:100740000098C8B10EE00021681E05E0235C625CE1
:1007500063542254401E491C8142F7DBAB46A81B60
:10076000401E0990002004F80B000B98099AC0F86D
:100770000880C0E9002B7CE711264FF0000859E7FC
:100780002DE9F04F88460446D21D22F0070191B0B2
:10079000D1E90001CDE90A0112F0B8FB02460B983D
:1007A000C00F01D02D2007E02068810701D52B2044
:1007B00002E0202101EAC000032A099001D0072AA3
:1007C00005DB03464146204600F088F90BE120781E
:1007D000800601D5E06900E00620B8F1650F81468A
:1007E00006D0B8F1660F18D0B8F1670F70D131E0BC
:1007F0000020B9F1110F009001DB112301E009F194
:1008000001030AAA01A90CA8FFF7E4FEDDE90C70B8
:10081000002609F10105834647E001204B46009080
:100820004FF000470AAA01A90CA8FFF7D3FEDDE9A3
:100830000DB00C995D46002610B909F101000D18A4
:10084000B9EB050003D4C0F1FF3609F10105A5EBB2
:1008500009002BE0B9F1010F01DA4FF00109002086
:10086000B9F1110F0090484601DD112300E0034665
:100870000AAA01A90CA8FFF7ADFEDDE90C704D46F0
:1008800000268346207800070AD4AB4500DA5D468F
:1008900001A8012D04DD411911F8011C302907D0F0
:1008A0004F4502DA17F1040F04DA012082460FE007
:1008B0006D1EEEE7002F02DCED1B3E4403E0781CCA
:1008C000A84200DD7D1CB81B00F1010A4FF0004773
:1008D0002078000703D4AA4501DB4FF0FF3A00213E
:1008E000B7F1004F0DF143088DF8431024D00220DA
:1008F0002B23002F01DA7F422D230A21021EA0F1B3
:10090000010000DC5FB197FBF1FC97FBF1F201FB0A
:100910001C7C17460CF1300C08F801CDEEE7A8F16D
:10092000010003702188090501D5452100E06521FA
:10093000A0F1010800F8011C09980FA9A1EB080714
:10094000FF1D00B10120411901EBEA70A169384493
:10095000081A401EA0612078C00602D42046AFF3DA
:100960000080099828B1D4E901219047206A401CF1
:1009700020622078C00622D52046AFF300801EE01A
:10098000002E04DBB34502DD01A8805D00E03020CD
:10099000D4E901219047206A401C2062761CAAF10C
:1009A00001005FEA000A0AD100F032F8C06801686D
:1009B000405CD4E901219047206A401C2062281E37
:1009C000A5F10105DCDC07E0D4E9012118F8010BF1
:1009D0009047206A401C2062381EA7F10107F3DC13
:1009E0002046AFF30080032011B043E6074B70B5FB
:1009F0000D467B4400F05FF80446284600F01CF9E1
:100A000010B14FF0FF3070BD204670BDC3510100E2
:100A100000487047D045002000487047B04500208E
:100A200030B5B0F10A024FEA900E71F100034EEAC0
:100A3000817EB0EB0E0061EB91014FEA101E4EEA91
:100A4000017E10EB0E0041EB11114FEA102E4EEA21
:100A5000016E10EB0E0041EB11214FEA104E4EEAF1
:100A6000014E10EB0E0041EB1141401841F1000125
:100A70004FEAD00040EA41704FEAD10110EB800507
:100A80004FEA810444EA907444EB01046D1944EB8D
:100A90000404521BA3414FF0000348BF0A3200D5A3
:100AA00030BD401C41F1000130BD000001694A1C0D
:100AB00002610878704700B58FB0CDE9013100219F
:100AC000059105497944CDE9031011466846FFF7C1
:100AD00089FC0FB000BD0000E5FFFFFF2DE9F041EC
:100AE0001F46044603260168072A01F4006004DB60
:100AF00008B116A505E016A503E008B115A500E0AC
:100B000015A521F010002060A069C01EA0610FB1E2
:100B1000401EA0612046AFF300804FB1D4E901210F
:100B200038469047206A401C2062C01C206206E0C4
:100B3000206AFAE7D4E9012115F8010B9047761EE7
:100B4000F8D22046AFF30080BDE8F0814E414E0060
:100B50006E616E00494E4600696E66002DE9F047F1
:100B6000814616468AB0334878440DC88DE80D009A
:100B700030487844801C03AC0DC884E80D0041F671
:100B80009B300844372190FBF1F290FBF1F5A5F181
:100B9000800501FB12041B3C02D56442012000E0E9
:100BA0000020DFF890A080460027FA44AAF1BE0A90
:100BB0000DE0E00709D03246684607EB47010AEB33
:100BC000810100F032FB8DE8070064107F1C002CCF
:100BD000EFD1184F7F44AC3F18E0E80714D007EB83
:100BE00004100DF1180A90E80E008AE80E00C068A3
:100BF000F04201D198190890324606A903A800F0E6
:100C000014FB03AB83E807006D10641C002DE4D1D6
:100C100032466946B8F1000F03A802D000F0F1FA9D
:100C200001E000F002FBC9E90001C9F808200AB0A0
:100C3000BDE8F087F8BE0100007B00F0800070473F
:100C400000487047B04500207546FFF7F9FFAE46F3
:100C500005006946534620F00700854618B020B5C8
:100C6000FFF7A6FBBDE820404FF000064FF000075D
:100C70004FF000084FF0000B21F00701AC46ACE844
:100C8000C009ACE8C009ACE8C009ACE8C0098D46B1
:100C900070470446AFF300802046FFF76BFB00006F
:100CA0004FF0013C50F8042B51F8043B9A4221D1FB
:100CB000A2EB0C03934313EACC1317D150F8042B87
:100CC00051F8043B9A4215D1A2EB0C03934313EA6B
:100CD000CC130BD150F8042B51F8043B9A4209D1A4
:100CE000A2EB0C03934313EACC13DBD04FF00000CC
:100CF000704700BFD01A01BAB1FA81F101F01801B2
:100D000022FA01F0CB40C1F12001DBB2C0B2C01A1F
:100D10002CFA01F3D11A914311EAC311E6D17047BD
:100D20005FEA400C08BF91F0000F4FEA8C234FEAB6
:100D3000C12243EA51514FEA1C5018BF00F5F04060
:100D40004FEA300018BF41F000415FEA6C5C00F0F0
:100D50002980BCF1FF3F08BF40F080407047130C72
:100D600006BF12044FF0100C4FF0000C130E04BF1E
:100D700012020CF1080C130F04BF12010CF1040C49
:100D8000930F04BF92000CF1020CD30F04BF52006A
:100D90000CF1010C11464FF00002A0F11F00A0EB76
:100DA0000C00704711F0004F08BF704731F0004150
:100DB0003FF4D5AF0B0C06BF09044FF0100C4FF0F9
:100DC000000C0B0E04BF09020CF1080C0B0F04BF42
:100DD00009010CF1040C8B0F04BF89000CF1020C0B
:100DE000CB0F04BF49000CF1010CCCF12003A0EBA8
:100DF0000C0022FA03F302FA0CF241EA030100F1BB
:100E00000100704720F07F4C80EA030023F07F4709
:100E1000ACEB070303F57C5300F0004003F1FF0344
:100E20002DE980494FEA154B09B44FEA144325EAEE
:100E30000B4E24EA03480FF2042606EB1327490859
:100E40003E785FEA320203FB0667C7F5000707FB3F
:100E500006F64FEA54374FEAD64606F1020607FB7C
:100E6000066CCCF1005C4FEA1C472CEA074C07FBF0
:100E700006F40CFB06F504EB15464FEA961634BF54
:100E800000204FF000404FEAD13706FB07FC4FEA45
:100E90001C4C0CFB0BF7D21B03FB0CF761EB07019F
:100EA0000CFB0EF7B0EB074072EB17420CFB08F798
:100EB00034BFA2EB0742B2EB074261EB17414FEAA6
:100EC0000C444FEA910706FB07FC4FEA1C4C0CFB55
:100ED0000BF7B0EBC74072EB573203FB0CF734BF94
:100EE000A2EBC742B2EBC74261EB57310CFB0EF7E6
:100EF000B0EBC70072EB57720CFB08F734BFA2EBE4
:100F0000C702B2EBC70261EB5771039F4FEA8161E1
:100F100041EA921104EBCC044FEAD1374FEA8262E6
:100F200006FB07FC42EA90124FEA80604FEA1C4C35
:100F30000CFB0BF7D21B03FB0CF761EB07010CFB5F
:100F40000EF7B0EB074072EB17420CFB08F734BF0B
:100F5000A2EB0742B2EB074261EB17414FEA8C5517
:100F60004FEA910704EB9C2406FB07FC4FEA1C4C5C
:100F70000CFB0BF7B0EBC74072EB573203FB0CF7DF
:100F800034BFA2EBC742B2EBC74261EB57310CFB57
:100F90000EF7B0EBC70072EB57720CFB08F734BFCB
:100FA000A2EBC702B2EBC70261EB577115EB4C2500
:100FB0004FEA816141EA92114FEA82624FEAD137EA
:100FC00042EA901206FB07FC44F100044FEA8060FD
:100FD0004FEA1C4C0CFB0BF7D21B03FB0CF761EB2D
:100FE00007010CFB0EF7B0EB074072EB17420CFB4E
:100FF00008F734BFA2EB0742B2EB074261EB17419F
:1010000015EB1C154FEA813141EA92414FEA8232D9
:1010100042EA90424FEA80304FEA0C7644F10004F5
:1010200048EA03434EEA0B484FF0000EB2EB080CBF
:1010300071EB030724BF624639464EEB0E0E4FF0AC
:10104000000B0018524149414BEB0B0BB2EB080C63
:1010500071EB03077BF1000B24BF624639464EEB70
:101060000E0E4FF0000B0018524149414BEB0B0B99
:10107000B2EB080C71EB03077BF1000B24BF624657
:1010800039464EEB0E0E51EA020718BF46F0010634
:1010900016EB0E7655F1000254F1000103D5BDE8C0
:1010A0008901BDE80088BDE88901BDE80048B6199E
:1010B000524141EB0101A3F10103704780807F7E23
:1010C0007D7C7B7A797877767675747372717170BE
:1010D0006F6E6E6D6C6C6B6A6A6968686766666570
:1010E0006464636362616160605F5F5E5E5D5D5CFE
:1010F0005C5B5B5A5A59595858575756565555556F
:101100005454535352525251515050504F4F4F4ECE
:101110004E4D4D4D4C4C4C4B4B4B4A4A4A4949491C
:10112000484848474747474646464545454444445E
:10113000444343434342424242414141002B26D46F
:10114000770021D01CB54FEA370703B44FF01000E9
:101150004FF010014FF000000FBCBDE810400BF144
:10116000010BBBF1010F08BF5FEA170722BF12F1A5
:10117000010211F101014FF0004143F1000300F0C1
:10118000004043EA00007047F9D35708DAE746EA1F
:10119000064613F1400F4FEA16461FDD13F1200FEC
:1011A000DFBF16430A46002120335B42C8D0C3F19B
:1011B000200746EA064602FA07F74FEA164646EACD
:1011C0000706C3F1200722FA03F201FA07F721FA12
:1011D00003F14FF0000342EA0702B1E746EA0206D4
:1011E00046EA06464FEA164646EA0106BCBF46EA0C
:1011F0000646360C4FF000034FF000024FF000019E
:101200009EE72DE9C048934630B491E8380007C8FE
:1012100031EA400C48BF34EA430C03D5FFF7F2FD36
:10122000FFF78CFFF0BCBDE800882DE9C04893466D
:1012300030B491E8380007C810F0804F08BF13F0B1
:10124000804F03D100F005F8FFF778FFF0BCBDE850
:10125000008820F07F4780EA030023F07F4C07EBF3
:101260000C03A3F57C5300F00040A3F1FE0392F0C1
:10127000000F00F0B38095F0000F00F077802DE9AB
:1012800001494FEA11404FEA144621EA004800FBA9
:1012900006FC24EA064708FB06F607FB08F800FBF5
:1012A00007F718EB06484CEB164C4FEA124B18EBBD
:1012B00007484FEA15464CEB174022EA0B4E0BFB52
:1012C00006FC25EA06470EFB06F607FB0EFE0BFBA7
:1012D00007F71EEB064E4CEB164C4FF000061EEBCC
:1012E000074E4CEB174B18EB0B0840F1000018EBC6
:1012F0000E0B58EB000840F100008F1A4FF0000170
:101300003CBFC943661B14BFB5EB040C00213CBFB6
:10131000C943F61B4FEA17444EEA8E0E27EA0445EE
:101320004FEA1C4704FB07622CEA074C05FB07F752
:101330000CFB05F604FB0CFC16EB074642EB1742D0
:1013400016EB0C4642EB1C421BEB060658EB020266
:10135000414146EA9E0601D5BDE80189B6195241D0
:1013600041EB0101A3F10103BDE801894FEA1445F6
:101370004FEA114724EA054621EA074C05FB07F42A
:1013800006FB07F70CFB06F105FB0CFC11EB074114
:1013900044EB17444FEA124711EB0C4144EB1C4459
:1013A00022EA074C05FB07F206FB07F70CFB06F6E3
:1013B00005FB0CFC16EB074642EB174216EB0C46FE
:1013C00042EB1C456A1854F1000148BF7047B6193A
:1013D000524141EB0101A3F10103704795F0000F69
:1013E00037D04FEA11424FEA144721EA024624EA75
:1013F000074C02FB07F106FB07F70CFB06F402FBA8
:101400000CFC14EB074441EB17414FEA154714EB72
:101410000C4441EB1C4125EA074C02FB07F506FB97
:1014200007F70CFB06F602FB0CFC16EB074645EB38
:10143000174516EB0C4645EB1C42121951F1000101
:1014400048BF7047B619524141EB0101A3F10103B6
:1014500070474FEA14454FEA114724EA054621EA4E
:10146000074C05FB07F106FB07F70CFB06F24FF0F4
:10147000000605FB0CFC12EB074241EB174112EB97
:101480000C4251EB1C4148BF7047921841EB0101DF
:10149000A3F10103704701228A40C260704730B552
:1014A000034632B1DC684FF001158D4004EA0500B7
:1014B0000FE05C6801258D4045F4803504EA0500A5
:1014C00000F480342CB140F470204FF480348C4010
:1014D000A04330BD10B50A0C120401F00F04012323
:1014E000A3401A43836A1A43826210BD30B5890053
:1014F00044690F258D40AC4302F00F058D402C430D
:101500004461056A0F248C4025EA040403F00305B6
:101510008D402C43046230BD10B503464C0140346D
:101520002344002002E09C6810C2401CDC6804F4E4
:1015300080740CB90828F6D310BD026801238B40D3
:101540001A430260704770B50C4665014035284467
:10155000920005680F269640B54303F00F069640AB
:101560003543056086690F25954026EA0505C3F3D6
:10157000032696403543856146680F25954026EA47
:101580000505C3F3031696403543456003F4702503
:1015900075B141690F259540A943C3F302459540B4
:1015A000294341610669012595402E43066104E007
:1015B000066901259540AE43066170BD10B510481F
:1015C0000FF0CCFF00BF0E480FF0E2FF0028FAD06A
:1015D0000C480FF0C3FF08210B4804F0DBFF002389
:1015E0001A4619460948FFF781FF60230022114679
:1015F0000648FFF7A8FF00210448FFF79EFF10BD33
:10160000003800F0040800F0004002400080034071
:1016100003B589B000200790069006900AE006996D
:101620000998415C07980844C0B207900698401C8E
:10163000C0B206900A98401E06998842EFDCDDE9A8
:101640000901084410F8011C0798814201D00BB031
:1016500000BD09980078AA2803D109984078AF28DE
:1016600000D0F4E709988078012800D100BF0998DC
:10167000807802286BD109980079012833D1FE497E
:10168000087048708870C870087148710020022185
:10169000FA4A0346B6EE000ACDE900210290322252
:1016A0004FF47A71F64801F028FC00200421F34A37
:1016B0000346B6EE000ACDE90021029032224FF433
:1016C0007A71F04801F019FC00200821EB4A03462A
:1016D000B6EE000ACDE90021029032224FF47A7171
:1016E000E94801F00AFC09980079A1282FD10320CC
:1016F000E649087000200221E04A0346B6EE000ADF
:10170000CDE90021029032224FF47A71DC4801F0D9
:10171000F4FB00200421D94A0346B6EE000ACDE9C5
:101720000021029032224FF47A71D64801F0E5FB95
:1017300000200821D14A0346B6EE000ACDE9002177
:10174000029032224FF47A71CF4801F0D6FB09980B
:10175000807810287DD109980079000200B209999B
:1017600049790843019017F0B6FA9FEDC90B53EC85
:10177000102BCDE902019DED020B51EC100B17F07F
:1017800011FBCDE904019DED040B51EC100B16F09B
:10179000FFFFC149C1F81C0209988079000200B21C
:1017A0000999C9790843019017F095FA9FEDB80B94
:1017B00053EC102BCDE902019DED020B51EC100B07
:1017C00017F0F0FACDE904019DED040B51EC100B7C
:1017D00016F0DEFFB049C1F820020998007A000235
:1017E00000B20999497A0843019017F074FA9FED05
:1017F000AB0B53EC102BCDE902019DED020B51EC2C
:10180000100B17F0CFFACDE904019DED040B51EC5C
:10181000100B16F0BDFFA049C1F824020998807A88
:10182000000200B20999C97A0843019017F053FAEF
:101830009FED970B53EC102BCDE902019DED020BB0
:1018400051EC100B17F0AEFACDE904019DED040B3D
:1018500000E0B1E051EC100B16F09AFF8E49C1F890
:10186000CC000998007B000200B20999497B08432B
:10187000019017F030FA9FED860B53EC102BCDE959
:1018800002019DED020B51EC100B17F08BFACDE924
:1018900004019DED040B51EC100B16F079FF7E490D
:1018A000C1F8D0000998807B000200B20999C97B79
:1018B0000843019017F00FFA9FED780B53EC102BB3
:1018C000CDE902019DED020B51EC100B17F06AFA05
:1018D000CDE904019DED040B51EC100B16F058FFFF
:1018E0006D49C1F8D4000998007C000200B2099942
:1018F000497C0843019017F0EEF99FED650B53EC1E
:10190000102BCDE902019DED020B51EC100B17F0ED
:1019100049FACDE904019DED040B51EC100B16F0D2
:1019200037FF5D49C1F86C030998807C000200B262
:101930000999C97C0843019017F0CDF99FED540B2C
:1019400053EC102BCDE902019DED020B51EC100B75
:1019500017F028FACDE904019DED040B51EC100BB2
:1019600016F016FF4C49C1F870030998007D00027B
:1019700000B20999497D0843019017F0ACF99FED39
:10198000470B53EC102BCDE902019DED020B51ECFE
:10199000100B17F007FACDE904019DED040B51EC93
:1019A000100B16F0F5FE3C49C1F8740309988078D5
:1019B0000590079900F0EAFD0998807811285AD11E
:1019C00009980079000200B2099949790843019009
:1019D00017F081F99FED2E0B53EC102BCDE902018E
:1019E0009DED020B51EC100B17F0DCF9CDE9040171
:1019F0009DED040B51EC100B16F0CAFE2649C1F800
:101A0000740109988079000200B20999C9790843E4
:101A1000019017F060F99FED1E0B53EC102BCDE9F0
:101A200002019DED020B51EC100B17F0BBF9CDE953
:101A300004019DED040B51EC100B16F0A9FE1649A4
:101A4000C1F878010998007A000200B20999497A30
:101A50000843019017F03FF99FED100B53EC102B4A
:101A6000CDE902019DED020B51EC100B17F09AF934
:101A7000CDE9040116E0E7E0C80300200050024071
:101A80009C100020B0100020C41000207F02002015
:101A9000FCA9F1D24D62503F581400207B14AE4790
:101AA000E17A843F9DED040B51EC100B16F070FEB3
:101AB000FE49C1F87C010998807A000200B20999B8
:101AC000C97A0843019017F006F91FED0F0B53EC8C
:101AD000102BCDE902019DED020B51EC100B17F01C
:101AE00061F9CDE904019DED040B51EC100B16F0EA
:101AF0004FFEEE4948620998007B000200B2099946
:101B0000497B0843019017F0E6F81FED1F0B53ECDB
:101B1000102BCDE902019DED020B51EC100B17F0DB
:101B200041F9CDE904019DED040B51EC100B16F0C9
:101B30002FFEDE4988620998807B000200B2099975
:101B4000C97B0843019017F0C6F81FED2C0B53EC2E
:101B5000102BCDE902019DED020B51EC100B17F09B
:101B600021F9CDE904019DED040B51EC100B16F0A9
:101B70000FFECE49C8620998007C000200B20999A4
:101B8000497C0843019017F0A6F81FED3F0B53EC7A
:101B9000102BCDE902019DED020B51EC100B17F05B
:101BA00001F9CDE904019DED040B51EC100B16F089
:101BB000EFFDBE49C1F8C4020998807C000200B262
:101BC0000999C97C0843019017F085F81FED500B67
:101BD00053EC102BCDE902019DED020B51EC100BE3
:101BE00017F0E0F8CDE904019DED040B51EC100B6A
:101BF00016F0CEFDAD49C1F8C8020998007D00027B
:101C000000B20999497D0843019017F064F81FED6F
:101C10005D0B53EC102BCDE902019DED020B51EC55
:101C2000100B17F0BFF8CDE904019DED040B51EC4A
:101C3000100B16F0ADFD9D49C1F8CC0209988078D3
:101C40000590079900F0A2FC0998807812287DD1B0
:101C500009980079000200B2099949790843019076
:101C600017F039F81FED760B53EC102BCDE902017C
:101C70009DED020B51EC100B17F094F8CDE9040127
:101C80009DED040B51EC100B16F082FD8749C1F855
:101C9000BC0409988079000200B20999C979084307
:101CA000019017F018F81FED860B53EC102BCDE9BF
:101CB00002019DED020B51EC100B17F073F8CDE90A
:101CC00004019DED040B51EC100B16F061FD7749FA
:101CD000C1F8C0040998007A000200B20999497A53
:101CE0000843019016F0F7FF1FED940B53EC102BF7
:101CF000CDE902019DED020B51EC100B17F052F8EB
:101D0000CDE904019DED040B51EC100B16F040FDE4
:101D10006649C1F8C4040998807A000200B20999A2
:101D2000C97A0843019016F0D6FF1FEDA70B53ECBC
:101D3000102BCDE902019DED020B51EC100B17F0B9
:101D400031F8CDE904019DED040B00E0CCE051EC4D
:101D5000100B16F01DFD5549C1F814040998007BBD
:101D6000000200B20999497B0843019016F0B3FFC5
:101D70001FEDB90B53EC102BCDE902019DED020BC9
:101D800051EC100B17F00EF8CDE904019DED040B9A
:101D900051EC100B16F0FCFC4449C1F818040998EA
:101DA000807B000200B20999C97B0843019016F0BC
:101DB00092FF1FEDC60B53EC102BCDE902019DEDF8
:101DC000020B51EC100B16F0EDFFCDE904019DED77
:101DD000040B51EC100B16F0DBFC3449C1F81C0469
:101DE0000998007C000200B20999497C08430190DF
:101DF00016F071FF1FEDDA0B53EC102BCDE9020149
:101E00009DED020B51EC100B16F0CCFFCDE9040157
:101E10009DED040B51EC100B16F0BAFC2349C1F8F0
:101E20005C070998807C000200B20999C97C0843CC
:101E3000019016F050FF1FEDEA0B53EC102BCDE98B
:101E400002019DED020B51EC100B16F0ABFFCDE93A
:101E500004019DED040B51EC100B16F099FC134995
:101E6000C1F860070998007D000200B20999497D18
:101E70000843019016F02FFF1FEDF80B53EC102BC9
:101E8000CDE902019DED020B51EC100B16F08AFF1B
:101E9000CDE904019DED040B51EC100B16F078FC1C
:101EA0000249C1F8640701F5E76001E05814002019
:101EB00090ED090AA0F5A87080ED090A00F5A87058
:101EC00090ED0A0AA0F5A87080ED0A0A00F5A87046
:101ED00090ED0B0AA0F5A87080ED0B0A09988078A8
:101EE0000590079900F052FB0998807813287DD15E
:101EF00009980079000200B20999497908430190D4
:101F000016F0E9FE9FEDFE0B53EC102BCDE902011C
:101F10009DED020B51EC100B16F044FFCDE90401CE
:101F20009DED040B51EC100B16F032FCF649C1F894
:101F3000B40609988079000200B20999C97908436A
:101F4000019016F0C8FE9FEDEE0B53EC102BCDE97F
:101F500002019DED020B51EC100B16F023FFCDE9B1
:101F600004019DED040B51EC100B16F011FCE64939
:101F7000C1F8B8060998007A000200B20999497AB6
:101F80000843019016F0A7FE9FEDE00B53EC102BD9
:101F9000CDE902019DED020B51EC100B16F002FF92
:101FA000CDE904019DED040B51EC100B16F0F0FB94
:101FB000D549C1F8BC060998807A000200B2099997
:101FC000C97A0843019016F086FE9FEDCD0B53ECC5
:101FD000102BCDE902019DED020B51EC100B16F018
:101FE000E1FECDE904019DED040B00E066E051EC5B
:101FF000100B16F0CDFBC449C1F804080998007B0A
:10200000000200B20999497B0843019016F063FE73
:102010009FEDBB0B53EC102BCDE902019DED020BA4
:1020200051EC100B16F0BEFECDE904019DED040B42
:1020300051EC100B16F0ACFBB349C1F80808099835
:10204000807B000200B20999C97B0843019016F019
:1020500042FE9FEDAE0B53EC102BCDE902019DED3E
:10206000020B51EC100B16F09DFECDE904019DED25
:10207000040B51EC100B16F08BFBA349C1F80C08B4
:1020800001F5D26090ED090AA0F5A87080ED090A6B
:1020900000F5A87090ED0A0AA0F5A87080ED0A0A74
:1020A00000F5A87090ED0B0AA0F5A87080ED0B0A62
:1020B000099880780590079900F068FA0998807867
:1020C00014287DD109980079000200B20999497954
:1020D0000843019016F0FFFD9FED890B53EC102B88
:1020E000CDE902019DED020B51EC100B16F05AFEEA
:1020F000CDE904019DED040B51EC100B16F048FBEB
:102100008149C1F8FC0909988079000200B2099957
:10211000C9790843019016F0DEFD9FED790B53EC71
:10212000102BCDE902019DED020B51EC100B16F0C6
:1021300039FECDE904019DED040B51EC100B16F0B6
:1021400027FB7149C1F8000A0998007A000200B221
:102150000999497A0843019016F0BDFD9FED6B0B7C
:1021600053EC102BCDE902019DED020B51EC100B4D
:1021700016F018FECDE904019DED040B51EC100B97
:1021800016F006FB6049C1F8040A0998807A00023B
:1021900000B20999C97A0843019016F09CFD9FEDA1
:1021A000580B53EC102BCDE902019DED020B51ECC5
:1021B000100B16F0F7FDCDE904019DED040B00E0D6
:1021C00020E151EC100B16F0E3FA4F49C1F8A40AD4
:1021D0000998007B000200B20999497B08430190ED
:1021E00016F079FD9FED460B53EC102BCDE9020163
:1021F0009DED020B51EC100B16F0D4FDCDE904015E
:102200009DED040B51EC100B16F0C2FA3E49C1F8DB
:10221000A80A0998807B000200B20999C97B08438B
:10222000019016F058FD9FED390B53EC102BCDE9C2
:1022300002019DED020B51EC100B16F0B3FDCDE940
:1022400004019DED040B51EC100B16F0A1FA2E4980
:10225000C1F8AC0A0998007C000200B20999497CD7
:102260000843019016F037FD9FED250B53EC102B22
:10227000CDE902019DED020B51EC100B16F092FD21
:10228000CDE904019DED040B51EC100B16F080FA22
:102290001D49C1F84C0B0998807C000200B20999D5
:1022A000C97C0843019016F016FD9FED150B53EC09
:1022B000102BCDE902019DED020B51EC100B16F035
:1022C00071FDCDE904019DED040B51EC100B16F0EE
:1022D0005FFA0D49C1F8500B0998007D000200B269
:1022E0000999497D0843019016F0F5FC9FED070B15
:1022F00053EC102BCDE902019DED020B0AE000002A
:10230000FCA9F1D24D62503F581400207B14AE4717
:10231000E17A843F51EC100B16F044FDCDE9040145
:102320009DED040B51EC100B16F032FA5649C1F832
:10233000540B0998007C000200B20999497C0843BB
:10234000019016F0C8FC1FED120B53EC102BCDE9D9
:1023500002019DED020B51EC100B16F023FDCDE9AF
:1023600004019DED040B51EC100B16F011FA4649D7
:10237000C1F8F40B0998807C000200B20999C97C6D
:102380000843019016F0A7FC1FED230B53EC102B14
:10239000CDE902019DED020B51EC100B16F002FD90
:1023A000CDE904019DED040B51EC100B16F0F0F992
:1023B0003549C1F8F80B0998007D000200B209996F
:1023C000497D0843019016F086FC1FED300B53EC5D
:1023D000102BCDE902019DED020B51EC100B16F014
:1023E000E1FCCDE904019DED040B51EC100B16F05E
:1023F000CFF92549C1F8FC0B099880780590079919
:1024000000F0C4F80998807815283AD109988078A6
:102410000590079900F0BAF81C480078401C1B4949
:10242000087001201A49087000200221194A034649
:10243000B6EE000ACDE90021029032224FF47A7103
:10244000154800F05AFD00200421124A0346B6EE5A
:10245000000ACDE90021029032224FF47A710F4830
:1024600000F04BFD002008210A4A0346B6EE000AA0
:10247000CDE90021029032224FF47A71084800F031
:102480003CFD00BFFFF7E3B8581400207E02002097
:102490007F020020005002409C100020B01000205D
:1024A000C410002010B504463448007838B9AA2C6E
:1024B00005D1012031490870314804705DE02F4892
:1024C0000078012807D1AF2C05D102202B490870D4
:1024D0002B48447051E029480078022807D1F12C9C
:1024E00005DA0320254908702548847045E0234813
:1024F000007803280CD1322C0ADA04201F49087016
:102500001F48C4701F48047000201F49087034E041
:102510001A480078042819D11A480078002815DDD7
:1025200018480078401E1749087017480078164967
:102530000978491C144A1170001D11490C541148A6
:102540000078D0B905200D49087016E00B480078D6
:1025500005280FD10020094908700B480078001D9C
:1025600007490C5408480078401DC1B20448FFF7E1
:102570004FF802E000200149087010BDDC03002084
:1025800056370020DA030020DB0300202DE9F0415C
:1025900005460E4600270024AA200D490870487001
:1025A000EF2088700220C87008460571467100BF90
:1025B00005E00748005D3844C7B2601CC4B2062C71
:1025C000F7DB0348877107210FF0D0FEBDE8F081EB
:1025D0002437002030B587B00024002004900590F7
:1025E00006909A480078052873DC002039E0984965
:1025F00091ED000AF3EE040AB4EEE00AF1EE10FAEF
:102600002AD8944991F85010012925D100241BE0C3
:102610009049443101EB840191ED000ADFED8E0A0F
:1026200060EE200A9FED8D1A80EE810A04A901EB6D
:102630008401D1ED000A30EE200A04A901EB8401E7
:1026400081ED000A611C8CB2032CE1DB411C88B2D5
:102650000021804A82F850100121814A7B4B1B786F
:10266000D154B0F57A7FC2DBDDED040A00EE100A2A
:10267000B8EE400A80EE801A7449097801EB4101F6
:10268000784A02EB810181ED001ADDED050A00EECA
:10269000100AB8EE400A80EE801A6C49097801EB06
:1026A000410102EB810181ED011ADDED060A00EE28
:1026B000100AB8EE400A80EE801A6449097801EBEE
:1026C000410102EB810181ED021A06215F4A11707E
:1026D00000BF6348007862494978084060498978BA
:1026E00008405F49C97808405D49097908405C495C
:1026F00049790840002871D05B48007800286DD1E6
:10270000012059490870002058490870584A594911
:10271000544800F0D1FE58490870002504E000201C
:102720004F494855681C85B2062DF8DB52480078A1
:10273000012854D14F48D0ED021AB0EE611AD0ED05
:10274000011AF0EE610AD0ED001AB0EE610A4B49B1
:10275000022010F0DAFA4648D0ED021AB0EE611A03
:10276000D0ED011AF0EE610AD0ED001AB0EE610A68
:102770004249052010F0C9FA0BF0A6FF002040499D
:10278000088002213F4A03469FED3F0ACDE9002120
:102790000290642240F6B8313C4800F0AEFB0020C5
:1027A0000421384A0346B6EE000ACDE90021029022
:1027B000642240F6B831364800F09FFB0020082123
:1027C000304A03469FED330ACDE90021029064228E
:1027D00040F6B831304800F090FB32E034E00020A1
:1027E000274908800221274A03469FED270ACDE9A1
:1027F00000210290C82241F28831244800F07DFB7C
:10280000002004211F4A0346B6EE000ACDE900214C
:102810000290C82241F288311D4800F06EFB002072
:102820000821184A03469FED1B0ACDE900210290BA
:10283000C82241F28831184800F05FFB0020174998
:102840000880012007B030BD0020FBE7CD0000204C
:10285000200A00203C3000200AE81C41000000450E
:10286000CF0000209C0E0020D5000020CE000020CC
:10287000C0000020780E0020CC000020C8370020C7
:1028800028010020005002409A99993E9C10002097
:10289000B0100020CDCC4C3FC41000206A020020B4
:1028A00010B52DED028B84B00024F8480088B0F5F7
:1028B0007A7F2ED1F648B0F9000016F00CFA41EC00
:1028C000180B9FEDF40B53EC102B16F069FB20D87E
:1028D000F248B0F9000016F0FEF941EC180B9FED3C
:1028E000F00B53EC102B16F021FA12D8EE48B0F989
:1028F000000016F0F0F941EC180B9FEDEC0B53ECD7
:10290000102B16F04DFB04D8EA480088401CE9491A
:102910000880DE480088B0F57A7F71D1DC48B0F9D4
:10292000000016F0D8F941EC180B9FEDDA0B53ECD0
:10293000102B16F035FB63D8D848B0F9000016F01C
:10294000CAF941EC180B9FEDD60B53EC102B16F087
:10295000EDF955D8D448B0F9000016F0BCF941ECB7
:10296000180B9FEDD20B53EC102B16F019FB74D8FB
:10297000D0480088B0F5167F6FDBCF48008800286C
:102980006BD10120CD490880CD4908700020CD4988
:10299000087001200221CC4A0023B6EE000ACDE9DE
:1029A0000021029064224FF47A71C84800F0A5FA21
:1029B00001200421C44A0023B6EE000ACDE900211B
:1029C000029064224FF47A71C14800F096FA012017
:1029D0000821BD4A0023B6EE000ACDE9002102908D
:1029E00064224FF47A71BB4800F087FA0620BA4996
:1029F00008700020B9490870AE49088000241EE024
:102A00002BE00020B64908559FEDB60A04EB4400C0
:102A1000B54901EB800080ED000A9FEDB20A04EB9E
:102A2000440001EB800080ED010A9FEDAE0A04EB4B
:102A3000440001EB800080ED020A601C84B2062C89
:102A4000DFDB0A20A949088001200DF0FFF90120F1
:102A50000DF024FA0020A649088099480078012842
:102A60007ED18A480088B0F57A7F24D18848B0F9B1
:102A7000000016F030F941EC180B9FED9E0B53EC63
:102A8000102B16F053F916D88448008898B9864858
:102A9000008880B999480088401C984908800846F9
:102AA0000088142806DB00208B49087094490880B0
:102AB00094490880DFE075480088B0F57A7F25D119
:102AC0007348008810BB7548B0F9000016F003F990
:102AD00041EC180B9FED750B53EC102B16F060FAC0
:102AE00014D87148008888B984480088401C8349FC
:102AF0000880084600881428DCDB0120764908702D
:102B000000207F4908807F490880B4E05F48008842
:102B1000B0F57A7F27D15E48008820BB5F48B0F9C6
:102B2000000016F0D8F841EC180B9FED5D0B53EC4C
:102B3000102B16F0FBF816D85B48008898B96F4840
:102B40000088401C6D490880084600881428B1DBC5
:102B5000022061490870002069490880694900E045
:102B600090E0088087E049480088B0F57A7F25D159
:102B70004748008810BB49480088F8B94A48B0F96E
:102B8000000016F0A8F841EC180B9FED480B53EC31
:102B9000102B16F005FA11D858480088401C5749E8
:102BA000088008460088142865DB03204A4908701D
:102BB000002053490880534908805CE0334800886E
:102BC000B0F57A7F25D13248008810BB33480088A1
:102BD000F8B93548B0F9000016F07DF841EC180B53
:102BE0009FED2F0B53EC102B16F0A0F811D8434893
:102BF0000088401C414908800846008814283ADBB8
:102C000004203549087000203D4908803D4908806E
:102C100031E01E480088B0F57A7F25D11C48B0F914
:102C2000000016F058F841EC180B9FED1A0B53EC0E
:102C3000102B16F0B5F917D218480088A0B91A4819
:102C4000008888B92D480088401C2C490880084617
:102C5000008814280FDB05201F4908700020284930
:102C600008802849088006E02449088800EBD071D4
:102C70004910224A118021480088C82802DB002020
:102C80001E49088004B0BDEC028B10BD80020020FC
:102C9000860200200000000000C062408402002084
:102CA00000000000008036C082020020000000000A
:102CB00000803640D6000020940200202801002029
:102CC000CE000020CC000020005002409C100020CC
:102CD000B0100020C4100020CD000020D50000203E
:102CE000CF000020000000009C0E00206A0200209F
:102CF000A20200200000000000C062C0D800002036
:102D00009C0200209E02002010B53B4890ED000A76
:102D10003A48D0ED000A30EE600A394880ED020AE8
:102D20000AF030FA374890ED000A3748D0ED000A33
:102D300030EE600A324880ED560A00F5A8700AF0BD
:102D400021FA32480088002846D131480088B0F581
:102D5000FA7F04DC2E480088401C2D490880284852
:102D600090EDA90AB5EEC00AF1EE10FA08D0284895
:102D70000088B0F5FA7F03DD26480078012805D1E8
:102D8000254890ED000A1E4880EDA90A224890EDE2
:102D9000000A1B4880EDAA0A00F528700BF022F803
:102DA000174890EDB40A80EDD30A1C48407B0128F7
:102DB00021D11B48007801281DD11A4890ED000A46
:102DC000F0EE080A20EE200A0D4880EDD30A9FEDB0
:102DD000160A80EDA90A0EE09FED130A084880ED5F
:102DE000A90A0A48B0F9000000EE100AB8EEC00ABD
:102DF000034880EDD30A10BDF8090020140100201B
:102E000058140020FC090020180100208602002030
:102E10000E0B0020EF080020000A00207641002061
:102E2000D10A00207C0900200000000010B5FFF747
:102E30006BFF04F0A7FC10BD10B50B480EF08EFB25
:102E40000948C01E0EF08AFB084809490860FF20A7
:102E5000091D08600E21074803F0BAFB042106484B
:102E600003F0B6FB10BD0000050800F04B434F4CCB
:102E700020650040005002400060004010B504464C
:102E80002088012803DB2088401E208004E0227C6B
:102E9000D1B2E06803F0E7FB208810B9A07C0128DC
:102EA0002AD12089401C2081208900EB8000618884
:102EB000884201DB00202081608800EE100AB8EE15
:102EC000400AD4ED010A60EE200A208900EB800060
:102ED00000EE100AB8EEC00AF4EEC00AF1EE10FAE5
:102EE00005DB227CD1B2E06803F0BDFB04E0217C6D
:102EF0000022E06803F0B7FB10BDF0B505AC70CC64
:102F00000527B1FBF7F70780428080ED010A0381B6
:102F1000C46005828674F0BD3EB504464CB9824853
:102F2000FFF7ACFF8148FFF7A9FF8148FFF7A6FF35
:102F3000A4E0012C5CD17F48007848B97A48FFF7BB
:102F40009DFF7A4803F094FB794803F091FB95E0EC
:102F500078480078012809D17448FFF78FFF72483C
:102F600003F086FB724803F083FB87E0714800782A
:102F7000022809D16C48FFF781FF6C48FFF77EFFFC
:102F80006B4803F075FB79E06A480078032809D1A3
:102F90006748FFF773FF644803F06AFB634803F078
:102FA00067FB6BE063480078042809D15E48FFF7AF
:102FB00065FF5F48FFF762FF5C4803F059FB5DE087
:102FC0005C480078052809D1574803F051FB574861
:102FD000FFF754FF5648FFF751FF4FE05248FFF705
:102FE0004DFF5248FFF74AFF5148FFF747FF45E0C2
:102FF000022C32D15048007848B94B48FFF73EFFC9
:103000004A4803F035FB4A4803F032FB36E04A48B1
:103010000078012809D1444803F02AFB4348FFF710
:103020002DFF434803F024FB28E0434800780228A2
:1030300009D13D4803F01CFB3C4803F019FB3C4818
:10304000FFF71CFF1AE03848FFF718FF3748FFF773
:1030500015FF3748FFF712FF10E0032C0ED10222B4
:103060001146364803F0FFFA04221146334803F0B4
:10307000FAFA08221146314803F0F5FA3048008880
:1030800030490988884203D02E480088052803DD8E
:103090002D48007801280FD1012004212B4A00235C
:1030A000B6EE000ACDE9002102904FF47A72114683
:1030B0002748FFF722FF33E021480088214909888B
:1030C000884213D01F48008809280FDC0120042102
:1030D0001E4A0023B6EE000ACDE9002102904FF40B
:1030E000FA6211461A48FFF708FF19E014480088F1
:1030F00014490988884213D0124800880A280FDB37
:1031000001200421114A0023B6EE000ACDE9002176
:10311000029041F288324FF4FA610D48FFF7EDFE5C
:103120000B48FFF7ABFE3EBD9C100020B010002006
:10313000C4100020CD000020E40000200050024018
:1031400026020020240200209C0300200060004092
:10315000D810002010B52248DFED220A9FED220A88
:103160000DF002FF2148DFED220A9FED1F0A0DF04E
:10317000FBFE2048DFED200A9FED1B0A0DF0F4FE58
:103180001E48F3EE0E0A9FED180A0DF0EDFE1C48E6
:10319000F3EE040A9FED140A0DF0E6FE1948F2EE74
:1031A0000E0A9FED110A0DF0DFFE1748F2EE040A39
:1031B0009FED0D0A0DF0D8FE1448F1EE040A9FEDC4
:1031C0000A0A0DF0D1FE1248F0EE000A9FED060A41
:1031D0000DF0CAFE0F4A01210A2014F02BFC10BD8D
:1031E000141100200000A042000048432C110020D0
:1031F000000070424411002000004C425C1100208D
:10320000741100208C110020A4110020BC1100209A
:10321000D4110020EC10002070B503460C46154672
:1032200000204DE0461C31B246E000EB400604EBC6
:10323000C60606EB8106D6ED000A00EB400604EB5D
:10324000C60606EB800696ED001A80EE810AB5EE02
:10325000C00AF1EE10FA2DD003EB8106D6ED000A7C
:1032600003EB800696ED001A40EE410A03EB81065F
:10327000C6ED000A0A461BE002EB420604EBC60656
:1032800006EB8106D6ED000A02EB420604EBC60609
:1032900006EB800696ED001A40EE410A02EB42066C
:1032A00004EBC60606EB8106C6ED000A561C32B2D8
:1032B000062AE1DB4E1C31B20629B6DB461C30B2D1
:1032C0000628AFDB052045E000EB400604EBC60610
:1032D00006EB8006D6ED000A03EB800696ED001A99
:1032E000C1EE201A03EB8006C6ED001AF7EE000AC5
:1032F00000EB400604EBC60606EB8006C6ED000AAE
:10330000002123E000EB400604EBC60606EB810635
:10331000D6ED000AB0EE600A03EB8106D6ED000A96
:1033200003EB800696ED001A40EE410A03EB81069E
:10333000C6ED000ADFED100A00EB400604EBC606FE
:1033400006EB8106C6ED000A4E1C31B28142D9DB84
:10335000461E30B20028B7DA002009E003EB8006F1
:10336000D6ED000A05EB8006C6ED000A461C30B219
:103370000628F3DB70BD00000000000010B5024617
:103380000B46002017E09FED0D0A02EB800484ED50
:10339000000A00210BE09FED090A00EB400403EB5B
:1033A000C40404EB810484ED000A4C1C21B20629FC
:1033B000F1DB441C20B20628E5DB10BD0000000054
:1033C000F0B586B004460D46F7EE001AB0EE611A6D
:1033D000002035E0C61C02EB8606D6ED000A03EBA2
:1033E0008006D6ED001A02EB800696ED002A31EE3B
:1033F000C20A60EEA01A21EE802AF0EE411A42EED7
:10340000401AB0EE611AF0EE001A60EEA11A61EEF9
:10341000A01A61EE801A6E4606EB8006C6ED001A11
:10342000F8EE001A60EEA11A61EE801A61EE801AC1
:10343000C61C6F4607EB8606C6ED001A461C30B266
:103440000328C7DB002032E004EB8006D6ED001A2B
:103450006E4606EB800696ED002A42EE011A04EB5A
:103460008006C6ED001A00211DE000EB400605EBCA
:10347000C60606EB8106D6ED001A6E4606EB800600
:1034800096ED002A6E4606EB8106D6ED002A42EE46
:10349000221A00EB400605EBC60606EB8106C6EDD8
:1034A000001A4E1C31B20629DFDB461C30B206285A
:1034B000CADB06B0F0BD00002DE9F0432DED028B14
:1034C000B9B007460E4614464FF000089FED9F0A1C
:1034D000B0EE408A9FED9E0AF0EE408A00203690C2
:1034E00037903890182130A8FDF73DF818212AA808
:1034F000FDF739F8182124A8FDF735F89021684622
:10350000FDF731F84FF001099FED920A8DED320A77
:103510008DED310A8DED300A9FED8F0A8DED350A64
:103520008DED340A8DED330A7FE008F101000FFACA
:1035300080F8694624A8FFF721FF00251FE005EB6E
:10354000450007EB800090ED000A8DED360A05EB93
:10355000450007EB800090ED010A8DED370A05EB81
:10356000450007EB800090ED020A8DED380A36AB7E
:1035700030AA694624A8FFF723FF681C05B2062D70
:10358000DDDB2AAA694624A8FFF746FE9DED2D0A39
:1035900020EE000ADDED330A20EEA01AC0EE010A8B
:1035A0009DED2A0A20EE000A30EE000A9DED2B1A4E
:1035B000DDED2B1A01EE210A9DED2C1ADDED2C1A02
:1035C00001EE210A30EE800ADDED2E0A60EEA00A3F
:1035D0009DED341A21EE011AC0EE811A70EE210A17
:1035E0009DED2F0A20EE000A9DED351A21EE011AFD
:1035F000C0EE011A30EEA10AF0EE408A002512E07A
:1036000030A800EB850090ED000A2AA800EB8500A9
:10361000D0ED000A30EE600A30A800EB850080EDA6
:10362000000A681C05B2062DEADBB8F1140F05DAB2
:10363000F4EEC88AF1EE10FA3FF777AF9DED330A4A
:10364000DFED460A20EE200A84ED000A9DED340AE3
:10365000DFED420A20EE200A84ED010A9DED350AD5
:10366000DFED3E0A20EE200A84ED020A9DED300ACD
:10367000D4ED000A20EE200A86ED000A9DED310A05
:10368000D4ED010A20EE200A86ED010A9DED320AF2
:10369000D4ED020A20EE200A86ED020A94ED000A1B
:1036A000F7EE000A30EE600AB0EEC00AF6EE000A4D
:1036B000B4EEE00AF1EE10FA1DDC94ED010AF7EE2B
:1036C000000A30EE600AB0EEC00AF6EE000AB4EE70
:1036D000E00AF1EE10FA0EDC94ED020AF7EE000AB1
:1036E00030EE600AB0EEC00AF6EE000AB4EEE00A70
:1036F000F1EE10FA01DD4FF0000996ED000AB0EE90
:10370000C00AF1EE040AB4EEE00AF1EE10FA15DC9C
:1037100096ED010AB0EEC00AF1EE040AB4EEE00A3A
:10372000F1EE10FA0ADC96ED020AB0EEC00AF1EEF4
:10373000040AB4EEE00AF1EE10FA01DD4FF00009E0
:10374000484639B0BDEC028BBDE8F0835F7089302C
:103750000000C842000000007FD6D03D0AE81C41AE
:1037600010B509480078401C0749087008460078E1
:10377000042804DB00F076FF0020034908700EF0F7
:103780008BFA00F035FB10BD100B0020002009491A
:103790000978012901D140F0010007490978012980
:1037A00001D140F0020005490978012901D140F01A
:1037B000040070476C020020CE000020DD000020D5
:1037C00010B50146002001EBC1026E4B13F8222018
:1037D00001EBC1036B4C04EB83035B781A4001EBF4
:1037E000C10304EB83039B781A4001EBC10304EB94
:1037F0008303DB781A4001EBC10304EB83031B79DD
:103800001A4001EBC10304EB83035B791A4001EB1F
:10381000C10304EB83039B791A4001EBC10304EB62
:103820008303DB791A4001EBC10304EB83031B7AAA
:103830001A4001EBC10304EB83035B7A1A4001EBEE
:10384000C10304EB83039B7A1A4001EBC10304EB31
:103850008303DB7A1A4001EBC10304EB83031B7B78
:103860001A4001EBC10304EB83035B7B1A4001EBBD
:10387000C10304EB83039B7B1A4001EBC10304EB00
:103880008303DB7B1A4001EBC10304EB83031B7C46
:103890001A4001EBC10304EB83035B7C1A4001EB8C
:1038A000C10304EB83039B7C1A4001EBC10304EBCF
:1038B0008303DB7C1A4001EBC10304EB83031B7D14
:1038C0001A4001EBC10304EB83035B7D1A4001EB5B
:1038D000C10304EB83039B7D1A4001EBC10304EB9E
:1038E0008303DB7D1A4001EBC10304EB83031B7EE2
:1038F0001A4001EBC10304EB83035B7E1A4001EB2A
:10390000C10304EB83039B7E1A4001EBC10304EB6C
:103910008303DB7E1A4001EBC10304EB83031B7FAF
:103920001A4001EBC10304EB83035B7F1A4001EBF8
:10393000C10304EB83039B7F1A4001EBC10304EB3B
:103940008303DB7F1A4001EBC10304EB830393F88D
:1039500020301A4001EBC10304EB830393F82130BC
:103960001A4001EBC10304EB830393F822301A40A1
:1039700001EBC10304EB830393F823301A4002B137
:10398000012010BD5C0F0020F8B5642012F0E6F8AD
:103990004FF4A176AA200DF0B7F8AB200DF0B4F8E3
:1039A0003A4908780DF0B0F8384948780DF0ACF88D
:1039B000364988780DF0A8F83449C8780DF0A4F895
:1039C00032490978314A52785140304A9278514010
:1039D0002E4AD27881EA02000DF096F800254FF6C3
:1039E000FF702B49088017E009E029480088401E35
:1039F000274908800846008808B90020F8BD2548F6
:103A00000EF0AFFA0028F0D022480EF099FAC2B2B8
:103A100028466D1C0DF80020032DE5DB00242DE069
:103A2000BB200DF071F8DC200DF06EF81A49085D2E
:103A30000DF06AF8184A611C505C0DF065F81649E3
:103A4000095D81F0DC01144B621C9A5C81EA020082
:103A50000DF05AF800250DE000BF0E480EF081FA77
:103A60000028FAD00B480EF06BFAC2B228466D1C43
:103A70000DF80020032DEFDBA01C84B2B442CFDB95
:103A8000DD200DF041F80120B8E7000034B7010057
:103A90007C0200200020014038B7010010B5164814
:103AA0000DF05CFD15480DF059FD012002F044FDBC
:103AB00040F2014002F040FD03214FF0402002F0AF
:103AC000C3FD05210E480EF052FA0E4A4FF4E131C3
:103AD00000200EF0AFFA0A480EF08CFA10210848C8
:103AE0000EF08FFA084906480EF08FFA4021152093
:103AF00004F058FC10BD0000000800F0001800F0B1
:103B000000C000400024F400CD1D010010B5154890
:103B10000DF024FD14480DF021FD4FF0011002F0CE
:103B20000BFD124802F008FD0321114802F08CFD44
:103B3000052110480EF01BFA0F4A4FF4E131012025
:103B40000EF078FA0B480EF055FA102109480EF0E5
:103B500058FA0A4907480EF058FA8021162004F056
:103B600021FC10BD010800F0011800F00104010063
:103B70000050004000D000400024F400091E010065
:103B800070B504461A480DF0E9FC1A480DF0E6FC41
:103B900019481A490860081D006840F08000091D96
:103BA00008600020091F0860154802F0C5FC154890
:103BB00002F0C2FCC021144802F046FD0DF0A2FB49
:103BC000054660232246294610480EF0D3F90F48D7
:103BD0000EF010FA50210D480EF013FA0C490B4864
:103BE0000EF013FA2021312004F0DCFB70BD000040
:103BF000030800F0021800F04B434F4C20750040C2
:103C000001180300011C03000070004000E00040A8
:103C10003D1E010010B515480DF0A0FC14480DF034
:103C20009DFC144802F088FC134802F085FCC0217A
:103C3000124802F009FD0DF065FB044660234FF4C5
:103C4000E13221460E480EF095F90D480EF0D2F9FA
:103C500010210B480EF0D5F90A4909480EF0D5F9A4
:103C600060214B2004F09EFB10BD0000020800F014
:103C7000031800F001180200011C0200006000405F
:103C800000F000408D1E010010B518480DF066FCD4
:103C900017480DF063FC174802F04EFC164802F07E
:103CA0004BFC3021154802F0CFFC0DF02BFB0446F5
:103CB00060234FF49642214611480EF05BF91048FC
:103CC0000EF098F910210E480EF09BF909F010F84B
:103CD000FFF75AFE0B4908700B4909480EF095F999
:103CE000A0214E2004F05EFB10BD0000030800F090
:103CF000061800F0011003000114030000700040DA
:103D00000020014018080020C91E010010B5154808
:103D10000DF024FC14480DF021FC144802F00CFCBA
:103D2000134802F009FC0321124802F08DFC0DF04B
:103D3000E9FA044660234FF4165221460E480EF06D
:103D400019F90D480EF056F910210B480EF059F9EB
:103D50000A4909480EF059F9D0214F2004F022FBFE
:103D600010BD0000040800F0071800F00100040076
:103D7000010404000040024000300140051F010022
:103D8000F0EE400AC0ED020A91ED030A90ED021A2E
:103D900020EE010A91ED041AD0ED011A01EE210A7C
:103DA00091ED051AD0ED001A01EE210A91ED011AEC
:103DB000D0ED041A01EE610A91ED021AD0ED031A5A
:103DC00001EE610A80ED050A90ED010A80ED000A1E
:103DD00090ED020A80ED010A90ED040A80ED030ADD
:103DE00090ED050A80ED040A90ED050A7047000089
:103DF0002DE9F0432DED048B85B00DF067FD12F039
:103E0000AFFEF948008801287DD1F84800780128E4
:103E10007AD1F7480088B0F57A7F12DCF54800883F
:103E2000B0F57A7F0DDCF4480088B0F57A7F08DCC5
:103E3000F2480088B0F57A7F03DC6420F0490880FE
:103E400031E0F048007870BB0020E749088002218B
:103E5000ED4A0346B6EE000ACDE900210290C822E1
:103E600040F6B831E948FFF748F800200421E64A57
:103E70000346B6EE000ACDE900210290C82240F6C2
:103E8000B831E348FFF739F800200821DE4A03463D
:103E9000B6EE000ACDE900210290C82240F6B83102
:103EA000DC48FFF72AF8DC480088401CDA49088023
:103EB000084600880A280BDBD1480088012804DB6B
:103EC000CF480088401ECE4908800020D249088093
:103ED000CB480088C0F164006421484390FBF1F0B6
:103EE00000F57A70CD490880C5480088C0F16400AB
:103EF0006421484390FBF1F000F57A70C8490880CE
:103F0000BF48008801E0B2E234E0C0F164006421FF
:103F1000484390FBF1F000F57A70C2490880B84838
:103F20000088C0F164006421484390FBF1F000F583
:103F30007A70BD490880B2480088C0F164006421ED
:103F4000484390FBF1F000F57A70B8490880AC481E
:103F50000088C0F164006421484390FBF1F000F553
:103F60007A70B34908800DF0C9FB08F049FF08F0EA
:103F700061FE8EE2AF48007801287CD1AE4800880F
:103F800040F27E41884277DBAC48008800EE100AA0
:103F9000B8EE400AF7EE000A20EE200AA848D0ED5D
:103FA0008A0ABFEE001A01EE200AD0ED360AB7EEFB
:103FB000001A01EE200AD0EDDE0ABFEE001A01EE73
:103FC000200ABDEEC00A10EE100A944908809B48F2
:103FD000008800EE100AB8EE400AF7EE000A20EE64
:103FE000200A9748D0ED8A0AB7EE001A01EE200A9F
:103FF000D0ED360ABFEE001A01EE200AD0EDDE0A3F
:10400000BFEE001A01EE200ABDEEC00A10EE100A43
:10401000834908808948008800EE100AB8EE400AFB
:10402000F7EE000A20EE200A8548D0ED8A0AB7EEA6
:10403000001A01EE200AD0ED360AB7EE001A01EEA2
:10404000200AD0EDDE0AB7EE001A01EE200ABDEE1E
:10405000C00A10EE100A734908807848008800EE04
:10406000100AB8EE400AF7EE000A20EE200A744863
:10407000D0ED8A0A01E0E7E05CE0BFEE001A01EE55
:10408000200AD0ED360ABFEE001A01EE200AD0ED6C
:10409000DE0AB7EE001A01EE200ABDEEC00A10EEED
:1040A000100A614908806548008800EE100AB8EEE1
:1040B000400ADFED640A20EE200A6148D0ED8A0A4A
:1040C0009FED601A01EE200AD0ED360A9FED5D1AD1
:1040D00001EE200AD0EDDE0A9FED5A1A01EE200A09
:1040E000BDEEC00A10EE100A5049088053480088FF
:1040F00000EE100AB8EE400ADFED520A20EE200A68
:104100004F48D0ED8A0A9FED4F1A01EE200AD0EDFC
:10411000360A9FED4C1A01EE200AD0EDDE0A9FED23
:10412000491A01EE200ABDEEC00A10EE100A4049FD
:10413000088019E041480088384908803F480088D5
:10414000374908803D480088364908803B48008848
:104150003549088039480088344908803748008844
:10416000334908800DF0CAFA2C4802884FF4FA61EE
:1041700040F24C400EF09CFA2849088028480288FA
:104180004FF4FA6140F24C400EF092FA2449088054
:10419000244802884FF4FA6140F24C400EF088FA4D
:1041A00020490880204802884FF4FA6140F24C40D0
:1041B0000EF07EFA1C4908801C4802884FF4FA6110
:1041C00040F24C400EF074FA1849088018480288F2
:1041D0004FF4FA6140F24C400EF06AFA144908803C
:1041E0000DF09EFC55E1000094020020EF08002035
:1041F000B40A0020B60A0020B80A0020BA0A00203B
:104200000C0B0020EE080020005002409C10002003
:10421000B0100020C41000200A0B0020A80A0020C3
:10422000AA0A0020AC0A0020AE0A0020B00A002032
:10423000B20A0020C00A0020FC0A0020080B00205F
:104240005814002000000000F54800780228C9D169
:10425000F448008800EE100AB8EE400AF7EE000AB3
:1042600020EE200AF048D0ED8A0ABFEE001A01EED7
:10427000200AD0ED360AB7EE001A01EE200AD0ED82
:10428000DE0ABFEE001A01EE200ABDEEC00A10EEF3
:10429000100AE6490880E348008800EE100AB8EEEC
:1042A000400AF7EE000A20EE200ADF48D0ED8A0A25
:1042B000B7EE001A01EE200AD0ED360ABFEE001A62
:1042C00001EE200AD0EDDE0ABFEE001A01EE200A50
:1042D000BDEEC00A10EE100AD5490880D14800880A
:1042E00000EE100AB8EE400AF7EE000A20EE200AAF
:1042F000CD48D0ED8A0AB7EE001A01EE200AD0EDC3
:10430000360AB7EE001A01EE200AD0EDDE0AB7EE4B
:10431000001A01EE200ABDEEC00A10EE100AC549CF
:104320000880C048008800EE100AB8EE400AF7EE98
:10433000000A20EE200ABC48D0ED8A0ABFEE001A1F
:1043400001EE200AD0ED360ABFEE001A01EE200A77
:10435000D0EDDE0AB7EE001A01EE200ABDEEC00A6B
:1043600010EE100AB4490880AE48008800EE100A2A
:10437000B8EE400A5FED4D0A20EE200AAA48D0EDC3
:104380008A0A1FED501A01EE200AD0ED360A1FED01
:10439000531A01EE200AD0EDDE0A1FED561A01EE87
:1043A000200ABDEEC00A10EE100AA44908809D48FC
:1043B000008800EE100AB8EE400A5FED5E0A20EEBB
:1043C000200A9948D0ED8A0A1FED621A01EE200AF0
:1043D000D0ED360A1FED651A01EE200AD0EDDE0A97
:1043E0001FED681A01EE200ABDEEC00A10EE100A99
:1043F000934908808D4802884FF4FA6140F24C409E
:104400000EF056F989490880894802884FF4FA610C
:1044100040F24C400EF04CF98549088085480288EE
:104420004FF4FA6140F24C400EF042F981490880A5
:10443000814802884FF4FA6140F24C400EF038F99E
:104440007D4908807D4802884FF4FA6140F24C4073
:104450000EF02EF979490880794802884FF4FA6104
:1044600040F24C400EF024F97549088011E04FF4F9
:104470007A706E4908806E4908806E4908806E49DE
:1044800008806E4908806E4908800DF037F90DF0FC
:1044900047FB664800886B490880654800886A4980
:1044A0000880644800886949088063480088684932
:1044B000088062480088674908806148008866492A
:1044C00008805A4802884FF4FA6100200EF0F0F894
:1044D00056490880564802884FF4FA6100200EF0D1
:1044E000E7F853490880534802884FF4FA610020E6
:1044F0000EF0DEF84F4908804F4802884FF4FA6109
:1045000000200EF0D5F84C4908804C4802884FF442
:10451000FA6100200EF0CCF848490880484802882B
:104520004FF4FA6100200EF0C3F8454908800846B0
:10453000008814F0E7FB41EC190B9FED480B53EC9E
:10454000102B14F02FFC41EC180B14F097FB84B2E5
:104550003A48008814F0D6FB41EC190B9FED3F0B55
:1045600053EC102B14F01EFC41EC180B14F086FBDE
:1045700085B23148008814F0C5FB41EC190B9FED62
:10458000370B53EC102B14F00DFC41EC180B14F00E
:1045900075FB86B22748008814F0B4FB41EC190B78
:1045A0009FED2E0B53EC102B14F0FCFB41EC180B81
:1045B00014F064FB87B21E48008814F0A3FB41ECA2
:1045C000190B9FED260B53EC102B14F0EBFB41EC79
:1045D000180B14F053FB1FFA80F81448008814F0ED
:1045E00091FB41EC190B9FED1D0B53EC102B14F0BC
:1045F000D9FB41EC180B14F041FB1FFA80F90020A5
:10460000CDE9014033463A4641460095039048467D
:104610000AF022F805B0BDEC048BBDE8F083000081
:10462000C00A0020080B002058140020A80A00200F
:10463000AA0A0020AC0A0020AE0A0020B00A00201E
:10464000B20A0020B40A0020B60A0020B80A0020EE
:10465000BA0A0020BC0A0020BE0A002000000000A8
:104660000000F43F10B5FE480078FE490870FE488F
:104670000078FE490870FE480078FE490870FE4840
:104680000078FE490870FE4890ED100AD0ED130A3C
:1046900070EE600AFB48008900EE100AB8EE400A8E
:1046A000F4EEC00AF1EE10FA03D80220EC490870CB
:1046B00014E0F34890ED110AD0ED130A70EE200AD1
:1046C000F048008900EE100AB8EE400AF4EEC00A85
:1046D000F1EE10FA02DB0120E1490870E84890EDA4
:1046E000140AD0ED170A70EE600AE648408900EE21
:1046F000100AB8EE400AF4EEC00AF1EE10FA03D840
:104700000220D949087014E0DD4890ED150AD0ED7B
:10471000170A70EE200ADB48408900EE100AB8EE56
:10472000400AF4EEC00AF1EE10FA02DB0120CE4995
:104730000870D34890ED180AD0ED1B0A70EE600A9D
:10474000D048808900EE100AB8EE400AF4EEC00AA4
:10475000F1EE10FA03D80220C549087014E0C848E9
:1047600090ED1A0AD0ED1B0A70EE200AC548808928
:1047700000EE100AB8EE400AF4EEC00AF1EE10FAAC
:1047800002DB0120BA490870BD4890ED1A0AD0ED4D
:104790001B0A70EE600ABB48808900EE100AB8EE72
:1047A000400AF4EEC00AF1EE10FA15D8B44890EDC4
:1047B0001A0AD0ED1B0A70EE200AB248808900EE7A
:1047C000100AB8EE400AF4EEC00AF1EE10FA03DB6C
:1047D0000120AD49087004E00020AB49087006F0E4
:1047E0009DFFA74890ED1C0AD0ED1F0A70EE600AED
:1047F000A448C08900EE100AB8EE400AF4EEC00AE0
:10480000F1EE10FA03D802209B49087018E09C488A
:1048100090ED1D0AD0ED1F0A70EE200A9948C0895C
:1048200000EE100AB8EE400AF4EEC00AF1EE10FAFB
:1048300006DB01209049087008F0E2FA08F0FAF966
:1048400092480088012804DB90480088401E8F4968
:1048500008808E48008810B900208D49087087486C
:10486000007885490978884223D083480078012858
:104870001FD14FF416708549088085480078401C88
:104880008349087008460078032812DB012081491B
:10489000087000207E4908707F4890ED000ADFED27
:1048A0007F0A30EE200A7E4880EDFD0A00207D4917
:1048B00008807848007801282AD1B7EE000A7A48A3
:1048C00080ED270A9FED790A80ED280A9FED770A8F
:1048D000A0F5527080ED270A9FED740A80ED280A3A
:1048E000B0EE000AA83880ED270AB7EE000A80ED86
:1048F000280A6B4890EDFD0A6748D0ED000AB4EE37
:10490000E00AF1EE10FA1FD80020624908701BE09F
:10491000B7EE000A644880ED270AB7EE000A80ED82
:10492000280AB7EE000AA0F5527080ED270AB7EE0C
:10493000000A80ED280AB7EE000AA83880ED270AA1
:10494000B7EE000A80ED280A5648008801280DD1EC
:104950000CF020FF5649087008460078022803D161
:1049600000205049088001E00CF0C8FE4048007863
:104970004049097888420BD03D480078012801D190
:1049800012F034F8444890ED000A454880EDFD0AE5
:10499000334800783349097888420CD03048007891
:1049A000022802D10120434908702D4800780128CF
:1049B00001D1404908702C4800782C490978884278
:1049C00012D029480078022804D13A490870002002
:1049D0003949087024480078012805D1022035495A
:1049E000087001203449087032480078012811D13C
:1049F0001B480078022809D13048008830490880D7
:104A0000254890ED000A264880EDFD0A002029493E
:104A1000087075E027480078022871D112480078A4
:104A200002285CD124480078C0B902F009FAA8B184
:104A3000194890ED020A234880ED010A164890EDCE
:104A4000010A214880ED010A00F5FC7009F09AFB8B
:104A50001C4809F097FB1B48A83837E04DE00000E0
:104A6000C00A0020C10A0020C20A0020C30A002098
:104A7000C40A0020C50A0020C60A0020C70A002078
:104A8000F80F0020603F0020D10A0020CA0A002051
:104A9000C90A0020C80A00203822002000009642DF
:104AA00058140020A0020020381C00209A99993F39
:104AB000C0080020CC0A0020D00A0020800200207C
:104AC000CE0A0020E81A00209819002009F05AFBAD
:104AD000294809F057FB0120284908700DE02848B3
:104AE00009F050FB2648A83809F04CFB2248A830B2
:104AF00009F048FB204809F045FB002021490870D7
:104B000021480078022835D102F09AF908B31B48F1
:104B1000007878BB1D4890ED020A1948A83880ED4E
:104B2000010A1A4890ED010A134880ED010A144861
:104B300009F028FB1248A83809F024FB0E48A830D9
:104B400009F020FB0C4809F01DFB01200B490870FF
:104B500010E0002009490870094809F013FB0848D3
:104B6000A83809F00FFB0448A83009F00BFB0248F5
:104B700009F008FB10BD000098190020D00A0020A1
:104B8000901B0020CC0A0020C20A002038220020FE
:104B900010B52DED028B0021084605F097F859A2BB
:104BA00000211E2004F0A6FF5948B0F90000401C67
:104BB00000EE100AB8EEC00A0021642013F042FC97
:104BC0000121002005F082F852A20121002004F00A
:104BD00091FF524800680A21B0FBF1F201FB12007C
:104BE00000EE100AB8EE400AB0EE408A01212820FB
:104BF00013F028FC4A4800680A21B0FBF1F201FBDF
:104C0000120000EE100AB8EE400AB0EE408A012110
:104C1000502013F017FC0221002005F057F841A2A4
:104C20000221002004F066FF3C4840680A21B0FBE6
:104C3000F1F201FB120000EE100AB8EE400AB0EEED
:104C4000408A0221282013F0FDFB354840680A21E4
:104C5000B0FBF1F201FB120000EE100AB8EE400AC0
:104C6000B0EE408A0221502013F0ECFB032100201B
:104C700005F02CF82DA20321002004F03BFF27486B
:104C8000D0ED020AF8EE600AB0EE600A0321282097
:104C900013F0D8FB224880680A21B0FBF1F201FB37
:104CA000120000EE100AB8EE400AB0EE408A03216E
:104CB000502013F0C7FB0421002005F007F81DA2C7
:104CC0000421002004F016FF0521002004F0FEFF5F
:104CD0001EA20521002004F00DFF0621002004F093
:104CE000F5FF20A20621002004F004FF0721002088
:104CF00004F0ECFF20A20721002004F0FBFEBDEC35
:104D0000028B10BD41637469766174696F6E000037
:104D10006A0200204944313A00000000343F00207C
:104D2000403F00204944323A000000004944333AF1
:104D300000000000506C656173652074616B652034
:104D400070686F746F206F660000000074686520E3
:104D50004F4C454420616E6420636F6E74616374D0
:104D60000000000020205151203A333133383337CE
:104D70003231363500000000202054454C3A3135A0
:104D800036373136373832303500000010B504463A
:104D9000204610F0CEFE10BD2DE9F04105460C4630
:104DA0002146284611F024F90646601CC1B2284667
:104DB00011F01EF9074647EA062000B2BDE8F0816F
:104DC00070B50026002414E02146002004F008FFFE
:104DD00000250AE03146761C0A4A505C04F048FF80
:104DE0000220FFF7D3FF681CC5B2802DF2DB601CE8
:104DF000C4B2082CE8DB4FF4FA70FFF7C7FF04F0E9
:104E000039FE70BD34B301003EB504460D460120A5
:104E1000394908803948007802280AD101203849E8
:104E20000880384890ED080AB1EE400A80ED070A84
:104E300002E00020324908800020334908803349CD
:104E40000880334908800221324A03469FED320A26
:104E5000CDE9002102904FF4FA6241F288312F48E7
:104E6000FEF74BF8002004212A4A0346B6EE000A5A
:104E7000CDE9002102904FF4FA6241F288312848CE
:104E8000FEF73BF800200821224A03469FED250A41
:104E9000CDE9002102904FF4FA6241F288312248B4
:104EA000FEF72BF8002021490880214908800120C5
:104EB0000AF0CCFF01200AF093FF01200AF0EEFF78
:104EC0004FF496601B49088000201B4908700CF0C5
:104ED00015FC0BF02DF907F0ADFE07F091FF012056
:104EE00005EB4501605405EB45012144887005EB55
:104EF0004501214448703EBD94020020C00A0020B4
:104F0000A0020020381C00209E0200209C020020ED
:104F1000A2020020005002406666663F9C100020FE
:104F2000B0100020CDCCCC3DC410002028010020C2
:104F30006A020020960200209902002010B502208B
:104F4000FBF732FA0DF060FF0B48C46904F00C0067
:104F500080B10A480CF038FB0220FBF725FA0DF06F
:104F600053FF0548C46904F00C0008B1022010BDCD
:104F70000120FCE70020FAE700F00A40005800F0AA
:104F80002DE9F04107460E46144600BF2A488569C0
:104F900005F001000028F9D1B00927494860C6F39F
:104FA00083008860A40835E024480068244908404C
:104FB0002449884206D12148006880B210B93046A1
:104FC0000DF002FF1C493868486100BF1A48856926
:104FD00005F001000028F9D105F4887078B1174870
:104FE0000068174908401749884205D113480068EE
:104FF00080B208B90DF0CCFE2846BDE8F0813F1D17
:10500000641E3CB10C48806820B90B484068401CC5
:1050100009494860002CC7D1084800680849084081
:105020000849884205D10548006880B208B90DF0EA
:10503000AFFE01488069E0E700F00A4000E00F4061
:105040000000FF700000051010B58B090B4C636069
:10505000C1F38303A36092080DE0084B5B69036012
:10506000001D521E3AB1054B9B6823B9034B5B6888
:105070005B1C024C6360002AEFD110BD00F00A40B7
:1050800010B503480CF06AFAFFF758FF10BD000096
:10509000005800F02DE9F04F2DED048B85B04D49FF
:1050A000888813F02FFE41EC190B9FED4B0B53EC4E
:1050B000102B13F077FE41EC180B13F0DFFD84B2D8
:1050C0004449888813F01EFE41EC190B9FED420BFA
:1050D00053EC102B13F066FE41EC180B13F0CEFDD1
:1050E00085B23C49888813F00DFE41EC190B9FED09
:1050F0003A0B53EC102B13F055FE41EC180B13F048
:10510000BDFD86B23349888813F0FCFD41EC190BD4
:105110009FED310B53EC102B13F044FE41EC180BB8
:1051200013F0ACFD87B22B49888813F0EBFD41ECFE
:10513000190B9FED290B53EC102B13F033FE41ECB0
:10514000180B13F09BFD1FFA80F82249888813F092
:10515000D9FD41EC190B9FED200B53EC102B13F0F4
:1051600021FE41EC180B13F089FD1FFA80F9194953
:10517000888813F0C7FD41EC190B9FED170B53EC1A
:10518000102B13F00FFE41EC180B13F077FD1FFAF4
:1051900080FA1049888813F0B5FD41EC190B9FED9A
:1051A0000E0B53EC102B13F0FDFD41EC180B13F01C
:1051B00065FD1FFA80FB43464A4651465846CDE9F5
:1051C0000076CDE9025409F047FA05B0BDEC048B36
:1051D000BDE8F08F603F0020000000000000F43FB9
:1051E00000B52DED028B83B05A480088B0F57A7F68
:1051F0002ED15948B0F9000013F06DFD41EC180BA9
:105200009FED560B53EC102B13F0CAFE20D85548D7
:10521000B0F9000013F05FFD41EC180B9FED520B4D
:1052200053EC102B13F0BCFE12D85148B0F900001B
:1052300013F051FD41EC180B9FED4E0B53EC102B6E
:1052400013F074FD04D84D480088401C4B49088079
:1052500040480088B0F57A7F77D13F48B0F9000028
:1052600013F039FD41EC180B9FED3C0B53EC102B68
:1052700013F096FE69D83B48B0F9000013F02BFDFF
:1052800041EC180B9FED380B53EC102B13F088FEFC
:105290005BD83748B0F9000013F01DFD41EC180B46
:1052A0009FED340B53EC102B13F040FD4DD83348D9
:1052B0000088B0F57A7F48DD31480088F0BBB7EE52
:1052C000000A304880ED000A00202C4908802E4951
:1052D00008802E492B4890ED000A54200DF0FEFC6A
:1052E000002002212A4A03469FED2A0ACDE9002127
:1052F00002904FF4FA7241F288312748FDF7FDFD24
:1053000000200421224A03469FED220ACDE9002114
:1053100002904FF4FA7241F288312048FDF7EDFD1A
:10532000002008211A4A03469FED1A0ACDE9002100
:1053300002904FF4FA7241F2883100E005E018481B
:10534000FDF7DBFD0E201749088003B0BDEC028B92
:1053500000BD000080020020860200200000000046
:1053600000C062408402002000000000008036403F
:105370008202002000000000008036C00E010020E4
:105380009402002010010020A2020020C837002053
:1053900000500240CDCC4C3E9C100020B0100020AC
:1053A000C41000206A02002006F09CFA09F0E4F81C
:1053B00002F0F2FE642010F0D1FB25499FED250A92
:1053C00054200DF08BFC42E0FFF764FE00210846FC
:1053D00004F07CFC0121002004F078FC1EA20021D6
:1053E000084604F0B9FB0221002004F06FFC032101
:1053F000002004F06BFC1CA20221002004F0ACFB96
:105400000421002004F062FC0521002004F05EFC71
:1054100019A20421002004F09FFB1AA204215020AD
:1054200004F068FB1948808800EE900AF8EE600AE4
:10543000B0EE600A0521502013F004F80621002088
:1054400004F044FC12A20621002004F053FBBBE749
:10545000C837002000000000506C65617365204D66
:105460006F76652054687200446F776E20576865C8
:105470006E2045534300000042656570204265651B
:10548000700000005468723A00000000603F002085
:105490005265706F776572205768656E205365742A
:1054A0002055700010B52DED0C8B84B000200190BC
:1054B00002900390EF49A1F10C0004F09CFFEE482C
:1054C00090ED000ADFEDED0A60EE200A9FEDEC1A88
:1054D00080EE810AEB48D0ED000AE6480C3890EDEA
:1054E000031A10EE810AE84880ED000AE24890EDC8
:1054F000010ADFEDE20A60EE200A9FEDE11A80EE7C
:10550000810AE048D0ED010ADA480C3890ED041A1F
:1055100010EE810ADC4880ED010AD74890ED020ABE
:10552000DFEDD60A60EE200A9FEDD51A80EE810AE3
:10553000D448D0ED020ACF480C3890ED051A10EE91
:10554000810AD14880ED020A90ED000AF0EE408A0F
:1055500090ED010AB0EE409A90ED020AB0EE408A5A
:1055600069EE090A48EE080AB0EE600A11F072F816
:1055700020EE280A10EE104A204613F009FF41ECF5
:105580001C0BB0EE4C0AF0EE6C0A0DF0BDFEB0EE56
:1055900040BAF0EE60BA9FEDBD0B53EC102B51EC0E
:1055A0001B0B13F0FFFB41EC1A0B13F0F1F8B94998
:1055B000086068EEA80A48EE080AB0EE600A11F02A
:1055C00049F820EE090A10EE104A204613F0E0FEDA
:1055D00041EC1C0BB0EE4C0AF0EE6C0A0DF094FEA0
:1055E000B0EE40BAF0EE60BA9FEDAB0B53EC102B6F
:1055F00051EC1B0B13F0D6FB41EC1A0B13F0C8F85F
:10560000A7490860084690ED000ADFEDA60A20EEE3
:10561000200A10EE101A084613F0BAFE41EC1B0BDC
:10562000B0EE4B0AF0EE6B0A0FF03AFBB0EE40AA78
:10563000F0EE60AA51EC1A0B13F0AAF800EE100A73
:10564000994880ED000A964890ED000ADFED950A32
:1056500020EE200A10EE101A084613F099FE41ECD5
:105660001B0BB0EE4B0AF0EE6B0A0EF0B1F8B0EE89
:1056700040AAF0EE60AA51EC1A0B13F089F800EE84
:10568000100A8A4880ED000A824890ED000ADFED9A
:10569000850A20EE200A10EE101A084613F078FE54
:1056A00041EC1B0BB0EE4B0AF0EE6B0A0FF0F8FA70
:1056B000B0EE40AAF0EE60AA51EC1A0B13F068F8B5
:1056C00000EE100A7A4880ED000A724890ED000A58
:1056D000DFED740A20EE200A10EE101A084613F0CF
:1056E00057FE41EC1B0BB0EE4B0AF0EE6B0A0EF0CE
:1056F0006FF8B0EE40AAF0EE60AA51EC1A0B13F06E
:1057000047F800EE100A6B4880ED000A08E005201B
:1057100010F024FA57480C3002F058FC6649087023
:10572000654800780028F2D052480C3890ED060AFF
:105730006248D0ED000A30EE600A8DED010A4D4856
:105740000C3890ED070A5D48D0ED010A30EE600A92
:105750008DED020A47480C3890ED080A5748D0ED05
:10576000020A30EE600A8DED030A9DED010A5148F0
:10577000D0ED000A20EE200ADDED030A4C4890ED42
:10578000001A00EE810A4E4880ED000A9DED010AE4
:105790004548D0ED000A20EE200A4548D0ED000A29
:1057A00020EE200ADDED020A404890ED001A00EEDE
:1057B000810ADDED030A3C4890ED001A60EE810A93
:1057C0003C4890ED001A00EEC10A3D4880ED010A08
:1057D00090ED010A10EE101A084613F0D9FD41ECC5
:1057E0001C0B374890ED000A10EE101A084613F013
:1057F000CFFD41EC1D0BB0EE4C1AF0EE6C1AB0EE82
:105800004D0AF0EE6D0A0DF0EBFEB0EE40BAF0EE90
:1058100060BA9FED2C0B53EC102B51EC1B0B13F0CB
:10582000C1FA41EC1A0B12F0B3FF2849086019487D
:1058300090ED000ADFED1B0A20EE200A244880EDDF
:10584000000A174890ED000ADFED160A20EE200A44
:10585000204880ED000A084690ED000ADFED110AAD
:1058600020EE200A1C4880ED000A04B0BDEC0C8B31
:1058700010BD000048300020F0410020000000452D
:105880000AE81C41240A0020384200206666666649
:1058900066A64CC0140A00206666666666A64C4082
:1058A000100A002035FA8E3C380A0020440A0020F5
:1058B0003C0A0020480A0020500A002068130020FB
:1058C0006002002000000060E3A54C40180A0020A0
:1058D000580A0020540A00205C0A002000B599B044
:1058E0000020129013901490FE4890ED000ADFED16
:1058F000FE0A60EE200A9FEDFD1A80EE810AFC4848
:10590000D0ED000AFB4890ED031A10EE810AFA4828
:1059100080ED000AF34890ED010ADFEDF30A60EE36
:10592000200A9FEDF21A80EE810AF148D0ED010ABB
:10593000F04890ED041A10EE810AEF4880ED010A5C
:10594000E84890ED020ADFEDE80A60EE200A9FEDDC
:10595000E71A80EE810AE648D0ED020AE54890EDAC
:10596000051A10EE810AE44880ED020A90ED000A63
:105970008DED170A90ED010A8DED160A90ED020AE1
:105980008DED150A9DED160A20EE000ADDED150AD3
:1059900000EEA00A8DED0A0A9DED0A0A10F05AFEEB
:1059A000DDED170A20EE200A8DED0B0A0B9813F09F
:1059B000EFFCCDE90C019DED0C0B0DF0A5FC8DED80
:1059C0000E0B9FEDCE0B53EC102B9DED0E0B51ECFF
:1059D000100B13F0E7F9CDE910019DED100B51EC20
:1059E000100B12F0D5FEC74908609DED170A20EE96
:1059F000000ADDED150A00EEA00A8DED0A0A9DED04
:105A00000A0A10F027FEDDED160A20EE200A8DEDC1
:105A10000B0A0B9813F0BCFCCDE90C019DED0C0BAF
:105A20000DF072FC8DED0E0B9FEDB70B53EC102BB0
:105A30009DED0E0B51EC100B13F0B4F9CDE91001F4
:105A40009DED100B51EC100B12F0A2FEB049086056
:105A5000084690ED000ADFEDAF0A20EE200A8DED3A
:105A60000D0A0D9813F094FCCDE90E019DED0E0B7F
:105A70000FF016F98DED100B9DED100B51EC100B86
:105A800012F086FE00EE100AA34880ED000AA0483E
:105A900090ED000ADFED9F0A20EE200A8DED0D0A41
:105AA0000D9813F075FCCDE90E019DED0E0B0DF078
:105AB0008FFE8DED100B9DED100B51EC100B12F0C5
:105AC00067FE00EE100A954880ED000A8D4890EDC3
:105AD000000ADFED900A20EE200A8DED0D0A0D98E8
