:020000040000FA
:10000000084800206D020000810200008302000009
:10001000850200008502000085020000000000004B
:100020000000000000000000000000008502000049
:10003000850200000000000085020000850200002B
:100040008502000085020000850200008502000094
:100050008502000085020000850200008502000084
:100060008502000085020000850200008502000074
:100070008502000085020000850200008502000064
:100080008502000085020000850200008502000054
:100090008502000085020000850200008502000044
:1000A0008502000085020000850200008502000034
:1000B0008502000085020000850200008502000024
:1000C0008502000085020000850200008502000014
:1000D0008502000085020000850200008502000004
:1000E000850200008502000000000000850200007B
:1000F00085020000850200008502000085020000E4
:1001000085020000850200008502000085020000D3
:1001100000000000000000008502000085020000D1
:1001200085020000850200008502000085020000B3
:1001300085020000850200008502000085020000A3
:1001400000000000000000000000000000000000AF
:100150008502000085020000850200008502000083
:10016000000000000000000000000000000000008F
:10017000000000000000000000000000000000007F
:10018000000000000000000000000000000000006F
:10019000000000000000000000000000000000005F
:1001A000000000000000000000000000000000004F
:1001B0008502000085020000850200008502000023
:1001C0008502000085020000850200008502000013
:1001D0008502000085020000850200008502000003
:1001E000850200008502000085020000000000007A
:1001F000000000008502000085020000850200006A
:1002000085020000850200000000000000000000E0
:1002100085020000850200008502000085020000C2
:1002200085020000850200008502000085020000B2
:1002300085020000850200008502000085020000A2
:100240008502000085020000850200008502000092
:100250008502000085020000850200008502000082
:100260008502000085020000850200004EF68850DD
:10027000CEF20000016841F47001016000F004B8A2
:10028000FEE7FEE7FEE7000000F002F800F05CF891
:100290000AA090E8000C82448344AAF10107DA45E1
:1002A00001D100F051F8AFF2090EBAE80F0013F0D7
:1002B000010F18BFFB1A43F001031847E8F50100CE
:1002C00008F601000A444FF0000C10F8013B13F04F
:1002D000070408BF10F8014B1D1108BF10F8015B9F
:1002E000641E05D010F8016B641E01F8016BF9D192
:1002F00013F0080F1EBF10F8014BAD1C0C1B09D1E9
:100300006D1E58BF01F801CBFAD505E014F8016B5A
:1003100001F8016B6D1EF9D59142D6D370470000EC
:100320000023002400250026103A28BF78C1FBD8FE
:10033000520728BF30C148BF0B6070471FB51BF084
:10034000C0FF1FBD10B510BD00F01EF91146FFF72C
:10035000F5FF19F07FF900F03CF903B4FFF7F2FF65
:1003600003BC00F03DF90000EFF3108072B6704757
:10037000EFF310807047EFF3108062B6704730BF24
:10038000704780F311887047EFF3118070470000C9
:100390000138FDD17047000002480349014A034B70
:1003A000704700000846002008480020084600204A
:1003B0000649074A0868504343F23902104408606E
:1003C000C0F30E407047014908607047000B0020E1
:1003D0006D4EC641032A40F2308010F0030C00F04D
:1003E000158011F8013BBCF1020F624498BF11F86F
:1003F00001CB00F8013B38BF11F8013BA2F1040228
:1004000098BF00F801CB38BF00F8013B11F003039F
:1004100000F02980083AC0F0088051F8043B083AFF
:1004200051F804CBA0E80810F5E7121D5CBF51F8A5
:10043000043B40F8043BAFF30080D20724BF11F81F
:10044000013B11F801CB48BF11F8012B24BF00F884
:10045000013B00F801CB48BF00F8012B704701B504
:10046000FFF7B8FF01BD10B5203AC0F00B80B1E82E
:100470001850203AA0E81850B1E81850A0E81850D9
:10048000BFF4F5AF5FEA027C24BFB1E81850A0E8E2
:10049000185044BF18C918C0BDE810405FEA827CFC
:1004A00024BF51F8043B40F8043B08BF7047D20713
:1004B00028BF31F8023B48BF11F8012B28BF20F8B4
:1004C000023B48BF00F8012B70474FF0000204299F
:1004D000C0F0128010F0030C00F01B80CCF1040C73
:1004E000BCF1020F18BF00F8012BA8BF20F8022BA7
:1004F000A1EB0C0100F00DB85FEAC17C24BF00F84D
:10050000012B00F8012B48BF00F8012B70474FF07A
:10051000000200B5134694469646203922BFA0E853
:100520000C50A0E80C50B1F12001BFF4F7AF09075F
:1005300028BFA0E80C5048BF0CC05DF804EB890050
:1005400028BF40F8042B08BF704748BF20F8022B93
:1005500011F0804F18BF00F8012B704770477047AB
:10056000704710B500F008F8006810BD10B50446DB
:1005700000F002F8046010BD00487047A845002054
:1005800000487047A84500207546FFF7F9FFAE46C2
:1005900005006946534620F00700854618B020B58F
:1005A000FFF7FAFEBDE820404FF000064FF00007CD
:1005B0004FF000084FF0000B21F00701AC46ACE80B
:1005C000C009ACE8C009ACE8C009ACE8C0098D4678
:1005D00070470446AFF300802046FFF7BEFE0000E0
:1005E00001491820ABBEFEE7260002007047012239
:1005F0008A40C260704730B5034632B1DC684FF0C4
:1006000001158D4004EA05000FE05C6801258D406E
:1006100045F4803504EA050000F480342CB140F440
:1006200070204FF480348C40A04330BD10B50A0CCC
:10063000120401F00F040123A3401A43836A1A43F2
:10064000826210BD30B5890044690F258D40AC43EE
:1006500002F00F058D402C434461056A0F248C4045
:1006600025EA040403F003058D402C43046230BDE9
:1006700010B503464C0140342344002002E09C683E
:1006800010C2401CDC6804F480740CB90828F6D34E
:1006900010BD026801238B401A430260704770B599
:1006A0000C46650140352844920005680F269640A7
:1006B000B54303F00F0696403543056086690F2564
:1006C000954026EA0505C3F3032696403543856128
:1006D00046680F25954026EA0505C3F303169640A4
:1006E0003543456003F4702575B141690F25954088
:1006F000A943C3F302459540294341610669012599
:1007000095402E43066104E0066901259540AE43FD
:10071000066170BD10B5104813F0A4F900BF0E4873
:1007200013F0BAF90028FAD00C4813F09BF908210D
:100730000B4805F067FE00231A4619460948FFF7E3
:1007400081FF6023002211460648FFF7A8FF002121
:100750000448FFF79EFF10BD003800F0040800F0C9
:10076000004002400080034003B589B0002007909C
:10077000069006900AE006990998415C079808449B
:10078000C0B207900698401CC0B206900A98401E5E
:1007900006998842EFDCDDE90901084410F8011CE4
:1007A0000798814201D00BB000BD09980078AA28B3
:1007B00003D109984078AF2800D0F4E709988078F1
:1007C000012800D100BF0998807802286BD10998D0
:1007D0000079012833D1FE49087048708870C870CC
:1007E0000871487100200221FA4A0346B6EE000A59
:1007F000CDE90021029032224FF47A71F64802F0DE
:10080000EAF900200421F34A0346B6EE000ACDE9D6
:100810000021029032224FF47A71F04802F0DBF9A5
:1008200000200821EB4A0346B6EE000ACDE900217C
:10083000029032224FF47A71E94802F0CCF909981B
:100840000079A1282FD10320E64908700020022159
:10085000E04A0346B6EE000ACDE9002102903222BA
:100860004FF47A71DC4802F0B6F900200421D94A2D
:100870000346B6EE000ACDE90021029032224FF481
:100880007A71D64802F0A7F900200821D14A034620
:10089000B6EE000ACDE90021029032224FF47A71BF
:1008A000CF4802F098F90998807810287DD10998EE
:1008B0000079000200B209994979084301901BF0C0
:1008C00032F99FEDC90B53EC102BCDE902019DEDE0
:1008D000020B51EC100B1BF08DF9CDE904019DEDDD
:1008E000040B51EC100B1AF07BFEC149C1F81C023D
:1008F00009988079000200B20999C97908430190EA
:100900001BF011F99FEDB80B53EC102BCDE9020150
:100910009DED020B51EC100B1BF06CF9CDE90401BD
:100920009DED040B51EC100B1AF05AFEB049C1F8C2
:1009300020020998007A000200B20999497A084316
:1009400001901BF0F0F89FEDAB0B53EC102BCDE9B1
:1009500002019DED020B51EC100B1BF04BF9CDE9A0
:1009600004019DED040B51EC100B1AF039FEA04967
:10097000C1F824020998807A000200B20999C97A64
:10098000084301901BF0CFF89FED970B53EC102B11
:10099000CDE902019DED020B51EC100B1BF02AF981
:1009A000CDE904019DED040B00E0B1E051EC100B2A
:1009B0001AF016FE8E49C1F8CC000998007B00029F
:1009C00000B20999497B084301901BF0ACF89FEDF8
:1009D000860B53EC102BCDE902019DED020B51EC7F
:1009E000100B1BF007F9CDE904019DED040B51EC50
:1009F000100B1AF0F5FD7E49C1F8D0000998807BF4
:100A0000000200B20999C97B084301901BF08BF8E2
:100A10009FED780B53EC102BCDE902019DED020BFD
:100A200051EC100B1BF0E6F8CDE904019DED040B31
:100A300051EC100B1AF0D4FD6D49C1F8D40009989F
:100A4000007C000200B20999497C084301901BF028
:100A50006AF89FED650B53EC102BCDE902019DED7B
:100A6000020B51EC100B1BF0C5F8CDE904019DED14
:100A7000040B51EC100B1AF0B3FD5D49C1F86C0387
:100A80000998807C000200B20999C97C0843019052
:100A90001BF049F89FED540B53EC102BCDE90201EC
:100AA0009DED020B51EC100B1BF0A4F8CDE90401F5
:100AB0009DED040B51EC100B1AF092FD4C49C1F85E
:100AC00070030998007D000200B20999497D08432E
:100AD00001901BF028F89FED470B53EC102BCDE94C
:100AE00002019DED020B51EC100B1BF083F8CDE9D8
:100AF00004019DED040B51EC100B1AF071FD3C4903
:100B0000C1F87403099880780590079900F0EAFD10
:100B10000998807811285AD109980079000200B20A
:100B200009994979084301901AF0FDFF9FED2E0BBA
:100B300053EC102BCDE902019DED020B51EC100B93
:100B40001BF058F8CDE904019DED040B51EC100B9E
:100B50001AF046FD2649C1F874010998807900020F
:100B600000B20999C979084301901AF0DCFF9FEDA2
:100B70001E0B53EC102BCDE902019DED020B51EC45
:100B8000100B1BF037F8CDE904019DED040B51EC7F
:100B9000100B1AF025FD1649C1F878010998007A62
:100BA000000200B20999497A084301901AF0BBFF8C
:100BB0009FED100B53EC102BCDE902019DED020BC4
:100BC00051EC100B1BF016F8CDE9040116E0E7E03C
:100BD000C4030020005002409C100020B0100020F0
:100BE000C41000207F020020FCA9F1D24D62503FCA
:100BF000581400207B14AE47E17A843F9DED040B2E
:100C000051EC100B1AF0ECFCFE49C1F87C0109987C
:100C1000807A000200B20999C97A084301901AF05B
:100C200082FF1FED0F0B53EC102BCDE902019DED60
:100C3000020B51EC100B1AF0DDFFCDE904019DED24
:100C4000040B51EC100B1AF0CBFCEE4948620998EA
:100C5000007B000200B20999497B084301901AF019
:100C600062FF1FED1F0B53EC102BCDE902019DED30
:100C7000020B51EC100B1AF0BDFFCDE904019DED04
:100C8000040B51EC100B1AF0ABFCDE49886209989A
:100C9000807B000200B20999C97B084301901AF0D9
:100CA00042FF1FED2C0B53EC102BCDE902019DED03
:100CB000020B51EC100B1AF09DFFCDE904019DEDE4
:100CC000040B51EC100B1AF08BFCCE49C86209984A
:100CD000007C000200B20999497C084301901AF097
:100CE00022FF1FED3F0B53EC102BCDE902019DEDD0
:100CF000020B51EC100B1AF07DFFCDE904019DEDC4
:100D0000040B51EC100B1AF06BFCBE49C1F8C40285
:100D10000998807C000200B20999C97C08430190BF
:100D20001AF001FF1FED500B53EC102BCDE902011F
:100D30009DED020B51EC100B1AF05CFFCDE90401A4
:100D40009DED040B51EC100B1AF04AFCAD49C1F8B3
:100D5000C8020998007D000200B20999497D084344
:100D600001901AF0E0FE1FED5D0B53EC102BCDE966
:100D700002019DED020B51EC100B1AF03BFFCDE987
:100D800004019DED040B51EC100B1AF029FC9D4958
:100D9000C1F8CC02099880780590079900F0A2FC70
:100DA0000998807812287DD109980079000200B254
:100DB00009994979084301901AF0B5FE1FED760BA9
:100DC00053EC102BCDE902019DED020B51EC100B01
:100DD0001AF010FFCDE904019DED040B51EC100B4E
:100DE0001AF0FEFB8749C1F8BC040998807900021B
:100DF00000B20999C979084301901AF094FE1FEDD9
:100E0000860B53EC102BCDE902019DED020B51EC4A
:100E1000100B1AF0EFFECDE904019DED040B51EC2F
:100E2000100B1AF0DDFB7749C1F8C0040998007A6D
:100E3000000200B20999497A084301901AF073FE42
:100E40001FED940B53EC102BCDE902019DED020B2D
:100E500051EC100B1AF0CEFECDE904019DED040B10
:100E600051EC100B1AF0BCFB6649C1F8C404099898
:100E7000807A000200B20999C97A084301901AF0F9
:100E800052FE1FEDA70B53EC102BCDE902019DED97
:100E9000020B51EC100B1AF0ADFECDE904019DEDF3
:100EA000040B00E0CCE051EC100B1AF099FB554913
:100EB000C1F814040998007B000200B20999497B2B
:100EC000084301901AF02FFE1FEDB90B53EC102BC5
:100ED000CDE902019DED020B51EC100B1AF08AFED8
:100EE000CDE904019DED040B51EC100B1AF078FBD9
:100EF0004449C1F818040998807B000200B209999E
:100F0000C97B084301901AF00EFE1FEDC60B53EC8F
:100F1000102BCDE902019DED020B51EC100B1AF0E4
:100F200069FECDE904019DED040B51EC100B1AF0A4
:100F300057FB3449C1F81C040998007C000200B238
:100F40000999497C084301901AF0EDFD1FEDDA0B79
:100F500053EC102BCDE902019DED020B51EC100B6F
:100F60001AF048FECDE904019DED040B51EC100B85
:100F70001AF036FB2349C1F85C070998807C00020F
:100F800000B20999C97C084301901AF0CCFD1FED0D
:100F9000EA0B53EC102BCDE902019DED020B51EC55
:100FA000100B1AF027FECDE904019DED040B51EC66
:100FB000100B1AF015FB1349C1F860070998007D62
:100FC000000200B20999497D084301901AF0ABFD77
:100FD0001FEDF80B53EC102BCDE902019DED020B38
:100FE00051EC100B1AF006FECDE904019DED040B47
:100FF00051EC100B1AF0F4FA0249C1F8640701F53C
:10100000E76001E05814002090ED090AA0F5A870EF
:1010100080ED090A00F5A87090ED0A0AA0F5A87005
:1010200080ED0A0A00F5A87090ED0B0AA0F5A870F3
:1010300080ED0B0A099880780590079900F052FB23
:101040000998807813287DD109980079000200B2B0
:1010500009994979084301901AF065FD9FEDFE0B4F
:1010600053EC102BCDE902019DED020B51EC100B5E
:101070001AF0C0FDCDE904019DED040B51EC100BFD
:101080001AF0AEFAF649C1F8B40609988079000260
:1010900000B20999C979084301901AF044FD9FED07
:1010A000EE0B53EC102BCDE902019DED020B51EC40
:1010B000100B1AF09FFDCDE904019DED040B51ECDE
:1010C000100B1AF08DFAE649C1F8B8060998007AB3
:1010D000000200B20999497A084301901AF023FDF1
:1010E0009FEDE00B53EC102BCDE902019DED020BBF
:1010F00051EC100B1AF07EFDCDE904019DED040BBF
:1011000051EC100B1AF06CFAD549C1F8BC060998DD
:10111000807A000200B20999C97A084301901AF056
:1011200002FD9FEDCD0B53EC102BCDE902019DED9F
:10113000020B51EC100B1AF05DFDCDE904019DEDA1
:10114000040B00E066E051EC100B1AF049FAC449B8
:10115000C1F804080998007B000200B20999497B94
:10116000084301901AF0DFFC9FEDBB0B53EC102BF2
:10117000CDE902019DED020B51EC100B1AF03AFD86
:10118000CDE904019DED040B51EC100B1AF028FA87
:10119000B349C1F808080998807B000200B2099998
:1011A000C97B084301901AF0BEFC9FEDAE0B53ECD7
:1011B000102BCDE902019DED020B51EC100B1AF042
:1011C00019FDCDE904019DED040B51EC100B1AF053
:1011D00007FAA349C1F80C0801F5D26090ED090A9D
:1011E000A0F5A87080ED090A00F5A87090ED0A0A34
:1011F000A0F5A87080ED0A0A00F5A87090ED0B0A22
:10120000A0F5A87080ED0B0A0998807805900799E1
:1012100000F068FA0998807814287DD1099800793F
:10122000000200B209994979084301901AF07BFC49
:101230009FED890B53EC102BCDE902019DED020BC4
:1012400051EC100B1AF0D6FCCDE904019DED040B16
:1012500051EC100B1AF0C4F98149C1F8FC09099846
:101260008079000200B20999C979084301901AF007
:101270005AFC9FED790B53EC102BCDE902019DED4B
:10128000020B51EC100B1AF0B5FCCDE904019DEDF9
:10129000040B51EC100B1AF0A3F97149C1F8000AC4
:1012A0000998007A000200B20999497A084301902E
:1012B0001AF039FC9FED6B0B53EC102BCDE90201BA
:1012C0009DED020B51EC100B1AF094FCCDE90401DA
:1012D0009DED040B51EC100B1AF082F96049C1F836
:1012E000040A0998807A000200B20999C97A084371
:1012F00001901AF018FC9FED580B53EC102BCDE920
:1013000002019DED020B51EC100B1AF073FCCDE9BC
:1013100004019DED040B00E020E151EC100B1AF0EC
:101320005FF94F49C1F8A40A0998007B000200B296
:101330000999497B084301901AF0F5FB9FED460B94
:1013400053EC102BCDE902019DED020B51EC100B7B
:101350001AF050FCCDE904019DED040B51EC100B8B
:101360001AF03EF93E49C1F8A80A0998807B0002AC
:1013700000B20999C97B084301901AF0D4FB9FED94
:10138000390B53EC102BCDE902019DED020B51EC12
:10139000100B1AF02FFCCDE904019DED040B51EC6C
:1013A000100B1AF01DF92E49C1F8AC0A0998007CFF
:1013B000000200B20999497C084301901AF0B3FB7E
:1013C0009FED250B53EC102BCDE902019DED020B97
:1013D00051EC100B1AF00EFCCDE904019DED040B4D
:1013E00051EC100B1AF0FCF81D49C1F84C0B099890
:1013F000807C000200B20999C97C084301901AF070
:1014000092FB9FED150B53EC102BCDE902019DEDE6
:10141000020B51EC100B1AF0EDFBCDE904019DED30
:10142000040B51EC100B1AF0DBF80D49C1F8500B0E
:101430000998007D000200B20999497D0843019096
:101440001AF071FB9FED070B53EC102BCDE9020155
:101450009DED020B0AE00000FCA9F1D24D62503F65
:10146000581400207B14AE47E17A843F51EC100BF6
:101470001AF0C0FBCDE904019DED040B51EC100BFB
:101480001AF0AEF85649C1F8540B0998007C0002D6
:1014900000B20999497C084301901AF044FB1FED02
:1014A000120B53EC102BCDE902019DED020B51EC18
:1014B000100B1AF09FFBCDE904019DED040B51ECDC
:1014C000100B1AF08DF84649C1F8F40B0998807C8E
:1014D000000200B20999C97C084301901AF023FB6D
:1014E0001FED230B53EC102BCDE902019DED020BF8
:1014F00051EC100B1AF07EFBCDE904019DED040BBD
:1015000051EC100B1AF06CF83549C1F8F80B09983A
:10151000007D000200B20999497D084301901AF04C
:1015200002FB1FED300B53EC102BCDE902019DEDBA
:10153000020B51EC100B1AF05DFBCDE904019DED9F
:10154000040B51EC100B1AF04BF82549C1F8FC0BB9
:10155000099880780590079900F0C4F80998807878
:1015600015283AD1099880780590079900F0BAF8C3
:101570001C480078401C1B49087001201A4908705B
:1015800000200221194A0346B6EE000ACDE90021E7
:10159000029032224FF47A71154801F01CFB0020B2
:1015A0000421124A0346B6EE000ACDE9002102905A
:1015B00032224FF47A710F4801F00DFB0020082110
:1015C0000A4A0346B6EE000ACDE900210290322213
:1015D0004FF47A71084801F0FEFA00BFFFF7E3B854
:1015E000581400207E0200207F020020005002409C
:1015F0009C100020B0100020C410002010B504463C
:101600003448007838B9AA2C05D101203149087036
:10161000314804705DE02F480078012807D1AF2CD5
:1016200005D102202B4908702B48447051E029480D
:101630000078022807D1F12C05DA0320254908702B
:101640002548847045E02348007803280CD1322CCB
:101650000ADA04201F4908701F48C4701F4804702C
:1016600000201F49087034E01A480078042819D176
:101670001A480078002815DD18480078401E1749E0
:1016800008701748007816490978491C144A1170E7
:10169000001D11490C5411480078D0B905200D499E
:1016A000087016E00B48007805280FD10020094982
:1016B00008700B480078001D07490C540848007852
:1016C000401DC1B20448FFF74FF802E00020014975
:1016D000087010BDCC03002042370020CA03002050
:1016E000CB0300202DE9F04105460E4600270024DB
:1016F000AA200D4908704870EF2088700220C87039
:1017000008460571467100BF05E00748005D384492
:10171000C7B2601CC4B2062CF7DB034887710721EF
:1017200013F0A8F8BDE8F081103700202DE9FF4143
:1017300006460F464FF0000800240025AA22214645
:10174000641C384842542146641C425404222146F9
:10175000641C425400222146641C42542146641CED
:1017600046542146641C47549DF80B202146641CB6
:1017700042549DF80A202046611CCCB229490A54E3
:101780009DF809202046611CCCB226490A549DF8D8
:1017900008202046611CCCB222490A549DF80F2033
:1017A0002046611CCCB21F490A549DF80E202046E9
:1017B000611CCCB21B490A549DF80D202046611CC7
:1017C000CCB218490A549DF80C202146601CC4B2C2
:1017D000144842549DF829202046611CCCB211497E
:1017E0000A549DF828202046611CCCB20D490A54A9
:1017F000201FC87000BF00BF06E00A48405D40449B
:1018000000F0FF08681CC5B2A542F6DB2046611C4B
:10181000CCB2044901F800802146024813F02AF8AE
:10182000BDE8FF8110370020F0B52DED0A8B81B0A7
:101830000646B0EE408AF0EE608AB0EE419AF0EED5
:10184000619AB0EE42AAF0EE62AAB0EE43BAF0EEB0
:1018500063BAB0EE44CA002400270025AA2221461C
:10186000641C7E4842542146641C425406F10F0019
:10187000C2B22146641C7948425400222146641CAD
:1018800042549FED770A28EE000ABDEEC00A10EE22
:10189000100A00B200909DF801202146641C6F4898
:1018A00042549DF800202146641C42549FED6C0A6E
:1018B00028EE800ABDEEC00A10EE100A00B20090B9
:1018C0009DF801202146641C644842549DF8002084
:1018D0002046611CCCB261490A549FED620A29EE90
:1018E000000ABDEEC00A10EE100A00B200909DF88A
:1018F00001202046611CCCB258490A549DF80020B2
:101900002046611CCCB255490A549FED550A29EE78
:10191000800ABDEEC00A10EE100A00B200909DF8D9
:1019200001202046611CCCB24C490A549DF800208D
:101930002046611CCCB249490A549FED490A2AEE5F
:10194000000ABDEEC00A10EE100A00B200909DF829
:1019500001202046611CCCB240490A549DF8002069
:101960002046611CCCB23D490A549FED3E0A2AEE46
:10197000800ABDEEC00A10EE100A00B200909DF879
:1019800001202046611CCCB234490A549DF8002045
:101990002046611CCCB231490A549FED310A2BEE2E
:1019A000000ABDEEC00A10EE100A00B200909DF8C9
:1019B00001202046611CCCB228490A549DF8002021
:1019C0002046611CCCB225490A549FED250A2BEE16
:1019D000800ABDEEC00A10EE100A00B200909DF819
:1019E00001202046611CCCB21C490A549DF80020FD
:1019F0002046611CCCB219490A549FED1A0A2CEEFC
:101A0000000ABDEEC00A10EE100A00B200909DF868
:101A100001202046611CCCB210490A549DF80020D8
:101A20002046611CCCB20D490A54201FC87000BF6B
:101A300005E00A48405D3844C7B2681CC5B2A542FB
:101A4000F7DB2046611CCCB204490F542146034801
:101A500012F010FF01B0BDEC0A8BF0BD1037002072
:101A600000007A440000C8427FB50024002500260B
:101A7000AA222146641C554842542146641C425403
:101A800003222146641C425400222146641C425415
:101A90009DF801202146641C42549DF800202146F7
:101AA000641C42549DF805202146641C42549DF854
:101AB00004202046611CCCB244490A549DF80920F8
:101AC0002046611CCCB241490A549DF808202046AA
:101AD000611CCCB23D490A549DF80D202046611C82
:101AE000CCB23A490A549DF80C202046611CCCB275
:101AF00036490A549DF821202046611CCCB2334956
:101B00000A549DF820202146601CC4B22F4842543C
:101B10009DF825202046611CCCB22C490A549DF822
:101B200024202046611CCCB228490A549DF8292063
:101B30002046611CCCB225490A549DF82820204635
:101B4000611CCCB221490A549DF82D202046611C0D
:101B5000CCB21E490A549DF82C202046611CCCB200
:101B60001A490A549DF831202046611CCCB217490D
:101B70000A549DF830202046611CCCB213490A5407
:101B80009DF835202046611CCCB210490A549DF8BE
:101B900034202046611CCCB20C490A54201FC87066
:101BA00000BF00BF05E00948405D3044C6B2681C74
:101BB000C5B2A542F7DB2046611CCCB203490E54E6
:101BC0002146024812F056FE7FBD0000103700206B
:101BD0002DE9F84F06460F4690469946DDF828B0A5
:101BE0000024A2460025AA222146641C57484254DC
:101BF0002146641C425402222146641C42540022A5
:101C00002146641C425400969DF801202146641C24
:101C100042549DF800202146641C425400979DF8D0
:101C200001202146641C42549DF800202046611C7E
:101C3000CCB246490A54CDF800809DF801202046D8
:101C4000611CCCB241490A549DF800202046611C19
:101C5000CCB23E490A54CDF800909DF801202046B0
:101C6000611CCCB239490A549DF800202046611C01
:101C7000CCB236490A54CDF800B09DF80120204678
:101C8000611CCCB231490A549DF800202046611CE9
:101C9000CCB22E490A540B9800909DF801202046A2
:101CA000611CCCB229490A549DF800202046611CD1
:101CB000CCB226490A540C9800909DF80120204689
:101CC000611CCCB221490A549DF800202046611CB9
:101CD000CCB21E490A540D9800909DF80120204670
:101CE000611CCCB219490A549DF800202046611CA1
:101CF000CCB216490A540E9800909DF80120204657
:101D0000611CCCB211490A549DF800202046611C88
:101D1000CCB20E490A54201FC87000BF00BF06E0B5
:101D20000A48405D504400F0FF0A681CC5B2A54255
:101D3000F6DB2046611CCCB2044901F800A0214624
:101D4000024812F097FDBDE8F88F00001037002020
:101D50007CB500240026AA222146641C5348425424
:101D60002146641C425401222146641C4254002234
:101D70002146641C42544E4890ED000ADFED4D0AA6
:101D800020EE200ABDEEC00A10EE100A00B201904B
:101D90009DF805202146641C444842549DF80420C7
:101DA0002146641C4254444890ED000ADFED410A8C
:101DB00020EE200ABDEEC00A10EE100A00B201901B
:101DC0009DF805202146641C384842549DF80420A3
:101DD0002046611CCCB235490A54384890ED000ABF
:101DE000B1EE400ADFED330A20EE200ABDEEC00A54
:101DF00010EE100A00B201909DF805202046611CEB
:101E0000CCB22A490A549DF804202046611CCCB269
:101E100026490A542A4890ED000ADFED260A20EEF2
:101E2000200ABDEEC00A8DED000A9DF80320204671
:101E3000611CCCB21D490A549DF802202046611C49
:101E4000CCB21A490A549DF801202046611CCCB23C
:101E500016490A549DF800202046611CCCB2134953
:101E60000A5401222046611CCCB210490A5415487C
:101E700002782046611CCCB20C490A54201FC8705D
:101E800000BF002505E00948405D3044C6B2681C2B
:101E9000C5B2A542F7DB2046611CCCB203490E5403
:101EA0002146024812F0E6FC7CBD000010370020FD
:101EB000E80900200000C842E4090020880A002048
:101EC000382200209402002010B586B0ED4800882A
:101ED000401C00B2EB49088008460088012802D166
:101EE000FFF736FFCBE1E748008802284FD1E648EC
:101EF00090ED080ABDEEC00A10EE100A02B2E248E8
:101F000090ED070ABDEEC00A10EE100A00B2DE49DD
:101F100091ED060ABDEEC00A10EE101A09B2DA4BB6
:101F200093ED020ABDEEC00A10EE103A1BB2CDE9E5
:101F30000131CDE90302D44890ED010ABDEEC00A9B
:101F400010EE100A00B2D04C009094ED000ABDEEE5
:101F5000C00A10EE104A23B2CB4C94ED050ABDEE38
:101F6000C00A10EE104A22B2C74C94ED040ABDEE2E
:101F7000C00A10EE104A21B2C34C94ED030ABDEE24
:101F8000C00A10EE104A20B2FFF722FE77E1BD48EA
:101F90000088032816D10022BC48C089BB49898922
:101FA000CDE90302B948059202914089B7490989F0
:101FB000B64CCDE9001063882288E188A088FFF73D
:101FC00053FD5CE1AF480088042820D1B048007878
:101FD000E8B9AF484078D0B9AD488078B8B9AC48D6
:101FE000C078A0B9AA48007988B9A948407970B9E1
:101FF0000A200090A7480178A7480368A74802680C
:102000000120FFF793FB00209E49088037E19D489F
:10201000008804280BD10A2000909E4801789E4831
:1020200003689E4802680120FFF780FB27E195487E
:10203000008805282FD19648007801282BD1984890
:10204000D0EDDD4AB0EE644AD0EDDC4AF0EE643A01
:10205000D0EDDB4AB0EE643AD0ED354AF0EE642ABA
:10206000D0ED344AB0EE642AD0ED334AF0EE641A73
:10207000D0ED894AB0EE641AD0ED884AF0EE640AD9
:10208000D0ED874AB0EE640A0120FFF7CDFB0020B7
:102090007F490870F3E07B48008806282FD17C48F0
:1020A000407801282BD17E48D0EDB34AB0EE644A87
:1020B000D0EDB24AF0EE643AD0EDB14AB0EE643AF7
:1020C000D0ED0B4AF0EE642AD0ED0A4AB0EE642A55
:1020D000D0ED094AF0EE641AD0ED5F4AB0EE641A12
:1020E000D0ED5E4AF0EE640AD0ED5D4AB0EE640ACF
:1020F0000220FFF799FB002065494870BFE0614866
:102100000088072832D16248807801282ED165489E
:10211000D0ED0B4AB0EE644AD0ED0A4AF0EE643AD4
:10212000D0ED094AB0EE643AA0F55270D0ED0B4AFA
:10213000F0EE642AD0ED0A4AB0EE642AD0ED094AE6
:10214000F0EE641AA830D0ED0B4AB0EE641AD0ED70
:102150000A4AF0EE640AD0ED094AB0EE640A0320A0
:10216000FFF762FB00204A49887088E045480088F4
:1021700008282CD14648C078012828D14948A830E1
:1021800090ED0B3AF0EE432A90ED0A3AB0EE432A76
:1021900090ED093AF0EE431AA0F5A87090ED0B3AD5
:1021A000B0EE431A90ED0A3AF0EE430A90ED093A88
:1021B000B0EE430A9FED3C4ADFED3B3A9FED3A3AE1
:1021C0000420FFF731FB00203149C87057E02D484B
:1021D0000088092831D12E48007901282DD13348B3
:1021E000D0ED0B4AB0EE644AD0ED0A4AF0EE643A04
:1021F000D0ED094AB0EE643AA838D0ED0B4AF0EEC3
:10220000642AD0ED0A4AB0EE642AD0ED094AF0EE15
:10221000641AA838D0ED0B4AB0EE641AD0ED0A4A21
:10222000F0EE640AD0ED094AB0EE640A0520FFF72B
:10223000FBFA00201649087121E0124800880A289C
:102240001DD113484079012819D19FED174ADFEDC0
:10225000163A9FED153ADFED142A9FED132ADFEDB4
:10226000121A9FED111ADFED100A9FED0F0A0620DA
:10227000FFF7DAFA0020064948710249088006B0E3
:1022800010BD0000CE0300203C3000204C3F002059
:10229000C403002024020020E4010020E00100200B
:1022A00058140020901B002000000000801F002018
:1022B00030B587B0002400200490059006909A481D
:1022C0000078052873DC002039E0984991ED000A78
:1022D000F3EE040AB4EEE00AF1EE10FA2AD89449BB
:1022E00091F85010012925D100241BE09049443178
:1022F00001EB840191ED000ADFED8E0A60EE200A09
:102300009FED8D1A80EE810A04A901EB8401D1EDC5
:10231000000A30EE200A04A901EB840181ED000AD5
:10232000611C8CB2032CE1DB411C88B20021804A85
:1023300082F850100121814A7B4B1B78D154B0F5B3
:102340007A7FC2DBDDED040A00EE100AB8EE400A27
:1023500080EE801A7449097801EB4101784A02EB5A
:10236000810181ED001ADDED050A00EE100AB8EEDC
:10237000400A80EE801A6C49097801EB410102EBBA
:10238000810181ED011ADDED060A00EE100AB8EEBA
:10239000400A80EE801A6449097801EB410102EBA2
:1023A000810181ED021A06215F4A117000BF634866
:1023B00000786249497808406049897808405F4957
:1023C000C97808405D49097908405C494979084065
:1023D000002871D05B48007800286DD10120594950
:1023E0000870002058490870584A5949544800F06C
:1023F000D1FE58490870002504E000204F49485597
:10240000681C85B2062DF8DB52480078012854D1AB
:102410004F48D0ED021AB0EE611AD0ED011AF0EE7D
:10242000610AD0ED001AB0EE610A4B49022012F0A9
:10243000FEFE4648D0ED021AB0EE611AD0ED011A48
:10244000F0EE610AD0ED001AB0EE610A42490520B3
:1024500012F0EDFE0CF024FB002040490880022120
:102460003F4A03469FED3F0ACDE9002102906422D6
:1024700040F6B8313C4800F0AEFB00200421384A59
:102480000346B6EE000ACDE900210290642240F630
:10249000B831364800F09FFB00200821304A03463F
:1024A0009FED330ACDE900210290642240F6B83155
:1024B000304800F090FB32E034E0002027490880EB
:1024C0000221274A03469FED270ACDE90021029009
:1024D000C82241F28831244800F07DFB002004210D
:1024E0001F4A0346B6EE000ACDE900210290C82239
:1024F00041F288311D4800F06EFB00200821184A87
:1025000003469FED1B0ACDE900210290C82241F24B
:102510008831184800F05FFB00201749088001202F
:1025200007B030BD0020FBE7CD0000200C0A0020E2
:102530003C3000200AE81C4100000045CF0000208C
:102540009C0E0020D5000020CE000020C0000020FE
:10255000780E0020CC000020B43700202801002095
:10256000005002409A99993E9C100020B010002023
:10257000CDCC4C3FC41000206A02002010B52DEDD8
:10258000028B84B00024F8480088B0F57A7F2ED101
:10259000F648B0F9000019F0C6FA41EC180B9FEDAF
:1025A000F40B53EC102B19F023FC20D8F248B0F9AF
:1025B000000019F0B8FA41EC180B9FEDF00B53EC4A
:1025C000102B19F0DBFA12D8EE48B0F9000019F020
:1025D000AAFA41EC180B9FEDEC0B53EC102B19F001
:1025E00007FC04D8EA480088401CE9490880DE4816
:1025F0000088B0F57A7F71D1DC48B0F9000019F09D
:1026000092FA41EC180B9FEDDA0B53EC102B19F0FA
:10261000EFFB63D8D848B0F9000019F084FA41EC18
:10262000180B9FEDD60B53EC102B19F0A7FA55D8C9
:10263000D448B0F9000019F076FA41EC180B9FED80
:10264000D20B53EC102B19F0D3FB74D8D048008870
:10265000B0F5167F6FDBCF48008800286BD10120D2
:10266000CD490880CD4908700020CD49087001206F
:102670000221CC4A0023B6EE000ACDE900210290E7
:1026800064224FF47A71C84800F0A5FA01200421B1
:10269000C44A0023B6EE000ACDE90021029064226C
:1026A0004FF47A71C14800F096FA01200821BD4A22
:1026B0000023B6EE000ACDE90021029064224FF417
:1026C0007A71BB4800F087FA0620BA4908700020EA
:1026D000B9490870AE49088000241EE02BE00020B4
:1026E000B64908559FEDB60A04EB4400B54901EB25
:1026F000800080ED000A9FEDB20A04EB440001EB7C
:10270000800080ED010A9FEDAE0A04EB440001EB6E
:10271000800080ED020A601C84B2062CDFDB0A20F8
:10272000A949088001200FF0FFFD01200FF024FED1
:102730000020A64908809948007801287ED18A485F
:102740000088B0F57A7F24D18848B0F9000019F0EC
:10275000EAF941EC180B9FED9E0B53EC102B19F08E
:102760000DFA16D88448008898B98648008880B940
:1027700099480088401C9849088008460088142819
:1027800006DB00208B490870944908809449088032
:10279000DFE075480088B0F57A7F25D1734800885E
:1027A00010BB7548B0F9000019F0BDF941EC180BE9
:1027B0009FED750B53EC102B19F01AFB14D87148D0
:1027C000008888B984480088401C834908800846EE
:1027D00000881428DCDB01207649087000207F493E
:1027E00008807F490880B4E05F480088B0F57A7FB0
:1027F00027D15E48008820BB5F48B0F9000019F07F
:1028000092F941EC180B9FED5D0B53EC102B19F076
:10281000B5F916D85B48008898B96F480088401C05
:102820006D490880084600881428B1DB0220614900
:102830000870002069490880694900E090E008803C
:1028400087E049480088B0F57A7F25D1474800885D
:1028500010BB49480088F8B94A48B0F9000019F09F
:1028600062F941EC180B9FED480B53EC102B19F05B
:10287000BFFA11D858480088401C574908800846BC
:102880000088142865DB03204A490870002053495A
:102890000880534908805CE033480088B0F57A7FAF
:1028A00025D13248008810BB33480088F8B9354834
:1028B000B0F9000019F037F941EC180B9FED2F0B20
:1028C00053EC102B19F05AF911D843480088401CDA
:1028D000414908800846008814283ADB042035491D
:1028E000087000203D4908803D49088031E01E48BD
:1028F0000088B0F57A7F25D11C48B0F9000019F0A6
:1029000012F941EC180B9FED1A0B53EC102B19F038
:102910006FFA17D218480088A0B91A48008888B9F9
:102920002D480088401C2C4908800846008814283F
:102930000FDB05201F49087000202849088028491E
:10294000088006E02449088800EBD0714910224A2B
:10295000118021480088C82802DB00201E49088019
:1029600004B0BDEC028B10BD800200208602002066
:102970000000000000C0624084020020000000004F
:10298000008036C082020020000000000080364037
:10299000D60000209402002028010020CE00002054
:1029A000CC000020005002409C100020B0100020FD
:1029B000C4100020CD000020D5000020CF00002052
:1029C000000000009C0E00206A020020A2020020ED
:1029D0000000000000C062C0D80000209C0200205F
:1029E0009E02002010B53B4890ED000A3A48D0ED19
:1029F000000A30EE600A394880ED020A0AF0B2FDA2
:102A0000374890ED000A3748D0ED000A30EE600AF2
:102A1000324880ED560A00F5A8700AF0A3FD32484E
:102A20000088002846D131480088B0F5FA7F04DCE0
:102A30002E480088401C2D490880284890EDA90A9E
:102A4000B5EEC00AF1EE10FA08D028480088B0F5BB
:102A5000FA7F03DD26480078012805D1254890ED4E
:102A6000000A1E4880EDA90A224890ED000A1B4882
:102A700080EDAA0A00F528700BF0A4FB174890ED32
:102A8000B40A80EDD30A1C48407B012821D11B48A1
:102A9000007801281DD11A4890ED000AF0EE080ACE
:102AA00020EE200A0D4880EDD30A9FED160A80ED36
:102AB000A90A0EE09FED130A084880EDA90A0A480A
:102AC000B0F9000000EE100AB8EEC00A034880ED2D
:102AD000D30A10BDE409002014010020581400207E
:102AE000E80900201801002086020020FA0A0020D0
:102AF000DF080020EC09002056410020BD0A00201C
:102B00006C0900200000000010B5FFF76BFF04F017
:102B100071FD10BD10B50B4810F0A4FF0948C01E90
:102B200010F0A0FF084809490860FF20091D08604F
:102B30000E21074803F084FC0421064803F080FCC2
:102B400010BD0000050800F04B434F4C20650040CD
:102B5000005002400060004010B504462088012863
:102B600003DB2088401E208004E0227CD1B2E06894
:102B700003F0B1FC208810B9A07C01282AD120895B
:102B8000401C2081208900EB80006188884201DBA5
:102B900000202081608800EE100AB8EE400AD4EDD3
:102BA000010A60EE200A208900EB800000EE100A86
:102BB000B8EEC00AF4EEC00AF1EE10FA05DB227C92
:102BC000D1B2E06803F087FC04E0217C0022E068D9
:102BD00003F081FC10BDF0B505AC70CC0527B1FB4E
:102BE000F7F70780428080ED010A0381C460058207
:102BF0008674F0BD3EB504464CB98248FFF7ACFF81
:102C00008148FFF7A9FF8148FFF7A6FFA4E0012C48
:102C10005CD17F48007848B97A48FFF79DFF7A4831
:102C200003F05EFC794803F05BFC95E0784800789F
:102C3000012809D17448FFF78FFF724803F050FC58
:102C4000724803F04DFC87E071480078022809D1F2
:102C50006C48FFF781FF6C48FFF77EFF6B4803F07D
:102C60003FFC79E06A480078032809D16748FFF7FC
:102C700073FF644803F034FC634803F031FC6BE0FD
:102C800063480078042809D15E48FFF765FF5F4874
:102C9000FFF762FF5C4803F023FC5DE05C480078CE
:102CA000052809D1574803F01BFC5748FFF754FF8C
:102CB0005648FFF751FF4FE05248FFF74DFF52488B
:102CC000FFF74AFF5148FFF747FF45E0022C32D19A
:102CD0005048007848B94B48FFF73EFF4A4803F098
:102CE000FFFB4A4803F0FCFB36E04A480078012825
:102CF00009D1444803F0F4FB4348FFF72DFF434854
:102D000003F0EEFB28E043480078022809D13D4853
:102D100003F0E6FB3C4803F0E3FB3C48FFF71CFFF5
:102D20001AE03848FFF718FF3748FFF715FF374814
:102D3000FFF712FF10E0032C0ED102221146364895
:102D400003F0C9FB04221146334803F0C4FB0822F8
:102D50001146314803F0BFFB3048008830490988EC
:102D6000884203D02E480088052803DD2D480078CE
:102D700001280FD1012004212B4A0023B6EE000ABE
:102D8000CDE9002102904FF47A7211462748FFF7EF
:102D900022FF33E02148008821490988884213D066
:102DA0001F48008809280FDC012004211E4A002347
:102DB000B6EE000ACDE9002102904FF4FA62114606
:102DC0001A48FFF708FF19E01448008814490988D9
:102DD000884213D0124800880A280FDB0120042102
:102DE000114A0023B6EE000ACDE90021029041F21B
:102DF00088324FF4FA610D48FFF7EDFE0B48FFF7FC
:102E0000ABFE3EBD9C100020B0100020C41000207E
:102E1000CD000020E40000200050024026020020E7
:102E2000240200209C03002000600040D8100020F5
:102E300010B52248DFED220A9FED220A10F018FBA0
:102E40002148DFED220A9FED1F0A10F011FB2048F8
:102E5000DFED200A9FED1B0A10F00AFB1E48F3EE7F
:102E60000E0A9FED180A10F003FB1C48F3EE040A4B
:102E70009FED140A10F0FCFA1948F2EE0E0A9FEDCD
:102E8000110A10F0F5FA1748F2EE040A9FED0D0A48
:102E900010F0EEFA1448F1EE040A9FED0A0A10F061
:102EA000E7FA1248F0EE000A9FED060A10F0E0FA89
:102EB0000F4A01210A2017F061F910BD14110020FA
:102EC0000000A042000048432C1100200000704286
:102ED0004411002000004C425C11002074110020BD
:102EE0008C110020A4110020BC110020D41100205E
:102EF000EC10002070B503460C46154600204DE04E
:102F0000461C31B246E000EB400604EBC60606EB79
:102F10008106D6ED000A00EB400604EBC60606EB80
:102F2000800696ED001A80EE810AB5EEC00AF1EE39
:102F300010FA2DD003EB8106D6ED000A03EB8006D4
:102F400096ED001A40EE410A03EB8106C6ED000A39
:102F50000A461BE002EB420604EBC60606EB8106BE
:102F6000D6ED000A02EB420604EBC60606EB80062D
:102F700096ED001A40EE410A02EB420604EBC6064B
:102F800006EB8106C6ED000A561C32B2062AE1DBCA
:102F90004E1C31B20629B6DB461C30B20628AFDB28
:102FA000052045E000EB400604EBC60606EB800674
:102FB000D6ED000A03EB800696ED001AC1EE201A4A
:102FC00003EB8006C6ED001AF7EE000A00EB4006A0
:102FD00004EBC60606EB8006C6ED000A002123E0DE
:102FE00000EB400604EBC60606EB8106D6ED000AB0
:102FF000B0EE600A03EB8106D6ED000A03EB800613
:1030000096ED001A40EE410A03EB8106C6ED000A78
:10301000DFED100A00EB400604EBC60606EB810666
:10302000C6ED000A4E1C31B28142D9DB461E30B2D9
:103030000028B7DA002009E003EB8006D6ED000A8D
:1030400005EB8006C6ED000A461C30B20628F3DB0D
:1030500070BD00000000000010B502460B460020C5
:1030600017E09FED0D0A02EB800484ED000A0021B9
:103070000BE09FED090A00EB400403EBC40404EBF2
:10308000810484ED000A4C1C21B20629F1DB441CAA
:1030900020B20628E5DB10BD00000000F0B586B0C8
:1030A00004460D46F7EE001AB0EE611A002035E036
:1030B000C61C02EB8606D6ED000A03EB8006D6EDB1
:1030C000001A02EB800696ED002A31EEC20A60EE8D
:1030D000A01A21EE802AF0EE411A42EE401AB0EE1C
:1030E000611AF0EE001A60EEA11A61EEA01A61EE0C
:1030F000801A6E4606EB8006C6ED001AF8EE001A3E
:1031000060EEA11A61EE801A61EE801AC61C6F464D
:1031100007EB8606C6ED001A461C30B20328C7DB53
:10312000002032E004EB8006D6ED001A6E4606EB76
:10313000800696ED002A42EE011A04EB8006C6EDE9
:10314000001A00211DE000EB400605EBC60606EB69
:103150008106D6ED001A6E4606EB800696ED002A33
:103160006E4606EB8106D6ED002A42EE221A00EBEF
:10317000400605EBC60606EB8106C6ED001A4E1C9E
:1031800031B20629DFDB461C30B20628CADB06B0A6
:10319000F0BD00002DE9F0432DED028BB9B00746DC
:1031A0000E4614464FF000089FED9F0AB0EE408A8D
:1031B0009FED9E0AF0EE408A0020369037903890BE
:1031C000182130A8FDF7A3F918212AA8FDF79FF9C7
:1031D000182124A8FDF79BF990216846FDF797F97F
:1031E0004FF001099FED920A8DED320A8DED310A03
:1031F0008DED300A9FED8F0A8DED350A8DED340A85
:103200008DED330A7FE008F101000FFA80F869467E
:1032100024A8FFF721FF00251FE005EB450007EB81
:10322000800090ED000A8DED360A05EB450007EBB6
:10323000800090ED010A8DED370A05EB450007EBA4
:10324000800090ED020A8DED380A36AB30AA69464F
:1032500024A8FFF723FF681C05B2062DDDDB2AAA90
:10326000694624A8FFF746FE9DED2D0A20EE000AD0
:10327000DDED330A20EEA01AC0EE010A9DED2A0A08
:1032800020EE000A30EE000A9DED2B1ADDED2B1A20
:1032900001EE210A9DED2C1ADDED2C1A01EE210A1A
:1032A00030EE800ADDED2E0A60EEA00A9DED341AA4
:1032B00021EE011AC0EE811A70EE210A9DED2F0A4F
:1032C00020EE000A9DED351A21EE011AC0EE011A1A
:1032D00030EEA10AF0EE408A002512E030A800EBA3
:1032E000850090ED000A2AA800EB8500D0ED000AC9
:1032F00030EE600A30A800EB850080ED000A681C03
:1033000005B2062DEADBB8F1140F05DAF4EEC88A2F
:10331000F1EE10FA3FF777AF9DED330ADFED460A85
:1033200020EE200A84ED000A9DED340ADFED420A0A
:1033300020EE200A84ED010A9DED350ADFED3E0AFC
:1033400020EE200A84ED020A9DED300AD4ED000A39
:1033500020EE200A86ED000A9DED310AD4ED010A27
:1033600020EE200A86ED010A9DED320AD4ED020A14
:1033700020EE200A86ED020A94ED000AF7EE000A1C
:1033800030EE600AB0EEC00AF6EE000AB4EEE00AD3
:10339000F1EE10FA1DDC94ED010AF7EE000A30EEB2
:1033A000600AB0EEC00AF6EE000AB4EEE00AF1EEF2
:1033B00010FA0EDC94ED020AF7EE000A30EE600A15
:1033C000B0EEC00AF6EE000AB4EEE00AF1EE10FA32
:1033D00001DD4FF0000996ED000AB0EEC00AF1EEF3
:1033E000040AB4EEE00AF1EE10FA15DC96ED010ADB
:1033F000B0EEC00AF1EE040AB4EEE00AF1EE10FA03
:103400000ADC96ED020AB0EEC00AF1EE040AB4EE50
:10341000E00AF1EE10FA01DD4FF00009484639B03C
:10342000BDEC028BBDE8F0835F7089300000C842BC
:10343000000000007FD6D03D0AE81C4110B50948C5
:103440000078401C0749087008460078042804DB0F
:1034500000F076FF00200349087010F0A1FE00F094
:1034600035FB10BDFC0A002000200949097801291C
:1034700001D140F0010007490978012901D140F04C
:10348000020005490978012901D140F00400704784
:103490006C020020CE000020DD00002010B50146A7
:1034A000002001EBC1026E4B13F8222001EBC10397
:1034B0006B4C04EB83035B781A4001EBC10304EB14
:1034C00083039B781A4001EBC10304EB8303DB7891
:1034D0001A4001EBC10304EB83031B791A4001EB93
:1034E000C10304EB83035B791A4001EBC10304EBD6
:1034F00083039B791A4001EBC10304EB8303DB795F
:103500001A4001EBC10304EB83031B7A1A4001EB61
:10351000C10304EB83035B7A1A4001EBC10304EBA4
:1035200083039B7A1A4001EBC10304EB8303DB7A2C
:103530001A4001EBC10304EB83031B7B1A4001EB30
:10354000C10304EB83035B7B1A4001EBC10304EB73
:1035500083039B7B1A4001EBC10304EB8303DB7BFA
:103560001A4001EBC10304EB83031B7C1A4001EBFF
:10357000C10304EB83035B7C1A4001EBC10304EB42
:1035800083039B7C1A4001EBC10304EB8303DB7CC8
:103590001A4001EBC10304EB83031B7D1A4001EBCE
:1035A000C10304EB83035B7D1A4001EBC10304EB11
:1035B00083039B7D1A4001EBC10304EB8303DB7D96
:1035C0001A4001EBC10304EB83031B7E1A4001EB9D
:1035D000C10304EB83035B7E1A4001EBC10304EBE0
:1035E00083039B7E1A4001EBC10304EB8303DB7E64
:1035F0001A4001EBC10304EB83031B7F1A4001EB6C
:10360000C10304EB83035B7F1A4001EBC10304EBAE
:1036100083039B7F1A4001EBC10304EB8303DB7F31
:103620001A4001EBC10304EB830393F820301A40E6
:1036300001EBC10304EB830393F821301A4001EB43
:10364000C10304EB830393F822301A4001EBC1035A
:1036500004EB830393F823301A4002B1012010BD1C
:103660005C0F0020F8B5642014F0F6FE4FF4A1764C
:10367000AA200FF0CDFCAB200FF0CAFC3A49087825
:103680000FF0C6FC384948780FF0C2FC36498878FC
:103690000FF0BEFC3449C8780FF0BAFC3249097803
:1036A000314A52785140304A927851402E4AD2786D
:1036B00081EA02000FF0ACFC00254FF6FF702B49A9
:1036C000088017E009E029480088401E2749088043
:1036D0000846008808B90020F8BD254810F0C5FE4E
:1036E0000028F0D0224810F0AFFEC2B228466D1C70
:1036F0000DF80020032DE5DB00242DE0BB200FF0AA
:1037000087FCDC200FF084FC1A49085D0FF080FC78
:10371000184A611C505C0FF07BFC1649095D81F072
:10372000DC01144B621C9A5C81EA02000FF070FC11
:1037300000250DE000BF0E4810F097FE0028FAD0DB
:103740000B4810F081FEC2B228466D1C0DF8002017
:10375000032DEFDBA01C84B2B442CFDBDD200FF0E1
:1037600057FC0120B8E7000080E501007C02002042
:103770000020014084E5010010B5164810F072F9F0
:10378000154810F06FF9012002F00EFE40F20140E2
:1037900002F00AFE03214FF0402002F08DFE0521C9
:1037A0000E4810F068FE0E4A4FF4E131002010F090
:1037B000C5FE0A4810F0A2FE1021084810F0A5FE30
:1037C0000849064810F0A5FE4021152004F022FD0E
:1037D00010BD0000000800F0001800F000C000401C
:1037E0000024F400D542010010B5154810F03AF954
:1037F000144810F037F94FF0011002F0D5FD1248CF
:1038000002F0D2FD0321114802F056FE05211048B6
:1038100010F031FE0F4A4FF4E131012010F08EFE1E
:103820000B4810F06BFE1021094810F06EFE0A499B
:10383000074810F06EFE8021162004F0EBFC10BD4E
:10384000010800F0011800F00104010000500040E0
:1038500000D000400024F4001143010070B504467C
:103860001A4810F0FFF81A4810F0FCF819481A49E5
:103870000860081D006840F08000091D08600020F5
:10388000091F0860154802F08FFD154802F08CFDF5
:10389000C021144802F010FE0FF0B8FF0546602367
:1038A00022462946104810F0E9FD0F4810F026FE88
:1038B00050210D4810F029FE0C490B4810F029FE4C
:1038C0002021312004F0A6FC70BD0000030800F0A8
:1038D000021800F04B434F4C2075004001180300C4
:1038E000011C03000070004000E00040454301005F
:1038F00010B5154810F0B6F8144810F0B3F8144895
:1039000002F052FD134802F04FFDC021124802F0B0
:10391000D3FD0FF07BFF044660234FF4E1322146D4
:103920000E4810F0ABFD0D4810F0E8FD10210B48DB
:1039300010F0EBFD0A49094810F0EBFD60214B2027
:1039400004F068FC10BD0000020800F0031800F04D
:1039500001180200011C02000060004000F000405D
:103960009543010010B5184810F07CF8174810F086
:1039700079F8174802F018FD164802F015FD3021BD
:10398000154802F099FD0FF041FF044660234FF403
:1039900096422146114810F071FD104810F0AEFD1E
:1039A00010210E4810F0B1FD09F092FBFFF75AFE0E
:1039B0000B4908700B49094810F0ABFDA0214E20BF
:1039C00004F028FC10BD0000030800F0061800F009
:1039D00001100300011403000070004000200140AA
:1039E00008080020D143010010B5154810F03AF83E
:1039F000144810F037F8144802F0D6FC134802F0CF
:103A0000D3FC0321124802F057FD0FF0FFFE0446DD
:103A100060234FF4165221460E4810F02FFD0D483A
:103A200010F06CFD10210B4810F06FFD0A49094899
:103A300010F06FFDD0214F2004F0ECFB10BD000012
:103A4000040800F0071800F001000400010404005D
:103A500000400240003001400D440100F0EE400AF9
:103A6000C0ED020A91ED030A90ED021A20EE010A60
:103A700091ED041AD0ED011A01EE210A91ED051A1B
:103A8000D0ED001A01EE210A91ED011AD0ED041AD1
:103A900001EE610A91ED021AD0ED031A01EE610AFE
:103AA00080ED050A90ED010A80ED000A90ED020A12
:103AB00080ED010A90ED040A80ED030A90ED050AFD
:103AC00080ED040A90ED050A704700002DE9F043EF
:103AD0002DED048B85B010F07DF915F0D3FCF9487D
:103AE000008801287DD1F848007801287AD1F7486C
:103AF0000088B0F57A7F12DCF5480088B0F57A7F4F
:103B00000DDCF4480088B0F57A7F08DCF2480088C4
:103B1000B0F57A7F03DC6420F049088031E0F0489A
:103B2000007870BB0020E74908800221ED4A034677
:103B3000B6EE000ACDE900210290C82240F6B83165
:103B4000E948FFF748F800200421E64A0346B6EEAC
:103B5000000ACDE900210290C82240F6B831E348BE
:103B6000FFF739F800200821DE4A0346B6EE000AC6
:103B7000CDE900210290C82240F6B831DC48FFF7B9
:103B80002AF8DC480088401CDA490880084600888A
:103B90000A280BDBD1480088012804DBCF480088C5
:103BA000401ECE4908800020D2490880CB480088BA
:103BB000C0F164006421484390FBF1F000F57A7095
:103BC000CD490880C5480088C0F16400642148439D
:103BD00090FBF1F000F57A70C8490880BF48008872
:103BE00001E0B2E234E0C0F164006421484390FB9C
:103BF000F1F000F57A70C2490880B8480088C0F139
:103C000064006421484390FBF1F000F57A70BD49EF
:103C10000880B2480088C0F164006421484390FBEA
:103C2000F1F000F57A70B8490880AC480088C0F11E
:103C300064006421484390FBF1F000F57A70B349C9
:103C400008800FF0DFFF09F0CBFA09F0E3F98EE20C
:103C5000AF48007801287CD1AE48008840F27E4110
:103C6000884277DBAC48008800EE100AB8EE400AC4
:103C7000F7EE000A20EE200AA848D0ED8A0ABFEE2F
:103C8000001A01EE200AD0ED360AB7EE001A01EE56
:103C9000200AD0EDDE0ABFEE001A01EE200ABDEECA
:103CA000C00A10EE100A944908809B48008800EE74
:103CB000100AB8EE400AF7EE000A20EE200A9748F4
:103CC000D0ED8A0AB7EE001A01EE200AD0ED360ACE
:103CD000BFEE001A01EE200AD0EDDE0ABFEE001A98
:103CE00001EE200ABDEEC00A10EE100A83490880DA
:103CF0008948008800EE100AB8EE400AF7EE000A84
:103D000020EE200A8548D0ED8A0AB7EE001A01EEAF
:103D1000200AD0ED360AB7EE001A01EE200AD0EDE7
:103D2000DE0AB7EE001A01EE200ABDEEC00A10EE60
:103D3000100A734908807848008800EE100AB8EE2F
:103D4000400AF7EE000A20EE200A7448D0ED8A0AF5
:103D500001E0E7E05CE0BFEE001A01EE200AD0EDE2
:103D6000360ABFEE001A01EE200AD0EDDE0AB7EEE9
:103D7000001A01EE200ABDEEC00A10EE100A6149D9
:103D800008806548008800EE100AB8EE400ADFEDB2
:103D9000640A20EE200A6148D0ED8A0A9FED601A7D
:103DA00001EE200AD0ED360A9FED5D1A01EE200AE1
:103DB000D0EDDE0A9FED5A1A01EE200ABDEEC00AD0
:103DC00010EE100A504908805348008800EE100A8F
:103DD000B8EE400ADFED520A20EE200A4F48D0ED3F
:103DE0008A0A9FED4F1A01EE200AD0ED360A9FEDA8
:103DF0004C1A01EE200AD0EDDE0A9FED491A01EEC1
:103E0000200ABDEEC00A10EE100A4049088019E0F1
:103E100041480088384908803F4800883749088071
:103E20003D480088364908803B480088354908806D
:103E30003948008834490880374800883349088069
:103E40000FF0E0FE2C4802884FF4FA6140F24C403B
:103E500010F0B2FE28490880284802884FF4FA6121
:103E600040F24C4010F0A8FE244908802448028803
:103E70004FF4FA6140F24C4010F09EFE2049088059
:103E8000204802884FF4FA6140F24C4010F094FE52
:103E90001C4908801C4802884FF4FA6140F24C40EB
:103EA00010F08AFE18490880184802884FF4FA6119
:103EB00040F24C4010F080FE1449088010F0B4F835
:103EC00055E1000094020020DF080020A00A002035
:103ED000A20A0020A40A0020A60A0020F80A002056
:103EE000DE080020005002409C100020B01000208E
:103EF000C4100020F60A0020940A0020960A002030
:103F0000980A00209A0A00209C0A00209E0A00209D
:103F1000AC0A0020E80A0020F40A0020581400200F
:103F200000000000F54800780228C9D1F448008854
:103F300000EE100AB8EE400AF7EE000A20EE200A62
:103F4000F048D0ED8A0ABFEE001A01EE200AD0ED4B
:103F5000360AB7EE001A01EE200AD0EDDE0ABFEEF7
:103F6000001A01EE200ABDEEC00A10EE100AE64962
:103F70000880E348008800EE100AB8EE400AF7EE29
:103F8000000A20EE200ADF48D0ED8A0AB7EE001AB8
:103F900001EE200AD0ED360ABFEE001A01EE200A2B
:103FA000D0EDDE0ABFEE001A01EE200ABDEEC00A17
:103FB00010EE100AD5490880D148008800EE100A9A
:103FC000B8EE400AF7EE000A20EE200ACD48D0ED08
:103FD0008A0AB7EE001A01EE200AD0ED360AB7EED3
:103FE000001A01EE200AD0EDDE0AB7EE001A01EE4B
:103FF000200ABDEEC00A10EE100AC5490880C0486C
:10400000008800EE100AB8EE400AF7EE000A20EE33
:10401000200ABC48D0ED8A0ABFEE001A01EE200A41
:10402000D0ED360ABFEE001A01EE200AD0EDDE0A0E
:10403000B7EE001A01EE200ABDEEC00A10EE100A1B
:10404000B4490880AE48008800EE100AB8EE400A75
:104050005FED4D0A20EE200AAA48D0ED8A0A1FED36
:10406000501A01EE200AD0ED360A1FED531A01EE68
:10407000200AD0EDDE0A1FED561A01EE200ABDEE31
:10408000C00A10EE100AA44908809D48008800EE7E
:10409000100AB8EE400A5FED5E0A20EE200A994849
:1040A000D0ED8A0A1FED621A01EE200AD0ED360A21
:1040B0001FED651A01EE200AD0EDDE0A1FED681A29
:1040C00001EE200ABDEEC00A10EE100A93490880E6
:1040D0008D4802884FF4FA6140F24C4010F06CFDBC
:1040E00089490880894802884FF4FA6140F24C40BF
:1040F00010F062FD85490880854802884FF4FA6116
:1041000040F24C4010F058FD8149088081480288F7
:104110004FF4FA6140F24C4010F04EFD7D490880AA
:104120007D4802884FF4FA6140F24C4010F044FDA3
:1041300079490880794802884FF4FA6140F24C408E
:1041400010F03AFD7549088011E04FF47A706E491D
:1041500008806E4908806E4908806E4908806E4963
:1041600008806E4908800FF04DFD0FF05DFF664836
:1041700000886B490880654800886A49088064485F
:104180000088694908806348008868490880624857
:1041900000886749088061480088664908805A4855
:1041A00002884FF4FA61002010F006FD564908809D
:1041B000564802884FF4FA61002010F0FDFC534984
:1041C0000880534802884FF4FA61002010F0F4FC94
:1041D0004F4908804F4802884FF4FA61002010F0E0
:1041E000EBFC4C4908804C4802884FF4FA610020EF
:1041F00010F0E2FC48490880484802884FF4FA6110
:10420000002010F0D9FC454908800846008817F0C6
:10421000A1FC41EC190B9FED480B53EC102B17F050
:10422000E9FC41EC180B17F051FC84B23A480088C5
:1042300017F090FC41EC190B9FED3F0B53EC102B4A
:1042400017F0D8FC41EC180B17F040FC85B2314850
:10425000008817F07FFC41EC190B9FED370B53ECF6
:10426000102B17F0C7FC41EC180B17F02FFC86B28F
:104270002748008817F06EFC41EC190B9FED2E0BC0
:1042800053EC102B17F0B6FC41EC180B17F01EFC8A
:1042900087B21E48008817F05DFC41EC190B9FEDBA
:1042A000260B53EC102B17F0A5FC41EC180B17F064
:1042B0000DFC1FFA80F81448008817F04BFC41EC05
:1042C000190B9FED1D0B53EC102B17F093FC41ECD9
:1042D000180B17F0FBFB1FFA80F90020CDE9014015
:1042E00033463A4641460095039048460AF0A0FB03
:1042F00005B0BDEC048BBDE8F0830000AC0A0020E3
:10430000F40A002058140020940A0020960A002085
:10431000980A00209A0A00209C0A00209E0A002089
:10432000A00A0020A20A0020A40A0020A60A002059
:10433000A80A0020AA0A0020000000000000F43FA4
:1043400010B5FE480078FE490870FE480078FE4926
:104350000870FE480078FE490870FE480078FE4963
:104360000870FE4890ED100AD0ED130A70EE600A56
:10437000FB48008900EE100AB8EE400AF4EEC00ACD
:10438000F1EE10FA03D80220EC49087014E0F3486B
:1043900090ED110AD0ED130A70EE200AF048008962
:1043A00000EE100AB8EE400AF4EEC00AF1EE10FA80
:1043B00002DB0120E1490870E84890ED140AD0EDD5
:1043C000170A70EE600AE648408900EE100AB8EE5F
:1043D000400AF4EEC00AF1EE10FA03D80220D949DF
:1043E000087014E0DD4890ED150AD0ED170A70EE64
:1043F000200ADB48408900EE100AB8EE400AF4EECD
:10440000C00AF1EE10FA02DB0120CE490870D34851
:1044100090ED180AD0ED1B0A70EE600AD048808932
:1044200000EE100AB8EE400AF4EEC00AF1EE10FAFF
:1044300003D80220C549087014E0C84890ED1A0A54
:10444000D0ED1B0A70EE200AC548808900EE100AE4
:10445000B8EE400AF4EEC00AF1EE10FA02DB0120D9
:10446000BA490870BD4890ED1A0AD0ED1B0A70EEEB
:10447000600ABB48808900EE100AB8EE400AF4EEEC
:10448000C00AF1EE10FA15D8B44890ED1A0AD0ED32
:104490001B0A70EE200AB248808900EE100AB8EEBE
:1044A000400AF4EEC00AF1EE10FA03DB0120AD4938
:1044B000087004E00020AB49087007F06DF8A748C9
:1044C00090ED1C0AD0ED1F0A70EE600AA448C08966
:1044D00000EE100AB8EE400AF4EEC00AF1EE10FA4F
:1044E00003D802209B49087018E09C4890ED1D0AF3
:1044F000D0ED1F0A70EE200A9948C08900EE100A1C
:10450000B8EE400AF4EEC00AF1EE10FA06DB012024
:104510009049087008F064FE08F07CFD924800881D
:10452000012804DB90480088401E8F4908808E488F
:10453000008810B900208D490870874800788549A7
:104540000978884223D08348007801281FD14FF48E
:1045500016708549088085480078401C834908709A
:1045600008460078032812DB0120814908700020EA
:104570007E4908707F4890ED000ADFED7F0A30EE3B
:10458000200A7E4880EDFD0A00207D490880784899
:10459000007801282AD1B7EE000A7A4880ED270A70
:1045A0009FED790A80ED280A9FED770AA0F55270F9
:1045B00080ED270A9FED740A80ED280AB0EE000A0C
:1045C000A83880ED270AB7EE000A80ED280A6B486C
:1045D00090EDFD0A6748D0ED000AB4EEE00AF1EE76
:1045E00010FA1FD80020624908701BE0B7EE000ADD
:1045F000644880ED270AB7EE000A80ED280AB7EE7E
:10460000000AA0F5527080ED270AB7EE000A80ED8F
:10461000280AB7EE000AA83880ED270AB7EE000A8C
:1046200080ED280A5648008801280DD10FF036FB8E
:104630005649087008460078022803D100205049E6
:10464000088001E00FF0DEFA404800784049097820
:1046500088420BD03D480078012801D114F058FE63
:10466000444890ED000A454880EDFD0A3348007843
:104670003349097888420CD030480078022802D1AA
:104680000120434908702D480078012801D1404994
:1046900008702C4800782C490978884212D02948A3
:1046A0000078022804D13A4908700020394908707E
:1046B00024480078012805D10220354908700120DE
:1046C0003449087032480078012811D11B4800781D
:1046D000022809D13048008830490880254890EDEB
:1046E000000A264880EDFD0A00202949087075E07F
:1046F00027480078022871D11248007802285CD13E
:1047000024480078C0B902F0D3FAA8B1194890ED56
:10471000020A234880ED010A164890ED010A21485B
:1047200080ED010A00F5FC7009F01CFF1C4809F03F
:1047300019FF1B48A83837E04DE00000AC0A002004
:10474000AD0A0020AE0A0020AF0A0020B00A002007
:10475000B10A0020B20A0020B30A0020F80F00209E
:104760004C3F0020BD0A0020B60A0020B50A0020F8
:10477000B40A00203822002000009642581400207D
:10478000A0020020381C00209A99993FB008002010
:10479000B80A0020BC0A002080020020BA0A0020CB
:1047A000E81A00209819002009F0DCFE294809F0D9
:1047B000D9FE0120284908700DE0284809F0D2FEF2
:1047C0002648A83809F0CEFE2248A83009F0CAFED3
:1047D000204809F0C7FE00202149087021480078D0
:1047E000022835D102F064FA08B31B48007878BB80
:1047F0001D4890ED020A1948A83880ED010A1A48B0
:1048000090ED010A134880ED010A144809F0AAFE50
:104810001248A83809F0A6FE0E48A83009F0A2FEFA
:104820000C4809F09FFE01200B49087010E00020A1
:1048300009490870094809F095FE0848A83809F0A8
:1048400091FE0448A83009F08DFE024809F08AFE66
:1048500010BD000098190020BC0A0020901B002009
:10486000B80A0020AE0A00203822002010B52DED35
:10487000028B0021084605F0D3F859A200211E2022
:1048800004F0E2FF5948B0F90000401C00EE100AA5
:10489000B8EEC00A0021642016F012FD01210020AC
:1048A00005F0BEF852A20121002004F0CDFF5248CD
:1048B00000680A21B0FBF1F201FB120000EE100AC1
:1048C000B8EE400AB0EE408A0121282016F0F8FC2C
:1048D0004A4800680A21B0FBF1F201FB120000EE29
:1048E000100AB8EE400AB0EE408A0121502016F0BE
:1048F000E7FC0221002005F093F841A202210020EC
:1049000004F0A2FF3C4840680A21B0FBF1F201FB31
:10491000120000EE100AB8EE400AB0EE408A022102
:10492000282016F0CDFC354840680A21B0FBF1F292
:1049300001FB120000EE100AB8EE400AB0EE408A09
:104940000221502016F0BCFC0321002005F068F87D
:104950002DA20321002004F077FF2748D0ED020AA2
:10496000F8EE600AB0EE600A0321282016F0A8FCD9
:10497000224880680A21B0FBF1F201FB120000EE30
:10498000100AB8EE400AB0EE408A0321502016F01B
:1049900097FC0421002005F043F81DA2042100200B
:1049A00004F052FF0521002005F03AF81EA205216F
:1049B000002004F049FF0621002005F031F820A274
:1049C0000621002004F040FF0721002005F028F810
:1049D00020A20721002004F037FFBDEC028B10BDA0
:1049E00041637469766174696F6E00006A02002029
:1049F0004944313A00000000203F00202C3F0020B5
:104A00004944323A000000004944333A00000000B3
:104A1000506C656173652074616B652070686F749C
:104A20006F206F6600000000746865204F4C45449D
:104A300020616E6420636F6E746163740000000017
:104A400020205151203A3331333833373231363523
:104A500000000000202054454C3A313536373136BD
:104A6000373832303500000010B50446204613F0C8
:104A7000DEFC10BD2DE9F04105460C4621462846D6
:104A800013F048FF0646601CC1B2284613F042FFEF
:104A9000074647EA062000B2BDE8F08170B500265F
:104AA000002414E02146002004F044FF00250AE021
:104AB0003146761C0A4A505C04F084FF0220FFF75E
:104AC000D3FF681CC5B2802DF2DB601CC4B2082C79
:104AD000E8DB4FF4FA70FFF7C7FF04F075FE70BD16
:104AE00080E101003EB505460C46012039490880A9
:104AF0003948007802280AD101203849088038480E
:104B000090ED080AB1EE400A80ED070A02E00020AD
:104B100032490880002033490880334908803349EE
:104B200008800221324A03469FED320ACDE9002176
:104B300002904FF4FA6241F288312F48FEF74BF8A9
:104B4000002004212A4A0346B6EE000ACDE90021DE
:104B500002904FF4FA6241F288312848FEF73BF8A0
:104B600000200821224A03469FED250ACDE90021B5
:104B700002904FF4FA6241F288312248FEF72BF896
:104B80000020214908802149088001200DF0CCFB3C
:104B900001200DF093FB01200DF0EEFB4FF4966029
:104BA0001B49088000201B4908700FF02BF80120DA
:104BB00004EB4401685404EB44012944887004EB7D
:104BC000440129444870C82105F11E0020F8141042
:104BD00001203EBD94020020AC0A0020A00200206B
:104BE000381C00209E0200209C020020A20200200F
:104BF000005002406666663F9C100020B010002006
:104C0000CDCCCC3DC4100020280100206A02002039
:104C1000960200209902002010B50220FBF7B8FB95
:104C200010F084FB0B48C46904F00C0080B10A4802
:104C30000EF04EFF0220FBF7ABFB10F077FB0548B0
:104C4000C46904F00C0008B1022010BD0120FCE78B
:104C50000020FAE700F00A40005800F02DE9F0418A
:104C600007460E46144600BF2A48856905F0010034
:104C70000028F9D1B00927494860C6F3830088604D
:104C8000A40835E0244800682449084024498842A3
:104C900006D12148006880B210B9304610F026FBDA
:104CA0001C493868486100BF1A48856905F0010051
:104CB0000028F9D105F4887078B1174800681749C1
:104CC00008401749884205D11348006880B208B9E6
:104CD00010F0F0FA2846BDE8F0813F1D641E3CB19B
:104CE0000C48806820B90B484068401C094948605E
:104CF000002CC7D108480068084908400849884284
:104D000005D10548006880B208B910F0D3FA01480F
:104D10008069E0E700F00A4000E00F400000FF700B
:104D20000000051010B58B090B4C6360C1F38303C1
:104D3000A36092080DE0084B5B690360001D521EE2
:104D40003AB1054B9B6823B9034B5B685B1C024C73
:104D50006360002AEFD110BD00F00A4010B503488F
:104D60000EF080FEFFF758FF10BD0000005800F065
:104D70002DE9F04F2DED048B85B04D49888816F054
:104D8000E9FE41EC190B9FED4B0B53EC102B16F089
:104D900031FF41EC180B16F099FE84B24449888823
:104DA00016F0D8FE41EC190B9FED420B53EC102B83
:104DB00016F020FF41EC180B16F088FE85B23C4936
:104DC000888816F0C7FE41EC190B9FED3A0B53ECA7
:104DD000102B16F00FFF41EC180B16F077FE86B281
:104DE0003349888816F0B6FE41EC190B9FED310B64
:104DF00053EC102B16F0FEFE41EC180B16F066FE7D
:104E000087B22B49888816F0A5FE41EC190B9FED5F
:104E1000290B53EC102B16F0EDFE41EC180B16F09D
:104E200055FE1FFA80F82249888816F093FE41EC5F
:104E3000190B9FED200B53EC102B16F0DBFE41EC11
:104E4000180B16F043FE1FFA80F91949888816F0EE
:104E500081FE41EC190B9FED170B53EC102B16F054
:104E6000C9FE41EC180B16F031FE1FFA80FA10490A
:104E7000888816F06FFE41EC190B9FED0E0B53EC7A
:104E8000102B16F0B7FE41EC180B16F01FFE1FFAA0
:104E900080FB43464A4651465846CDE90076CDE967
:104EA000025409F0C5FD05B0BDEC048BBDE8F08FE0
:104EB0004C3F0020000000000000F43F00B52DED45
:104EC000028B83B05A480088B0F57A7F2ED15948BA
:104ED000B0F9000016F027FE41EC180B9FED560BC1
:104EE00053EC102B16F084FF20D85548B0F9000081
:104EF00016F019FE41EC180B9FED520B53EC102BE2
:104F000016F076FF12D85148B0F9000016F00BFEEB
:104F100041EC180B9FED4E0B53EC102B16F02EFEB0
:104F200004D84D480088401C4B4908804048008800
:104F3000B0F57A7F77D13F48B0F9000016F0F3FD65
:104F400041EC180B9FED3C0B53EC102B16F050FF6F
:104F500069D83B48B0F9000016F0E5FD41EC180BAC
:104F60009FED380B53EC102B16F042FF5BD83748FF
:104F7000B0F9000016F0D7FD41EC180B9FED340B93
:104F800053EC102B16F0FAFD4DD833480088B0F5DD
:104F90007A7F48DD31480088F0BBB7EE000A304820
:104FA00080ED000A00202C4908802E4908802E49F7
:104FB0002B4890ED000A542010F022F90020022125
:104FC0002A4A03469FED2A0ACDE9002102904FF4B8
:104FD000FA7241F288312748FDF7FDFD00200421D7
:104FE000224A03469FED220ACDE9002102904FF4A8
:104FF000FA7241F288312048FDF7EDFD00200821CA
:105000001A4A03469FED1A0ACDE9002102904FF497
:10501000FA7241F2883100E005E01848FDF7DBFD47
:105020000E201749088003B0BDEC028B00BD0000C4
:1050300080020020860200200000000000C06240C4
:105040008402002000000000008036408202002020
:1050500000000000008036C00E01002094020020F5
:1050600010010020A2020020B437002000500240AE
:10507000CDCC4C3E9C100020B0100020C41000206D
:105080006A02002006F05AFB09F066FC02F0BCFF41
:10509000642013F0E1F925499FED250A542010F012
:1050A000AFF842E0FFF764FE0021084604F0B8FCC8
:1050B0000121002004F0B4FC1EA20021084604F0E7
:1050C000F5FB0221002004F0ABFC0321002004F0DA
:1050D000A7FC1CA20221002004F0E8FB0421002010
:1050E00004F09EFC0521002004F09AFC19A2042182
:1050F000002004F0DBFB1AA20421502004F0A4FBE2
:105100001948808800EE900AF8EE600AB0EE600A56
:105110000521502016F0D4F80621002004F080FC70
:1051200012A20621002004F08FFBBBE7B437002059
:1051300000000000506C65617365204D6F7665203E
:1051400054687200446F776E205768656E2045532F
:1051500043000000426565702042656570000000F4
:105160005468723A000000004C3F00205265706F96
:10517000776572205768656E2053657420557000FE
:1051800010B52DED0C8B84B000200190029003909F
:10519000EF49A1F10C0004F0D8FFEE4890ED000AB1
:1051A000DFEDED0A60EE200A9FEDEC1A80EE810A39
:1051B000EB48D0ED000AE6480C3890ED031A10EEEB
:1051C000810AE84880ED000AE24890ED010ADFED2F
:1051D000E20A60EE200A9FEDE11A80EE810AE048C3
:1051E000D0ED010ADA480C3890ED041A10EE810A6D
:1051F000DC4880ED010AD74890ED020ADFEDD60ABF
:1052000060EE200A9FEDD51A80EE810AD448D0EDD9
:10521000020ACF480C3890ED051A10EE810AD148E9
:1052200080ED020A90ED000AF0EE408A90ED010A4E
:10523000B0EE409A90ED020AB0EE408A69EE090A9B
:1052400048EE080AB0EE600A13F096FE20EE280A37
:1052500010EE104A204616F0C3FF41EC1C0BB0EED6
:105260004C0AF0EE6C0A10F0E3FAB0EE40BAF0EE41
:1052700060BA9FEDBD0B53EC102B51EC1B0B16F0DD
:10528000B9FC41EC1A0B16F0ABF9B949086068EEAD
:10529000A80A48EE080AB0EE600A13F06DFE20EE90
:1052A000090A10EE104A204616F09AFF41EC1C0B3A
:1052B000B0EE4C0AF0EE6C0A10F0BAFAB0EE40BA5A
:1052C000F0EE60BA9FEDAB0B53EC102B51EC1B0BC7
:1052D00016F090FC41EC1A0B16F082F9A749086011
:1052E000084690ED000ADFEDA60A20EE200A10EE37
:1052F000101A084616F074FF41EC1B0BB0EE4B0A77
:10530000F0EE6B0A11F060FFB0EE40AAF0EE60AA7A
:1053100051EC1A0B16F064F900EE100A994880ED72
:10532000000A964890ED000ADFED950A20EE200A6B
:1053300010EE101A084616F053FF41EC1B0BB0EEAE
:105340004B0AF0EE6B0A10F0D7FCB0EE40AAF0EE7C
:1053500060AA51EC1A0B16F043F900EE100A8A48C5
:1053600080ED000A824890ED000ADFED850A20EE0C
:10537000200A10EE101A084616F032FF41EC1B0B03
:10538000B0EE4B0AF0EE6B0A11F01EFFB0EE40AA31
:10539000F0EE60AA51EC1A0B16F022F900EE100A9A
:1053A0007A4880ED000A724890ED000ADFED740A39
:1053B00020EE200A10EE101A084616F011FF41ECFC
:1053C0001B0BB0EE4B0AF0EE6B0A10F095FCB0EE42
:1053D00040AAF0EE60AA51EC1A0B16F001F900EEAB
:1053E000100A6B4880ED000A08E0052013F034F83D
:1053F00057480C3002F022FD664908706548007875
:105400000028F2D052480C3890ED060A6248D0EDE0
:10541000000A30EE600A8DED010A4D480C3890ED1F
:10542000070A5D48D0ED010A30EE600A8DED020AF0
:1054300047480C3890ED080A5748D0ED020A30EE84
:10544000600A8DED030A9DED010A5148D0ED000A76
:1054500020EE200ADDED030A4C4890ED001A00EE24
:10546000810A4E4880ED000A9DED010A4548D0EDC5
:10547000000A20EE200A4548D0ED000A20EE200A5E
:10548000DDED020A404890ED001A00EE810ADDEDE4
:10549000030A3C4890ED001A60EE810A3C4890ED0A
:1054A000001A00EEC10A3D4880ED010A90ED010AA4
:1054B00010EE101A084616F093FE41EC1C0B37480C
:1054C00090ED000A10EE101A084616F089FE41EC25
:1054D0001D0BB0EE4C1AF0EE6C1AB0EE4D0AF0EE69
:1054E0006D0A10F011FBB0EE40BAF0EE60BA9FED1D
:1054F0002C0B53EC102B51EC1B0B16F07BFB41ECEF
:105500001A0B16F06DF828490860194890ED000A4A
:10551000DFED1B0A20EE200A244880ED000A174820
:1055200090ED000ADFED160A20EE200A204880EDFB
:10553000000A084690ED000ADFED110A20EE200A6D
:105540001C4880ED000A04B0BDEC0C8B10BD0000BF
:1055500048300020E8410020000000450AE81C41D6
:10556000100A0020304200206666666666A64CC0BF
:10557000000A00206666666666A64C40FC090020AC
:1055800035FA8E3C240A0020300A0020280A002028
:10559000340A00203C0A002068130020600200202A
:1055A00000000060E3A54C40040A0020440A0020EB
:1055B000400A0020480A002000B599B0002012904F
:1055C00013901490FE4890ED000ADFEDFE0A60EEA5
:1055D000200A9FEDFD1A80EE810AFC48D0ED000AFA
:1055E000FB4890ED031A10EE810AFA4880ED000A9C
:1055F000F34890ED010ADFEDF30A60EE200A9FED1B
:10560000F21A80EE810AF148D0ED010AF04890EDDF
:10561000041A10EE810AEF4880ED010AE84890ED87
:10562000020ADFEDE80A60EE200A9FEDE71A80EE3D
:10563000810AE648D0ED020AE54890ED051A10EE21
:10564000810AE44880ED020A90ED000A8DED170A08
:1056500090ED010A8DED160A90ED020A8DED150A06
:105660009DED160A20EE000ADDED150A00EEA00AF7
:105670008DED0A0A9DED0A0A13F07EFCDDED170A96
:1056800020EE200A8DED0B0A0B9816F0A9FDCDE94E
:105690000C019DED0C0B10F0CBF88DED0E0B9FED7A
:1056A000CE0B53EC102B9DED0E0B51EC100B16F0A6
:1056B000A1FACDE910019DED100B51EC100B15F086
:1056C0008FFFC74908609DED170A20EE000ADDED47
:1056D000150A00EEA00A8DED0A0A9DED0A0A13F0E4
:1056E0004BFCDDED160A20EE200A8DED0B0A0B981F
:1056F00016F076FDCDE90C019DED0C0B10F098F83D
:105700008DED0E0B9FEDB70B53EC102B9DED0E0B9B
:1057100051EC100B16F06EFACDE910019DED100B57
:1057200051EC100B15F05CFFB0490860084690ED95
:10573000000ADFEDAF0A20EE200A8DED0D0A0D986C
:1057400016F04EFDCDE90E019DED0E0B11F03CFD66
:105750008DED100B9DED100B51EC100B15F040FF73
:1057600000EE100AA34880ED000AA04890ED000A60
:10577000DFED9F0A20EE200A8DED0D0A0D9816F040
:105780002FFDCDE90E019DED0E0B10F0B5FA8DED5C
:10579000100B9DED100B51EC100B15F021FF00EEDE
:1057A000100A954880ED000A8D4890ED000ADFED63
:1057B000900A20EE200A8DED0D0A0D9816F010FDCE
:1057C000CDE90E019DED0E0B11F0FEFC8DED100BE1
:1057D0009DED100B51EC100B15F002FF00EE100ABE
:1057E000864880ED000A7E48D0ED000A9FED800AD1
:1057F00020EE800A8DED0D0A0D9816F0F1FCCDE932
:105800000E019DED0E0B10F077FA8DED100B9DED56
:10581000100B51EC100B15F0E3FE00EE100A784867
:1058200080ED000A6A4890ED060A7648D0ED000A3D
:1058300030EE600A8DED120A654890ED070A714856
:10584000D0ED010A30EE600A8DED130A604890ED4C
:10585000080A6C48D0ED020A30EE600A8DED140A99
:10586000DDED120A664890ED000A20EE800ADDEDBB
:10587000140A624890ED001A00EE810A624880ED39
:10588000000A9DED120A5B48D0ED000A20EE200AC6
:105890005A48D0ED000A20EE200A9DED131A564812
:1058A000D0ED000A01EE200ADDED140A514890ED1A
:1058B000001A60EE810A524890ED001A00EEC10A0B
:1058C000514880ED010A4068099016F089FCCDE945
:1058D0000C014D480068099016F082FCCDE90A01E0
:1058E0009DED0C1B9DED0A0B10F00EF98DED0E0BCE
:1058F0009FED460B53EC102B9DED0E0B51EC100B56
:1059000016F078F9CDE910019DED100B51EC100B5C
:1059100015F066FE3F490860314890ED000ADFED62
:10592000340A20EE200A3C4880ED000A2F4890ED12
:10593000000ADFED2F0A20EE200A384880ED000A29
:10594000084690ED000ADFED2A0A20EE200A3448CE
:1059500080ED000A3148D0ED000AB0EE001A80EE6A
:10596000810A8DED050A059816F03AFCCDE906018D
:105970009DED060B11F028FC8DED0A0B2648D0EDAD
:10598000000AB0EE001A80EE810A8DED010A01983E
:1059900016F026FCCDE902019DED020B11F014FC7E
:1059A0008DED060B1E4890ED001AF0EE000A81EE18
:1059B000200A8DED010A019816F012FC32E0000079
:1059C000E8410020000000450AE81C41100A0020C0
:1059D0003C300020304200206666666666A64CC0F9
:1059E000000A00206666666666A64C40FC09002038
:1059F00035FA8E3C240A0020300A0020280A0020B4
:105A0000340A0020681300206002002000000060BB
:105A1000E3A54C40040A0020440A0020400A00206C
:105A2000480A0020CDE902019DED020B11F0CCFBEC
:105A30008DED040B9DED060B53EC102B9DED040B2F
:105A400051EC100B16F0D6F8CDE908019DED0A0BCC
:105A500053EC102B9DED080B51EC100B16F0CAF80F
:105A6000CDE90E01FE48D0ED000AB0EE001A80EE3E
:105A7000810A8DED050A059816F0B2FBCDE9060105
:105A80009DED060B10F038F98DED0A0BF548D0EDC1
:105A9000000AB0EE001A80EE810A8DED010A01982D
:105AA00016F09EFBCDE902019DED020B10F024F9EA
:105AB0008DED060BEC4890ED001AF0EE000A81EE39
:105AC000200A8DED010A019816F08AFBCDE902014A
:105AD0009DED020B10F010F98DED040B9DED060B02
