:03000000020CA649
:0C0CA600787FE4F6D8FD758166020CED45
:1008F10057454C434F4D450053636F72653A004C69
:100901006576656C3A00596F75204661696C0059CE
:100911006F75205061737300506C6179696E670067
:1009210000010002000400080010002000400080C7
:1009310001000200040008001000200040008000B7
:1009410088C0E800622002E0226008E0C880E2007E
:100951008C406C008C406C004C80C6004C80C60002
:1009610004E08C80E400262044440F0044440F003E
:1009710006600660066006600001000200040008CF
:100981000010002000400080010002000400080067
:0809910010002000400080006E
:10104F00040A00000001202A3D0FFF0801080108D3
:10105F000108010801080108010801080108010839
:10106F000108010801080108010801080108010829
:10107F00010FFF01210001080001220101200501DC
:02108F00090056
:10124F007580FFC2A4D2A5D2A600E5805480FFC24C
:01125F00A6E8
:01126000226B
:10122300AE0712124FEF70FAD2A4C2A5C2A60000F5
:091233008E80D2A60000C2A622A2
:1010920029FF1211931210A5AD077C001210A5EFC3
:0310A2007D00FCD2
:1010A50012124FEF70FA7580FFD2A4D2A5D2A60016
:0410B500AF80C2A6A0
:0110B9002214
:04118F00EA2480FFCF
:10119300AE0712124FEF70FAC2A4C2A5C2A6000096
:0B11A3008E800000D2A60000C2A62231
:0B0F1900120F247B007A0079237F0573
:100F2400AE07EDD394035042EE9407503DC2AFEDAB
:100F340014600F14601114601324037016EE2480DF
:100F4400800DEE24908008EE24888003EE2498FF20
:100F5400121193120380FFD39400400C12122374D5
:0B0F64000129F9E43AFA80EBD2AF2239
:040A3F00AA05A90754
:100A4300E9C394804003020ADFEAC39440400302EF
:100A53000ADF530301E9540FFFC3740F9FF53CE909
:100A6300C4540FF9EAC394205005753B8080037585
:100A73003B8853021FC2AF7F3612119312118FE5C9
:100A83003B121092EFFDD2AFE53CBB011625E024EB
:100A930021F582E43409F583E4934204740193421B
:100AA30005801C25E02421F582E43409F583E493D1
:100AB300FE740193F4FFEEF4FEEF5205EE5204C20E
:100AC300AF12118FE53B29FF121193AF04121223CA
:0C0AD300AF051212237F30121193D2AF36
:010ADF0022F4
:100D3200E52875F003A4FFC374219FFFE52775F032
:080D420003A4FEC3743C9EFDF6
:020D4A00AB07F5
:100D4C00EBC394805006EDC3944040037F0022EB2C
:100D5C00540FFFC3740F9FFAEBC4540FFBEDC394F5
:100D6C0020500479808002798853051FC2AF7F36EA
:100D7C00121193ED2480FF121193EB121092EFFDE0
:100D8C00D2AFED4C601BEA25E02421F582E4340956
:100D9C00F5837401937002E49360067E007F0180FA
:0D0DAC00047E007F00EF4E7002FF227F01E9
:010DB9002217
:0610BA008F368D378B38E4
:1010C000E538601AE4F53AE53AC395385010E5364C
:0E10D000253AFFAB39AD37120A3F053A80E9E9
:0110DE0022EF
:0610DF008F368D378B38BF
:1010E500E538601AE4F53AE53AC395385010E53726
:0E10F500253AFDAB39AF36120A3F053A80E9C5
:0111030022C9
:060EAF008F308D318B3203
:100EB500E530D39532400985303585323085353278
:100EC500E531D39533400985313585333185353362
:100ED500C3E533953104FB853439AD31AF3012109C
:100EE500DFC3E533953104FB853439AD31AF3212BB
:100EF50010DFC3E532953004FB853439AD31AF30B1
:100F05001210BAC3E532953004FB853439AD33AFE1
:040F1500300210BADC
:100FBE00EF20E004E4FD80027DFF7F36121193E402
:100FCE00FCECC39409502FE4FBE4FAC2AFEB24808F
:100FDE00FF121193EA24802CFF121193AF05121207
:100FEE0023AF05121223D2AF0ABA08DF0BBB20D9EA
:0B0FFE0074082CFC80CB7F30021193A4
:0A1261007F301211937F01021193F8
:10114E00D2A2C2A20000D2A27F301211937F061249
:10115E0011937F011211937F0C1211937F020211D2
:01116E0093ED
:10099900E47BC87AADF9F8AF0DAE0CAD0BAC0A1219
:1009A9000479E47B477A0DF9F81203EEC004C00517
:1009B900C006C007E47BC87AADF9F8AF0DAE0CAD3F
:1009C9000BAC0A120479AC00AD01AE02AF03E47BB3
:1009D9008F7ABCF9F81203EED003D002D001D0000F
:1009E900C3EF9BF52AEE9AF529ED99F528EC98F5D0
:1009F90027AF2AAE29AD28FC33400A8F0D8E0C8D06
:100A09000B8C0A801BE52A24FFFFE52934FFFEE54C
:100A19002834FFFDE527347F8F0D8E0C8D0BF50AE9
:100A2900AF0DAE0CAD0BAC0AE41201A9E4FBFAF967
:050A3900784F12010CD2
:010A3E002295
:09126B008F0D8E0C8D0B8C0A22F4
:10116F00E4FDFCC3ED9FEC9E5015E4FBFA0BBB00B6
:0F117F00010AEB640A4A70F50DBD00010C80E413
:01118E00223E
:10123C00E4F589F58CF58AD28CD2A9D2AAD2AF4327
:03124C00880422F1
:100C1800E4F523E52375F003A4FF2402FB753302F2
:100C2800753401E4FD120EAFE52375F003A4FF242B
:100C380002FB75333E7534017D3C120EAF0523E58A
:100C480023C3940C40CDE4F523E52375F003A4FDFC
:100C58002402F5337534017B02E4FF120EAFE5235D
:100C680075F003A4FD2402F5337534017B237F213D
:100C7800120EAF0523E523C3941440CD7BFF7A08F9
:100C880079F1E4FD7F03120F247A0879F97D027F58
:0E0C980003120F247A0979000D7F03020F2446
:10100900E50875F00A844430F523E50875F00A848B
:10101900E5F04430F524E4F525121261E5217BFF62
:101029007A0879F97D027F0230E10B120F197BFFF3
:101039007A0979078009120F197BFF7A0979101D3E
:051049007F02120F24DC
:01104E00227F
:100DBA0074032511F51178277C007D007B007A00E9
:0C0DCA00790E7E007F06120338752D01A3
:100DD600E4F52EE4F52FE52E25E025E0252F25E088
:100DE6002479F582E43409F583E4935527FE7401EA
:100DF6009355284E6027E52F75F003A42529FFE5B6
:100E06002E75F003A4FEE52A24FEC39EFDEF240200
:100E1600FBC3E52A9EF533852D34120EAF052FE56B
:0F0E26002FC3940440B0052EE52EC3940440A4BE
:010E3500229A
:100AE000E4F527E4F528E52725E025E0252825E09D
:100AF0002479F582E43409F583E493550EFE7401FC
:100B000093550F4E605FE51124FEFFE434FFFE7C39
:100B1000007D03120399C374149F252725E0243D0B
:100B2000F8C000E6FC08E6FDE51075F00312035E70
:100B3000FF3395E0FEC3740B9FFFE49EFEC3EF9569
:100B400028FFEE9400FEEF25E0FFEE33FE74792FD0
:100B5000F58274093EF583E4934CFE7401934DD005
:100B600000A60608F60528E52864046003020AE6E4
:0B0B70000527E52764046003020AE388
:010B7B002257
:100B7C00E4F527E4F528E52725E025E0252825E000
:100B8C002479F582E43409F583E4935514FE740159
:100B9C009355154E605DE51675F00312035EFF3339
:100BAC0095E0FEC3740B9FFFE49EFEC3EF9528FFF8
:100BBC00EE9400FEEF25E0FFEE33FE74792FF58204
:100BCC0074093EF583E493FA740193FBE51724FE54
:100BDC00FFE434FFFE7C007D03120399C374149F61
:100BEC00252725E0243DF8EA56FEEB08564E600317
:100BFC007F00220528E52864046003020B82052788
:0B0C0C00E52764046003020B7F7F01FA
:010C170022BA
:1011CC0078147C007D007B007A00790E7E007F060F
:0D11DC0012033874032517F517120B7C223F
:1011E90078147C007D007B007A00790E7E007F06F2
:0D11F90012033874FD2516F516120B7C222A
:1012060078147C007D007B007A00790E7E007F06D4
:0D12160012033874032516F516120B7C2206
:100F6F0078147C007D007B007A00790E7E007F066E
:100F7F001203380519E519D394034003E4F519E575
:100F8F001825E025E02519FD25E02441F582E434FC
:100F9F0009F583E493FEED25E02442F582E434095C
:0E0FAF00F583E493FDEDFF8E14F515120B7C17
:010FBD002211
:1007D000E4FBE51124FEFFE434FFFE7C007D031200
:1007E0000399EFC3941440047F018005C374149FE0
:1007F000FFEF2403F528E528C39F404DE52825E0B9
:10080000243EF9E7F4700419E7640F70387B01E5C2
:100810002804F527E527D39413501CE52725E02469
:100820003DF8E6FC08E6FDE52725E0243BF8A604B4
:1008300008A605052780DDE52725E0243DF8760894
:100840000876010508152880ADEB70030208F08FCB
:1008500027E527D3941340030208F0752801E52803
:1008600025E02479F582E43409F583E52725E024A1
:100870003DF8E6FE08E6FFE4935EFE7401935F4EEA
:10088000702E120D32EF6057E52875F003A4FEC3F9
:1008900074219EFFE52775F003A4FCC3743C9CFD06
:1008A000C374239EFBC3743E9CF533E4F534802C63
:1008B000120D32EF7029E52875F003A4FEC37421F0
:1008C0009EFFE52775F003A4FCC3743C9CFDC37434
:1008D000239EFBC3743E9CF533753401120EAF05A5
:1008E00028E528D3940A500302085E052702085120
:0108F00022E5
:100E360078277C007D007B007A00791A7E007F0689
:100E4600120338E4F52D120DD6120999E4FBFA794E
:100E5600E078411200031201E7AD07ED25E02441D9
:100E6600F582E43409F583E493FEED25E02442F5AA
:100E760082E43409F583E493FBEB8E1AF51B751CAB
:100E86002D751D0EED1313543FF51EED5403F51F7E
:100E960078277C007D007B007A00791A7E007F0629
:090EA600120338752D01020DD66E
:10110400E50875F00A844430F527E50875F00A848B
:10111400E5F04430F528E4F529FB7A0079277D02CF
:051124007F06020F240C
:10112900E52275F00A844430F527E52275F00A8432
:10113900E5F04430F528E4F529FB7A0079277D03A9
:051149007F06020F24E7
:10051900432101AF8AE4FCFDFE12126B7BFF7A09CD
:1005290079190D7F03120F24121104121129120EC9
:1005390036E52120E0030206575321FE780E7C00A0
:100549007D007B007A00791A7E007F06120338123B
:0E0559000E3675100C75110EE4F523E4F52432
:10056700E52325E025E0FFC3740F9FC3952425E00D
:100577002479F582E43409F583E493550EF525745F
:0F0587000193550FF5264525600575090180077D
:100596000524E524B404CAE524B4040674FD251133
:1005A600F511E50970070523E523B404B1E4F52345
:1005B600E4F524E52325E025E0252425E02479F546
:1005C60082E43409F583E493550EFE740193550FC6
:1005D6004E605DE51075F00312035EFF3395E0FE95
:1005E600C3740B9FFFE49EFEC3EF9524FFEE9400B9
:1005F600FEEF25E0FFEE33FE74792FF58274093E97
:10060600F583E493FA740193FBE51124FEFFE434C9
:10061600FFFE7C007D03120399C374149F252325D6
:10062600E0243DF8EA56FEEB08564E6003432102ED
:100636000524E524640460030205B90523E5236463
:100646000460030205B6E52130E1030207CF120D6F
:10065600C01211E9EF602520B22278277C007D00C8
:100666007B007A00790E7E007F06120338E4F52DB2
:10067600120DD674FD2510F510120DC0121206EFDC
:10068600602520B32278277C007D007B007A0079E4
:100696000E7E007F06120338E4F52D120DD6740384
:1006A6002510F510120DC01211CCEF601F20B11CE1
:1006B60078277C007D007B007A00790E7E007F061D
:1006C600120338E4F52D120DD6120DBA120F6FEF84
:1006D600607220B06F7F647E0012116F120F6FEF91
:1006E600606220B05F20B0077F887E1312116F789A
:1006F600277C007D007B007A00790E7E007F061243
:100706000338E4F52D120DD60513E513D3940340F3
:1007160003E4F513E51225E025E02513F52325E08E
:100726002441F582E43409F583E493FEE52325E0CC
:100736002442F582E43409F583E493FDED8E0EF54B
:100746000F120DC07FF47E0112116F1EC3740B953C
:1007560022FFE49EFEEF25E0FFEE33FE0520C3E513
:10076600209FEE6480F8748098500302053AE4F501
:10077600201211CCEF601F78277C007D007B007A69
:1007860000790E7E007F06120338E4F52D120DD691
:10079600120DBA02053A120AE01207D0121104E548
:1007A6002275F002A4FFC3E5089FE5F06480F874A3
:1007B6008098400F5321FD0522121129E522D3947A
:0907C60005500643210102053A29
:0107CF002207
:1011AE0012123C12114EE4FF120FBE12114EE4FF4A
:0E11BE00120FBE120C1812051912100980FE35
:10000300EC4D6011E8497017ED33EC3304600DE4F7
:10001300FCFFFEFD22E933E8330470F802025312B9
:10002300021E58046009E4CC2481500628500902BA
:10003300025D28400302025AC0E0EB4A7044B980D3
:1000430006D0E0FB020249EF4E701CBD8008EBFFB7
:10005300EAFEE9FD80EBE98DF0A4FEE5F00200EC99
:10006300E9CDF9EAFEEBFFEF89F0A4FCE5F0CE89D8
:10007300F0A42EFFE435F0CD89F0A42DFEE435F095
:100083008067EF4E7005BD80D780C3EF8BF0A4ACC3
:10009300F0EE8BF0A42CFCE435F0F8EF8AF0A42CFE
:1000A300E5F038FCE433CB8DF0A42CFCE5F03BF811
:1000B300EE8AF0A42CFCE5F038F8E433CF89F0A401
:1000C3002CFCE5F038CF3400CE89F0A42FFFE5F007
:1000D3003EFEE433C98DF0A42EFEE5F039CD8AF05F
:1000E300A42FFFE5F03EFEE43DFD33D0E0FB5007D7
:1000F3000BBB000F02025DEC2CFCEF33FFEE33FE73
:06010300ED33FD020235A0
:1001090002025DEC5D046005E859047003020253C4
:1001190012021E580460F6EC4860F2EC7004FDFE11
:10012900FF22C860DB2481C85009C39860025006C9
:1001390002025A9850CAF582E9294B4A7005AB82E6
:1001490002024975F0007C1A7880C3EF9BEE9AEDA4
:1001590099400DC3EF9BFFEE9AFEED99FDE842F041
:10016900DC23ACF0D0E0FFD0E0FED0E0FDAB822094
:10017900E7101BEB60BAEC2CFCEF33FFEE33FEED1E
:1001890033FD020235E803F830E705C0F075F000E9
:10019900EF2FFFEE33FEED33FD40B830E7C280AA02
:1001A90075F020800E75F010800575F0087D007ED1
:1001B900007F003392D530D50312050BEC33401084
:1001C900EF33FFEE33FEED33FDEC33FCD5F0ED22DA
:0E01D900E5F0247EA2D513CC92E7CDCEFF2216
:1001E700EDD2E7CD33EC3392D524814006E4FFFE10
:1001F700FDFC22FCE4CFCECDCC24E0501174FF806F
:10020700EDC3CC13CCCD13CDCE13CECF13CF04700B
:07021700F030D5DE02050BFB
:10021E00E9D2E7C933E833F892D5EDD2E7CD33EC26
:07022E0033FC5002B2D5229F
:10023500EC30E7100FBF000C0EBE00080DBD00042A
:100245000BEB6014A2D5EB13FCED92E7FD2274FFD6
:10025500FCFDFEFF22E480F8A2D574FF13FC7D802F
:03026500E480EF43
:100CB2000211AEE493A3F8E493A34003F68001F299
:100CC20008DFF48029E493A3F85407240CC8C33343
:100CD200C4540F4420C8834004F456800146F6DF12
:100CE200E4800B010204081020408090104FE47E43
:100CF200019360BCA3FF543F30E509541FFEE49307
:100D0200A360010ECF54C025E060A840B8E493A3CD
:100D1200FAE493A3F8E493A3C8C582C8CAC583CAF8
:100D2200F0A3C8C582C8CAC583CADFE9DEE780BEB0
:01109100005E
:10026800E709F608DFFA8046E709F208DFFA803E78
:1002780088828C83E709F0A3DFFA8032E309F60865
:10028800DFFA8078E309F208DFFA807088828C83CD
:10029800E309F0A3DFFA806489828A83E0A3F60881
:1002A800DFFA805889828A83E0A3F208DFFA804C5B
:1002B80080D280FA80C680D4806980F28033801032
:1002C80080A680EA809A80A880DA80E280CA80339B
:1002D80089828A83ECFAE493A3C8C582C8CCC58313
:1002E800CCF0A3C8C582C8CCC583CCDFE9DEE780E3
:1002F8000D89828A83E493A3F608DFF9ECFAA9F062
:10030800EDFB2289828A83ECFAE0A3C8C582C8CCB7
:10031800C583CCF0A3C8C582C8CCC583CCDFEADED0
:10032800E880DB89828A83E493A3F208DFF980CC32
:1003380088F0EF60010E4E60C388F0ED2402B4042B
:100348000050B9F582EB2402B4040050AF232345D2
:0603580082239002B8733D
:10035E00C2D530F707B2D563F0FF05F030E70CB227
:10036E00D5F4048463F0FF05F080018430D502F4E7
:02037E00042257
:10038000BB010689828A83E0225002E722BBFE027B
:09039000E32289828A83E49322AE
:10039900BC000BBE0029EF8DF084FFADF022E4CC48
:1003A900F875F008EF2FFFEE33FEEC33FCEE9DEC11
:1003B900984005FCEE9DFE0FD5F0E9E4CEFD22ED57
:1003C900F8F5F0EE8420D21CFEADF075F008EF2FA1
:1003D900FFED33FD4007985006D5F0F222C398FD92
:0503E9000FD5F0EA222F
:1003EE00E88FF0A4CC8BF0A42CFCE98EF0A42CFCAE
:1003FE008AF0EDA42CFCEA8EF0A4CDA8F08BF0A42C
:10040E002DCC3825F0FDE98FF0A42CCD35F0FCEB8A
:10041E008EF0A4FEA9F0EB8FF0A4CFC5F02ECD394F
:0F042E00FEE43CFCEAA42DCE35F0FDE43CFC22BC
:10043D0075F008758200EF2FFFEE33FECD33CDCC76
:10044D0033CCC58233C5829BED9AEC99E5829840F9
:10045D000CF582EE9BFEED9AFDEC99FC0FD5F0D6D6
:10046D00E4CEFBE4CDFAE4CCF9A88222B800C1B900
:10047D000059BA002DEC8BF084CFCECDFCE5F0CB3E
:10048D00F97818EF2FFFEE33FEED33FDEC33FCEB77
:10049D0033FB10D703994004EB99FB0FD8E5E4F932
:1004AD00FA227818EF2FFFEE33FEED33FDEC33FC1F
:1004BD00C933C910D7059BE99A4007EC9BFCE99A13
:1004CD00F90FD8E0E4C9FAE4CCFB2275F010EF2F58
:1004DD00FFEE33FEED33FDCC33CCC833C810D70758
:1004ED009BEC9AE899400AED9BFDEC9AFCE899F893
:0E04FD000FD5F0DAE4CDFBE4CCFAE4C8F92226
:0E050B00C3E49FFFE49EFEE49DFDE49CFC2201
:00000001FF
