:020000040800F2
:1000000040050020010100085B0F00086B0D00088F
:10001000570F00081D0800089D1D00080000000083
:10002000000000000000000000000000891200082D
:10003000A70A000800000000E10F00084D140008A6
:100040001B0100081B0100081B0100081B01000820
:100050001B0100081B0100081B0100081B01000810
:100060001B0100081B0100081B0100081B01000800
:100070001B0100081B0100081B0100081B010008F0
:10008000210800081B0100081B0100081B010008D3
:100090001B0100081B0100081B0100081B010008D0
:1000A0001B010008F11600081B0100081B010008D5
:1000B000A11700081B010008B51700081B01000864
:1000C0001B0100081B0100081B0100081B010008A0
:1000D0001B0100081B010008DD1B00081B010008B4
:1000E000A90A00081B0100081B010008DFF80CD05A
:1000F00000F072FB004800476D2E0008400500200C
:100100000648804706480047FEE7FEE7FEE7FEE7B1
:10011000FEE7FEE7FEE7FEE7FEE7FEE75114000814
:10012000ED000008F0B480EA0102D40F4200B2EB07
:10013000410F02D20246084611464A0042D0C30D82
:10014000DDB2C1F3C752AD1A202D35DAC1F3160165
:1001500041F4000204B15242C5F1200602FA06F150
:100160002A411044B3EBD05F23D0C4B1012DA0EBE2
:10017000C35009DCF0BC4FF0004202EAC352DBB2CC
:1001800000F5000000F086BA400000F1807000EB3E
:10019000C350A0F1807040EAD170490009E04908DD
:1001A00041EAC071A0EBC35000F50000400800EB2D
:1001B000C350F0BC00F065BA6142012202EB41017C
:1001C000001BF6E7F0BC704781F00041AAE780F021
:1001D0000040A7E780EA010210B502F000434000AA
:1001E00022D04A001FD0010E01EB1261C0F356006D
:1001F000C2F3560240F4000042F40002A0FB0220C9
:1002000000047F39140400D0401C50EA124001D48D
:100210004000491EC2B20C0604EBD010401C40083E
:10022000802A02D003E0002010BD20F00100002948
:1002300000DA0020184310BD2DE9FE4F804681EA08
:100240000300C00F0C46009021F0004123F0004550
:10025000B8EB0200A94105D24046214690461C4613
:100260000B46024623F00040104347D0270DC7F34A
:100270000A00C3F30A510290401A019040286BDA39
:10028000C3F3130040F4801B0098924620B1002372
:10029000D2EB030A63EB0B0B01985946C0F1400205
:1002A000504600F0CDF906460D4650465946019A93
:1002B00000F0D5F910EB08006141002487EA1152E3
:1002C00084EAE7731A4340D0009A62B3019A012A84
:1002D0004FEA075215DC001B61EB02014FF00042B0
:1002E00002EA0752CDE90042001C41F58011324676
:1002F0002B4600F00CFA03B0BDE8F08F40462146D3
:10030000F9E7001B61EB0201001C41F580130018A6
:100310005B412018A2F5001747EB030140EAD570B6
:10032000B6196D4111E06D084FEA360645EAC07511
:100330004FEA0752001B61EB0201001C41F58011DE
:1003400049084FEA30000019514132462B4603B0AC
:10035000BDE8F04F00F0CCB9009801224000002326
:10036000D0EB020263EBE073009821464FEAE074A1
:10037000B8EB000061EB0401E9E783F000435BE7C1
:1003800081F0004158E72DE9FE4F81EA030404F0B3
:10039000004421F0004100944FF0000B23F0004393
:1003A00050EA01045ED052EA03045BD0C3F30A545E
:1003B000C1F30A552C44A4F2F3340194A0FB025477
:1003C000C1F3130141F48011C3F3130343F4801309
:1003D00001FB024400FB034E840A970A44EA81545D
:1003E00047EA8357A4FB076802958D0A05FB07853A
:1003F0004FEA932C04FB0C542705029D4FEA065844
:1004000047EA1637B5EB08056EEB070C870E920E20
:1004100047EA811742EA8312A7FB0201B6EB0B0100
:1004200064EB00042B0D43EA0C335E1844EB1C50C4
:10043000DA465146E7FB0201C5F313044FEA0B33DA
:1004400043EA14534FEA0432019C43EA0603A4F141
:100450000C040294009CCDE900B400F058F903B0FC
:10046000BDE8F08F00200146F9E72DE9F04D81EA63
:10047000030404F0004B21F0004514464FF0000A3D
:1004800023F0004150EA050220D054EA01021DD0B9
:10049000C5F30A570246C5F31303C1F31300C1F3B2
:1004A0000A5640F4801543F48013A7EB0608101B8E
:1004B000D64608F2FD3873EB050002D308F10108B7
:1004C00001E092185B41B8F1000F03DA0020014609
:1004D000BDE8F08D00204FF48011064684460EE002
:1004E000171B73EB050705D3121B63EB05030643CC
:1004F0004CEA010C49084FEA300092185B4150EA7F
:100500000107EDD152EA030012D082EA040083EA27
:100510000501084305D0101BAB4106D20122002380
:1005200006E000224FF0004302E06FF0010253109A
:100530001AEB06004CEB085110EB0A0041EB0B01E3
:10054000BDE8F04D00F0D4B8C10F80EAE070084477
:10055000CA079623002100F09DB800F0004220F069
:100560000040C10DC0F3160040F400007F2901DAFD
:1005700000207047962903DCC1F19601C84001E0D4
:1005800096398840002AF4D04042704700F000427B
:1005900030F000400AD0C10D01F56071C0F31600C3
:1005A00042EA0151C208400711437047002001464A
:1005B000704701F0004330B421F0004150EA0102DD
:1005C00006D00A0DA2F56072C1F31301002A02DC05
:1005D00030BC00207047440F44EAC104C100E01859
:1005E00030BC00EBC25000F04CB80000002801DB2A
:1005F000C0F10040002901DBC1F100418142704798
:10060000002801DBC0F10040002901DBC1F10041FD
:100610008842704730B50B46014600202022012455
:1006200009E021FA02F59D4205D303FA02F5491BC0
:1006300004FA02F52844151EA2F10102F1DC30BDD6
:10064000202A04DB203A00FA02F100207047914092
:10065000C2F1200320FA03F3194390407047202A87
:1006600006DBCB17203A41FA02F043EAE07306E0DA
:1006700041FA02F3D040C2F12002914008431946EA
:1006800070470029A8BF7047401C490008BF20F0F0
:100690000100704710B4B0FA80FC00FA0CF050EA88
:1006A000010404BF10BC704749B1CCF1200421FA09
:1006B00004F411FA0CF118BF012121430843A3EB04
:1006C0000C01CB1D4FEA00614FEA102042BF002011
:1006D00010BC704700EBC35010440029A4BF10BCED
:1006E0007047401C490008BF20F0010010BC704753
:1006F00010B5141E73F1000408DA401C41F100012A
:1007000092185B411A4301D120F0010010BD2DE980
:10071000F04D92469B4611B1B1FA81F202E0B0FA77
:1007200080F220329046FFF78BFF04460F4640EAE6
:100730000A0041EA0B0153465A46084313D01146BA
:1007400053EA010019D0C8F14002504600F056F8B3
:1007500005460E46504659464246FFF771FF08438C
:1007600005D0012004E020463946BDE8F08D002088
:10077000054346EAE0762C4337430A986305E40ACA
:10078000A0EB08000022FD0A44EA47540A3002D5D3
:1007900000200146E9E7010510196941DDE9084536
:1007A00000196941BDE8F04DA2E770B521F00043A2
:1007B00003430CD0C1F30A550024D5EB040564EBC8
:1007C0000403D617AD1AB34102DB0020014670BD09
:1007D000201841EB025170BD064C074D06E0E06861
:1007E00040F0010394E8070098471034AC42F6D378
:1007F000FFF780FCE836000808370008202A04DBF1
:10080000203A21FA02F00021704721FA02F3D04089
:10081000C2F12002914008431946704700BFFEE72D
:1008200010B54FF4001000F0FFF838B31448407AC8
:100830000A2809D11248807A0D2805D100F06CFCF5
:1008400001201049087011E000200E4908701420A2
:1008500002F04BF800210C4800F034F80B210A4854
:1008600000F01FF90121084800F02CF84FF40010A7
:1008700000F00CF84FF4001000F016F810BD000066
:1008800021010020700000206C00024000F0805127
:1008900011B10349086001E0024948607047000057
:1008A000040402400000024000F0805111B10349ED
:1008B000086001E0024948607047000004040240FB
:1008C0000000024021B1026842F00102026004E02F
:1008D00002684FF6FE731A400260704701684FF6D7
:1008E000FE72114001600021016041608160C160C1
:1008F0004B49884208D14A490839496841F00F01FB
:10090000474A083A51608AE045491431884208D183
:1009100043490839496841F0F001414A083A5160B9
:100920007DE03F492831884208D13D49083949686E
:1009300041F470613A4A083A516070E038493C31FC
:10094000884208D136490839496841F47041344A2F
:10095000083A516063E032495031884208D1304949
:100960000839496841F470212D4A083A516056E02F
:100970002B496431884208D129490839496841F432
:100980007001274A083A516049E025497831884288
:1009900008D123490839496841F07061204A083A72
:1009A00051603CE01F49884206D1011F096841F0AF
:1009B0000F01021F116032E01A491431884208D138
:1009C0001849091F096841F0F001164A121F116009
:1009D00025E014492831884208D11249091F0968C5
:1009E00041F470610F4A121F116018E00D493C314B
:1009F000884208D10B49091F096841F47041094A2E
:100A0000121F11600BE007495031884207D1054998
:100A1000091F096841F47021024A121F11607047D2
:100A2000080002400804024001460020002201F0B4
:100A3000805313B1054B1A6801E0054B1A6802EAAE
:100A400001030BB1012000E00020704700040240C8
:100A5000000002401AB103680B43036002E0036820
:100A60008B430360704710B50022026847F6F073AD
:100A70009A430C6A8B6823430C6923434C692343D4
:100A80008C692343CC6923434C6A23438C6A2343F8
:100A90001A430260CB6843600B6883604B68C36095
:100AA00010BD41607047704710B50A2001F01DFF6E
:100AB0004FF48041034800F04BF94FF4804000F0C0
:100AC00003F810BD001001400149086070470000A4
:100AD00014040140002123498279002A3AD00A46B1
:100AE000126803689A430B461A600A1D126803686D
:100AF0009A430B1D1A60027911440A6803681A436D
:100B00000A60184A0832126803689A43154B083382
:100B10001A601A1D126803689A43124B0C331A604C
:100B20004279102A0ED11A1F126803681A430D4B1E
:100B300008331A601A1D126803681A43094B0C33F4
:100B40001A600DE00749427911440A6803681A43A4
:100B50000A6005E0027911440A6803689A430A6052
:100B6000704700000004014030B500228B071C0FC5
:100B70000F2303FA04F20B4B8C1053F824309343E9
:100B8000084C8D1044F8253023468C1053F824303F
:100B90008C07240F00FA04F42343024C8D1044F810
:100BA000253030BD080001402DE9F0410246002506
:100BB0000026002000230024002791F803C00CF039
:100BC0000F0591F803C00CF0100CBCF1000F03D01E
:100BD00091F802C04CEA050591F800C0BCF1000F85
:100BE00031D0146800202BE04FF0010C0CFA00F318
:100BF000B1F800C00CEA03069E4220D183004FF0FA
:100C00000F0C0CFA03F7BC4305FA03FC4CEA04048E
:100C100091F803C0BCF1280F06D14FF0010C0CFA7B
:100C200000FCC2F814C00AE091F803C0BCF1480F00
:100C300005D14FF0010C0CFA00FCC2F810C0401CAA
:100C40000828D1D31460B1F800C0BCF1FF0F34DD27
:100C5000546800202EE000F1080C4FF0010808FA5B
:100C60000CF3B1F800C00CEA03069E4221D18300C8
:100C70004FF00F0C0CFA03F7BC4305FA03FC4CEAE7
:100C8000040491F803C0BCF1280F05D100F1080C51
:100C900008FA0CF8C2F8148091F803C0BCF1480FB0
:100CA00007D100F1080C4FF0010808FA0CF8C2F85F
:100CB0001080401C0828CED35460BDE8F0810000AD
:100CC000F0B50A46002300240021002500F000466C
:100CD000B6F1004F02D11D4EF16901E01B4E716863
:100CE000C0F3034583B200F44016B6F5401F08D1A7
:100CF00021F07061154E766826F07066134F7E60A5
:100D000012E000F48016B6F5801F06D1032606FA1D
:100D100005F4A14341F0706106E0460D360103FA87
:100D200006F6B14341F0706122B1460D360103FA77
:100D300006F6314300F00046B6F1004F02D1034EF3
:100D4000F16101E0014E7160F0BD00000000014062
:100D50000246002093680B400BB1012000E0002008
:100D60007047416170470161704700BFFEE70000B6
:100D70007FB50446062202A93B2000F0A9F89DF8A1
:100D800009009DF8081040EA012000B2ADF800000B
:100D90009DF80B009DF80A1040EA012000B2ADF862
:100DA00002009DF80D009DF80C1040EA012000B2F1
:100DB000ADF80400BDF90000FFF7C6FB05460E487C
:100DC00001682846FFF706FA2060BDF90200FFF728
:100DD000BBFB0546084801682846FFF7FBF9606041
:100DE000BDF90400FFF7B0FB05460348016828463B
:100DF000FFF7F0F9A0607FBDAC0000207FB504468E
:100E0000062202A9432000F063F89DF809009DF82E
:100E1000081040EA012000B2ADF800009DF80B0078
:100E20009DF80A1040EA012000B2ADF802009DF8DA
:100E30000D009DF80C1040EA012000B2ADF804004E
:100E4000BDF90000FFF780FB05460E480168284603
:100E5000FFF7C0F92060BDF90200FFF775FB0546FA
:100E6000084801682846FFF7B5F96060BDF904003D
:100E7000FFF76AFB0546034801682846FFF7AAF911
:100E8000A0607FBDB000002008B5002000900122C6
:100E90006946752000F01CF89DF80000682804D011
:100EA000054800F07DFF002008BD9DF8001003A05C
:100EB00000F076FF0120F7E7A03600084D505536C8
:100EC000303530204944203D2025640D0A000000C3
:100ED0002DE9F04107460C46154601F075FED0207D
:100EE00001F0CAFE01F0A4FE384601F0C5FE01F093
:100EF0009FFE01F069FED12001F0BEFE01F098FED8
:100F0000002606E0012001F033FE2070641C701CF6
:100F1000C6B2681EB042F5DC002001F029FE207048
:100F200001F070FEBDE8F08170B505460C4601F099
:100F30004BFED02001F0A0FE01F07AFE284601F021
:100F40009BFE01F075FE204601F096FE01F070FE5A
:100F500001F058FE70BD00BFFEE7704770B500217C
:100F600000230F22C47804B3154C246804F4E06411
:100F7000C4F5E064210AC1F10403CA40447804FACC
:100F800003F184781440214309010E4C0678A155E1
:100F9000047804F01F050124AC4005786D11AD0004
:100FA00005F1E025C5F8004109E0047804F01F05CB
:100FB0000124AC40044D0678761145F8264070BDFA
:100FC0000CED00E000E400E080E100E002490143B4
:100FD000024A1160704700000000FA050CED00E0C5
:100FE0007047000029B1064A52690243044B5A6116
:100FF00004E0034A52698243014B5A617047000082
:101000000010024029B1064AD2690243044BDA615A
:1010100004E0034AD2698243014BDA617047000061
:101020000010024029B1064A92690243044B9A61BA
:1010300004E0034A92698243014B9A6170470000C1
:101040000010024030B500210022002400232D4D65
:101050006D6805F00C0121B1042905D0082923D1C0
:1010600005E0294D056022E0274D05601FE0254D74
:101070006D6805F47012234D6D6805F48034022507
:1010800005EB92421CB9214D554305600BE01D4D07
:101090006D6805F400351DB11C4D5543056002E037
:1010A000194D5543056002E0174D056000BF00BFB4
:1010B000144D6D6805F0F0010909154D6B5C05686C
:1010C000DD4045600F4D6D6805F4E061090A104D83
:1010D0006B5C4568DD4085600A4D6D6805F46051C4
:1010E000C90A0B4D6B5C4568DD40C560054D6D68F8
:1010F00005F44041890B074D6B5CC568B5FBF3F502
:10110000056130BD0010024000127A0000093D0068
:10111000710000208100002054484078534909782C
:1011200040EA0120524908805048C0784F498978E8
:1011300040EA01204E4948804C48007908714B48EC
:10114000407948714948807988714848C079C871A8
:101150004648007A08724548407A48724348807A87
:1011600088720846008840F2EC71884209DD4048E8
:10117000008840F61401884203DA4FF400603C49CD
:1011800008803B48408840F2EC71884209DD3848CD
:10119000408840F61401884203DA4FF40060344975
:1011A0004880334800793249C97A884217D031489B
:1011B0000078012803D100202E49087005E02D4851
:1011C000007810B901202B49087000202A490870C6
:1011D00001202A490870264800792549C872244808
:1011E00040792349097B884217D023480078012899
:1011F00003D100202049087005E01F48007810B98D
:1012000001201D49087000201A49087001201B495F
:10121000087017484079164908731548807918B93D
:1012200001201749087006E011488079012802D191
:101230000020134908700E48C07918B901201149DF
:10124000087006E00A48C079012802D100200D4943
:1012500008700748407A0A2805D10548807A0D2889
:1012600001D1002070470120FCE70000210100208F
:101270002C0100209000002091000020940000200C
:101280009200002093000020704710B500F002F893
:1012900010BD00000CB5002001900090334800689C
:1012A00040F480303149086000BF3048006800F4E5
:1012B000003000900198401C0190009818B90198E6
:1012C000B0F5A06FF1D12948006800F4003010B1EA
:1012D0000120009001E0002000900098012843D1F7
:1012E0002348006840F01000214908600846006863
:1012F00020F0030008600846006840F00200086023
:101300001A484068194948600846406848600846DD
:10131000406840F4806048600846406820F47C10D3
:1013200048600846406840F4E81048600846006895
:1013300040F08070086000BF0C48006800F000704A
:101340000028F9D00948406820F0030007494860A8
:101350000846406840F00200486000BF034840680B
:1013600000F00C000828F9D10CBD0000001002406C
:101370000020024000B503460A46002B07DA012090
:101380002149086000202149C1F894010FE0002B99
:1013900007DD00201C49086001201C49C1F89401A8
:1013A00005E00020184908601849C1F89401184662
:1013B00001F068FD16490988084416490880002A8A
:1013C00007DA01201449086000201449C1F8AC0173
:1013D0000FE0002A07DD00200F49086001200F49B7
:1013E000C1F8AC0105E000200B4908600B49C1F8C9
:1013F000AC01104601F046FD094909880844054939
:10140000091D088000BD000090012142000021421A
:101410008800002034040040A8812142008021423D
:101420008C000020042808D14FF0E021096941F028
:1014300004014FF0E022116107E04FF0E02109695B
:1014400021F004014FF0E022116170477047000065
:1014500010B51348006840F00100114908600846C3
:101460004068104908400E494860084600680E4927
:1014700008400B4908600846006820F48020086096
:101480000846406820F4FE0048604FF41F00886062
:10149000FFF7FBFE4FF000600449086010BD00003C
:1014A000001002400000FFF8FFFFF6FE08ED00E02C
:1014B000F0B50C46154600220021068C4FF6FE774B
:1014C0003E400684028B018C4FF60C7632407E1C27
:1014D00006EA03162E433243104EB0420ED0104E91
:1014E000B0420BD0B0F1804F08D00E4EB04205D0C4
:1014F0000D4EB04202D00D4EB04206D14FF6FD76F1
:10150000314044F00106314305E04FF6F5763140B5
:1015100044F00106314302830184F0BD002C0140F8
:10152000003401400004004000080040000C00406E
:10153000F0B50C461546002200210026078C4FF618
:10154000EF7C07EA0C070784028B018C4FF6FF77CC
:1015500007EA041640F6FF473A404FF6FF7707EADE
:1015600003373A434FF6FF7707EA05273A43114F0F
:10157000B8420ED0104FB8420BD0B0F1804F08D017
:101580000E4FB84205D00E4FB84202D00D4FB842B0
:1015900006D14FF6DF77394046F01007394305E0B2
:1015A0004FF65F77394044F01007394302830184D6
:1015B000F0BD0000002C0140003401400004004058
:1015C00000080040000C0040F0B50C461546002213
:1015D00000210026078C4FF6FF6C07EA0C070784F2
:1015E000828B018C4FF6FF7707EA04264FF60C77C3
:1015F0003A404FF6FF7707EA03172F433A43114F5C
:10160000B8420ED0104FB8420BD0B0F1804F08D086
:101610000E4FB84205D00E4FB84202D00D4FB8421F
:1016200006D14FF6FF57394046F48077394305E03D
:101630004FF2FF57394044F4807739438283018465
:10164000F0BD0000002C01400034014000040040C7
:1016500000080040000C0040F0B50C461546002282
:1016600000210026078C4EF6FF7C07EA0C07078452
:10167000828B018C4FF6FF7707EA043640F6FF476E
:101680003A404FF6FF7707EA05273A434FF6FF77D0
:1016900007EA03373A43114FB8420ED0104FB84211
:1016A0000BD0B0F1804F08D00E4FB84205D00E4F8E
:1016B000B84202D00D4FB84206D14DF6FF773940FF
:1016C00046F48057394305E047F6FF57394044F464
:1016D0008057394382830184F0BD0000002C014013
:1016E000003401400004004000080040000C0040AD
:1016F00010B50121244800F0B7F8002843D0234852
:10170000007801283BD122480078012837D12148B0
:101710000088401C1F49088008460088052190FB6E
:10172000F1F201FB120018B901F02AFB00F0B4FC41
:1017300018480088322190FBF1F201FB120010B929
:10174000012015490870134800884FF4FA7190FB86
:10175000F1F201FB120028B91048C06880F4004083
:101760000E49C8600B480088B0F57A7F02DB002084
:10177000084908800121044800F037F803E00121FE
:10178000014800F032F810BD002C0140000000209C
:101790000100002098000020960000200010014069
:1017A00010B50121880700F05FF80121880700F0DB
:1017B0001CF810BD10B50121034800F055F80121B7
:1017C000014800F012F810BD0008004021B1028865
:1017D00042F08002028004E002884FF67F731A40D4
:1017E00002807047CA4302827047CA430282704730
:1017F00021B1028842F00102028004E002884FF623
:10180000FE731A400280704731B1B0F8442042F4B0
:101810000042A0F8442005E0B0F84420C2F30E02D4
:10182000A0F844207047F0B50C4615461E4600212E
:10183000002200230189028B038C4FF6F877394090
:1018400021434FF6FC473A4040F201173A434FF626
:10185000DD773B404FF6FF7707EA06172F433B4300
:10186000018102830384F0BD30B5024600200023CD
:101870000024158A05EA0103958905EA010413B1DC
:101880000CB1012000E0002030BD000070B505461D
:101890000C46244885420ED0234885420BD0B5F132
:1018A000804F08D02148854205D02148854202D08A
:1018B0002048854200D100E000BF208850B923892C
:1018C000A28861882846FFF7F3FDE188284600F0EA
:1018D000FCF825E0208804280AD12389A2886188A1
:1018E0002846FFF725FEE188284600F0F7F817E0C4
:1018F000208808280AD12389A28861882846FFF712
:1019000063FEE188284600F0F6F809E02389A28802
:1019100061882846FFF7A0FEE188284600F0F4F829
:1019200070BD0000002C0140003401400004004064
:1019300000080040000C004000210180418001218E
:1019400081800021C180018170471AB183890B43D6
:10195000838102E083898B438381704770B50024C3
:1019600000220023058C4FF6FE7635400584028C5C
:101970008388048B4FF68F752C40B51E2C400D8844
:101980002C43751E2A400D892A434D882A43144D45
:10199000A8420BD0134DA84208D0134DA84205D041
:1019A000124DA84202D0124DA84213D14FF6F7753E
:1019B0002A404D892A434FF6FB752A408D882A43D9
:1019C0004FF6FF652B404FF6FF552B408D892B437B
:1019D000CD892B4383800483CD888586028470BDA6
:1019E000002C01400034014000400140004401400F
:1019F000004801400A460021018B4FF6F773194059
:101A0000114301837047000070B5002400220023B9
:101A1000058C4FF6EF7635400584028C8388048B65
:101A200048F6FF752C404FF6FF452C400D884FF6C9
:101A3000FF7606EA05252C434FF6DF752A400D890F
:101A400006EA05152A434D8806EA05152A43154D71
:101A5000A84202D0144DA8421DD14FF67F752A40EE
:101A60004D894FF6FF7606EA05152A434FF6BF75F6
:101A70002A408D8806EA05152A434FF6FF352B408C
:101A80004FF2FF752B408D8906EA85052B43CD89E2
:101A900006EA85052B4383800483CD88058702846D
:101AA00070BD0000002C0140003401400A460021B6
:101AB000018B4FF2FF7319404FF6FF7303EA0223C5
:101AC00019430183704781847047028B4FF6F3738B
:101AD0001A400283028B0A4302837047028B4FF243
:101AE000FF331A400283028B4FF6FF7303EA012390
:101AF0001A4302837047828B4FF6F3731A40828336
:101B0000828B0A4382837047828B4FF2FF331A40E5
:101B10008283828B4FF6FF7303EA01231A43828389
:101B200070470000002202881D4B98420ED01D4BCA
:101B300098420BD0B0F1804F08D01B4B984205D093
:101B40001A4B984202D01A4B984204D14FF68F7329
:101B50001A404B881A43174B984207D0164B9842AD
:101B600004D04FF6FF431A40CB881A4302808B887B
:101B700083850B8803850A4B98420BD0094B98420A
:101B800008D00E4B984205D00D4B984202D00D4B19
:101B9000984201D10B7A03860123838270470000AB
:101BA000002C0140003401400004004000080040C7
:101BB000000C0040001000400014004000400140B4
:101BC00000440140004801404FF6FF718180002130
:101BD0000180C180418001727047000010B540F261
:101BE0002441054800F01FF820B10348008802484E
:101BF000001D008810BD00000044004021B1828912
:101C000042F40052828104E082894DF6FF731A404B
:101C1000828170471AB1838A0B43838202E0838AF0
:101C20008B438382704770B5024600240023002551
:101C3000002040F66A16B14200D100BFC1F3421540
:101C400001F01F03012606FA03F3012D02D1968944
:101C5000334006E0022D02D1168A334001E0968A15
:101C600033400C12012606FA04F41688344013B1EE
:101C70000CB1012000E0002070BDF0B50346002447
:101C800000260025002040F66A17B94200D100BFA7
:101C90001846C1F3421401F01F06012707FA06F5A2
:101CA000012C01D10C3004E0022C01D1103000E0F5
:101CB00014301AB107682F43076002E00768AF438A
:101CC0000760F0BD2DE9F04786B005460E460024BA
:101CD000A24600BFA1460027B08900B100BF2F4631
:101CE0002C8A4CF6FF700440F08804432C82AC89A7
:101CF0004EF6F3100440B0883189084371890843D7
:101D00000443AC81AC8A4FF6FF400440B0890443E1
:101D1000AC8201A8FFF796F91F48874202D1DDF88F
:101D200010A001E0DDF80CA0A88900F4004040B14B
:101D30000AEBCA0000EB0A1031684900B0FBF1F869
:101D400007E00AEBCA0000EB0A1031688900B0FB1B
:101D5000F1F86420B8FBF0F004012009642101FBD4
:101D60001089A88900F4004040B1322000EBC9007E
:101D7000B0FBF1F000F00700044308E0322000EB74
:101D800009106421B0FBF1F000F00F0004432C8136
:101D900006B0BDE8F08700000038014000BFFEE754
:101DA0000FB4054B10B503A9044A029800F08EF851
:101DB00010BC5DF814FB0000D52A0008EC000020E0
:101DC000490050EAC12018BF04204A0D18BF40F056
:101DD000010040F2FF72B2EB515F08BF40F0020019
:101DE000012808BF052070472DE9F0414F1E00EB88
:101DF000C7010446D1E9000115461E4637F0060228
:101E00000DD02A463346FEF7BEFA7F1E04EBC70309
:101E1000D3E90023FEF710FA37F00602F1D1022FC2
:101E200025D0042F13D0062F18BFBDE8F0812A4615
:101E30003346FEF7A8FAD4E90A23FEF7FDF92A464D
:101E40003346FEF7A0FAD4E90823FEF7F5F92A464F
:101E50003346FEF798FAD4E90623FEF7EDF92A4651
:101E60003346FEF790FAD4E90423FEF7E5F92A4653
:101E70003346FEF788FAD4E90223FEF7DDF92A4655
:101E80003346FEF780FAD4E90023BDE8F041FEF7BF
:101E9000D3B90122FEF789BCFEF7CEB9024A002071
:101EA0001107FEF782BC000001FDFFFF02E008C839
:101EB000121F08C1002AFAD170477047002001E0C4
:101EC00001C1121F002AFBD1704700002DE9FF4F0E
:101ED00089B09B460446002506E025280BD05A46CB
:101EE0000B999047641C6D1C20780028F5D10DB02B
:101EF0002846BDE8F08F0027B8460122474900E098
:101F0000074314F8013F203B02FA03F00842F7D1DF
:101F100020782E2819D114F8010F47F004072A2839
:101F20000ED06FF02F022078A0F1300109290CD8D3
:101F300008EB880102EB410100EB0108641CF2E7A9
:101F40000A98641C50F8048B0A9020780028CED0A0
:101F5000642808D0692806D075281ED05A460B99E7
:101F600090476D1C58E00A994FF00A0901C90A917F
:101F7000002802DA40422D2102E0390504D52B2148
:101F80008DF82010012103E0F90704D02021F7E7A4
:101F90008A4608AE0DE00021FAE70A994FF00A09D7
:101FA00001C90A91F7E74946FEF734FB303106F8DC
:101FB000011D0028F7D1ADEB060000F120097807DC
:101FC00001D44FF00108C84502DDA8EB090000E08C
:101FD00000208046002706E008A85A46C05D0B99FD
:101FE00090476D1C7F1C5745F6DB04E030205A46B5
:101FF0000B9990476D1CB8F10001A8F10108F5DCC0
:1020000005E016F8010B5A460B9990476D1CB9F183
:102010000001A9F10109F4DC641C65E7092801004D
:1020200070B5054615492846FEF7E0FA04D3144971
:102030002846FEF7E5FA0CD2012400201149086079
:102040001149C1F89001114908601149C1F8AC016A
:1020500011E01048007801280CD102240020094921
:1020600008600949C1F89001084908600849C1F8A9
:10207000AC0100E00024204670BD000000000CC24E
:1020800000000C429401214200002142A88121421B
:1020900000802142B400002070B5012000F0FEFC59
:1020A00043490860022000F0F9FC42490860424AB6
:1020B0001168424A106800F069FA414908604148D5
:1020C000007801280AD13B4801683948006801F0CE
:1020D00097F93D49086000203A4908703B4800786C
:1020E00010B93B48007850B13348826831480168E4
:1020F0002F48006801F032F83649086009E02E48A0
:1021000082682C4801682A48006800F0EDFF3149D8
:1021100008602B4800682C49096808442D49096863
:10212000441A274800682849096808442949096869
:1021300045182948844200DC05E041F6F420844239
:1021400000DB00E02046254908602348854200DC8A
:1021500005E041F6F420854200DB00E028462049F6
:102160000860164A11681F4A9068124A1368104A9C
:10217000126800F08FFE10B101201B4908700F4952
:1021800008680C490A680A49096800F0E3FE10B1C2
:1021900000201549087009490868FFF741FF28B970
:1021A0000F4801680D480068FFF7E4F870BD0000B3
:1021B0002C00002030000020FC000020F000002057
:1021C00034000020960000203800002093000020FA
:1021D000920000203C0000200CE5FFFF40000020A2
:1021E0004400002008010020B40000202DE9F84F31
:1021F00004460D4621F0004000917349814211DCF4
:102200007249884201DC06D12CB120462946BDE83E
:10221000F84FFFF73EBE6E48002DCCBF6D496E49AA
:10222000BDE8F88F6D49814211DD6D498142D8BF0B
:102230004FF0FF366DDD20462946FFF7C1FD04282B
:1022400008BFFFF72BFE20462946BDE8F88F6549F9
:10225000654F25F00045814233DD6449814219DD37
:10226000002632464FF0804320462946FDF7E4FF22
:1022700080468A46012220462946FEF796FA002229
:102280003B46FEF77AF842465346FEF7EEF8044620
:102290000D463EE001260022BA463B46204629462E
:1022A000FDF7CAFF80460F460022534620462946C6
:1022B000FEF763F842463B46FEF7D7F804460D4664
:1022C00027E04B4981421BDDDFF828A102260022CE
:1022D000534620462946FEF756F800223B46FDF7B6
:1022E000ABFF80460F460022534620462946FEF7A4
:1022F00044F842463B46FEF7B8F804460D4608E06F
:10230000032622462B4600203B49FEF7AEF8044642
:102310000D4622462B4610461946FEF734F88B46EA
:10232000824602460B46FEF72EF807460246334821
:1023300088460B4606217844FFF756FD52465B4619
:10234000FEF721F882462E488B463A464346052141
:102350007844FFF749FD3A464346FEF714F8024633
:102360000B46002E504659460CDAFDF765FF224613
:102370002B46FEF708F801B022462B46BDE8F04F89
:10238000FDF7FEBFFDF758FF22462B46FDF7FBFF8A
:102390001C4A7A4402EBC603D3E90023FDF7EDFFA4
:1023A00022462B46FDF7E9FF174A7A4402EBC603A3
:1023B000D3E90023FDF7E4FF009A002AB8BF81F0BB
:1023C0000041BDE8F88F0000000010440000F07FDD
:1023D000182D4454FB21F93FFB21F9BF0000DC3FDD
:1023E0000000203E0000F33F0000F03F0000E63F09
:1023F000008003400000F83F0000F0BF2E130000F3
:10240000EC1200008A120000521200002DE9F04D7B
:102410009446CCF1000423F000464CEA0404524FE9
:1024200046EAD4749A46884621F00042BC4206D857
:10243000454240EA050442EAD474BC4204D9BDE8EE
:10244000F04D6246FFF728BDAAF14055A5F17F6522
:1024500055EA0C040BD0022404EAAA74434DDFF8B9
:1024600010E144EAD87452EA000B04D00CE0BDE855
:10247000F04DFFF7BBBE002C14BF012CBDE8F08D62
:10248000022C30D0032C32D056EA0C0B0AD0BE42BC
:1024900020D1BA4209D126F0804622F0804233464C
:1024A000114617E000291ADB25E0DFF8C8B0FB442D
:1024B000002C04BFDBE90001BDE8F08D012C02BF58
:1024C000DBE9000181F00041BDE8F08D022C0AD06B
:1024D000032C0CD0BA4212D1B8F1000F0BDA23480A
:1024E0002549BDE8F08D28462449BDE8F08D2846F1
:1024F0007146BDE8F08D1D482149BDE8F08D921B65
:1025000012153C2AC4BF19481D490EDCBAF1000F50
:10251000BEBF12F13C0F0020014606DB6246FDF70C
:10252000A4FF21F00041FFF761FE002C08BFBDE8C9
:10253000F08D012C04BF81F00041BDE8F08D114AFF
:10254000114B022C07D0FDF718FF2A46BDE8F04DCD
:102550000A4BFDF712BFFDF710FF2A46BDE8F04D0C
:10256000064BFDF70DBF00000000F07F182D44540E
:10257000FB2109C0E6110000FB21F9BFFB21094046
:10258000FB21F93F075C143326A6A13C2DE9F05F3F
:1025900007460D4619480078012806D10021184841
:1025A0000068FDF711FE04460CE01648007801288B
:1025B00006D1002112480068FDF7B4FD044601E091
:1025C0000F48046821463846FDF7FEFD81460E4857
:1025D00001682846FDF7FEFD824649460B48006823
:1025E000FDF7F8FD83465146FDF79CFD8046FDF75B
:1025F000B4FF06463046BDE8F09F00009000002082
:102600006C000020910000204C00002048000020B9
:102610002DE9F04F89B083460C4615461E461398A7
:10262000FDF7B4FF074688461298FDF7AFFF3A461C
:102630004346CDE90001FFF7E9FE4FF0C042514BA0
:10264000CDE90201FDF79FFECDE90401FDF7B1FFE1
:1026500081461398FDF79AFF074688463046FDF7F6
:1026600095FF3A464346CDE90001FFF7CFFE4FF014
:10267000C042444BCDE90201FDF785FECDE90401DE
:10268000FDF797FF824640495846FDF7A3FD804677
:102690003E4801684046FDF79DFD07463C480168FD
:1026A0003846FDF73FFD089037492046FDF792FD7B
:1026B0008046364801684046FDF78CFD07463448A1
:1026C00081683846FDF72EFD07902F492846FDF713
:1026D00081FD80462D4801684046FDF77BFD074699
:1026E0002B4841683846FDF71DFD069029480078C3
:1026F00030B9CDF82090CDF81CA0012025490870F4
:10270000254801684FF07E50FDF75EFD8046494642
:10271000FDF760FD0746204808990068FDF75AFD5F
:1027200039460590FDF7FEFC194908601B48016811
:102730004FF07E50FDF748FD80465146FDF74AFDBB
:102740000746164807990068FDF744FD394605908D
:10275000FDF7E8FC0E4988604FF07E500699FDF7C2
:1027600039FD0B494860084600680D490860084873
:1027700080680C490860064840680B49086009B049
:10278000BDE8F08F66A64C4033336542040000205C
:10279000F00000209C000020640000206800002061
:1027A00008000020100000200C0000201FB50121AF
:1027B000C802FEF737FC4FF47A70ADF808004720E6
:1027C000ADF804000020ADF80A00ADF806008DF861
:1027D0000C0001A91348FFF7A5F919208DF8000096
:1027E00000208DF801008DF8020001208DF8030013
:1027F0006846FEF7B3FB012211460A48FFF7A5F829
:1028000001210848FEF7E2FF01210648FEF7EAFF32
:1028100001210448FEF7E9FF01210248FEF7E8FF25
:102820001FBD0000002C01400020134948600860D3
:10283000886012481249086012490860124813491A
:102840000860134813490860134814490860144885
:10285000144908601448154908601548154908606E
:102860001549086000201549086015481549086099
:102870000120154908707047F000002048E17A3FB8
:1028800064000020680000200AD7A33B0400002059
:1028900000008CC348000020000016C44C0000203B
:1028A0000000B1C250000020CDCC0CBF540000206D
:1028B0000080094460000020580000205C000020D7
:1028C0000000E0C06C0000200100002010B50420D2
:1028D000FEF7A8FD4FF0E020006940F001004FF046
:1028E000E02108614720486110BD4FF47A714843E8
:1028F0004FF0E021096941F001014FF0E022116140
:1029000007E000BF4FF0E021096901F480310029A0
:10291000F8D00100A0F10100F3D14FF0E0210969E6
:1029200021F001014FF0E0221161704700B587B03E
:1029300001210846FEF766FB01210420FEF772FB29
:102940000120ADF8180004208DF81B0006A92348CB
:10295000FEF72AF90220ADF8180004208DF81B00BC
:1029600006A91E48FEF720F903A8FFF72DF900205D
:10297000ADF80C004FF6FF70ADF810000020ADF878
:102980001200ADF80E0003A94FF08040FFF7CAF81F
:1029900000231A4603214FF08040FEF744FF6846AB
:1029A000FEF7CAFF0A20ADF8080069464007FEF7A7
:1029B0006DFF01218807FEF715FF012211469007E0
:1029C000FEF7C3FF00214FF08040FFF77CF80121A4
:1029D0008807FEF70DFF07B000BD000000080140AA
:1029E00000B587B001210420FEF70CFB012108206F
:1029F000FEF718FB4020ADF8180004208DF81B00EE
:102A000006A92148FEF7D0F88020ADF81800042070
:102A10008DF81B0006A91C48FEF7C6F803A8FFF7AF
:102A2000D3F80020ADF80C004FF6FF70ADF81000A1
:102A30000020ADF81200ADF80E0003A91348FFF70F
:102A400071F80A231A4603211048FEF7ECFE684687
:102A5000FEF772FF0A20ADF8080069460B48FEF742
:102A600015FF01210948FEF7BDFE01221146074866
:102A7000FEF76BFF00210548FFF725F80121034809
:102A8000FEF7B6FE07B000BD000C01400008004094
:102A900010B5FFF74BFFFFF7A3FF10BD014601295B
:102AA00002D0022910D108E04FF08042928C10B27F
:102AB00000224FF080439A8408E0054A128810B241
:102AC0000022034B1A8001E0002000BF00BF7047C6
:102AD0002408004000BF054A128802F04002002A84
:102AE000F9D0C2B2014B1B1D1A807047003801405B
:102AF000002001E0411CC8B20A28FBDB704700003F
:102B000010B54FF400410C48FEF72BF9FFF7F0FF2A
:102B10004FF480410848FEF726F9FFF7E9FF4FF42C
:102B200080410548FEF71DF9FFF7E2FF4FF4004131
:102B30000148FEF718F910BD000C014010B54FF424
:102B400000410A48FEF70FF9FFF7D2FF4FF480412A
:102B50000648FEF708F9FFF7CBFF4FF48041034822
:102B6000FEF7FFF8FFF7C4FF10BD0000000C0140A6
:102B700070B505460024002619E06006040E4FF4E7
:102B800080411048FEF7EFF8FFF7B2FF4FF4004125
:102B90000C48FEF7DDF808B1601CC4B24FF4804168
:102BA0000848FEF7DEF8FFF7A3FF701CC6B2082E38
:102BB000E3DB15B9FFF7C2FF01E0FFF7A1FF2046F5
:102BC00070BD0000000C014010B54FF400410C48EE
:102BD000FEF7C9F84FF480410948FEF7C4F8FFF743
:102BE00087FF4FF400410648FEF7BBF8FFF780FF70
:102BF0004FF480410248FEF7B4F8FFF779FF10BDAB
:102C0000000C014010B54FF400410848FEF7A9F848
:102C10004FF480410548FEF7A6F8FFF769FF4FF42F
:102C200000410248FEF79FF810BD0000000C014073
:102C300010B54FF400410F48FEF795F8FFF758FF25
:102C40004FF480410B48FEF78EF8FFF751FF4FF429
:102C500000410848FEF77CF808B1012400E0002498
:102C60004FF480410348FEF77CF8FFF741FF204610
:102C700010BD0000000C014070B50446002528E09E
:102C800004F0800028B14FF400411348FEF76BF8C0
:102C900004E04FF400411048FEF763F8FFF728FF07
:102CA0004FF480410C48FEF75EF8FFF721FF4FF428
:102CB00080410948FEF755F8072D04D14FF4004133
:102CC0000548FEF750F86006040EFFF711FF681C78
:102CD000C5B2082DD4DB70BD000C014008B5012140
:102CE0000820FEF79FF94FF48040ADF80000032064
:102CF0008DF8020014208DF8030069460948FDF79D
:102D000053FF4FF40040ADF8000003208DF802009F
:102D100014208DF8030069460248FDF745FFFFF7D0
:102D200071FF08BD000C014070B50024002500BFF4
:102D300006E0002500E06D1CB5F57A7FFBDB641C26
:102D4000B4F57A7FF5DB00216B20FEF7EDF8072163
:102D50001920FEF7E9F806211A20FEF7E5F8902180
:102D60003720FEF7E1F800213820FEF7DDF80021DA
:102D70001C20FEF7D9F810211B20FEF7D5F870BDF6
:102D80001CB5FEF781F8012813D10A48FDF7F0FFC2
:102D90000948FEF733F80748806806494968054C3A
:102DA000CDE900102368044CA26861682068FFF731
:102DB0002FFC1CBD08010020FC0000201FB50121D4
:102DC0001020FEF72FF901210846FEF72BF901210B
:102DD0001748FDF775FF4FF48040ADF80C00482010
:102DE0008DF80F0003A91348FDF7DEFE0E21022027
:102DF000FDF7BAFE4FF48040019000208DF80800E6
:102E00000C208DF8090001208DF80A0001A8FDF7BB
:102E100061FE28208DF8000000208DF801008DF85B
:102E2000020001208DF803006846FEF797F81FBDE9
:102E3000000230000010014008B501211020FEF70B
:102E4000F1F810208DF80300C002ADF80000032057
:102E50008DF8020069460448FDF7A6FE4FF40041D4
:102E60000148FDF780FF08BD0010014000F056F951
:102E70006420FFF73AFDFFF7D7FC6420FFF735FD2C
:102E800000BFFEE70146002901DA484200E008469B
:102E9000704700002DE9F04106460F4614461D46D6
:102EA00028480088E8B92046FFF7ECFF804628460E
:102EB000FFF7E8FF4044B0F5967F05DA2248008826
:102EC000401C2149088002E000201F4908801E485C
:102ED00000880A2805DD01201A49088000201A49C7
:102EE00008801848008801280FD118480088401C25
:102EF00080B216490880B0F5C87F03DD0020088045
:102F00001049088002200F4908800E4800880228D6
:102F100016D10F480088401C80B20D490880C8288F
:102F200003DD00200880074908806019FFF7AAFF29
:102F3000962805DD0020034908800120BDE8F081C6
:102F40000020FBE7E0000020E2000020E400002079
:102F5000E60000202DE9F04106460C4615462248C1
:102F6000007810B90020BDE8F08120480088C0B981
:102F70001F4801681F48FDF7D5F807463146FDF7A1
:102F800035FB0ED21A4801681B48FDF7CBF80746FF
:102F90003146FDF735FB04D21CB915B901201349A0
:102FA00008801248008801281CD114480088401C61
:102FB00080B212490880642803DD002008800B4994
:102FC000088014F1020F0DDA15F1020F0ADA14F17C
:102FD0001E0F07DD15F11E0F04DD002003490880D8
:102FE0000120C0E70020BEE7B4000020E800002078
:102FF0006C000020000020C100002041EA000020F9
:1030000000B589B001210220FDF7FCFF0121042059
:10301000FEF708F801210820FEF704F8C020ADF8FB
:10302000200018208DF8230003208DF8220008A925
:103030002A48FDF7B9FD3020ADF8200010208DF8AA
:10304000230003208DF8220008A92448FDF7ACFDD9
:103050004FF44060ADF8200010208DF823000320CD
:103060008DF8220008A91E48FDF79EFD41F61F407D
:10307000ADF818000120ADF81400ADF81A000020DA
:10308000ADF8160005A91748FEF74CFD6020ADF815
:1030900004000120ADF806004FF46160ADF80A00AD
:1030A0000020ADF80C0001A90E48FEF757FC0821DE
:1030B0000C48FEF79FFC01A90A48FEF7A5FC082171
:1030C0000848FEF7F3FC01210648FEF79DFB0121AD
:1030D0000448FEF78DFB09B000BD00000008014068
:1030E000000C0140000400402DE9F047804689466D
:1030F000144600212046FDF767F8064686F0004793
:10310000054801683846FDF765F805462846FDF78D
:1031100024FABDE8F08700006000002010B54FF4ED
:10312000A060FDF753FFFFF7D1FBFFF785FEFFF728
:1031300045FE00F08FF800F0D1F8FFF7CFFDFFF764
:10314000F3FDFFF7A5FCFFF75BFFFFF72FFB012067
:103150000149087010BD0000000000202DE9F04179
:1031600007468846144630480078012808D12F4881
:1031700001682F480068FCF7D5FF2D4908600FE073
:103180002C480078012808D12848016828480068A0
:10319000FDF71AF82649086002E00020244908607B
:1031A0002548006880F00045214801682846FDF761
:1031B00027FA04D82048006880F000400BE01E4841
:1031C00001681B480068FDF71BFA02D81A4800681E
:1031D00001E017480068164908601848007801287F
:1031E00003D017480078012803D116481649086013
:1031F00002E0002014490860134801682046FCF7EB
:10320000E9FF05461148016809480068FCF7E2FF3C
:1032100006462946FCF786FF0D4908600846006807
:10322000FDF79BF9BDE8F08192000020D800002056
:10323000D000002093000020DC000020900000203F
:10324000910000209A99193F5C000020580000204E
:10325000D400002000B587B001218803FDF7E2FE0D
:1032600001210420FDF7DEFE4FF40070ADF81800D8
:1032700003208DF81A0018208DF81B0006A91548A8
:10328000FDF792FC25208DF8040003208DF8050041
:103290008DF8060001208DF8070001A8FDF75EFEFD
:1032A0004FF4E13002900020ADF80C00ADF80E00B4
:1032B000ADF81000ADF814000820ADF8120002A916
:1032C0000548FEF7FFFC01210348FEF797FC07B015
:1032D00000BD0000000801400038014000B591B079
:1032E00001214804FDF78EFE01210420FDF79AFE1E
:1032F00001210846FDF796FE01210846FDF772FE02
:103300000820ADF8400003208DF8420004208DF81D
:10331000430010A93648FDF747FC4FF416500C90B7
:103320000020ADF83400ADF836004FF48060ADF801
:1033300038000020ADF83C000420ADF83A000CA99C
:103340002C48FEF7BFFC26208DF82C0000208DF8BD
:103350002D008DF82E0001208DF82F000BA8FDF711
:10336000FDFD012240F224412248FEF786FC0121A6
:103370002048FEF743FC012240211E48FEF74AFC8C
:103380001D48FDF7ABFA1B48001D00901B4801903B
:10339000002002900B2003900020049080200590D4
:1033A000002006900790202008904FF4405009908C
:1033B00000200A9069461048FDF755FB10208DF853
:1033C0002C0000208DF82D008DF82E0001208DF8A6
:1033D0002F000BA8FDF7C2FD012202210648FDF7D0
:1033E00039FB01210448FDF76DFA11B000BD000062
:1033F00000080140004400406C0002402101002010
:103400002DE9F05F67480078012829D1002166483E
:103410000068FDF7EBF807D2644963480068FCF7E1
:1034200081FE614908600CE000215F480068FDF7FB
:10343000E7F806D25D495C480068FCF7C5FE5A49CA
:1034400008605B4958480068FDF7D0F805D3594932
:1034500055480068FDF7D4F802D2002051490870A1
:1034600055480078012806D15448006880F0004093
:10347000534908600BE053480078012804D14F48B5
:1034800000684F49086002E000204D4908600021B3
:103490004B480068FCF79EFE04464B4909684B4ABE
:1034A00012688818FDF750F805462146FCF78CFE97
:1034B0004749086047480068FDF768F806464FF03E
:1034C0006632454BFCF75FFF0446FDF772F8414951
:1034D00008603F480068FDF759F880464FF03332E6
:1034E0003E4BFCF750FF04460D463A480068FDF796
:1034F0004DF8064622462B46FCF79EFE8246FDF717
:1035000058F8344908604FF0804132480068FCF7B1
:1035100061FE0446244801682046FCF703FE224968
:1035200008602748016820480068FCF74DFE1E49E6
:1035300008602B491C480068FDF762F802D2284851
:1035400019490860274918480068FDF74FF802D26A
:103550002448154908602448016813480068FCF7AE
:1035600039FE0446214801681A480068FCF732FE1B
:1035700005462146FCF7D6FD1D4908601D4908682F
:10358000FEF74EFD012803D01B480078012802D128
:1035900000200549086016480068FCF7DEFFBDE81A
:1035A000F09F000094000020C80000200000A04010
:1035B00000004040000040C090000020CC000020EF
:1035C000C4000020910000202C00002030000020CA
:1035D000BC000020C00000206666E63F3333D33FC6
:1035E00000606A4600606AC6540000205000002057
:1035F000B8000020F0000020B4000020000000000F
:103600004FBB610567ACDD3F182D4454FB21E93FFA
:103610009BF681D20B73EF3F182D4454FB21F93FE9
:10362000E2652F227F2B7A3C075C143326A6813C6F
:10363000BDCBF07A8807703C075C143326A6913C1A
:10364000C4EB98999999C9BF711623FEC671BCBF86
:103650006D9A74AFF2B0B3BF9AFDDE522DDEADBFEE
:103660002F6C6A2C44B4A2BF0D5555555555D53F06
:10367000FF8300922449C23F6E204CC5CD45B73F21
:10368000513DD0A0660DB13FEB0D76244B7BA93F99
:1036900011DA22E33AAD903F000000000000000084
:1036A0004D505536303530206465637465637465FC
:1036B00064206572726F72210D0ABCECB2E2B2BB7B
:1036C000B5BD4D505536303530C4A3BFE9A3ACC7A6
:1036D000EBBCECB2E9C4A3BFE9D3EBBFAAB7A2B07D
:1036E000E5B5C4BDD3CFDF000837000800000020D7
:1036F000F0000000AC1E0008F8370008F0000020C1
:1037000050040000BC1E0008000000000000000083
:1037100000000000000000000000000000000000A9
:103720000000000000000000000000000000000099
:103730000000000000000000000000000000000089
:103740000000000000000000000000000000000079
:103750000000000000000000000000000000000069
:103760000000000000000000000000000000000059
:103770000000000000000000000000000001020343
:1037800004010203040607080902040608000000F9
:103790002C0100002C0100000000000000000000CF
:1037A0000000000000000000000000000000000019
:1037B00000000000CDCC1C3A3FA10B3A00000000F5
:1037C00000000000000000000000000000000000F9
:1037D000000000000000E6420000000000000000C1
:1037E000CDCC4C3E3333333F0000000000000000DE
:0837F0000000000000000000D1
:04000005080000ED02
:00000001FF
