:020000040800F2
:10000000B80400200101000885080008BF070008A7
:100010008108000839030008151A000800000000D4
:10002000000000000000000000000000750A000849
:10003000E1040008000000000D090008890B000819
:100040001B0100081B0100081B0100081B01000820
:100050001B0100081B0100081B0100081B01000810
:100060001B0100081B0100081B0100081B01000800
:100070001B0100081B0100081B0100081B010008F0
:100080001B0100081B0100081B0100081B010008E0
:100090001B0100081B0100081B010008E504000803
:1000A0001B0100081B0100081B0100081B010008C0
:1000B0001B0100081B010008090D00081B010008B6
:1000C0001B0100081B0100081B0100081B010008A0
:1000D0001B0100081B010008311800081B01000863
:1000E0001B0100081B0100081B010008DFF80CD0F1
:1000F00000F010F900480047991A0008B8040020E1
:100100000648804706480047FEE7FEE7FEE7FEE7B1
:10011000FEE7FEE7FEE7FEE7FEE7FEE78D0B0008E1
:10012000ED000008F0B480EA0102D40F4200B2EB07
:10013000410F02D20246084611464A0042D0C30D82
:10014000DDB2C1F3C752AD1A202D35DAC1F3160165
:1001500041F4000204B15242C5F1200602FA06F150
:100160002A411044B3EBD05F23D0C4B1012DA0EBE2
:10017000C35009DCF0BC4FF0004202EAC352DBB2CC
:1001800000F5000000F097B8400000F1807000EB2F
:10019000C350A0F1807040EAD170490009E04908DD
:1001A00041EAC071A0EBC35000F50000400800EB2D
:1001B000C350F0BC00F076B86142012202EB41016D
:1001C000001BF6E7F0BC704781F00041AAE780F021
:1001D0000040A7E780EA010210B502F000434000AA
:1001E00022D04A001FD0010E01EB1261C0F356006D
:1001F000C2F3560240F4000042F40002A0FB0220C9
:1002000000047F39140400D0401C50EA124001D48D
:100210004000491EC2B20C0604EBD010401C40083E
:10022000802A02D003E0002010BD20F00100002948
:1002300000DA0020184310BDC10F80EAE0700844C6
:10024000CA079623002100F036B8962300221146F3
:1002500000F031B820F00040C10DC0F3160040F4AA
:1002600000007F2901DA00207047962903DCC1F1E4
:100270009601C8407047963988407047002801DBD6
:10028000C0F10040002901DBC1F10041814270470B
:10029000002801DBC0F10040002901DBC1F1004171
:1002A000884270470029A8BF7047401C490008BF1A
:1002B00020F00100704710B4B0FA80FC00FA0CF096
:1002C00050EA010404BF10BC704749B1CCF12004CE
:1002D00021FA04F411FA0CF118BF0121214308435B
:1002E000A3EB0C01CB1D4FEA00614FEA102042BF87
:1002F000002010BC704700EBC35010440029A4BF7D
:1003000010BC7047401C490008BF20F0010010BC21
:1003100070470000064C074D06E0E06840F001031E
:1003200094E8070098471034AC42F6D3FFF7E2FE9A
:10033000F41B0008141C000800BFFEE721B102688E
:1003400042F00102026004E002684FF6FE731A40B8
:100350000260704701684FF6FE7211400160002193
:10036000016041608160C1604B49884208D14A49BF
:100370000839496841F00F01474A083A51608AE05C
:1003800045491431884208D143490839496841F048
:10039000F001414A083A51607DE03F4928318842E6
:1003A00008D13D490839496841F470613A4A083A30
:1003B000516070E038493C31884208D136490839EB
:1003C000496841F47041344A083A516063E0324967
:1003D0005031884208D130490839496841F47021C8
:1003E0002D4A083A516056E02B496431884208D1C1
:1003F00029490839496841F47001274A083A51608F
:1004000049E025497831884208D1234908394968AB
:1004100041F07061204A083A51603CE01F4988422F
:1004200006D1011F096841F00F01021F116032E07F
:100430001A491431884208D11849091F096841F046
:10044000F001164A121F116025E014492831884234
:1004500008D11249091F096841F470610F4A121F3F
:10046000116018E00D493C31884208D10B49091F41
:10047000096841F47041094A121F11600BE00749F5
:100480005031884207D10549091F096841F470219C
:10049000024A121F1160704708000240080402401F
:1004A00010B50022026847F6F0739A430C6A8B6815
:1004B00023430C6923434C6923438C692343CC6950
:1004C00023434C6A23438C6A23431A430260CB685C
:1004D00043600B6883604B68C36010BD4160704728
:1004E0007047000010B50A2001F0B4FA4FF4807193
:1004F000094800F059F950B908480078401C0749EC
:10050000087008460078042801DD012008704FF4C7
:10051000807000F005F810BD000C014000000020C4
:10052000014908607047000014040140002123497C
:100530008279002A3AD00A46126803689A430B4629
:100540001A600A1D126803689A430B1D1A6002792B
:1005500011440A6803681A430A60184A083212688C
:1005600003689A43154B08331A601A1D1268036812
:100570009A43124B0C331A604279102A0ED11A1F7B
:10058000126803681A430D4B08331A601A1D12686B
:1005900003681A43094B0C331A600DE0074942798E
:1005A00011440A6803681A430A6005E0027911449D
:1005B0000A6803689A430A6070470000000401401B
:1005C00030B500228B071C0F0F2303FA04F20B4BEC
:1005D0008C1053F824309343084C8D1044F8253088
:1005E00023468C1053F824308C07240F00FA04F4AF
:1005F0002343024C8D1044F8253030BD08000140E3
:100600002DE9F041024600250026002000230024A9
:10061000002791F803C00CF00F0591F803C00CF00F
:10062000100CBCF1000F03D091F802C04CEA050594
:1006300091F800C0BCF1000F31D0146800202BE00D
:100640004FF0010C0CFA00F3B1F800C00CEA0306FD
:100650009E4220D183004FF00F0C0CFA03F7BC43ED
:1006600005FA03FC4CEA040491F803C0BCF1280F1E
:1006700006D14FF0010C0CFA00FCC2F814C00AE0DD
:1006800091F803C0BCF1480F05D14FF0010C0CFAF2
:1006900000FCC2F810C0401C0828D1D31460B1F887
:1006A00000C0BCF1FF0F34DD546800202EE000F1E3
:1006B000080C4FF0010808FA0CF3B1F800C00CEA7E
:1006C00003069E4221D183004FF00F0C0CFA03F772
:1006D000BC4305FA03FC4CEA040491F803C0BCF1E6
:1006E000280F05D100F1080C08FA0CF8C2F81480A4
:1006F00091F803C0BCF1480F07D100F1080C4FF08E
:10070000010808FA0CF8C2F81080401C0828CED363
:100710005460BDE8F0810000F0B50A4600230024D3
:100720000021002500F00046B6F1004F02D11D4E19
:10073000F16901E01B4E7168C0F3034583B200F418
:100740004016B6F5401F08D121F07061154E76684D
:1007500026F07066134F7E6012E000F48016B6F546
:10076000801F06D1032606FA05F4A14341F070610B
:1007700006E0460D360103FA06F6B14341F070611A
:1007800022B1460D360103FA06F6314300F0004669
:10079000B6F1004F02D1034EF16101E0014E7160EC
:1007A000F0BD0000000001400246002093680B40AD
:1007B0000BB1012000E0002070470161704700BFCD
:1007C000FEE70EB50121084600F0DAF800F024F843
:1007D00008210120FFF7F4FE4FF480700190002003
:1007E0008DF808000C208DF8090001208DF80A0012
:1007F00001A8FFF79BFE17208DF8000000208DF860
:10080000010003208DF8020001208DF803006846E6
:1008100000F03AF80EBD000008B50121082000F0F4
:10082000AFF801210748FFF777FF4FF48070ADF86C
:10083000000048208DF8030069460348FFF7E0FEFA
:1008400008BD000000023000000C014008B5012185
:10085000102000F095F810208DF80300C002ADF8CC
:10086000000003208DF8020069460448FFF7C8FE27
:100870004FF400410148FFF7A0FF08BD0010014000
:1008800000BFFEE77047000070B5002100230F2273
:10089000C47804B3154C246804F4E064C4F5E0643F
:1008A000210AC1F10403CA40447804FA03F18478B0
:1008B0001440214309010E4C0678A155047804F038
:1008C0001F050124AC4005786D11AD0005F1E02550
:1008D000C5F8004109E0047804F01F050124AC408C
:1008E000044D0678761145F8264070BD0CED00E009
:1008F00000E400E080E100E002490143024A1160A7
:10090000704700000000FA050CED00E070470000A1
:1009100010B504466178227841EA0220FFF78CFC8A
:1009200005490860E178A27841EA0220FFF784FCDB
:100930000249086010BD000034000020380000208B
:1009400029B1064A52690243044B5A6104E0034A42
:1009500052698243014B5A61704700000010024007
:1009600029B1064AD2690243044BDA6104E0034A22
:10097000D2698243014BDA617047000000100240E7
:1009800029B1064A92690243044B9A6104E0034A82
:1009900092698243014B9A61704700000010024047
:1009A00030B500210022002400232D4D6D6805F094
:1009B0000C0121B1042905D0082923D105E0294DD6
:1009C000056022E0274D05601FE0254D6D6805F4A8
:1009D0007012234D6D6805F48034022505EB9242B8
:1009E0001CB9214D554305600BE01D4D6D6805F4A4
:1009F00000351DB11C4D5543056002E0194D5543AE
:100A0000056002E0174D056000BF00BF144D6D6822
:100A100005F0F0010909154D6B5C0568DD40456086
:100A20000F4D6D6805F4E061090A104D6B5C456877
:100A3000DD4085600A4D6D6805F46051C90A0B4DB3
:100A40006B5C4568DD40C560054D6D6805F440414F
:100A5000890B074D6B5CC568B5FBF3F5056130BDCF
:100A60000010024000127A0000093D009C000020A6
:100A7000AC000020704710B500F002F810BD000077
:100A80000CB50020019000903348006840F480309D
:100A90003149086000BF3048006800F40030009021
:100AA0000198401C0190009818B90198B0F5A06F0A
:100AB000F1D12948006800F4003010B10120009005
:100AC00001E0002000900098012843D123480068ED
:100AD00040F01000214908600846006820F003003B
:100AE00008600846006840F0020008601A48406844
:100AF000194948600846406848600846406840F424
:100B0000806048600846406820F47C1048600846D1
:100B1000406840F4E81048600846006840F0807083
:100B2000086000BF0C48006800F000700028F9D091
:100B30000948406820F003000749486008464068BB
:100B400040F00200486000BF0348406800F00C001D
:100B50000828F9D10CBD000000100240002002401E
:100B6000042808D14FF0E021096941F004014FF059
:100B7000E022116107E04FF0E021096921F0040152
:100B80004FF0E022116170477047000010B5134824
:100B9000006840F0010011490860084640681049AB
:100BA00008400E494860084600680E4908400B4955
:100BB00008600846006820F4802008600846406805
:100BC00020F4FE0048604FF41F008860FFF753FFD9
:100BD0004FF000600449086010BD000000100240A2
:100BE0000000FFF8FFFFF6FE08ED00E030B589B029
:100BF00005460C4601210846FFF7B2FE01210420FC
:100C0000FFF7BEFE0120ADF8200018208DF823006C
:100C100003208DF8220008A91548FFF7F1FCADF874
:100C20001850ADF814400020ADF81A00ADF81600C9
:100C300005A94FF0804000F0A9FD6020ADF8040048
:100C40000120ADF806000020ADF80A00ADF80C0058
:100C500001A94FF0804000F041FD0821C80600F0D6
:100C600089FD0121880700F004FD09B030BD0000B6
:100C70000008014030B589B005460C46012102202C
:100C8000FFF76EFE01210420FFF77AFE4020ADF849
:100C9000200018208DF8230003208DF8220008A9D9
:100CA0001648FFF7ADFCADF81850ADF81440002021
:100CB000ADF81A00ADF8160005A9114800F066FD60
:100CC0006020ADF804000120ADF806000020ADF86A
:100CD0000A00ADF80C0001A9094800F0FFFC08214A
:100CE000084800F047FD0121054800F0CEFC012135
:100CF000034800F0BEFC09B030BD00000008014010
:100D000000040040002C01402DE9F0470121FE487D
:100D100000F0CAFC00287DD0FC48006808B901201A
:100D200000E00020F9490860F9480078012818D14E
:100D3000F848F9490860F9490860F948F949086034
:100D4000F948FA4908604FF08340F9490860F448CF
:100D5000F8490860F848F94908604FF08340F849BD
:100D60000860EB480078022819D1F648EA49086083
:100D7000E848EA490860EA48EA490860EE48EB4971
:100D800008604FF08340EA490860E548E949086097
:100D9000E948EA4908604FF08340E9490860DC48C7
:100DA000007803281AD1DB48DB490860DB4908607A
:100DB000D9490860D9490860D948DA490860DA4851
:100DC000DA490860E048DA490860D548D94908603E
:100DD000D548DA490860DC48D9490860CC48007831
:100DE00004287DD1D9480068B0F5FA6F38DAC948CF
:100DF000C9490860D648C9490860D64801680068F2
:100E0000FFF7E8F90546D44801680068FFF7E2F902
:100E1000064600E0A4E32946FFF784F90446CF49DB
:100E2000FFF72CFA04D8C94800686430C749086045
:100E3000C84801680068FFF7CDF90546C648016853
:100E40000068FFF7C7F906462946FFF76BF9044625
:100E5000C249FFF71DFA02D20020BC49086093E0A6
:100E6000BA480068B0F5FA6FF9DBBD480068B0F524
:100E7000FA6F36DAA748A8490860A8490860B5485B
:100E800001680068FFF7A6F90546B34801680068E5
:100E9000FFF7A0F906462946FFF744F90446AF4993
:100EA000FFF7ECF904D8AE4800686430AC4908603C
:100EB000A84801680068FFF78DF90546A648016853
:100EC0000068FFF787F906462946FFF72BF9044625
:100ED000A249FFF7DDF957D20020A149086053E08D
:100EE00066E09F480068B0F5FA6F4DDB9D480068EA
:100EF000B0F5FA6F36DA9348874908609448874915
:100F00000860944801680068FFF764F90546924854
:100F100001680068FFF75EF906462946FFF702F907
:100F200004468E49FFF7AAF904D88E480068643059
:100F30008C490860874801680068FFF74BF905464F
:100F4000854801680068FFF745F906462946FFF71E
:100F5000E9F804468149FFF79BF915D20020814941
:100F6000086011E07F480068B0F5FA6F0CDB694853
:100F70006949086076486949086000207949086035
:100F80007249086076490860774866490860664893
:100F9000664908604FF083406549086072486549BA
:100FA00008606548654908604FF0834064490860FF
:100FB000594801686D480068FFF706F966490860FE
:100FC000564801686A480068FFF7FEF86149086002
:100FD000084601680068FFF7FDF805465E480168AD
:100FE0000068FFF7F7F806462946FFF79BF8044626
:100FF0006049FFF74DF901D8012400E000245E4963
:1010000055480068FFF73AF901D2012000E00020BE
:1010100004405A494F480068FFF730F901D20120D7
:1010200000E000200440CCB14B4801685448FFF771
:10103000D1F80446534801682046FFF773F8514938
:101040000860444801684E48FFF7C4F804464E481B
:1010500001682046FFF766F84B4908604B48016875
:1010600048480068FFF714F902D20020454908609B
:101070004748016843480068FFF700F902D800209C
:1010800040490860414801683F480068FFF700F99F
:1010900002D200203C4908603D4801683A48006897
:1010A000FFF7ECF802D800203749086018480078AC
:1010B00001287DD1374928480068FFF7DFF801D2C1
:1010C000012400E00024334922480068FFF7D6F8E5
:1010D00001D2012000E0002004409CB11D480168BD
:1010E0000068FFF777F805461B4801680068FFF7BE
:1010F00071F806462946FFF715F804462649FFF71A
:10110000BDF84BE054E0000000080040B40122426A
:1011100000000020000070432C0000203000002060
:101120009A99D93F14000020CDCCCC3C1800002067
:101130001C000020200000208FC2753C24000020ED
:10114000280000200080CA430000A04108000020C1
:101150000000964258000020540000200080B44354
:101160000C00002010000020CDCCCC3F340000202B
:10117000380000200000A2430000B442000070428A
:101180000000A04044000020480000204C00002047
:10119000500000200000C8420000444408D84FF02E
:1011A0007F50F04908600860EF48F0490860086027
:1011B000EF48007802282FD1EE49EF480068FFF78A
:1011C0005DF801D2012400E00024EA49EB48006800
:1011D000FFF754F801D2012000E000200440DCB108
:1011E000E64801680068FEF7F5FF0546E248016839
:1011F0000068FEF7EFFF06462946FEF793FF044618
:10120000DF49FFF73BF807D8DE48D6490860086099
:10121000DD48D64908600860D548007803281BD10E
:10122000D64801680068FEF7D5FF0546D248016838
:101230000068FEF7CFFF06462946FEF773FF044617
:10124000CF49FFF71BF807D8CE48C64908600860A9
:10125000CE48C64908600860C548007804281CD1FB
:10126000C64801680068FEF7B5FF0546C248016838
:101270000068FEF7AFFF06462946FEF753FF044617
:10128000BF49FEF7FBFF08D84FF07F50B549086013
:101290000860BF48B54908600860B5480078032871
:1012A00032D1BC480168B4480068FEF78DFF814622
:1012B000AE4801684846FEF78DFF0646B64801680D
:1012C000B6480068FEF786FF8146A6480168AA482E
:1012D0000068FEF77FFF82464946FEF723FF074678
:1012E0003146FEF71FFF0546AD490988A1F13200DE
:1012F000FEF7A2FF80462946FEF714FF0446FEF7DC
:10130000A9FFA84908602FE0A24801689A48006830
:10131000FEF75AFF8146954801684846FEF75AFF96
:1013200006469D4801689D480068FEF753FF8146C8
:101330008C48016890480068FEF74CFF8246494699
:10134000FEF7F0FE07463146FEF7ECFE05469448F0
:101350000088FEF77AFF80462946FEF7E3FE044642
:10136000FEF778FF8F49086081480078022832D163
:101370008D48016881480068FEF726FF81468B484A
:1013800001684846FEF726FF0646894801688948F5
:101390000068FEF71FFF81468748016877480068AC
:1013A000FEF718FF82464946FEF7BCFE0746314667
:1013B000FEF7B8FE054681490988A1F11E00FEF737
:1013C0003BFF80462946FEF7FFFE0446FEF742FF3C
:1013D0007B4908602FE07448016868480068FEF7A0
:1013E000F3FE8146714801684846FEF7F3FE064663
:1013F0006F4801686F480068FEF7ECFE81466E4852
:1014000001685E480068FEF7E5FE82464946FEF741
:1014100089FE07463146FEF785FE05466748008887
:10142000FEF713FF80462946FEF7CEFE0446FEF780
:1014300011FF634908604B4801684F480068FEF798
:10144000C9FE604908605448016854480068FEF7C6
:10145000C1FE5D4908604F48016847480068FEF7D3
:10146000B3FE0446414801682046FEF7B3FE5749E3
:1014700008605148016841480068FEF7ABFE5449D6
:1014800008604B4801684B480068FEF7A3FE5149CD
:1014900008604548016839480068FEF795FE044633
:1014A000424801682046FEF795FE4B4908603948DE
:1014B000016831480068FEF787FE484908603A48ED
:1014C00001682E480068FEF77FFE454908603C48E9
:1014D000006844490988884203D94248008838494D
:1014E00008603748006840490988884203D23E486E
:1014F0000088334908602B4800683C4909888842C5
:1015000003D93A48008827490860264800683849C6
:101510000988884203D23648008822490860354845
:101520000068354908603548006835490860124848
:10153000006818490860114800681B490860204885
:10154000008881B22F4800F01EF91648008881B249
:101550004FF0804000F017F901212B4800F086F889
:10156000BDE8F08714000020000070411C0000203E
:10157000000000200000C842540000205800002055
:10158000000044446666A63F0000684100005041E8
:10159000000040415C0000201800002044000020B2
:1015A0006C00002064000020600000202800002063
:1015B0002400002048000020200000206E000020B1
:1015C000680000207C0000208000002084000020B3
:1015D000880000208C000020900000209400002053
:1015E0009800002074000020760000207000002089
:1015F00072000020340000203C0000203800002051
:101600004000002000040040000800407FB505466F
:101610000C4601210420FFF7A3F9ADF80850ADF8FE
:1016200004400020ADF80A00ADF8060001A90E48FC
:1016300000F0ACF8012211460B4800F046F81E20DD
:101640008DF8000000208DF8010003208DF80200C5
:1016500001208DF803006846FFF716F901210248C2
:1016600000F007F87FBD000000080040CA43028276
:10167000704721B1028842F00102028004E0028832
:101680004FF6FE731A400280704731B1B0F8442023
:1016900042F40042A0F8442005E0B0F84420C2F330
:1016A0000E02A0F84420704730B502460020002307
:1016B0000024158A05EA0103958905EA010413B19E
:1016C0000CB1012000E0002030BD1AB183890B432A
:1016D000838102E083898B438381704770B5002446
:1016E00000220023058C4FF6FE7635400584028CDF
:1016F0008388048B4FF68F752C40B51E2C400D88C7
:101700002C43751E2A400D892A434D882A43144DC7
:10171000A8420BD0134DA84208D0134DA84205D0C3
:10172000124DA84202D0124DA84213D14FF6F775C0
:101730002A404D892A434FF6FB752A408D882A435B
:101740004FF6FF652B404FF6FF552B408D892B43FD
:10175000CD892B4383800483CD888586028470BD28
:10176000002C014000340140004001400044014091
:10177000004801400A460021018B4FF6F7731940DB
:101780001143018370478186704700000022028860
:101790001D4B98420ED01D4B98420BD0B0F1804F9C
:1017A00008D01B4B984205D01A4B984202D01A4BD6
:1017B000984204D14FF68F731A404B881A43174B47
:1017C000984207D0164B984204D04FF6FF431A4078
:1017D000CB881A4302808B8883850B8803850A4B4C
:1017E00098420BD0094B984208D00E4B984205D036
:1017F0000D4B984202D00D4B984201D10B7A0386D3
:101800000123838270470000002C01400034014016
:101810000004004000080040000C004000100040A0
:1018200000140040004001400044014000480140D5
:1018300010B540F224410C4800F031F898B10A4844
:1018400000880948001D008800210848FEF776FD41
:101850000748FFF75DF804210448FEF73FFE012129
:101860000248FEF76BFD10BD004400406C000240D2
:10187000B000002021B1828942F40052828104E04C
:1018800082894DF6FF731A40828170471AB1838AAC
:101890000B43838202E0838A8B438382704770B557
:1018A0000246002400230025002040F66A16B142BB
:1018B00000D100BFC1F3421501F01F03012606FA53
:1018C00003F3012D02D19689334006E0022D02D1A7
:1018D000168A334001E0968A33400C12012606FA3C
:1018E00004F41688344013B10CB1012000E000204C
:1018F00070BDF0B50346002400260025002040F608
:101900006A17B94200D100BF1846C1F3421401F072
:101910001F06012707FA06F5012C01D10C3004E05F
:10192000022C01D1103000E014301AB107682F43A7
:10193000076002E00768AF430760F0BD2DE9F0479C
:1019400086B005460E460024A24600BFA1460027E9
:10195000B08900B100BF2F462C8A4CF6FF700440BE
:10196000F08804432C82AC894EF6F3100440B08812
:1019700031890843718908430443AC81AC8A4FF62E
:10198000FF400440B0890443AC8201A8FFF708F887
:101990001F48874202D1DDF810A001E0DDF80CA05D
:1019A000A88900F4004040B10AEBCA0000EB0A101D
:1019B00031684900B0FBF1F807E00AEBCA0000EB20
:1019C0000A1031688900B0FBF1F86420B8FBF0F030
:1019D00004012009642101FB1089A88900F400405A
:1019E00040B1322000EBC900B0FBF1F000F007007D
:1019F000044308E0322000EB09106421B0FBF1F051
:101A000000F00F0004432C8106B0BDE8F087000011
:101A10000038014000BFFEE702E008C8121F08C1FD
:101A2000002AFAD170477047002001E001C1121F5F
:101A3000002AFBD1704710B50420FFF791F84FF052
:101A4000E020006940F001004FF0E02108614720EC
:101A5000486110BD4FF47A7148434FF0E0210969A5
:101A600041F001014FF0E022116107E000BF4FF0AB
:101A7000E021096901F480310029F8D0011EA0F1AC
:101A80000100F3D14FF0E021096921F001014FF08D
:101A9000E0221161704700004FF4A060FEF72CFFB8
:101AA000FFF7C9FFFEF7D2FEFEF78BFE00F024F829
:101AB00040F2CF2142F20F70FFF7A8FD472144F614
:101AC0001F60FFF793F8472144F61F60FFF7D2F835
:101AD000064801884FF08040FFF755FE0448018812
:101AE0000448FFF750FE00BFFEE700006C00002036
:101AF0006E0000200004004000B591B001214804B0
:101B0000FEF72EFF01210420FEF73AFF01210846CF
:101B1000FEF736FF01210846FEF712FF0820ADF858
:101B2000400003208DF8420004208DF8430010A9E6
:101B30002C48FEF765FD4FF4E1300C900020ADF825
:101B40003400ADF836004FF48060ADF83800002066
:101B5000ADF83C000420ADF83A000CA92248FFF78C
:101B6000EDFE26208DF82C0001208DF82D008DF83B
:101B70002E008DF82F000BA8FEF786FE012240F202
:101B800024411948FFF7B5FE01211748FFF772FEFF
:101B9000012240211448FFF779FE1448FEF7DAFBD2
:101BA0001148001D0090124801900020029004206E
:101BB000039000200490802005900020069007905C
:101BC000202008904FF44050099000200A90694668
:101BD0000648FEF765FC01210448FEF7AFFB11B093
:101BE00000BD000000080140004400406C000240BD
:101BF000B0000020141C000800000020B400000009
:101C0000181A0008C81C0008B400002004040000D2
:101C1000281A000801000000000000000000000079
:101C200000000000000000000000000000000000B4
:101C300000000000000000000000000000000000A4
:101C4000000070430000704300007D4300006343C8
:101C5000000070430000704300000000000000001E
:101C600000007A4500007AC5000000000000000076
:101C70000000000000000000000000000000000064
:101C80000E0678059E077E040807E803DC05DC05E0
:101C90000000000000000000000000000000000044
:101CA0000000000000000000000000000000000034
:101CB00000000000010203040102030406070809F2
:081CC000020406080000000008
:04000005080000ED02
:00000001FF
