:020000040800F2
:10000000502500200101000849160008E5150008E8
:1000100045160008A1080008BD25000800000000E2
:100020000000000000000000000000005D1B000850
:10003000AB11000800000000C517000819010008F6
:100040001B0100081B0100081B0100081B01000820
:100050001B0100081B0100081B0100081B01000810
:100060001B0100081B0100081B0100081B01000800
:100070001B0100081B010008FD0E00081D0F0008F1
:100080001B0100081B0100081B010008792500085E
:10009000952500081B0100081B0100081B01000832
:1000A0001B010008D11C00081B0100081B010008EF
:1000B0001B0100081B0100081B0100081B010008B0
:1000C0001B0100081B0100081B0100081B010008A0
:1000D0001B010008D52300081B0100081B010008B4
:1000E0001B0100081B0100081B010008DFF80CD0F1
:1000F00000F054F90048004765260008502500200C
:100100000648804706480047FEE7FEE7FEE7FEE7B1
:10011000FEE7FEE7FEE7FEE7FEE7FEE7711C0008EC
:10012000ED000008F0B480EA0102D40F4200B2EB07
:10013000410F02D20246084611464A0042D0C30D82
:10014000DDB2C1F3C752AD1A202D35DAC1F3160165
:1001500041F4000204B15242C5F1200602FA06F150
:100160002A411044B3EBD05F23D0C4B1012DA0EBE2
:10017000C35009DCF0BC4FF0004202EAC352DBB2CC
:1001800000F5000000F0DBB8400000F1807000EBEB
:10019000C350A0F1807040EAD170490009E04908DD
:1001A00041EAC071A0EBC35000F50000400800EB2D
:1001B000C350F0BC00F0BAB86142012202EB410129
:1001C000001BF6E7F0BC704781F00041AAE780F021
:1001D0000040A7E780EA010210B502F000434000AA
:1001E00022D04A001FD0010E01EB1261C0F356006D
:1001F000C2F3560240F4000042F40002A0FB0220C9
:1002000000047F39140400D0401C50EA124001D48D
:100210004000491EC2B20C0604EBD010401C40083E
:10022000802A02D003E0002010BD20F00100002948
:1002300000DA0020184310BD30B480EA010202F059
:10024000004530F0004221F0004013D090B1C30DC2
:10025000D40DC2F31601C0F31600E41A41F40001F4
:1002600040F400027D34914201D3641C00E0490057
:10027000002C02DA30BC002070474FF4000000234D
:10028000914201D3891A034340084FEA4101F7D153
:1002900051B1914202D14FF0004105E002D24FF03E
:1002A000010101E06FF0010103EBC450284430BCB0
:1002B00000F03CB8C10F80EAE0700844CA079623FA
:1002C000002100F03CB896230022114600F037B818
:1002D00000F0004220F00040C10DC0F3160040F4D1
:1002E00000007F2901DA00207047962903DCC1F164
:1002F0009601C84001E096398840002AF4D0404277
:1003000070470000002801DBC0F10040002901DB3C
:10031000C1F1004181427047002801DBC0F100407B
:10032000002901DBC1F10041884270470029A8BFC4
:100330007047401C490008BF20F00100704710B40E
:10034000B0FA80FC00FA0CF050EA010404BF10BCC3
:10035000704749B1CCF1200421FA04F411FA0CF1F0
:1003600018BF012121430843A3EB0C01CB1D4FEA29
:1003700000614FEA102042BF002010BC704700EB24
:10038000C35010440029A4BF10BC7047401C490052
:1003900008BF20F0010010BC70470000064C074D5C
:1003A00006E0E06840F0010394E807009847103445
:1003B000AC42F6D3FFF79EFE5828000878280008C4
:1003C00021B1826842F00102826003E0826822F07B
:1003D000010282607047000000B591B00121042045
:1003E00001F0EEFA0121084601F0BAFA01214802B3
:1003F00001F0E6FA1820ADF8400000208DF8430027
:1004000003208DF8420010A93A4800F095FF3A48C1
:1004100000F0E2FD39480090394801900020029038
:100420003848008803900020049080200590400008
:10043000069080000790202008900002099000207C
:100440000A9069462C4800F090FE01212A4800F0ED
:10045000B7FD2A484C3800F063F800200B900120CB
:100460008DF830008DF831004FF460200D900020A1
:100470000E9002208DF83C000BA920484C3800F06B
:1004800091F84FF4404001F05FFA0323012219462E
:100490001A484C3800F0AEF8032302220421174812
:1004A0004C3800F0A7F8012114484C3800F02CF823
:1004B000012112484C38FFF783FF10484C3800F0F8
:1004C000F5F800BF0D484C3800F062F80028F9D16B
:1004D0000A484C3800F0FAF800BF08484C3800F0E1
:1004E0004DF80028F9D1012104484C3800F0E3F818
:1004F00011B000BD00080140080002404C2401403A
:10050000900000201800002021B1826842F480721F
:10051000826003E0826822F480728260704700008B
:1005200010B504461248844208D10121401501F05B
:1005300057FA0021601501F053FA17E00D48844284
:1005400008D10121001501F04BFA0021201501F01E
:1005500047FA0BE00848844208D10121C80301F0A2
:100560003FFA00214FF4004001F03AFA10BD0000BC
:100570000024014000280140003C014001460020C9
:100580008A6802F004020AB1012000E000207047EE
:10059000014600208A6802F008020AB1012000E04A
:1005A0000020704730B502460020002350680F4CF1
:1005B00020400D790C6844EA05242043506090687F
:1005C0000B4C2040D1E902542C434D7944EA4504B8
:1005D00020439060D06A20F470000C7C641EE4B26A
:1005E000234340EA0350D06230BD0000FFFEF0FF1D
:1005F000FDF7F1FFF0B504460D4600200021092D5E
:1006000011DDE068A5F10A0606EB4607072606FAA3
:1006100007F18843A5F10A0606EB460603FA06F140
:100620000843E0600CE0206905EB4507072606FA61
:1006300007F1884305EB450603FA06F108432061FC
:10064000072A0FDA606B561E06EB86071F2606FA8E
:1006500007F18843561E06EB860605FA06F10843A5
:10066000606322E00D2A0FDA206BD61F06EB8607A7
:100670001F2606FA07F18843D61F06EB860605FA01
:1006800006F10843206310E0E06AA2F10D0606EBD4
:1006900086071F2606FA07F18843A2F10D0606EB2E
:1006A000860605FA06F10843E062F0BD816841F074
:1006B00008018160704721B1826842F4A002826023
:1006C00003E0826822F4A00282607047816841F0F2
:1006D00004018160704700002DE9FC5F00240025C3
:1006E00000266248D0F800906148D0F800A000BF12
:1006F00017E061005F4A32F81100FFF7E4FD83461E
:100700002946FFF70FFD05466100491C594A32F89A
:100710001100FFF7D8FD83463146FFF703FD06467B
:10072000641C5549088800EBD071B4EB610FE0DB25
:100730005148B0F800B00BEBDB714810FFF7BAFD81
:10074000014601902846FFF777FD05464A48B0F874
:1007500000B00BEBDB714810FFF7ACFD01460190D8
:100760003046FFF769FD06464FF08B412846FFF7FC
:1007700063FD42490190FFF72DFD83464048016823
:100780005846FFF721FD07464FF08B413046FFF7F3
:1007900053FD3A490190FFF71DFD83463848016833
:1007A0005846FFF711FD804636493846FFF712FDDF
:1007B0002E49086033494046FFF70CFD2C4908607C
:1007C000314801682A480068FFF7FEFC28490860A4
:1007D0002E4801684FF07E50FFF7F6FC4946009026
:1007E000FFF7F8FC83462948016820480068FFF7B6
:1007F000F1FC59460190FFF795FC1C49086023481D
:1008000001684FF07E50FFF7DFFC51460090FFF784
:10081000E1FC83461D48016815480068FFF7DAFCD3
:1008200059460190FFF77EFC1149086018490F48AE
:100830000068FFF771FD08D216490C480068FFF701
:1008400061FD02D200200949086013490848006888
:10085000FFF762FD08D2114905480068FFF752FD15
:1008600002D2002002490860BDE8FC9F7000002011
:100870007400002090000020180000203333534003
:100880001C00002000007A44240000202C000020DE
:10089000000020C100002041000070C10000704134
:1008A00000BFFEE7B1F5007F3AD00FDC202928D049
:1008B00006DC01291CD004291DD0082940D11DE0E7
:1008C000402921D0B1F5807F3AD126E0B1F5004F23
:1008D00031D006DCB1F5806F25D0B1F5006F2FD196
:1008E00024E0B1F5803F12D0B1F5003F28D111E0EE
:1008F000154A826025E00822C26022E01022C26010
:100900001FE0082202611CE01022026119E00822A7
:10091000426016E01022426013E00422426010E0C0
:10092000042242600DE0042242600AE0002282615B
:100930000422426005E0002282610422426000E05D
:1009400000BF00BF704700000101010000B589B081
:100950000121480601F014F80121042001F030F8CB
:100960000121084601F02CF84FF40060ADF80400B6
:1009700048208DF8070003208DF8060001A93B48A8
:1009800000F0DAFC4FF48050ADF8040018208DF828
:10099000070003208DF8060001A9344800F0CCFCC4
:1009A000334800F067F800208DF81E0001208DF814
:1009B0001F0000208DF820008DF821008DF8220006
:1009C00001208DF8230000208DF81A008DF81B00FF
:1009D00004208DF81C0002208DF81D000420ADF8C5
:1009E000180006A9224800F07EF900208DF81200B8
:1009F0008DF8130001208DF814000020ADF80800D8
:100A0000ADF80A00ADF80C00ADF80E00ADF810001E
:100A100001208DF8150002A800F048F813208DF889
:100A2000000001208DF8010000208DF80200012057
:100A30008DF80300684600F009FE14208DF80000D0
:100A400001208DF801008DF802008DF80300684642
:100A500000F0FCFD01220221054800F03BF90122D3
:100A60001146034800F036F909B000BD0008014006
:100A70000064004010B504460B48844209D10121AE
:100A8000480600F08DFF00214FF0007000F088FF55
:100A900008E00121880600F083FF00214FF080600C
:100AA00000F07EFF10BD00000064004010B5002182
:100AB000837A012202FA03F13D4A126842F00102F0
:100AC0003B4B1A603A4A1C3212688A43384B1C333B
:100AD0001A60027BCAB9364A0C3212688A43344B18
:100AE0000C331A604288C38842EA0343304A4032DA
:100AF000847A42F834300288838842EA03432C4ADD
:100B00004032847A02EBC4025360027B012A19D17D
:100B1000274A0C3212680A43254B0C331A6042886C
:100B2000038842EA0343224A4032847A42F834304E
:100B3000C288838842EA03431D4A4032847A02EB2A
:100B4000C4025360C27A3AB9194A121D12688A4324
:100B5000174B1B1D1A6006E0154A121D12680A4346
:100B6000134B1B1D1A60028932B9114A14321268E4
:100B70008A430F4B14331A600289012A06D10C4AAA
:100B8000143212680A430A4B14331A60427B012A5A
:100B900006D1074A1C3212680A43054B1C331A60FF
:100BA000034A126822F00102014B1A6010BD0000D6
:100BB0000066004070B504460D4600266069284076
:100BC000002871D0B5F5807F5CD010DC082D35D0C1
:100BD00006DC012D20D0022D24D0042D72D127E077
:100BE000102D31D0202D35D0402D6BD138E0B5F50A
:100BF000004F60D009DCB5F5007F49D0B5F5806FB6
:100C00004CD0B5F5006F5DD14FE0B5F5803F2DD0EC
:100C1000B5F5003F56D12FE0A0682D4900F065F9E9
:100C2000064651E0E068032100F05FF906464BE01C
:100C3000E068082100F059F9064645E0E068102117
:100C400000F053F906463FE02069032100F04DF91A
:100C5000064639E02069082100F047F9064633E0EE
:100C60002069102100F041F906462DE06068082156
:100C700000F03BF9064627E06068102100F035F9E6
:100C8000064621E0A069012100F02FF906461BE08D
:100C9000A069022100F029F9064615E0A0690421A7
:100CA00000F023F906460FE00FE0A069702100F084
:100CB0001CF9064608E06068042100F016F90646B3
:100CC00002E0FFE7002600BF00E00026304670BDCE
:100CD000010101001AB143690B43436102E043691A
:100CE0008B434361704730B50246002000231468EF
:100CF00024F002041460146844F00104146000E05D
:100D00005B1C546804F001041CB94FF6FF74A34245
:100D1000F6D1546804F001040CB900206CE08C7921
:100D2000012C04D1146844F08004146003E01468BA
:100D300024F080041460CC79012C04D1146844F0B0
:100D40004004146003E0146824F0400414600C7A3A
:100D5000012C04D1146844F02004146003E01468EA
:100D600024F0200414604C7A012C04D1146844F05F
:100D70001004146003E0146824F0100414608C7AEA
:100D8000012C04D1146844F00804146003E01468D2
:100D900024F008041460CC7A012C04D1146844F0C7
:100DA0000404146003E0146824F0040414608C78D4
:100DB000A407CD7844EA05640D7944EA05444D79E9
:100DC00044EA05540D886D1E2C43D461146824F048
:100DD00001041460002300E05B1C546804F001046B
:100DE0001CB14FF6FF74A342F6D1546804F001041D
:100DF0000CB1002000E0012030BD10B500F5D87323
:100E000003EB01131B6803F004031372137A53B945
:100E100000F5D87303EB01131B6840F2FF7404EA7A
:100E20005353136009E000F5D87303EB01131B68FB
:100E30006FF0604404EAD303536000F5D87303EB0A
:100E400001131B6803F00203537200F5D87303EB20
:100E500001135B6803F00F03937200F5D87303EB83
:100E600001135B681B0AD37400F5D87303EB0113FD
:100E70009B68D37200F5D87303EB01139B681C0ABF
:100E8000147300F5D87303EB01139B681C0C5473A7
:100E900000F5D87303EB01139B681B0E937300F5E9
:100EA000D87303EB0113DB68D37300F5D87303EB3E
:100EB0000113DB681C0A147400F5D87303EB0113EB
:100EC000DB681C0C547400F5D87303EB0113DB686A
:100ED0001B0E937421B9C36843F02003C36003E081
:100EE000036943F02003036110BD0246002002EABB
:100EF00001030BB1012000E00020704710B54FF452
:100F0000005000F013F938B14FF4005000F03CF8F5
:100F10004FF4005000F046F810BD000010B54FF43B
:100F2000003000F003F938B3144880780A2809D15A
:100F30001248C0780D2805D100F0CCFD01201049E1
:100F4000087011E000200E490870142001F069FBC0
:100F500000210C4800F034F804210A4800F023F97D
:100F60000121084800F02CF84FF4003000F00CF894
:100F70004FF4003000F016F810BD0000840000208F
:100F80008A0000205800024000F0805111B103494E
:100F9000086001E002494860704700000404024014
:100FA0000000024000F0805111B10349086001E0E7
:100FB00002494860704700000404024000000240FB
:100FC00021B1026842F00102026004E002684FF6BB
:100FD000FE731A400260704701684FF6FE721140BE
:100FE00001600021016041608160C1604B4988421D
:100FF00008D14A490839496841F00F01474A083A7F
:1010000051608AE045491431884208D14349083982
:10101000496841F0F001414A083A51607DE03F499A
:101020002831884208D13D490839496841F4706146
:101030003A4A083A516070E038493C31884208D158
:1010400036490839496841F47041344A083A5160D8
:1010500063E032495031884208D130490839496843
:1010600041F470212D4A083A516056E02B49643111
:10107000884208D129490839496841F47001274A52
:10108000083A516049E025497831884208D123491E
:101090000839496841F07061204A083A51603CE0E3
:1010A0001F49884206D1011F096841F00F01021F44
:1010B000116032E01A491431884208D11849091FD9
:1010C000096841F0F001164A121F116025E0144929
:1010D0002831884208D11249091F096841F470611A
:1010E0000F4A121F116018E00D493C31884208D1A7
:1010F0000B49091F096841F47041094A121F116028
:101100000BE007495031884207D10549091F09689A
:1011100041F47021024A121F11607047080002401A
:10112000080402400146486880B27047014600202A
:10113000002201F0805313B1054B1A6801E0054B02
:101140001A6802EA01030BB1012000E00020704799
:1011500000040240000002401AB103680B43036020
:1011600002E003688B430360704710B500220268F9
:1011700047F6F0739A430C6A8B6823430C69234348
:101180004C6923438C692343CC6923434C6A234332
:101190008C6A23431A430260CB6843600B68836008
:1011A0004B68C36010BD4160704770471FB5012197
:1011B000084600F0E5FB0121042000F001FC0121BC
:1011C000084600F0FDFB0320ADF80C0004208DF86C
:1011D0000F0003208DF80E0003A9124800F0ACF8B0
:1011E0004FF6FF70ADF804004720ADF80000002076
:1011F000ADF80600ADF8020069464FF0804001F0FE
:101200000DF847F6FF704FF0804188840A231A4694
:101210000321580700F067FE0121880700F048FE0F
:101220001FBD00000008014000200D49B1F9001069
:101230000C4A11804FF08041898CA1F5FE41FF39A5
:1012400008B247F6FF714FF0804291840649098841
:10125000014409B2044A1180014908807047000026
:101260004E00002052000020600000201FB5012128
:10127000022000F085FB0121042000F0A1FB0121E8
:10128000084600F09DFBC020ADF80C0004208DF84E
:101290000F0003208DF80E0003A9114800F04CF850
:1012A0004FF6FF70ADF804004720ADF800000020B5
:1012B000ADF80600ADF8020069460A4800F0AEFF3E
:1012C00047F6FF700749243108800A231A46032194
:1012D000044800F008FE0121024800F0E9FD1FBDAE
:1012E000000801400004004000200C49B1F9001042
:1012F0000B4A11800B490988A1F5FE41FF3908B25C
:1013000047F6FF71074A118007490988014409B26D
:10131000054A1180014908807047000050000020F4
:1013200054000020240400406200002010B5FFF7A4
:101330003DFFFFF79BFF10BD2DE9F0410246002560
:101340000026002000230024002791F803C00CF0A1
:101350000F0591F803C00CF0100CBCF1000F03D086
:1013600091F802C04CEA050591F800C0BCF1000FED
:1013700031D0146800202BE04FF0010C0CFA00F380
:10138000B1F800C00CEA03069E4220D183004FF062
:101390000F0C0CFA03F7BC4305FA03FC4CEA0404F7
:1013A00091F803C0BCF1280F06D14FF0010C0CFAE4
:1013B00000FCC2F814C00AE091F803C0BCF1480F69
:1013C00005D14FF0010C0CFA00FCC2F810C0401C13
:1013D0000828D1D31460B1F800C0BCF1FF0F34DD90
:1013E000546800202EE000F1080C4FF0010808FAC4
:1013F0000CF3B1F800C00CEA03069E4221D1830031
:101400004FF00F0C0CFA03F7BC4305FA03FC4CEA4F
:10141000040491F803C0BCF1280F05D100F1080CB9
:1014200008FA0CF8C2F8148091F803C0BCF1480F18
:1014300007D100F1080C4FF0010808FA0CF8C2F8C7
:101440001080401C0828CED35460BDE8F0810161B3
:10145000704700002DE9F041FFF7E6FEFFF744FF7B
:10146000534801684FF07E50FEF7AEFE07465148E4
:10147000B0F90000FEF71EFF80463946FEF7AAFECF
:1014800005464D48B0F90000FEF714FF07464848EE
:1014900001683846FEF79EFE06462946FEF742FEE4
:1014A0000446FEF715FF00B2434908804048016832
:1014B0004FF07E50FEF788FE07464048B0F9000026
:1014C000FEF7F8FE80463946FEF784FE05463C48A6
:1014D000B0F90000FEF7EEFE0746354801683846D1
:1014E000FEF778FE06462946FEF71CFE0446FEF788
:1014F000EFFE00B2324908802F48B0F90000FEF735
:10150000D9FE05462F480088FEF7DDFE0646314627
:101510002D48FEF791FE04462946FEF75BFE2B4957
:1015200008602748B0F90000FEF7C4FE05462548CC
:101530000088FEF7C8FE064631462348FEF77CFECB
:1015400004462946FEF746FE2149086021480088E6
:1015500019490988084400B21E4908801E480088BD
:1015600017490988084400B21B49088015480088BB
:10157000FEF7A9FE04461748B0F90000FEF79AFEF0
:1015800005462146FEF758FE144908600D480088BC
:10159000FEF799FE04461048B0F90000FEF78AFEF7
:1015A00005462146FEF748FE0D490860BDE8F0817A
:1015B0006C000020520000204E000020540000204B
:1015C000500000204C0000200000C84258000020BD
:1015D0005C00002060000020620000206400002009
:1015E0006800002000BFFEE708B50121082000F0D8
:1015F000E7F94FF48050ADF8000010208DF803009B
:1016000003208DF8020069460D48FFF795FE4FF460
:101610000050ADF8000010208DF8030003208DF875
:10162000020069460648FFF787FE4FF480510448E0
:10163000FFF70DFF4FF400510148FFF708FF08BD09
:10164000000C014000BFFEE77047000070B50021AC
:1016500000230F22C47804B3154C246804F4E0641A
:10166000C4F5E064210AC1F10403CA40447804FAD5
:1016700003F184781440214309010E4C0678A155EA
:10168000047804F01F050124AC4005786D11AD000D
:1016900005F1E025C5F8004109E0047804F01F05D4
:1016A0000124AC40044D0678761145F8264070BD03
:1016B0000CED00E000E400E080E100E002490143BD
:1016C000024A1160704700000000FA050CED00E0CE
:1016D000704700001048114988600020C860086108
:1016E0000F484862002008604FF081400D49886033
:1016F0000020C8600C480861094848620020086062
:101700000A480B4988600B48C8600B4808610B48C1
:101710004862002008607047CDCC4C3E80200020FD
:1017200000007A44B4200020CDCC4C3F0000A0BF84
:10173000E82000209A99D9BFCDCCCCBD0000484309
:1017400070B504460D4629462068FEF73DFDA061B0
:10175000D4E90510FEF738FD206220686060D4E906
:101760000610FEF7DFFCE061A0696061616AE06974
:10177000FEF7D2FD02D8606AE0610BE0606A80F09B
:1017800000463046E169FEF7C7FD03D8606A80F085
:101790000040E061A169A068FEF71CFDA062E1695C
:1017A000E068FEF717FDE062216A2069FEF712FD8E
:1017B0002063D4E90A01FEF7B5FC0646216BFEF76B
:1017C000B1FC70BD7047000070B54E48B0F9000024
:1017D000FEF770FD044621464B48FFF7B1FF4B4929
:1017E00008604B48B0F90000FEF764FD0546294645
:1017F0004648FFF7A5FF0446464801682046FEF725
:10180000E9FC4549086008684449FEF785FD03D8AE
:1018100042484149086008E03F4908684049FEF7EE
:1018200071FD02D83E483C4908603C493D4800688B
:10183000FEF772FD03D839483749086008E0384997
:1018400038480068FEF75EFD02D835483249086026
:101850003148006834490860324801682E48FFF773
:101860006FFF0546314801682846FEF7B3FC044681
:10187000FEF72EFD00B22E4908800846B0F90000A0
:1018800010F5FA6F01DC2B480BE02948B0F9000095
:10189000B0F5FA6F02DB4FF4FA6002E02448B0F9C9
:1018A000000025490880B1F9000000EBD071491013
:1018B000C1F57A7109B2214A11801F49B1F90000BE
:1018C00000EBD071491001F57A7109B21C4A118000
:1018D0001948B0F9004004EBD4704010C0F57A709C
:1018E00081B2184800F095FC1348B0F9004004EBB1
:1018F000D470401000F57A7081B2124800F08BFC71
:1019000070BD00006200002080200020B420002074
:101910005000002034000020E82000200000AF43E9
:101920000000AFC3740000207C00002048000020AD
:101930003A00002030F8FFFF3E0000204400002065
:10194000460000200008004001460020034A50687D
:1019500020F44040084350607047000000100240EF
:1019600029B1064A52690243044B5A6104E0034A12
:1019700052698243014B5A617047000000100240D7
:1019800029B1064AD2690243044BDA6104E0034AF2
:10199000D2698243014BDA617047000000100240B7
:1019A00029B1064A12690243044B1A6104E0034A52
:1019B00012698243014B1A61704700000010024017
:1019C00029B1064A92690243044B9A6104E0034A32
:1019D00092698243014B9A617047000000100240F7
:1019E00029B1064AD2680243044BDA6004E0034A94
:1019F000D2688243014BDA60704700000010024059
:101A000030B500210022002400232D4D6D6805F023
:101A10000C0121B1042905D0082923D105E0294D65
:101A2000056022E0274D05601FE0254D6D6805F437
:101A30007012234D6D6805F48034022505EB924247
:101A40001CB9214D554305600BE01D4D6D6805F433
:101A500000351DB11C4D5543056002E0194D55433D
:101A6000056002E0174D056000BF00BF144D6D68B2
:101A700005F0F0010909154D6B5C0568DD40456016
:101A80000F4D6D6805F4E061090A104D6B5C456807
:101A9000DD4085600A4D6D6805F46051C90A0B4D43
:101AA0006B5C4568DD40C560054D6D6805F44041DF
:101AB000890B074D6B5CC568B5FBF3F5056130BD5F
:101AC0000010024000127A0000093D0002000020D0
:101AD0001200002010B51D4800781D4908711B48F0
:101AE000407848711948807848721848C0788872E0
:101AF00008460079C97A88420AD01649086816490A
:101B0000FEF710FB13490860114800791049C872AC
:101B10000F4840790E49097B88420AD00D49086870
:101B20000D49FEF751FB0B49086009484079084907
:101B300008730748407A0A2805D10548807A0D289D
:101B400001D1002010BD0120FCE70000840000202E
:101B5000302100208020002000C0DA45704710B5F9
:101B600000F002F810BD00000CB5002001900090BC
:101B70003348006840F480303149086000BF304885
:101B8000006800F4003000900198401C019000981B
:101B900018B90198B0F5A06FF1D12948006800F498
:101BA000003010B10120009001E00020009000986A
:101BB000012843D12348006840F010002149086003
:101BC0000846006820F0030008600846006840F0FE
:101BD000020008601A484068194948600846406891
:101BE00048600846406840F48060486008464068A5
:101BF00020F47C1048600846406840F4E8104860D3
:101C00000846006840F08070086000BF0C4800681B
:101C100000F000700028F9D00948406820F0030067
:101C2000074948600846406840F00200486000BF2D
:101C30000348406800F00C000828F9D10CBD0000F2
:101C40000010024000200240042808D14FF0E0219B
:101C5000096941F004014FF0E022116107E04FF003
:101C6000E021096921F004014FF0E0221161704781
:101C700010B51348006840F001001149086008469B
:101C80004068104908400E494860084600680E49FF
:101C900008400B4908600846006820F4802008606E
:101CA0000846406820F4FE0048604FF41F0088603A
:101CB000FFF755FF4FF000600449086010BD0000B9
:101CC000001002400000FFF8FFFFF6FE08ED00E004
:101CD00010B50121214800F027F900283CD0204808
:101CE0000078012834D11F480078012830D11E48DF
:101CF0000088401C1C490880084600880A2190FB87
:101D0000F1F201FB120038B900F018FBFFF7A2FB5B
:101D1000FEF7E2FCFFF758FD134800884FF4FA7114
:101D200090FBF1F201FB120028B91048006880F422
:101D300080500E4908600C480088B0F57A7F02DBBD
:101D40000020094908800121044800F0AEF803E0B2
:101D50000121024800F0A9F810BD0000002C01404C
:101D60000000002001000020300000200C0C014089
:101D700000B589B001210420FFF702FE01210820EF
:101D8000FFF71EFE01210846FFF71AFE4020ADF8BE
:101D9000200018208DF8230003208DF8220008A9C8
:101DA0003848FFF7C9FA8020ADF8200018208DF8D8
:101DB000230003208DF8220008A93248FFF7BCFA5F
:101DC0004FF48070ADF8200018208DF82300032018
:101DD0008DF8220008A92B48FFF7AEFA4FF40070E7
:101DE000ADF8200018208DF8230003208DF8220084
:101DF00008A92448FFF7A0FA40F2CF70ADF8180008
:101E00000120ADF814000020ADF81A00ADF816005E
:101E100005A91D4800F002FA6020ADF80400012079
:101E2000ADF806000020ADF80A00ADF80C0001A9DD
:101E3000154800F093F80821134800F0DBF801A9D9
:101E4000114800F0E1F808210F4800F02FF901A92E
:101E50000D4800F039F908210B4800F085F901A977
:101E6000094800F08BF90821074800F0C5F9012165
:101E7000054800F029F80121034800F019F809B0DD
:101E800000BD0000000C01400008004021B10288A4
:101E900042F08002028004E002884FF67F731A400D
:101EA00002807047CA4302827047CA430282704769
:101EB00021B1028842F00102028004E002884FF65C
:101EC000FE731A400280704731B1B0F8442042F4EA
:101ED0000042A0F8442005E0B0F84420C2F30E020E
:101EE000A0F844207047F0B50C4615461E46002168
:101EF000002200230189028B038C4FF6F8773940CA
:101F000021434FF6FC473A4040F201173A434FF65F
:101F1000DD773B404FF6FF7707EA06172F433B4339
:101F2000018102830384F0BD30B502460020002306
:101F30000024158A05EA0103958905EA010413B115
:101F40000CB1012000E0002030BD1AB183890B43A1
:101F5000838102E083898B438381704770B50024BD
:101F600000220023058C4FF6FE7635400584028C56
:101F70008388048B4FF68F752C40B51E2C400D883E
:101F80002C43751E2A400D892A434D882A43144D3F
:101F9000A8420BD0134DA84208D0134DA84205D03B
:101FA000124DA84202D0124DA84213D14FF6F77538
:101FB0002A404D892A434FF6FB752A408D882A43D3
:101FC0004FF6FF652B404FF6FF552B408D892B4375
:101FD000CD892B4383800483CD888586028470BDA0
:101FE000002C014000340140004001400044014009
:101FF000004801400A460021018B4FF6F773194053
:10200000114301837047000070B5002400220023B3
:10201000058C4FF6EF7635400584028C8388048B5F
:1020200048F6FF752C404FF6FF452C400D884FF6C3
:10203000FF7606EA05252C434FF6DF752A400D8909
:1020400006EA05152A434D8806EA05152A43154D6B
:10205000A84202D0144DA8421DD14FF67F752A40E8
:102060004D894FF6FF7606EA05152A434FF6BF75F0
:102070002A408D8806EA05152A434FF6FF352B4086
:102080004FF2FF752B408D8906EA85052B43CD89DC
:1020900006EA85052B4383800483CD880587028467
:1020A00070BD0000002C0140003401400A460021B0
:1020B000018B4FF2FF7319404FF6FF7303EA0223BF
:1020C000194301837047000070B5002400220023EB
:1020D000058C4FF6FF6635400584028C8388848B1F
:1020E0004FF68F752C404FF6FC752C400D882C4315
:1020F0004FF6FF552A400D894FF6FF7606EA052573
:102100002A434D8806EA05252A43154DA84202D0E8
:10211000144DA8421DD14FF2FF752A404D894FF64C
:10212000FF7606EA05252A434FF6FF352A408D88BB
:1021300006EA05252A434EF6FF752B404DF6FF753E
:102140002B408D8906EA05152B43CD8906EA051536
:102150002B4383808483CD888587028470BD0000F3
:10216000002C0140003401400A460021818B4FF6CB
:10217000F7731940114381837047000070B5002246
:1021800000230024058C4EF6FF7635400584038C31
:102190008488828B48F6FF752A404FF6FF452A4017
:1021A0000D884FF6FF7606EA05252A434DF6FF75A2
:1021B0002B400D8906EA05352B434D8806EA053587
:1021C0002B430B4DA84202D00A4DA84208D14BF632
:1021D000FF752C408D894FF6FF7606EA85152C4356
:1021E00084808283CD88A0F84050038470BD0000B5
:1021F000002C0140003401400A460021818B4FF23F
:10220000FF7319404FF6FF7303EA022319438183DA
:10221000704781877047A0F84010704700220288FD
:102220001D4B98420ED01D4B98420BD0B0F1804F01
:1022300008D01B4B984205D01A4B984202D01A4B3B
:10224000984204D14FF68F731A404B881A43174BAC
:10225000984207D0164B984204D04FF6FF431A40DD
:10226000CB881A4302808B8883850B8803850A4BB1
:1022700098420BD0094B984208D00E4B984205D09B
:102280000D4B984202D00D4B984201D10B7A038638
:102290000123838270470000002C0140003401407C
:1022A0000004004000080040000C00400010004006
:1022B000001400400040014000440140004801403B
:1022C0001FB50121C802FFF77BFB4FF47A70ADF810
:1022D00008004720ADF804000020ADF80A00ADF872
:1022E00006008DF80C0001A91348FFF797FF19208D
:1022F0008DF8000000208DF801008DF8020001200B
:102300008DF803006846FFF7A1F9012211460A483B
:10231000FFF71BFE01210848FFF7B8FD0121064821
:10232000FFF7C0FD01210448FFF7BFFD012102486E
:10233000FFF7BEFD1FBD0000002C01402DE9F04756
:102340001D4800881FFA80F81C4800881FFA80F991
:102350001B480068FDF7BCFF04B21A480068FDF78F
:10236000B7FF05B218480068FDF7B2FF06B217487C
:102370000068FDF7ADFF07B200BF00BF00BF00BFA0
:102380004FEA28201249087081F801804FEA29207D
:10239000887081F80390200A08714C71280A8871AE
:1023A000CD71300A08724E72380A8872CF720A20D4
:1023B0000873BDE8F0870000600000206200002084
:1023C0007000002074000020780000207C000020B5
:1023D0003E21002010B540F224410E4800F035F8AF
:1023E000B8B10C4800880B48001D008800210A483D
:1023F000FEF7E6FD0848FEF795FEC0F10400074928
:10240000086004210448FEF7CEFE01210248FEF7D1
:10241000D7FD10BD00380140580002408C0000205C
:1024200021B1828942F40052828104E082894DF612
:10243000FF731A40828170471AB1838A0B438382EB
:1024400002E0838A8B438382704770B50246002482
:1024500000230025002040F66A16B14200D100BFDB
:10246000C1F3421501F01F03012606FA03F3012D03
:1024700002D19689334006E0022D02D1168A3340FC
:1024800001E0968A33400C12012606FA04F41688FD
:10249000344013B10CB1012000E0002070BD0000F9
:1024A0002DE9F04786B005460E460024A24600BF3F
:1024B000A1460027B08900B100BF2F462C8A4CF6F8
:1024C000FF700440F08804432C82AC894EF6F31070
:1024D0000440B08831890843718908430443AC81C2
:1024E000AC8A4FF6FF400440B0890443AC8201A897
:1024F000FFF786FA1F48874202D1DDF810A001E0FD
:10250000DDF80CA0A88900F4004040B10AEBCA0035
:1025100000EB0A1031684900B0FBF1F807E00AEB64
:10252000CA0000EB0A1031688900B0FBF1F86420A2
:10253000B8FBF0F004012009642101FB1089A8898F
:1025400000F4004040B1322000EBC900B0FBF1F0D4
:1025500000F00700044308E0322000EB091064217A
:10256000B0FBF1F000F00F0004432C8106B0BDE891
:10257000F08700000038014010B501210448FEF743
:1025800019FB18B101210248FEF78CF910BD0000BB
:102590000064004010B502210648FEF70BFB40B175
:1025A00002210448FEF77EF9034A00210148FEF7A4
:1025B00024FC10BD00640040D01F002000BFFEE7D7
:1025C00002E008C8121F08C1002AFAD170477047FC
:1025D000002001E001C1121F002AFBD1704700005A
:1025E00010B500BF054800780028FBD0FFF770F851
:1025F000FFF770F801200249087010BD8A00002022
:102600000100002010B50420FFF71EFB4FF0E02072
:10261000006940F001004FF0E02108614720486167
:1026200010BD4FF47A7148434FF0E021096941F041
:1026300001014FF0E022116107E000BF4FF0E021FF
:10264000096901F480310029F8D00100A0F10100EE
:10265000F3D14FF0E021096921F001014FF0E022B0
:102660001161704700F00AF86420FFF7DAFFFFF706
:10267000B7FF6420FFF7D5FF00BFFEE710B54FF4AA
:10268000A060FFF71BF8FFF7BDFFFEF7ADFF00F0FE
:1026900011F8FEF75BF9FDF79FFEFFF711FEFEF75D
:1026A00045FEFFF765FB01200149087010BD0000E1
:1026B0000000002000B591B001218803FFF780F9E8
:1026C00001210420FFF77CF901210846FFF748F9B2
:1026D0004FF40070ADF8400003208DF84200182040
:1026E0008DF8430010A95748FEF726FE4FF480608E
:1026F000ADF8400004208DF8430010A95148FEF7C2
:102700001BFE25208DF82C0000208DF82D008DF863
:102710002E0001208DF82F000BA8FEF797FF4FF435
:1027200016500C900020ADF83400ADF83600ADF82E
:102730003800ADF83C000C20ADF83A000CA9424836
:10274000FFF7AEFE01214048FFF76AFE012280211B
:102750003D48FFF771FE3D48FEF73EFC3A48001D3C
:1027600000903B480190102002900D200390002023
:10277000049080200590002006900790202008906B
:102780004FF44050099000200A9069462F48FEF708
:10279000ECFC0E208DF82C0001208DF82D0003207C
:1027A0008DF82E0001208DF82F000BA8FEF74EFFAC
:1027B000012202212548FEF7CFFC01212348FEF724
:1027C000FFFB012240212048FFF736FE1F4814304E
:1027D000FEF702FC1C48001D00901E4801900020DE
:1027E0000290042003900020049080200590002097
:1027F00006900790202008904FF440500990002048
:102800000A90694611481430FEF7AFFC0F208DF88E
:102810002C0000208DF82D008DF82E0001208DF861
:102820002F000BA8FEF712FF0122022107481430E7
:10283000FEF792FC012105481430FEF7C1FB11B0F0
:1028400000BD000000080140003801404400024083
:102850003E2100208400002078280008000000208D
:1028600090000000C0250008082900089000002002
:10287000C0240000D0250008000000000000010274
:102880000304010203040607080902040608000005
:10289000A00F00003333D33F00000000CDCC6C41CB
:1028A000000000009A99193E000000000000803FDF
:1028B0000000000000000000000000000000000018
:1028C000E17AD43FAC0D00000000000000000000E1
:1028D00000000000000000000000000000000000F8
:1028E00000000000E5F22F3F0000000000000000A3
:1028F00000000000000000001111000000000000B6
:082900000000000000000000CF
:04000005080000ED02
:00000001FF
