:020000040000FA
:10000000801A00205901000061010000B52700009E
:1000100065010000670100006901000000000000A8
:10002000000000000000000000000000A3410000EC
:100030006D01000000000000093A000019420000B4
:1000400073010000730100007301000073010000E0
:1000500073010000730100007301000073010000D0
:1000600073010000730100007301000073010000C0
:1000700073010000730100007301000073010000B0
:10008000051D0000911D0000191E0000B91E000092
:10009000751F000073010000730100007301000070
:1000A0007301000073010000730100007301000080
:1000B0007301000073010000730100007301000070
:1000C0007301000073010000730100007301000060
:1000D0007301000073010000730100007301000050
:1000E000730100000000000000000000000000009C
:1000F0000000000000000000000000000000000000
:1001000000000000000000000000000000000000EF
:1001100000000000000000000000000000000000DF
:1001200000000000000000000000000000000000CF
:1001300000000000000000000000000000000000BF
:1001400000000000DFF80CD000F034FB004800474E
:10015000B1720000801A0020064880470648004718
:10016000FEE7FEE7FEE7FEE7FEE7FEE7FEE7FEE767
:10017000FEE7FEE7714400004501000040EA01038C
:100180009B0703D009E008C9121F08C0042AFAD24D
:1001900003E011F8013B00F8013B521EF9D2704711
:1001A000D2B201E000F8012B491EFBD270470022B9
:1001B000F6E710B513460A4604461946FFF7F0FF66
:1001C000204610BD2DE9FE4F804681EA0300C00F96
:1001D0000C46009021F0004123F00045B8EB0200EE
:1001E000A94105D24046214690461C460B46024690
:1001F00023F00040104347D0270DC7F30A00C3F394
:100200000A510290401A019040286BDAC3F31300A0
:1002100040F4801B0098924620B10023D2EB030AE1
:1002200063EB0B0B01985946C0F14002504600F0B9
:10023000CDF906460D4650465946019A00F0E5F9BB
:1002400010EB08006141002487EA115284EAE77349
:100250001A4340D0009A62B3019A012A4FEA07522A
:1002600015DC001B61EB02014FF0004202EA07526D
:10027000CDE90042001C41F5801132462B4600F0CA
:100280001CFA03B0BDE8F08F40462146F9E7001B99
:1002900061EB0201001C41F5801300185B4120183E
:1002A000A2F5001747EB030140EAD570B6196D417E
:1002B00011E06D084FEA360645EAC0754FEA07526D
:1002C000001B61EB0201001C41F5801149084FEA57
:1002D00030000019514132462B4603B0BDE8F04FC3
:1002E00000F0DCB90098012240000023D0EB0202AC
:1002F00063EBE073009821464FEAE074B8EB00002E
:1003000061EB0401E9E783F000435BE781F0004122
:1003100058E72DE9FE4F81EA030404F0004421F080
:10032000004100944FF0000B23F0004350EA010419
:100330005ED052EA03045BD0C3F30A54C1F30A55FA
:100340002C44A4F2F3340194A0FB0254C1F3130132
:1003500041F48011C3F3130343F4801301FB0244FF
:1003600000FB034E840A970A44EA815447EA835704
:10037000A4FB076802958D0A05FB07854FEA932CBD
:1003800004FB0C542705029D4FEA065847EA16372E
:10039000B5EB08056EEB070C870E920E47EA811746
:1003A00042EA8312A7FB0201B6EB0B0164EB0004E7
:1003B0002B0D43EA0C335E1844EB1C50DA465146D1
:1003C000E7FB0201C5F313044FEA0B3343EA14536E
:1003D0004FEA0432019C43EA0603A4F10C040294A0
:1003E000009CCDE900B400F068F903B0BDE8F08FDF
:1003F00000200146F9E72DE9F04D81EA030404F0FD
:10040000004B21F0004514464FF0000A23F0004154
:1004100050EA050220D054EA01021DD0C5F30A5764
:100420000246C5F31303C1F31300C1F30A5640F4A7
:10043000801543F48013A7EB0608101BD64608F27C
:10044000FD3873EB050002D308F1010801E09218B2
:100450005B41B8F1000F03DA00200146BDE8F08DE2
:1004600000204FF48011064684460EE0171B73EB04
:10047000050705D3121B63EB050306434CEA010C89
:1004800049084FEA300092185B4150EA0107EDD16C
:1004900052EA030012D082EA040083EA050108430D
:1004A00005D0101BAB4106D20122002306E000223A
:1004B0004FF0004302E06FF0010253101AEB060008
:1004C0004CEB085110EB0A0041EB0B01BDE8F04D7D
:1004D00000F0E4B80EB5C10F80EAE0700844CA0726
:1004E000002140F233438DE80E000A460B4600F02F
:1004F000E4F803B000BD0EB540F233410291002193
:10050000CDE900110A460B4600F0D7F803B000BD54
:10051000C1F30A5210B5C1F3130140F2FF3341F4A5
:1005200080119A4201DA002010BD40F233439A4212
:10053000A2F2334203DC524200F057F810BD904063
:1005400010BD00F0004230F000400AD0C10D01F5AE
:100550006071C0F3160042EA0151C208400711431E
:10056000704700200146704701F0004330B421F08D
:10057000004150EA010206D00A0DA2F56072C1F3F3
:100580001301002A02DC30BC00207047440F44EA0B
:10059000C104C100E01830BC00EBC25000F047B805
:1005A00030B50B46014600202022012409E021FA43
:1005B00002F59D4205D303FA02F5491B04FA02F540
:1005C0002844151EA2F10102F1DC30BD202A04DB13
:1005D000203A00FA02F1002070479140C2F1200356
:1005E00020FA03F3194390407047202A04DB203A95
:1005F00021FA02F00021704721FA02F3D040C2F143
:1006000020029140084319467047202A06DBCB1789
:10061000203A41FA02F043EAE07306E041FA02F3BD
:10062000D040C2F12002914008431946704700298A
:10063000A8BF7047401C490008BF20F00100704768
:1006400010B4B0FA80FC00FA0CF050EA010404BFC8
:1006500010BC704749B1CCF1200421FA04F411FA1E
:100660000CF118BF012121430843A3EB0C01CB1D62
:100670004FEA00614FEA102042BF002010BC7047D3
:1006800000EBC35010440029A4BF10BC7047401CAD
:10069000490008BF20F0010010BC704710B5141EBF
:1006A00073F1000408DA401C41F1000192185B412B
:1006B0001A4301D120F0010010BD2DE9F04D924602
:1006C0009B4611B1B1FA81F202E0B0FA80F2203219
:1006D0009046FFF77BFF04460F4640EA0A0041EAD6
:1006E0000B0153465A46084313D0114653EA010002
:1006F00019D0C8F140025046FFF777FF05460E4675
:10070000504659464246FFF761FF084305D0012095
:1007100004E020463946BDE8F08D0020054346EA56
:10072000E0762C4337430A986305E40AA0EB0800FF
:100730000022FD0A44EA47540A3002D5002001464F
:10074000E9E7010510196941DDE90845001969412A
:10075000BDE8F04DA2E770B521F0004303430CD093
:10076000C1F30A550024D5EB040564EB0403D61746
:10077000AD1AB34102DB0020014670BD201841EBE9
:10078000025170BD30B5041E71F1000404DB4FF05E
:100790000044404264EB0101141E73F1000405DBC8
:1007A0001C464FF00043524263EB0403994208BFDA
:1007B000904230BD064C074D06E0E06840F0010372
:1007C00094E8070098471034AC42F6D3FFF7BEFC1C
:1007D000B8740000D87400002DE9F04D00231A46CB
:1007E0001B1A8A4103DB00200146BDE8F08DC1F3EE
:1007F0000A52C1F3130141F480154FF0000BD107E9
:1008000002D100186D41521E0027044640F2FF112C
:10081000384601EB620A3E468046024600204FF40D
:100820008011FFF7E2FEC2197141BB1846EB0100CF
:10083000B4EB030C75EB000C04D3E41A65EB000574
:1008400017460E46241908F101006D4180463428F0
:10085000E3DDF91946EB0600091BA84103D24FF06E
:10086000FF32134601E0002213461BEB070046EB64
:100870000A51BDE8F04DFFF711BF30B58C1810F8E4
:10088000012B12F00F0301D110F8013B120906D120
:1008900010F8012B03E010F8015B01F8015B5B1E0F
:1008A000F9D101E001F8013B521EFBD1A142E6D390
:1008B000002030BDF0EE400AFA4890ED001AFA48E8
:1008C00080ED001AF74890ED021AF84880ED001A02
:1008D000F44890ED011AF64880ED001AF54880883A
:1008E000A0F2DC5001EE100AB8EEC11ADFEDF21AE8
:1008F00021EE211AF14880ED001AF14890ED001A1E
:10090000DFEDF01AB4EEE11AF1EE10FA0BDBEB4872
:1009100090ED001AB5EEC01AF1EE10FA03DD9FED6E
:10092000EA1A80ED001AE54890ED001ADFEDE71AAB
:10093000B4EEE11AF1EE10FA0CD290ED001ADFEDF0
:10094000E41AB4EEE11AF1EE10FA03DD9FEDDE1ABF
:1009500080ED001AD94890ED001AB5EEC01AF1EEFC
:1009600010FA12DDDB4890ED131AD448D0ED001ACE
:100970009FEDD92A01EE821AD648D0ED151A31EE34
:10098000211ACE4880ED011A11E0D24890ED131AD9
:10099000CA48D0ED001A9FEDCB2A01EE821ACD484D
:1009A000D0ED151A31EE211AC44880ED011A9FEDE1
:1009B000CB1A20EE810AC14890ED011AD0ED021A3F
:1009C00031EE611AC64880ED001A90ED001AB4EEBF
:1009D000C01AF1EE10FA02DD80ED000A0DE0C04809
:1009E00090ED001AF1EE401AB4EEE11AF1EE10FAB1
:1009F00003D2B1EE401A80ED001AB04890ED021A11
:100A0000B748D0ED001A31EE211AAC4880ED021A39
:100A100090ED021AD0ED031A71EE611A90ED031AEF
:100A20009FEDB02A02EE211A80ED031AAE484079FC
:100A3000012849DBAD480078E8B3A04890ED031ADF
:100A4000AB4880ED001A9E4890ED001AA848D0ED02
:100A5000001A01EEA01A9A4880ED001A934890ED12
:100A6000001ADFED981A31EE211A9548D0ED001AE0
:100A7000B4EEE11AF1EE10FA0AD28C4890ED001AA9
:100A8000DFED901A31EE211A8D4880ED001A26E034
:100A9000864890ED001ADFED8B1A31EE611A884816
:100AA000D0ED001AB4EEE11AF1EE10FA17DD7F482E
:100AB00090ED001A00E007E0DFED821A31EE611AD6
:100AC0007F4880ED001A0AE09FED7F1A884880ED8C
:100AD000001A764890ED001A794880ED001A78489F
:100AE00090ED001ABDEEC11A11EE100A00B2814954
:100AF00008806E4890ED001ABDEEC11A11EE100A82
:100B000000B27D4908806E4890ED001AFBEE041A91
:100B1000B4EEE11AF1EE10FA02D8BBEE041A0FE0BF
:100B2000674890ED001ADFED671AB4EEE11AF1EEB6
:100B300010FA02DD9FED631A02E0614890ED001AA1
:100B40005F4880ED001A90ED001A5848D0ED001A69
:100B500031EE611A694880ED001A654890ED001A7F
:100B60006648D0ED001AB7EE082A02EE211A4E4868
:100B7000D0ED001A4E4890ED002ADFED612A42EEDA
:100B8000821A31EE611A5F4880ED001A90ED001A6A
:100B9000F1EE041A21EE211A5B4880ED001A90ED67
:100BA000001A4348D0ED001A31EE611A574880ED23
:100BB000001A90ED001ADFED561A61EE211A554821
:100BC00090ED001A01EEA01A80ED001A90ED001AC7
:100BD000DFED511AB4EEE11AF1EE10FA02DD9FEDED
:100BE0004E1A0DE04B4890ED001AB5EEC01AF1EE2A
:100BF00010FA02D29FED341A02E0464890ED001A36
:100C0000444880ED001A404890ED001ADFED431A89
:100C100021EE211A424880ED001A90ED001A3D485D
:100C2000D0ED001A31EE211A3E4880ED001A90ED09
:100C3000001ADFED3D1AB4EEE11AF1EE10FA02DD12
:100C40009FED391A0DE0374890ED001AB5EEC01A45
:100C5000F1EE10FA02D29FED1C1A02E0314890ED3D
:100C6000001A304880ED001A90ED001ABCEEC11A4F
:100C700011EE100A0B4908822C48007800F00100A0
:100C800070B99FED111A234880ED001A074890EDC6
:100C9000001A0B4880ED001A0020144908707DE00E
:100CA00046E00000B00F0020A4000020AC000020AF
:100CB0009C000020740F00206F12833AC40F0020A4
:100CC000A80000200000164300000000CDCCCC3D61
:100CD000CDCCCCBD04100020000048430000FA43F6
:100CE00094000020CDCC4C3E78100020C80000209D
:100CF000A00000202E0200202C020020B0000020C6
:100D0000CDCC4C3DB400002098000020B80000205D
:100D10009A99193FBC00002000001644CDCCCC3E6F
:100D2000C0000020C400002000007A448800002099
:100D30001B48407901282EDB1A4890ED021ABDEEBF
:100D4000C11A11EE100A00B2002827DD164890EDF6
:100D5000021ADFED161AB4EEE11AF1EE10FA0CD217
:100D600090ED021ADFED121AB4EEE11AF1EE10FA6C
:100D700003DD01200F49087010E01FED2D1A0A480D
:100D800080ED021A1FED301A80ED011A1FED321AA4
:100D900080ED001A02E0012006490870704700004B
:100DA00078100020C40F0020B00F00200000204267
:100DB000000020C2C80000204FF47A700C4948603F
:100DC0008860C860086148618861C86108624862DB
:100DD0008862C862086348638863C86308644864BB
:100DE0008864C864086548658865C8650866704792
:100DF000A410002011B581B00022BDF804006428C1
:100E000000DD1CBDFFF7D8FF3348BDF8041050F8D3
:100E100021000090AA241046511CCAB22F490C543C
:100E200005241046511CCAB22C490C54AF2410465C
:100E3000511CCAB229490C54E1241046511CCAB2B3
:100E400026490C5400241046511CCAB223490C54A4
:100E50009DF805401046511CCAB220490C549DF81B
:100E600004401046511CCAB21C490C549DF8034062
:100E70001046511CCAB219490C549DF80240114643
:100E8000501CC2B2154844549DF801401046511CF4
:100E9000CAB212490C549DF800401146501CC2B20F
:100EA0000E484454501F0D4908710023002005E0EE
:100EB0000A49095C1944CBB2411CC8B29042F7DB25
:100EC0001046511CCAB205490B541146034800F0A4
:100ED00007F800BF95E70000A4100020481200208A
:100EE000704700002DE9F84F04460D4616460AAF3C
:100EF00097E8800700224FF0AA0C1146521C684860
:100F000000F801C04FF0050C1146521C00F801C05A
:100F10004FF0AF0C1146521C00F801C04FF0020C0C
:100F20001146521C00F801C04FF0000C1146521C33
:100F300000F801C000949DF801C01146521C00F851
:100F400001C09DF800C01146521C00F801C0009578
:100F50009DF801C01046511CCAB2514901F800C0A9
:100F60009DF800C01046511CCAB24D4901F800C09E
:100F700000969DF801C01046511CCAB2484901F8BC
:100F800000C09DF800C01046511CCAB2444901F887
:100F900000C000939DF801C01046511CCAB24049E0
:100FA00001F800C09DF800C01046511CCAB23C496F
:100FB00001F800C000979DF801C01046511CCAB24C
:100FC000374901F800C09DF800C01046511CCAB254
:100FD000334901F800C0CDF800809DF801C01046EB
:100FE000511CCAB22E4901F800C09DF800C010463D
:100FF000511CCAB22A4901F800C0CDF800909DF8F2
:1010000001C01046511CCAB2254901F800C09DF824
:1010100000C01046511CCAB2214901F800C0CDF8E9
:1010200000A09DF801C01046511CCAB21C4901F82D
:1010300000C09DF800C01046511CCAB2184901F802
:1010400000C00E9800909DF801C01046511CCAB215
:10105000134901F800C09DF800C01146501CC2B2EF
:101060000F4800F801C0501F0D4908714FF0000BE8
:10107000002006E00A49095C594401F0FF0B411CBD
:10108000C8B29042F6DB1046511CCAB2044901F8BE
:1010900000B011460248FFF723FFBDE8F88F0000BB
:1010A00048120020FCB503460C461546002200936A
:1010B000AA271146521C4A48475405271146521C7C
:1010C0004754AF271146521C475401271146521C62
:1010D000475400271146521C4754DFED421A60EE78
:1010E000211AFDEEE11A11EE900A00B201909DF86E
:1010F00005701146521C3A4847549DF80470114639
:10110000521C4754DFED371A60EEA11AFDEEE11ACA
:1011100011EE900A00B201909DF805701146501C26
:10112000C2B22F4847549DF804701046511CCAB2F1
:101130002B490F54DFED2B1A61EE211AFDEEE11A57
:1011400011EE900A00B201909DF805701046511CF6
:10115000CAB223490F549DF804701046511CCAB2FC
:101160001F490F549DF803701046511CCAB21C4908
:101170000F549DF802701146501CC2B218484754D3
:101180009DF801701146501CC2B2154847549DF895
:1011900000701046511CCAB211490F541046511C20
:1011A000CAB20F490C541046511CCAB20C490D5416
:1011B000501F08710026002005E00949095C3144F0
:1011C000CEB2411CC8B29042F7DB1046511CCAB2E5
:1011D00003490E5411460248FFF782FEFCBD000091
:1011E000481200200000C84230B52DED088B8DB0AC
:1011F00004460D46B0EE409AB6EE000A29EE000A0B
:10120000F0EE408AFE4890ED010AD0ED030A20EE90
:10121000200AD0ED000A90ED021A00EEC10AF0EEAD
:10122000000A20EE200A8DED0A0A90ED000AD0EDAA
:10123000010A20EE200AD0ED020A90ED031A00EE1A
:10124000810AF0EE000A20EE200A8DED0B0A90EDE7
:10125000010A20EE000AD0ED020A90ED021A00EE1B
:10126000810AF7EE000AB0EE001A41EE400ACDED19
:101270000C0AE448B0F9000000EE900AF8EEE00A2B
:1012800060EEA00ADF48B0F9020001EE100AF8EEA5
:10129000C11ADC48B0F9020001EE100AB8EEC11A1A
:1012A00041EE810AD748B0F9040001EE100AF8EEC9
:1012B000C11AD448B0F9040001EE100AB8EEC11A00
:1012C00041EE810AB0EE600A02F07AFDB0EE408A8B
:1012D000B4F9000000EE100AB8EEC00A20EE080AC9
:1012E0008DED070AB4F9020000EE100AB8EEC00A4C
:1012F00020EE080A8DED080AB4F9040000EE100A89
:10130000B8EEC00A20EE080A8DED090A9DED080A24
:10131000DDED0C0A20EE200ADDED090A9DED0B1A29
:1013200000EEC10A8DED010A9DED090ADDED0A0A04
:1013300020EE200ADDED070A9DED0C1A00EEC10A31
:101340008DED020A9DED070ADDED0B0A20EE200A65
:10135000DDED080A9DED0A1A00EEC10A8DED030AC3
:10136000B4F9060000EE100AB8EEC00AA648D0EDA7
:10137000000A20EE200ADDED010AA44890ED001AD3
:1013800001EE200A8DED040AB4F9080000EE100AFF
:10139000B8EEC00A9C48D0ED000A20EE200ADDED30
:1013A000020A9A4890ED001A01EE200A8DED050A16
:1013B000B4F90A0000EE100AB8EEC00A9248D0ED67
:1013C000000A20EE200ADDED030A904890ED001A95
:1013D00001EE200A8DED060A894890ED010AB1EE72
:1013E000400ADDED040A20EE200AD0ED020A9DED50
:1013F000051A00EEC10AD0ED030A9DED061A00EEB3
:10140000C10A20EE280AF0EE409A90ED000ADDEDC8
:10141000040A20EE200AD0ED030A9DED051A00EE25
:10142000C10AD0ED020A9DED061A00EE810A20EEF7
:10143000280AB0EE40AA90ED030ADDED040A20EE82
:10144000200AD0ED000A9DED051A00EE810AD0EDCC
:10145000010A9DED061A00EEC10A20EE280AF0EE00
:1014600040AA90ED020AB1EE400ADDED040A20EE3A
:10147000200AD0ED010A9DED051A00EE810AD0ED9B
:10148000000A9DED061A00EE810A20EE280AB0EE51
:1014900040BA90ED000A30EE290A80ED000A90ED86
:1014A000010A30EE0A0A80ED010A90ED020A30EEE0
:1014B0002A0A80ED020A90ED030A30EE0B0A80ED55
:1014C000030AD0ED000A60EEA00A90ED011AD0EDFB
:1014D000011A41EE210A90ED021AD0ED021A41EEF6
:1014E000210A90ED031AD0ED031A41EE210AB0EE65
:1014F000600A02F065FCB0EE408A414890ED000AB7
:1015000020EE080A80ED000A90ED010A20EE080A9C
:1015100080ED010A90ED020A20EE080A80ED020A31
:1015200090ED030A20EE080A80ED030A90ED000A10
:10153000F0EE000A20EE200AD0ED020A20EE200A8A
:10154000D0ED010AB0EE001A60EE810A90ED031AA8
:1015500000EEC10A2E4880ED000A294890ED020AEB
:10156000F0EE000A20EE200AD0ED030A20EE200A59
:10157000D0ED000AB0EE001A60EE810A90ED011A7B
:1015800000EE810A234880ED000A1D4890ED000A14
:1015900020EE000AD0ED010A90ED011A00EEC10A1A
:1015A000D0ED020A90ED021A00EEC10AD0ED030A56
:1015B00090ED031A00EE810A174880ED000AB4F995
:1015C0000000404200EE100AB8EEC00A1048D0ED0C
:1015D000000A20EE200AB4F9020000EE900AF8EEAC
:1015E000E00A0C4890ED001A00EE810AB4F90400FC
:1015F00000EE900AF8EEE00A074890ED001A0DE0C0
:101600004C000020EC090020D07300007000002086
:101610005C000020600000206400002000EE810AD1
:10162000134880ED000A90ED000ADFED120A30EE5B
:10163000600ADFED110A20EE200A104880ED000A52
:1016400090ED000AD0ED010A70EE600A90ED010AFB
:101650009FED0B1A01EE200A80ED010A90ED010AC0
:10166000084880ED010A0DB0BDEC088B30BD0000CC
:1016700048000020000000457D3FF53E6800002046
:10168000CDCCCC3DB00F002010B50B4B1B782BB14F
:101690000A4C21800023084C237004E0074B1B8870
:1016A0005B1E064C2380054B1B8823B90123024C8B
:1016B0002370034B1A7210BD10020020120200208A
:1016C0005C10002010B52DED068BC548007810B9D0
:1016D000BDEC068B10BD1A22C249C348FEF74EFD71
:1016E000C0480078AA285DD1BE484078AF2859D1BB
:1016F000BC484079BB49097940EA0120BB490880D0
:10170000B848C079B749897940EA0120B74948808B
:10171000B448407AB349097A40EA0120B349888045
:10172000B048C07AAF49897A40EA0120AF49C88001
:10173000AC48407BAB49097B40EA0120AB490881BA
:10174000A848C07BA749897B40EA0120A749488176
:10175000A448407CA349097C40EA0120A349888130
:10176000A048C07C9F49897C40EA01209F49C881EC
:101770009C48407D9B49097D40EA01209B490882A5
:101780009848C07D9749897D40EA01209749488261
:101790009448407E9349097E40EA0120934988821B
:1017A00002F030FB904800884AF6AA2188421CD1FA
:1017B0008D48008B4910884217D18B4800898B498E
:1017C00008808948C0884880874880888880864803
:1017D0004089C8808448C0890881834880894881BD
:1017E00081484088488202F00DFB814800780F282C
:1017F0007DD17F4840787E49897840EA0120C0F356
:101800000A007C4908807A488078C0107849C978F5
:1018100040EA4110C0F30A00764948807448C07815
:1018200080117349097940EA81007149497940EA98
:101830008120C0F30A006F4988806D4840794010CC
:101840006B49897940EAC110C0F30A006949C88030
:101850006748807900116649C97940EA0110C0F3F0
:101860000A00644908816248C079C0116049097A58
:1018700040EA41005E49497A40EA4120C0F30A004B
:101880005C4948815A48407A80105949897A40EA2F
:101890008110C0F30A00574988815548807A401169
:1018A0005349C97A40EAC1005249C8815048007B77
:1018B0004F49497B40EA0120C0F30A004D490882A4
:1018C0004B48407BC0104A49897B40EA4110C0F335
:1018D0000A00484948824648807B80114449C97BB8
:1018E00040EA81004249097C40EA812000E072E040
:1018F000C0F30A003F4988823D48007C40103C49C3
:10190000497C40EAC110C0F30A003A49C88238480D
:10191000407C00113649897C40EA0110C0F30A007E
:10192000344908833248807CC0113149C97C40EA7F
:1019300041002F49097D40EA4120C0F30A002D49AA
:1019400048832B48007D80102949497D40EA811059
:10195000C0F30A00274988832548407D4011244967
:10196000897D40EAC1002349C88300241CE0214945
:1019700031F81400FEF7BFFD41EC1A0B9FED1E0B72
:1019800053EC102BFEF7C5FC41EC190B9FED1C0B23
:1019900053EC102BFEF716FC41EC180BFEF7B8FDCC
:1019A000144921F81400641C102CE0DB1148408815
:1019B0000E4948800F48008808800E48C088C880BB
:1019C0000C48808888800B48008908810948C089B4
:1019D000488102F017FA32200B49086000BF77E611
:1019E000CD000020540F00208A0F0020740F00202B
:1019F00040020020340F00207F6ABC749318E83F37
:101A00000000000000A887407400002010B50446C4
:101A100000201BE01849095C79B9184931F8101009
:101A200042F2107291420CDA144931F81010227807
:101A30001144124A22F8101003E000210F4A22F844
:101A4000101000210C4A1154411CC8B20228E1DBDD
:101A50000A480088B0F57A7F04DC08484088B0F571
:101A60007A7F05DD00200649087000F0F7F802E0F3
:101A700001200349087010BD250000202800002027
:101A80007009002070B504460D460026002004E0D1
:101A9000215C3144CEB2411CC8B2691E8142F7DCE0
:101AA000601910F8010CB04200D070BDE0785128E8
:101AB00035D1607960B9A07900F0D0F8E07940B212
:101AC00024498871207A40B2C871607A487126E052
:101AD0006079012823D1A07900F0C0F8E0790002F4
:101AE00000B2217A08431B490881607A000200B2E3
:101AF000A17A084317494881E07A000200B2217BAD
:101B0000084314498881607B000200B2A17B08432E
:101B10001049C881E07C487101200F490870E078C5
:101B2000522814D1607948B9E079A17940EA0120BE
:101B30000849088201200849487008E060790128B6
:101B400005D1E079A17940EA01200249488200BF2D
:101B5000ABE70000700900202500002010B5044606
:101B60003A48007838B9AA2C05D1012037490870C5
:101B70003748047068E035480078012807D1222CE6
:101B800005D1022031490870314844705CE02F488B
:101B90000078022805D103202C4908702C48847055
:101BA00052E02A480078032805D10420274908700C
:101BB0002748C47048E02548007804280FD1052044
:101BC00022490870224804712248047000782828AD
:101BD00001DD0020087000201F49087034E01B4818
:101BE0000078052819D11B480078002815DD194810
:101BF0000078401E17490870174800781649097880
:101C0000491C154A1170401D11490C5411480078A7
:101C1000D0B906200D49087016E00C480078062857
:101C20000FD10020094908700B480078401D084971
:101C30000C5409480078801DC1B20548FFF722FF07
:101C400002E000200149087010BD00002D000020B6
:101C5000B80900202C0000202400002000F0010121
:101C6000064A5170C0F3400204498A70C0F38002F2
:101C7000CA70C0F3C0020A717047000070090020EA
:101C800001B56846FFF7C2FE08BD000010B5064862
:101C90000068402102680420904703480068402102
:101CA00082680420904710BD2408000200B5024657
:101CB000F0EE402AB0EE620A084602F0C3FF91ED52
:101CC000030A82ED050AB0EE620A104602F0BAFF7E
:101CD00000BD30B50446002505E04FF47A7000F0F1
:101CE00005F8681C85B2A542F7D330BD30B504466F
:101CF00000F01EFD054600BF00F01AFD401BA0428B
:101D0000FAD330BD70B51F480068416C1E48884743
:101D1000044621461C4802F03EFC04F0010040B19C
:101D200018480068016C1848884705462846FFF7A0
:101D300015FF04F0020018B3144890F84000F8B9F9
:101D4000124890F88D01401C104981F88D01084619
:101D500090F88D0191F88E11884207DB01200B4924
:101D600081F84000002081F88D0109E0074A92F8CF
:101D70008D3102F28F12D15C044A106802F00FFC20
:101D800070BD0000600800020010004060020020EA
:101D900070B51E480068416C1D48884704462146BE
:101DA0001B4802F0F8FB04F0010030B1174800684E
:101DB000016C17488847054600BF04F0020020B3B5
:101DC000144890F8040200BB124890F85103401CDC
:101DD000C1B2104880F8511390F8511390F8520393
:101DE000814207DB01210B4880F80412002180F8B2
:101DF00051130AE0074A92F8513302F25332D15C90
:101E0000044AD2F8C40102F0CAFB70BD60080002A7
:101E1000001400406002002010B524480068416CA6
:101E20002348884704462146214802F0B4FB04F0C9
:101E3000010080B31D480068016C1D4888470146B9
:101E40001C4890F8952300F296308154194890F878
:101E50009503401CC1B2174880F89513012180F802
:101E60008C13002180F8941390F896030F2802D069
:101E7000104880F895130F4890F8950319280BD156
:101E80000C4890F8951300F2963002F075FB002193
:101E9000084880F8951308E0064890F8950319283B
:101EA00003DD0021034880F8951310BD600800028F
:101EB000001800406002002070B52B480068416C9B
:101EC0002A48884704462146284802F064FB04F06B
:101ED000010000B324480068016C24488847054687
:101EE00021480068016C214888470146204890F845
:101EF000592500F25A5081541D4890F85905401C4C
:101F0000C1B21B4880F85915012180F850150021F5
:101F100080F8581500BF04F0020020B3144890F870
:101F20008C0500BB124890F8D906401CC1B210487D
:101F300080F8D91690F8D91690F8DA06814207DBB6
:101F400001210B4880F88C15002180F8D9160AE091
:101F5000074A92F8D93602F2DB62D15C044AD2F821
:101F60004C0502F01CFB70BD60080002001C004024
:101F700060020020704700000348007820F0010054
:101F8000401C0149087070478800002010B52DEDF5
:101F9000028BB0EE408A79480078012806D00B28E1
:101FA0000DD01F2822D0FF287ED1CEE074480078C3
:101FB00000F0010010B10B2070490870D1E002F070
:101FC00069F800F077FE9FED6F0A6F4880ED020A16
:101FD00090ED020A6D4880ED000A9FED6A0A6C4898
:101FE00080ED5B0A1F2065490870BAE0694890EDF2
:101FF000000A6948B0F9060000EE900AF8EEE00A1F
:10200000664890ED001A10EE810A6248D0ED000A91
:10201000B6EE001A41EE000AC0ED000A90ED010A8A
:102020005D48B0F9080000EE900AF8EEE00A5B485F
:1020300090ED001A10EE810A5648D0ED010AB6EE76
:10204000001A41EE000AC0ED010A90ED020A524862
:10205000B0F90A0000EE900AF8EEE00A4F4890ED61
:10206000001A10EE810A4B48D0ED020AB6EE001AB3
:1020700041EE000AC0ED020A90ED000A444880EDEE
:10208000170A444890ED010A414880ED060A41488C
:1020900090ED020A3E4880ED280A3B4890ED010A87
:1020A0003B4880ED390A00E057E0374890ED000AE0
:1020B000374880ED4A0A9FED330A80ED5B0A3248CB
:1020C00090ED020A3148D0ED000A30EEC00A3048E7
:1020D00080ED5A0A90ED5A0ADFED310AB4EEE00ABB
:1020E000F1EE10FA08DB90ED5A0ADFED2E0A30EE21
:1020F000600A80ED5A0A11E0254890ED5A0ADFED9A
:102100002A0AB4EEE00AF1EE10FA07D890ED5A0A66
:10211000DFED240A30EE200A80ED5A0AB0EE480ABC
:102120002249A1F1CC00FFF7C1FDB0EE480A1F49DA
:1021300044391748FFF7BAFDB0EE480A1B4944314D
:10214000A1F1CC00FFF7B2FD0BE001F0A3FF00F01E
:10215000B1FD01200949087003E0FF20074908701C
:1021600000BF00BF0648007800F0010010B9FF2052
:1021700002490870BDEC028B10BD000090000020E9
:102180008800002000000000E80A00208C000020E9
:10219000F40A0020A40F0020EC090020CC730000FA
:1021A000000034430000B443000034C3040C00209A
:1021B00000201849087000BF28E0042817DA9FEDB6
:1021C000160A164901EB800181ED000A9FED120A03
:1021D00012490C3101EB800181ED000A9FED0E0ADE
:1021E0000E49183101EB800181ED000A04E0002165
:1021F0000A4A2C3AA2F8501000220849183941F82E
:102200002020103941F82020411CC8B20428D4DB1A
:102210007047000086010020000000003010002000
:1022200010B544484449486144380861B7EE080A8B
:102230000846406980ED000A9FED400A0846406963
:1022400080ED020AB7EE080A0846006980ED000A30
:102250009FED3A0A0846006980ED020AB0EE080ACE
:102260000846406980ED070AB0EE080A0846006992
:1022700080ED070A9FED320A324880EDBB0A9FEDE0
:10228000320A80EDBD0A9FED2E0A80EDAA0A9FED6D
:102290002E0A80EDAC0A9FED2D0A80ED9E0A9FED7F
:1022A0002C0A80ED8D0AB3EE040A0846406980EDE1
:1022B0000F0ABBEE040A0846406980ED100AB3EE2F
:1022C000040A0846006980ED0F0ABBEE040A0846BE
:1022D000006980ED100A4FF4FA704881322088813D
:1022E0001C4808601C4848601C48007820F0040026
:1022F0001A4908701A480068022142690120904773
:102300001648007815490870154800681021426980
:1023100001209047002009E09FED080A00EB4001F2
:10232000104A02EB810181ED010A401C0328F3DB16
:1023300010BD0000580D00205C10002000000000BF
:102340006666E63EF40A00204260653C0000A0425A
:1023500000007042BA07002078100020044C0040B2
:1023600024080002E00F002010B52DED088B044674
:10237000314890ED021A21EE011AD0ED031A90EDCA
:10238000032A01EE821AF7EE001AB0EE002A42EE9E
:10239000411AF0EE610A90ED011AF0EE001A21EEFA
:1023A000211AD0ED021A21EE211AD0ED001AB0EE5A
:1023B000002A61EE821A90ED032A01EE821AB0EE35
:1023C000410A03F0D5F91D48D0ED000A20EE200A9D
:1023D00084ED020A0068FEF7B4F841EC190B1848C6
:1023E0000068FEF7AEF841EC1B0BB0EE4B0AF0EEC6
:1023F0006B0A03F00DF8B0EE40AAF0EE60AA53ECC1
:10240000192B51EC1A0BFDF784FF41EC180BFEF76A
:10241000ABF860600B48D0ED000A0B4890ED000A65
:1024200003F0A6F90548D0ED000A20EE200A84ED5D
:10243000000ABDEC088B10BD4C000020C4730000E6
:102440005C000020640000206000002000B587B020
:10245000062301AA3B21D02000F094FA06230DF1B7
:102460000A024321D02000F08DFA002059E001211A
:1024700001EB400101AA515C12F8102041EA02224E
:102480002A4931F81010511A09B204AA22F8101082
:1024900004A931F9101000EE101AB8EEC00A244950
:1024A00001EB8001D1ED000A70EE600A204901EBDA
:1024B000800191ED000A9FED1F1A01EE200A1C49D0
:1024C00001EB800181ED000A194901EB800191EDDA
:1024D000000A1749183101EB8001D1ED000A70EEB6
:1024E000600A1349183101EB800191ED000A9FED5C
:1024F000111A01EE200A0E49183101EB800181ED1D
:10250000000A0B49183101EB800191ED000ABDEE84
:10251000C00A10EE101A09B2074A126822F8101009
:10252000401C0628A3DB07B000BD0000F80900200E
:10253000140A00209A99993E4000002070B58AB094
:10254000182104A8FDF733FE002405260020029080
:1025500003900090019073480021C16001614161C6
:102560004FF400610182002505E00220FFF7B1FB76
:10257000FFF76CFF6D1CB5F5967FF6DB36E06A4819
:102580000068401C684908600220FFF7A2FBFFF7C3
:102590005DFF6448B0F90000B0F5C87F23DA6148F8
:1025A000B0F9000010F5C87F1DDD5E48B0F90200EB
:1025B000B0F5C87F17DA5B48B0F9020010F5C87FA4
:1025C00011DD5848B0F90400B0F5C87F0BDA554862
:1025D000B0F9040010F5C87F05DD53480068B0F578
:1025E000FA6F03DD03E000204F490860C7E700BF32
:1025F00069E04C48B0F90600002803DD4948B0F90D
:10260000060003E04748B0F906004042D8B9454803
:10261000B0F90800002803DD4248B0F9080003E0E3
:102620004048B0F90800404268B93E48B0F90A0095
:10263000002803DD3B48B0F90A0003E03948B0F94F
:102640000A004042C0B3002415E038480168E01C8D
:1026500031F8100002A931F81410401A00B22DF818
:10266000140032480168E01C31F8100002A921F87A
:102670001400601C04B2032CE7DBBDF90000002845
:1026800002DDBDF9000002E0BDF90000404205286E
:1026900019DABDF90200002802DDBDF9020002E0EE
:1026A000BDF90200404205280DDABDF904000028FA
:1026B00003DDBDF9040003E005E0BDF9040040427C
:1026C000052800DA00E094E700BF002415E0FFF7DA
:1026D000BDFE642C0FDB00200BE004A951F8201094
:1026E000124A126832F91020114404AA42F820104C
:1026F000401C0628F1DB601C04B2B4F5B27FE6DBB7
:1027000000240AE004A850F82400001201B2054891
:102710000C3020F81410601C04B2062CF2DB0AB056
:1027200070BD0000EC0900204400002040000020A3
:1027300010B500BF0D4A11684FF0E02292690C4BB2
:102740001B6803EB4304C4EBC313C2EBC302084B87
:102750001B68B2FBF3F201EB4103C3EBC11302EBC5
:10276000C300024A12689142E4D110BD200000204B
:102770001C00002010B500F09DFBFFF787FA00F069
:1027800035FC00F0E9FB01F0C9FC00F0EDFEFFF7BD
:1027900047FD0548007E28B10448407A10B1012069
:1027A0000349087010BD0000EC090020440A002015
:1027B000CD000020704700000348007820F00100A1
:1027C0000149087070470000024C00400349097835
:1027D00041F00101014A117070470000024C0040B5
:1027E000704700000348007820F00100014908709C
:1027F00070470000034C00400349097841F0010193
:10280000014A117070470000034C004070470000FF
:1028100010B52DED028BB0EE408A40480068B0F94B
:1028200007000F3800EE100AB8EEC00A3C4880EDF1
:102830008E0A3A480068B0F9050000EE100AB8EEBA
:10284000C00A374880ED9F0A34480068B0F9070095
:1028500000EE100AB8EEC00A3248D0ED000A30EEA1
:10286000600A2F4880EDB00A2C480068B0F90500D6
:1028700000EE100AB8EEC00A2A48D0ED010A30EE88
:10288000600A274880EDC10A24480068B0F90700B3
:1028900000EE100AB8EEC00A224880ED000A1F4878
:1028A0000068B0F9050000EE100AB8EEC00A1D4835
:1028B00080ED010A1949B0EE480A486902F0C2F9F0
:1028C0001649B0EE480A086902F0BCF913480069DD
:1028D00090ED030A124880EDAF0A1048406990ED70
:1028E000030A0F4880EDC00AB0EE480A00F53B70BD
:1028F00002F0A8F9B0EE480A0B4802F0A3F9084824
:1029000090EDBE0A094880ED120A054890EDAD0A27
:10291000064880ED110ABDEC028B10BD5C10002052
:10292000F40A0020F80100209C0D00200410002073
:102930000348007840F0200001490870704700000B
:10294000454C004070B504460D4600F059F920464C
:1029500000F010F900F060F8284600F00BF900F0E4
:102960005BF800F04DF9601C00F004F900F054F839
:1029700000F088F80646002000F0B6F800F06EF986
:10298000F0B270BDF0B507460E4614461D4600F085
:1029900037F9384600F0EEF800F03EF8304600F027
:1029A000E9F800F039F800F02BF9781C00F0E2F8B3
:1029B00000F032F811E0012D06D100F063F820702C
:1029C000002000F091F805E000F05CF82070012094
:1029D00000F08AF8641C681EC5B2002DEBD100F02F
:1029E0003DF90020F0BD70B506460C46154600F0D6
:1029F00007F9304600F0BEF800F00EF8204600F06F
:102A0000B9F800F009F8284600F0B4F800F004F82E
:102A100000F024F970BD000000B51848007820F0DF
:102A2000100016490870881E007840F02000891EAA
:102A300008700EE012480078401C114908700846E2
:102A40000078052805DD00F009F900200C49087020
:102A500006E00A48001F007800F010000028E9D1C5
:102A600000BF0648801E007820F020000349891E20
:102A70000870012004F07DFB00BD0000454C0040C3
:102A80001800002010B500231648007820F0100030
:102A90001449087008241DE01248801E007840F098
:102AA00020001049891E08705806030E881E007801
:102AB00000F0100010B143F0010300E000BF09482E
:102AC000801E007820F020000649891E0870012031
:102AD00004F04FFB2000A4F10101CCB2DCD1184678
:102AE00010BD0000454C004000B50346204800786A
:102AF00040F010001E490870881E007820F0200069
:102B0000891E0870012004F034FB43B91848801E68
:102B1000007840F010001649891E087007E014483C
:102B2000801E007820F010001149891E08700120D5
:102B300004F01FFB0E48801E007840F020000C4976
:102B4000891E0870012004F014FB0948801E0078DB
:102B500020F020000649891E0870012004F009FBBE
:102B60000348007820F010000149087000BD000003
:102B7000454C004010B503462048007840F0100056
:102B80001E49087008242DE003F0800040B11B4866
:102B9000801E007840F010001849891E087007E078
:102BA0001648801E007820F010001449891E087015
:102BB0005B00012004F0DDFA1048801E007840F030
:102BC00020000E49891E0870012004F0D2FA0B483B
:102BD000801E007820F020000849891E087001201E
:102BE00004F0C7FA2000A4F10101CCB2CCD1034813
:102BF000007820F010000149087010BD454C0040DD
:102C000000B51548007840F0100013490870881E80
:102C1000007840F01000891E08700846007840F0E7
:102C200020000870012004F0A4FA0B48801E0078F0
:102C300020F010000849891E0870012004F099FA5C
:102C40000548801E007820F020000349891E087086
:102C5000012004F08EFA00BD454C004000B5144838
:102C6000007840F0100012490870881E007820F0AB
:102C70002000891E08700846007820F010000870B7
:102C8000012004F076FA0A48801E007840F0200007
:102C90000749891E0870012004F06BFA0448801E61
:102CA000007840F010000249891E087000BD000045
:102CB000454C0040B7EE000A074880ED000A9FED42
:102CC000070A80ED010A9FED050A80ED020A9FEDDB
:102CD000030A80ED030A70474C000020000000004A
:102CE00010B547480078B0B94648007840F0020077
:102CF000444908700846007840F00400087008460F
:102D0000007840F001000870481E007840F0010093
:102D1000491E087010BD3C48007800B9FAE7002051
:102D20003949087039480068401C3849086008462D
:102D300000680321B0FBF1F201FB120088B9FFF734
:102D400085FB9FED330A02F035F99FED310A3149D9
:102D50003148FEF749FA9FED2E0AFFF717F900F008
:102D600055F92A48007800F0070010B92948FFF704
:102D7000FBFA264800680B21B0FBF1F201FB1200C0
:102D800010B90B20FEF77CFF204800680A21B0FB39
:102D9000F1F201FB120028B900F038FE9FED1F0A86
:102DA00001F0BAFE194800681421B0FBF1F201FBF2
:102DB000120088B902F014F89FED190A02F0FCF92C
:102DC0009FED170A02F012F99FED150AFDF772FD4B
:102DD0009FED130A00F028FC0C4800683221B0FB7C
:102DE000F1F201FB120028B9322000F00DFB322075
:102DF00000F062FF00F064FE00F0AEFE00BF89E765
:102E0000CD000020034C0040CC000020E00000205A
:102E1000A69B443BE80A0020EC0900200AD7233C8B
:102E20000AD7A33C1D48007800F0010018B9012022
:102E30001B49C87002E000201949C8701948007A7F
:102E4000012823D118480068401C1749086008462B
:102E50000068322190FBF1F201FB1200E0B9134847
:102E6000007880F00100114908700846007830B100
:102E70000F48007840F002000D4908700CE00C4843
:102E8000007820F002000A49087005E00848007840
:102E900020F00200064908707047000088000020FA
:102EA000300000205C100020380000203C00002092
:102EB000034C004010B5FFF795FCFFF77DFC0220A6
:102EC000164908710120C8701548007840F00100CB
:102ED00013490870481C007840F00100491C087034
:102EE0000846007840F0020008700846007840F07C
:102EF00004000870C81E007820F00100C91E087088
:102F0000481C007820F00100491C0870881C0078DB
:102F100020F00400891C087010BD00003000002063
:102F2000044C004010B50B4909680868804701F05F
:102F300081F901F037F900F01BFA6420FEF7C9FEB1
:102F4000FFF7F6FC01F040FB0249383909680868D0
:102F5000804710BD6408000210B500247521D02000
:102F6000FFF7F0FC0446682C03D000201E490876C9
:102F700010BDC820FEF7ADFE80226B21D020FFF7E8
:102F800032FDC820FEF7A5FE00221921D020FFF750
:102F90002AFD0A20FEF79DFE03226B21D020FFF7B9
:102FA00022FD0A20FEF795FE04221A21D020FFF709
:102FB0001AFD0A20FEF78DFE18221B21D020FFF7F4
:102FC00012FD0A20FEF785FE18221C21D020FFF7F3
:102FD0000AFD0A20FEF77DFEFFF7B0FA0120024944
:102FE000087600BFC4E70000EC09002010B50648D1
:102FF00000681021026804209047034800681021EF
:1030000082680420904710BD2408000210B5CD4806
:10301000007800F0010010B9FF20CB490870CA48C1
:103020000078012806D0022818D01F2838D0FF28A1
:1030300070D170E1C348007800F0010068B1C14868
:10304000007820F00400BF4908700846007820F09E
:10305000020008700220BC49087000BFBB4800781D
:1030600040B1B8480078C0F3800018B91F20B649B5
:1030700008700EE0B3480078C0F3800048B1B14852
:10308000007820F00200801CAE4908701F20AE4975
:1030900008706420AE49088048808880C88043E179
:1030A0000024AC4890ED010ADFEDAB0AB4EEE00A73
:1030B000F1EE10FA1AD390ED010ADFEDA80AB4EE92
:1030C000E00AF1EE10FA11DC90ED000ADFEDA20A41
:1030D000B4EEE00AF1EE10FA08D390ED000ADFED4D
:1030E0009F0AB4EEE00AF1EE10FA14DD954800787C
:1030F00020F0010093490870FF209349087000F008
:10310000C1FF00F0C7FFFFF7D5FD91480021016026
:10311000416009E107E19248407920B991488088EF
:10312000A0F57A7004B28E484079012802DB8E48FF
:10313000008A04B2002C01DC002005E040F252308D
:10314000844200DD00E0204681490880002C01DC3B
:10315000002005E040F25230844200DD00E02046CD
:103160007B494880002C01DC002005E040F2523011
:10317000844200DD00E0204675498880002C01DC97
:10318000002005E040F25230844200DD00E020469D
:103190006F49C880754890ED140AD0ED030A30EEEF
:1031A000600AD0ED250A70EE200A0846B0F900004A
:1031B00000EE100AB8EEC00A30EE800ABDEEC00A7A
:1031C00010EE100A00B20880684890ED140AD0EDA5
:1031D000030A30EE200AD0ED250A70EE600A084698
:1031E000B0F9020000EE100AB8EEC00A30EE800A14
:1031F000BDEEC00A10EE100A00B248805B4890EDA8
:10320000140AB1EE400AD0ED030A30EE200AD0EDE8
:10321000250A70EE200A0846B0F9040000EE100AF4
:10322000B8EEC00A30EE800ABDEEC00A10EE100AF9
:1032300000B288804D4890ED140AB1EE400AD0EDFE
:10324000030A30EE600AD0ED250A70EE600A0846E7
:10325000B0F9060000EE100AB8EEC00A30EE800A9F
:10326000BDEEC00A10EE100A00B2C8800846B0F9E0
:103270000000642801DC64200BE03548B0F9000050
:10328000B0F57A7F02DD4FF47A7002E03048B0F991
:1032900000002F4908800846B0F90200642801DCCC
:1032A00064200BE02A48B0F90200B0F57A7F02DD15
:1032B0004FF47A7002E02648B0F9020024494880B1
:1032C0000846B0F90400642801DC64200BE02048C3
:1032D000B0F90400B0F57A7F02DD4FF47A7002E0B5
:1032E0001B48B0F904001A4988800846B0F9060066
:1032F000642801DC64200BE01548B0F90600B0F545
:103300007A7F02DD4FF47A7002E01148B0F90600CE
:103310000F49C88008E001200B4908700C480021C3
:103320000160416000E000BF00BF094CB4F9063005
:10333000B4F90420B4F90210B4F9000001F028FC3B
:1033400010BD00008800002091000020C80000206F
:1033500080000020E80A0020000020C20000204277
:1033600078100020740F0020B00F0020F40A002015
:1033700010B51D4800680122D021836902209847BA
:1033800019480068012240218369052098471648A2
:10339000343000681549C26A4FF0804090471248A7
:1033A000343000681149C26A114890470A200F4919
:1033B000C8600D4834300068C26A4FF080409047C2
:1033C00008200A49C860084834300068C26A4FF0D3
:1033D0008040904704200549C860034834300068A5
:1033E000C26A0348904710BD240800020000002074
:1033F0000008004003480078022802D10320014958
:1034000008707047800100204549097831B145496D
:10341000097861B90121434A117008E041490978EE
:1034200029B94149097811B102213E4A11703D493B
:10343000097881B93D4991ED020ABDEEC00A3C49C7
:1034400081ED000A00213B4A11809FED3B0A3B4978
:1034500081ED150A53E03349097801293CD13849F7
:103460000968334A1268891A4FF47A725143642208
:1034700091FBF2F109B2334A11801146B1F9001003
:10348000002901DC00210BE02E49B1F9001041F2C6
:103490008832914201DD114602E02A49B1F900105B
:1034A000284A118023490988014409B2214A118020
:1034B0009FED250A214981ED150A1146B1F9001049
:1034C000204AB2F90020914219DD0021194A1180E9
:1034D0000221144A117012E012490978022905D11B
:1034E0009FED150A154981ED150A08E00D49097887
:1034F000032904D1BBEE0E0A104981ED150A1349C8
:10350000097801F0010149B99FED0B0A0B4981EDE2
:10351000150A0021034A1170014A1170704700001A
:103520008101002080010020C8000020B00F002091
:10353000880100208E0100200000000004100020FF
:10354000A40100208C0100200000C8428800002057
:1035500010B5FEF711FD0348007810B901200149AC
:10356000087010BD81010020B2EE000A254880EDF0
:10357000330A9FED250A80ED000A9FED230A80EDB6
:10358000010A9FED220A80ED020AB2EE040A80EDE4
:103590000D0ABAEE040A80ED0E0AB2EE000A80EDC2
:1035A000440A9FED190A80ED110AB7EE000A80ED7A
:1035B000120A9FED170A80ED130AB2EE040A80ED9D
:1035C0001E0ABAEE040A80ED1F0AB2EE000A80ED70
:1035D000550AB0EE000A80ED220A9FED0E0A80ED3A
:1035E000240A9FED0D0A80ED310A9FED0C0A80ED53
:1035F000320A9FED0B0A80ED1E0A9FED0A0A80ED4C
:103600001F0A7047F40A0020CDCC8C3F8FC2753D55
:103610000AD7233D000000000000C8420000C8C2D5
:1036200000004842000048C2E248D0ED110AE248DA
:10363000408840F2DC51081A01EE100AB8EEC11AB7
:10364000DFEDDE1A41EE210ADD48C0ED000ADD485B
:1036500000680079A22814D1DA48007A182810D11D
:10366000D5480088081A00EE900AB8EEE01ADFED9F
:10367000D31ADFEDD50A41EE210AD148C0ED010A87
:1036800012E0CC48D0ED120ACB48008840F2DC5161
:10369000081A01EE100AB8EEC11ADFEDC81A41EEA1
:1036A000210AC748C0ED010AC548D0ED000AF5EE71
:1036B000C00AF1EE10FA02DDD0ED000A04E0C048C5
:1036C000D0ED000AF1EE600AB2EE041AF4EEC10A7F
:1036D000F1EE10FA04D2DFEDBC0AB948C0ED000AE1
:1036E000B748D0ED010AF5EEC00AF1EE10FA02DD9E
:1036F000D0ED010A04E0B248D0ED010AF1EE600A13
:10370000B2EE041AF4EEC10AF1EE10FA04D2DFEDC3
:10371000AE0AAB48C0ED010AAC48B0F9080000EEB3
:10372000900AF8EEE00AAA48C0ED000AA748B0F9EE
:103730000A0000EE900AF8EEE00AA548C0ED010A82
:10374000A248B0F90C0000EE900AF8EEE00AA14899
:10375000C0ED000A9D48B0F90E0000EE900AF8EEA8
:10376000E00A9C48C0ED010A9548D0ED000A98484F
:1037700090ED001A70EEC10A9748C0ED000A90481B
:10378000D0ED010A924890ED011A70EEC10A9248FC
:10379000C0ED010A8E48D0ED000A904890ED001A65
:1037A00070EEC10AF1EE600A8D48C0ED000A88484B
:1037B000D0ED010A894890ED011A70EEC10AF1EED0
:1037C000600A8748C0ED010A7D48D0ED000A8148B3
:1037D00090ED001A30EEC11A8248D0ED000A41EE99
:1037E000000AC0ED000A7648D0ED010A794890ED54
:1037F000011A30EEC11A7B48D0ED010A41EE000AF1
:10380000C0ED010AD0ED000A9FED771AF4EEC10A6F
:10381000F1EE10FA02D8DFED740A0FE07148D0ED36
:10382000000A9FED721AF4EEC10AF1EE10FA02DD01
:10383000DFED6E0A02E06B48D0ED000A6948C0ED8A
:10384000000AD0ED010A9FED681AF4EEC10AF1EE0C
:1038500010FA02D8DFED640A0FE06248D0ED010AE9
:103860009FED621AF4EEC10AF1EE10FA02DDDFED0F
:103870005F0A02E05B48D0ED010A5A48C0ED010A38
:103880005348D0ED000A5548C0ED000A5048D0ED2D
:10389000010A5248C0ED010A4948D0ED010A5448D6
:1038A000C0ED010A4C48D0ED000A9FED521A60EEBF
:1038B000810A4B4890ED001ADFED431A41EE210AD0
:1038C000484890ED001ADFED4C1A41EE210A4B48B2
:1038D000C0ED000A4048D0ED010A9FED461A60EEA7
:1038E000810A3F4890ED011ADFED371A41EE210AB7
:1038F0003C4890ED011ADFED401A41EE210A3F48A5
:10390000C0ED010AD0ED000ABBEE041AF4EEC10AC4
:10391000F1EE10FA02D8FBEE040A0FE03748D0EDC2
:10392000000AB3EE041AF4EEC10AF1EE10FA02DD59
:10393000F3EE040A02E03148D0ED000A2F48C0ED52
:10394000000AD0ED010ABBEE041AF4EEC10AF1EE52
:1039500010FA02D8FBEE040A0FE02848D0ED010A65
:10396000B3EE041AF4EEC10AF1EE10FA02DDF3EE42
:10397000040A02E02148D0ED010A2048C0ED010A06
:10398000D0ED000A1E48C0ED000A1C48D0ED010A27
:10399000F1EE600A1A48C0ED010A1A48007840B9F1
:1039A000DFED090A0F48C0ED000ADFED070AC0EDA0
:1039B000010A704704100020740F00209A99993E64
:1039C000300100205C100020000000007009002081
:1039D0004001002058010020600100204801002023
:1039E00050010020680100200000C8C20000C84249
:1039F000380100209A99193E8FC2F53D70010020D0
:103A000078010020C80000207047000010B586B083
:103A1000284800680A21B0FBF1F201FB1200E0BB6C
:103A2000002125488069B0F90A00CDE90101039120
:103A3000214804918069B0F908001F4C0090A469E6
:103A4000B4F906301C4CA469B4F904201A4CA469DA
:103A5000B4F90210184CA469B4F90000FDF742FA59
:103A6000154A5179154AD2ED021AFDEEE11A11EE0E
:103A7000900A114A126AD2ED021AB0EE611A0E4A89
:103A8000126AD2ED011AF0EE610A0B4A126AD2ED07
:103A9000001AB0EE610A002200E001E0FDF702FB2F
:103AA00004480068401C0349086001F081FA06B030
:103AB00010BD00003402002078100020B00F00205C
:103AC00010B524480088401C224908800846007927
:103AD00080B1012811D0022813D0032814D1084640
:103AE0000088642190FBF1F201FB120008B9FEF797
:103AF0008DFE0AE0FEF78AFE07E06420FEF77CFEFA
:103B000003E0FEF76FFE00E000BF00BF1148C07881
:103B100030B1012813D0022814D0032815D103E0B6
:103B20006420FEF753FE11E00A480088642190FBF0
:103B3000F1F201FB120008B9FEF752FE06E0FEF7B3
:103B40003BFE03E0FEF74CFE00E000BF00BFFFF7C6
:103B500069F910BD3000002070B50024A5E0C4EB69
:103B60000410C0EBC410534901EB80000079002819
:103B700059D0C4EB0410C0EBC41001EB8000007BF3
:103B8000401CC4EB0411C1EBC4114A4A02EB810191
:103B90000873C4EB0410C0EBC410114601EB8000A5
:103BA000007B05283FDDC4EB0410C0EBC41001EB23
:103BB0008000407B322807DD3220C4EB0411C1EBCA
:103BC000C41102EB81014873C4EB0413C3EBC413AB
:103BD000384D05EB8303597BC4EB0413C3EBC413CB
:103BE00005EB830303F10E00C4EB0413C3EBC41312
:103BF00005EB83039A6890470020C4EB0411C1EBE6
:103C0000C4112A4602EB81010873C4EB0411C1EB15
:103C1000C41102EB81010871C4EB0411C1EBC411A2
:103C200002EB81014873C4EB0410C0EBC4102149BE
:103C300001EB800090F84000B0B3C4EB0413C3EB79
:103C4000C4130D4605EB830303F5C772C4EB0413DD
:103C5000C3EBC41305EB830303F28F11C4EB04130E
:103C6000C3EBC41305EB830303F1410003F056FAE1
:103C7000D0B10020C4EB0411C1EBC4112A4602EB01
:103C8000810181F84000C4EB0412C2EBC4122B4640
:103C900003EB820292F88F11C4EB0412C2EBC41240
:103CA00053F8220000F07BFC641C042CFFF657AF95
:103CB00070BD00006002002010B504463A4841780B
:103CC0008078814210D0FEF773FA38484079012895
:103CD00006DB3748007918B101203349087003E04A
:103CE00000203149087048702F484078012806D0DC
:103CF000022823D00B283ED0A0283DD12CE02A4812
:103D00000078D0B12B48007840B92B480078A0B992
:103D1000012029490870FFF71BFC0EE025480078B8
:103D2000022803D100202049487006E0214800788D
:103D3000022802DD00201C4948701EE01D48007862
:103D4000022802D1FFF756FB05E01A48007810B9A7
:103D500000201549487010E01848007800F0010074
:103D600040B11648007820F0010014490870002086
:103D70000D49487001E000E000BF00BF0A484078EC
:103D800008B9FEF715FA08484178817090ED0D0AE0
:103D900080ED130A90ED0B0A80ED110A90ED0C0AEC
:103DA00080ED120A10BD00000410002078100020E1
:103DB000700900208001002086010020880000207A
:103DC000F0EE400AB7EE082AF0EE421AB6EE002AEC
:103DD00020EE822AB0EE421AB0EE600A10EE100A0F
:103DE0000749A1EB600000EE100A61EE002AB7EE71
:103DF000082A02EEC02A22EE002AB0EE420A7047DC
:103E0000DF59375F10B52DED028B9FED530AB0EEF1
:103E1000408A5248007980B15148407901280CDB32
:103E2000504890ED000A504880ED380A4D4890ED1A
:103E3000010A4D4880ED490A1EE04C48408840F296
:103E4000DC51081A00EE100AB8EEC00ADFED420A93
:103E500020EE200A444880ED380A44480088A0F249
:103E6000DC5000EE100AB8EEC00ADFED3B0A20EE8F
:103E7000200A3D4880ED490A3D48007800F00100E5
:103E8000B8B33A48808840F21451884245DD37483B
:103E9000C08840F2A461884209DD364890ED000AEE
:103EA000DFED350A30EE600A80ED000A0EE02F48A3
:103EB000C08840F21451884208DA2E4890ED000A7A
:103EC000DFED2D0A30EE200A80ED000A264890ED45
:103ED0005A0ADFED2A0AB4EEE00AF1EE10FA09DB25
:103EE000244890ED000ADFED260A30EE600A80EDEE
:103EF000000A12E01C4890ED5A0ADFED220AB4EEE7
:103F0000E00AF1EE10FA08D21A4890ED000ADFED4F
:103F10001C0A30EE200A80ED000A14480089B0F532
:103F2000966F03DA00200E49487110E00F480089AF
:103F3000B0F5AF6F03DA01200949487107E00B487B
:103F40000089B0F5C86F02DA02200549487100F017
:103F50001BF8BDEC028B10BD0AD7233D7009002071
:103F60007810002078010020F40A0020740F00204F
:103F7000880000208C000020CDCCCC3D00003443D4
:103F80000000B443000034C310B53A48007801285B
:103F900002D002284FD12AE03748808840F24C41B5
:103FA00088420BDA3448C08840F26C71884205DDE3
:103FB00032480078401C3149087002E000202F4947
:103FC00008702E480078642810DD00202B49087006
:103FD0000220284908702A48007820F00100401C7F
:103FE0002749087000F056F8FEF764FE23E02248E7
:103FF000808840F24C41884209DA1F48C0888842D4
:1040000005DA1E480078401C1C49087002E00020B8
:104010001A4908701948007864280BDD00201749F8
:1040200008700120134908701548007820F001003D
:104030001349087000BF00BF0F48408940F24C414F
:10404000884215DB0C48408940F2DC5188420FDD84
:1040500000200A49087001200649087000F01AF88B
:10406000FEF728FE0648007820F001000449087099
:1040700010BD00007C000020740F00207D00002097
:1040800088000020024890ED0C0A80ED0B0A704772
:104090009C0A0020002021E09FED140A00EB001193
:1040A000134A02EB810181ED0C0A9FED100A00EB2F
:1040B000001102EB810181ED0B0A9FED0C0A00EB70
:1040C000001102EB810181ED030A9FED080A00EB6C
:1040D000001102EB810181ED0A0A401C1028DBDB94
:1040E0009FED040A024880ED7C0A70470000000042
:1040F000F40A00200000A04238B5002400200090FF
:1041000001236A460D21EC20FEF73CFC9DF80000DF
:10411000102800D10124204638BD000010B5002031
:104120001A4948720872AFF20B00086018484860DC
:1041300018A116480A3001F029F9FFF7DDFF1349ED
:1041400008720846007AB0B1012048721020087742
:10415000084602F0F1FC402280210C4802F062FE89
:10416000082320228021094802F01BFF0722032197
:10417000064802F00CFF00F033FE084890ED0C0AF0
:1041800080ED0B0A0148407A10BD0000440A00206F
:10419000A141000053504C30360000009C0A002022
:1041A0007047704730B5174800681749B0FBF1F009
:1041B00016490860134800684FF47A72B0FBF2F1B8
:1041C000481EB0F1807F00D31BE0481E4FF0E02274
:1041D000506150170722002807DA53071D0E0C4BB9
:1041E00000F00F04241F1D5503E053071C0E094B5C
:1041F0001C5400BF00204FF0E022906107201061A6
:1042000000BF30BD3802002040420F001C000020DB
:1042100018ED00E000E400E004480068401C034999
:10422000086001200249087070470000200000204B
:10423000CC000020F0B5824E3668C6F30245012658
:10424000AE40F0B27E4E366806F00704062C39D236
:10425000DFE804F003394051B7BD7A4E36785EB3DB
:1042600046F65A16764F083F3E60754E4836366819
:1042700046F00106724F48373E600126704F083FF6
:104280003E60704E367886B16F4E367836B14FF458
:10429000FA3696FBF0F66D4F3E6013E04FF4FA46A7
:1042A00096FBF0F6694F3E600CE04FF4004696FB3B
:1042B000F0F6664F3E6005E04FF4004696FBF0F6E0
:1042C000624F3E60B9E042F2107696FBF0F65F4F27
:1042D0003E60B2E05C4E367836B14FF4FA3696FB6B
:1042E000F0F65A4F3E6005E04FF4FA4696FBF0F6C2
:1042F000564F3E60A1E0524E361F3668C6F30902A3
:104300004F4E361F366806F4E026B6F5403F15D00E
:1043100007DC6EB1B6F5803F0CD0B6F5003F13D187
:104320000AE0B6F5802F0BD0B6F5A02F0CD109E02E
:10433000474909E0474907E0474905E0474903E0A5
:10434000474901E0474900BF00BF12B93F4E316005
:1043500036E002F4805616B142F4704632B2424E54
:10436000367826B1414E96ED210AF36E03E03F4EBA
:1043700096ED190AF36C00EE902AF8EEE00A20EEB2
:10438000201AC3F5407600EE906AF8EEE01AF7EED8
:10439000000A40EE210AF2EE001A60EEA11AC1EE08
:1043A000210AB7EE001A31EE601A00EE901AF8EE0C
:1043B000600AC0EE811AFCEEE10A244EC6ED000A46
:1043C0003BE0274E96FBF0F6204F3E6035E01D4E59
:1043D000361D36785EB346F65A16194F083F3E60D2
:1043E000174E4836366846F00206154F48373E608D
:1043F0000126134F083F3E60124E361D367886B1B7
:10440000114E367836B14FF4FA3696FBF0F60F4F70
:104410003E6011E04FF4FA4696FBF0F60B4F3E601B
:104420000AE0104E96FBF0F6084F3E6004E00D4E99
:1044300096FBF0F6054F3E6000BF00BFF0BD0000E8
:1044400008040140008920423C86204238020020B6
:1044500060E31600C0C62D00808D5B00001BB70016
:1044600000366E01006CDC02D88020420010200073
:104470002E48006840F470002C4908604FF4B540A5
:104480002B49088080202B49486100BF2A4840689A
:1044900000F480700028F9D128482749086000BF3F
:1044A0002548406800F480700028F9D100BF2248F8
:1044B000406800F480700028F9D12048001D1E4992
:1044C000086000BF1C48406800F480700028F9D1E3
:1044D0001B48006920F4704040F4005018490861FE
:1044E0000846406920F4704040F40050486146F6A8
:1044F0005A10144908604FF4A020091D0860081DD7
:10450000006820F00710C01C091D086000200D493C
:1045100008600B48006940F030000949086108460E
:10452000406940F0300048617047000088ED00E0CD
:104530000C480040003004E00000014001005A69CE
:10454000001001400004014030B50124C4EB5104C7
:10455000E3B200F1120424F8132030BD70B5044614
:104560000D46204600F0FBFE70BD70B504460D46BA
:104570001820FCF73FFC70BD70B504460D462A4676
:1045800021460348FBF7FAFDFDF79CF870BD0000DB
:10459000400200207047828B8A438283704700F17B
:1045A0001A024FF0844303EB421212794AB900BF5A
:1045B00000F11C024FF0844303EB42121279002AEF
:1045C000F6D0C1817047000000B5A5B024226E4925
:1045D0001CA8FBF7D3FD24226B49243113A8FBF759
:1045E000CDFD2422684948310AA8FBF7C7FD2422E3
:1045F00065496C3101A8FBF7C1FD644800680122E0
:104600000C21C3690320984760483C3000681CA90E
:1046100002685F4890475D483C30006881685C48AC
:1046200088475A483C3000680121026B584890473F
:1046300056483C3000680221026B55489047534869
:10464000006801220C21C369104698474F483C304E
:10465000006813A902684F4890474C483C300068F6
:1046600081684C48884749483C3000680121026B0A
:104670004848904745483C3000680221026B454855
:104680009047424800680122C021C3690920984729
:104690003E483C30006801A902683F4890473B48CB
:1046A0003C30006881683C48884738483C300068A6
:1046B0000121026B3848904734483C3000680221A1
:1046C000026B354890473148006801220C21C369CC
:1046D000022098472D483C3000680AA902682F48FC
:1046E00090472A483C30006881682C488847274812
:1046F0003C3000680121026B2848904723483C3039
:1047000000680221026B2548904720480830006865
:104710008169202088471D48083000688169212070
:1047200088471A480830006881692220884717485E
:104730000830006881692320884719481949886032
:1047400019491848C0F8CC111849C0F890131849F5
:10475000C0F854150120134981F840000121114887
:1047600080F8041280F8C81380F88C1509480D49A8
:1047700008600A48C1F8C4010548C1F88803064822
:10478000C1F84C0525B000BD3073000024080002BC
:104790000018004000100040001C004000140040C1
:1047A0005D450000600200206B4500007945000077
:1047B000954500002DE9F04105460E4617460024B8
:1047C00017E0C4EB0410C0EBC4100C4901EB8000EF
:1047D000A8420DD1C4EB0411C1EBC411074A02EB8E
:1047E000810101F141003A46314602F0C9FC02E084
:1047F000641C042CE5DB00BFBDE8F08160020020F2
:1048000010B52DED028B9AB0B0EE408A9248007A36
:10481000272872D01DDC1F287FD011DC14286ED011
:1048200007DCA0B302283BD003283FD0122867D171
:1048300046E0182865D0192864D01B28F7D162E01B
:10484000203807285CD2DFE800F0696A7475768941
:104850008A00442879D010DC2B2877D006DC282861
:1048600075D0292874D02A28E1D187E02C2870D06F
:104870002D286FD04328DAD19EE048286BD007DC82
:10488000452869D0462868D04728D0D1A1E006E065
:104890004F286FD052286ED05328C8D1BEE0C5E053
:1048A00001220021084600F029F9BFE09FED6B0AC4
:1048B0006B4880ED120A9FED690A80ED110AB5E0A0
:1048C000654800680079B2280DD19FED660A6648F8
:1048D00080ED8D0A9FED650A80ED9E0AB0EE480AD4
:1048E000FDF796FF08E09FED5D0A5D4880ED120A36
:1048F0009FED5A0A80ED110A98E031E00DE073E077
:1049000093E000BF00BFB3EE040A554880ED110AE2
:104910009FED520A80ED120A88E000BF00BFBBEE97
:10492000040A4F4880ED110A9FED4C0A80ED120AEF
:104930007CE000BF00BF9FED490A494880ED110AA5
:10494000B3EE040A80ED120A70E036E024E013E0D2
:1049500013E022E022E03DE030E039E000BF00BF9C
:104960009FED3E0A3E4880ED110ABBEE040A80ED41
:10497000120A5BE042E04BE000BF00BFB1EE040A68
:10498000374880ED130A9FED350A80ED110A9FED3F
:10499000330A80ED120A49E000BF00BFB9EE040AF5
:1049A0002F4880ED130A9FED2D0A80ED110A9FED2F
:1049B0002B0A80ED120A39E000BF00BF2C4890EDB1
:1049C000000ADFED2C0A30EE200A80ED000A2DE00F
:1049D00000BF00BF264890ED000ADFED260A30EE4A
:1049E000600A80ED000A21E09FED1C0A1C4880ED62
:1049F000110A9FED1A0A80ED120A17E09FED170ABF
:104A0000174880ED120A9FED150A80ED110A0DE09E
:104A100002220021084600F071F807E016480078ED
:104A200020F001001449087000E000BF00BF0A48F0
:104A300000680079A1280AD110A101A800F0A6FC05
:104A4000C4B2224601A91048FFF7B4FE00BF1AB055
:104A5000BDEC028B10BD00005C10002000000000C7
:104A60000410002000007042F40A00200000A04260
:104A70008C000020CDCC4C3E88000020CAFAB8CB78
:104A8000202020202000000024040020144800786A
:104A900000F00200134908701148007800F010007F
:104AA000114908700F48007810B901200F490870AB
:104AB0000D48007810B901200D4908700B480078A6
:104AC00018B90B48007800B970470A48007828B137
:104AD00000200849087001200749087200BFF3E769
:104AE000004C00401C0200201D0200209401002008
:104AF000950100201E0200205C100020034B18804E
:104B0000034B1980034B5A7070470000820100204C
:104B1000840100200410002010B52DED028BB0EEB2
:104B2000408A16480068B0F90500C82805DC13481B
:104B30000068B0F90700C82802DDBDEC028B10BD8B
:104B40000F48007978B10F48407903280BD10E48FF
:104B500090ED000A0D4880ED380A0B4890ED010AEF
:104B60000A4880ED490AFFF791FF00F0C1F9B0EE65
:104B7000480AFFF745FE00BFDFE700005C10002099
:104B8000700900207810002078010020F40A00202D
:104B90002DE9F04104460D4617461E46002C01DC67
:104BA000002006E0B4F57A7F02DB40F2E73000E057
:104BB00020460446002D01DC002006E0B5F57A7F92
:104BC00002DB40F2E73000E028460546002F01DC1A
:104BD000002006E0B7F57A7F02DB40F2E73000E024
:104BE00038460746002E01DC002006E0B6F57A7F45
:104BF00002DB40F2E73000E03046064604F57A700A
:104C000004B205F57A7005B207F57A7007B206F5B9
:104C10007A7006B22A4604210807FFF795FC32464F
:104C200004210748FFF790FC22460821C806FFF739
:104C30008BFC3A460A214807FFF786FCBDE8F08165
:104C40000008004090ED051AD0ED061A31EE611A09
:104C5000D0ED0A1A31EE211A80ED041A90ED041AF3
:104C6000D0ED071AB4EEE11AF1EE10FA0ED290ED83
:104C7000041AD0ED071AF1EE611AB4EEE11AF1EE62
:104C800010FA03DD9FED551A80ED041A90ED081A15
:104C9000B5EEC01AF1EE10FA22D090ED091AB5EE79
:104CA000C01AF1EE10FA1BD090ED041AD0ED091ADB
:104CB000B4EEE11AF1EE10FA02D890ED091A0DE007
:104CC00090ED041AD0ED081AB4EEE11AF1EE10FAE4
:104CD00002DD90ED081A01E090ED041A80ED041A4F
:104CE00090ED0C1AD0ED041A01EE801A80ED0C1A2A
:104CF00090ED0D1AB5EEC01AF1EE10FA22D090ED3B
:104D00000E1AB5EEC01AF1EE10FA1BD090ED0C1A87
:104D1000D0ED0E1AB4EEE11AF1EE10FA02D890EDD1
:104D20000E1A0DE090ED0C1AD0ED0D1AB4EEE11A4A
:104D3000F1EE10FA02DD90ED0D1A01E090ED0C1A83
:104D400080ED0C1A90ED061AD0ED0B1A31EE611AB7
:104D5000B1EE411AC1EE000A90ED001AD0ED041A2E
:104D600021EE211AD0ED011A90ED0C2A01EE821AE3
:104D7000D0ED021A01EEA01A80ED031A90ED0F1A81
:104D8000B5EEC01AF1EE10FA22D090ED101AB5EE81
:104D9000C01AF1EE10FA1BD090ED031AD0ED101AE4
:104DA000B4EEE11AF1EE10FA02D890ED101A0DE00F
:104DB00090ED031AD0ED0F1AB4EEE11AF1EE10FAED
:104DC00002DD90ED0F1A01E090ED031A80ED031A59
:104DD00090ED061A80ED0B1A7047000000000000ED
:104DE00010B52DED108B86B09FED320BB0EE40FA72
:104DF000F0EE60FA9FED310B8DED040B9FED310B62
:104E00008DED020B9FED310B8DED000B9FED310B06
:104E1000B0EE408AF0EE608A304801F081FFDFEDAD
:104E2000300A80EE201A11EE104A2046FBF789FB6B
:104E300041EC190B53EC182B51EC190BFBF7DBFA77
:104E400041EC1E0B9FED271BB0EE4E0AF0EE6E0AF2
:104E500000F0B6FDB0EE40DAF0EE60DA9FED150B33
:104E600053EC102B51EC1D0BFBF753FA41EC1C0BD0
:104E70009FED100B53EC102BFBF745FA41EC1B0B8D
:104E80009FED0E0B53EC102BFBF7B5FA41EC1A0B10
:104E9000FBF76AFB15490863084690ED0C0AD0ED54
:104EA0000B0A30EE600A80ED0D0A06B0BDEC108BE7
:104EB00010BD0000666666666602724039B4C87648
:104EC000BE9F7ABF05A3923A019D2340CDCCCCCCA6
:104ED000CCF07140CDCCCCCCCC545940440A00200D
:104EE00000007A44739B82A07A5AC83F9C0A002033
:104EF00000B52C48007A18282AD007DC68B10128B0
:104F00000CD0022818D0032849D11BE04F2830D0FC
:104F1000522834D0532842D13DE041E02148408915
:104F2000401E00B21F4948810846B0F90A00002817
:104F300001DC0220087233E00322FA210A20FCF788
:104F4000A3FB2DE01822FA210A20FCF79DFB27E0A5
:104F500015480088401C1449088008460088B0F5B0
:104F6000C87F05DB4FF4C87008804F200D490872D8
:104F700016E05222C8210A20FCF786FB10E00B48FD
:104F800001680068401E094A1060002902DA5320B7
:104F90000449087204E000200249087200E000BFE2
:104FA00000BF00BD5C100020D2010020F0010020F5
:104FB000704700000A4890ED011A0A48D0ED000A37
:104FC00041EE000AC0ED000A0748D0ED000A05488E
:104FD00090ED001A41EE000A0348C0ED000A704748
:104FE000B00F0020080100200C01002000B5F0EEF9
:104FF000400A564890ED000A9FED551AB4EEC10ADA
:10500000F1EE10FA02DD9FED520A0FE04F4890EDED
:10501000000A9FED501AB4EEC10AF1EE10FA02D266
:105020009FED4C0A02E0494890ED000A474880EDA8
:10503000000A494890ED000A444890ED001A01EE3C
:10504000200A454880ED000A444890ED000A424895
:1050500090ED001A4248D0ED001A31EE611A20EEB0
:10506000010A404880ED000A3C4890ED010A3748AB
:1050700090ED001A3C48D0ED001A31EE611A20EE96
:10508000010A3A4880ED000A344890ED020A374898
:1050900090ED001A20EE011A354890ED000A01EE5D
:1050A000200A80ED000A90ED000A9FED321AB4EE5E
:1050B000C10AF1EE10FA02DD9FED2E0A0FE02C4836
:1050C00090ED000A9FED2C1AB4EEC10AF1EE10FA31
:1050D00002D29FED290A02E0254890ED000A2448FB
:1050E00080ED000A1E4890ED000A1E4890ED001A5F
:1050F00001EE200A1A4880ED000A1D4890ED000AD2
:105100001A4890ED001A30EE011A174890ED000A87
:1051100001EE200A80ED000A90ED000A174880EDAC
:10512000000A0F4890ED000A144880ED020A144866
:10513000007820B11348007800F0010020B900F099
:1051400023F801200E49087000BD00000001002076
:105150000000FA430000FAC304010020D40F00202D
:105160000C01002014010020080100201001002083
:105170001801002000004842000048C2B00F002083
:10518000E4000020880000209FED070A074880ED1A
:10519000000A9FED050A064880ED000A9FED020A0D
:1051A000044880ED000A7047000000000401002060
:1051B000000100200C0100205148D0ED0C0A9FEDA9
:1051C000511A60EE810AFDEEE00A4F48C0ED000A78
:1051D0004E48007848B14D480078401E4B49087051
:1051E000494800684A49086006E04748006848495D
:1051F0000968401A474908604749088AC8280CDAF4
:10520000098A444A51604449098A444A1180DFEDC1
:10521000440A4449C1ED000A19E0404909883D4A61
:1052200051604049D1ED000A70EE800AC1ED000ADC
:10523000D1ED000AB0EE081AF4EEC10AF1EE10FA50
:1052400005DD0121384A11700021334A517031487F
:10525000006836490968401A00EE900AF8EEE00A44
:1052600080EE801AFDEEC10A3148C0ED000A2948DF
:1052700040682E494968401A00EE900AF8EEE00AAC
:1052800080EE801AFDEEC10A2948C0ED010A2148CE
:105290000068264908601F48406848601E484078FA
:1052A000C0B121480078A8B92148D0ED010AF8EE34
:1052B000E00A2048C0ED000ADFED1F0A1F48C0EDDC
:1052C000000AF6EE000AC0ED010ADFED1D0AC0ED8E
:1052D000020A14E01648D0ED000AF8EEE00A15487C
:1052E000C0ED000ADFED170A1448C0ED000AF6EE23
:1052F000000AC0ED010ADFED120AC0ED020A704794
:105300009C0A00200000C842F80000201C01002078
:10531000FC000020F0000020700900202A0100207D
:10532000000000002C0100202801002020010020A6
:10533000E800002000010020CDCCCC3FD40F00209D
:10534000CDCC4C3ECDCC4C3F70B504460D461646F8
:1053500032462946204601F049FF70BD704770B5BE
:1053600005462C46E07880B92079022805D162787C
:10537000A11D2046FFF7F2FF07E02079012804D1A4
:105380006278A11D2046FFF7DFFF70BD0FB4084B08
:1053900010B504A902AA039801F028FA044602A94C
:1053A000002001F0C4FB204610BC5DF814FB000097
:1053B0002F6B000003B401984100009850EAC1200F
:1053C00018BF04204A0D18BF40F0010040F2FF72E0
:1053D000B2EB515F08BF40F00200012808BF052072
:1053E00002B070474100080218BF04200A0E18BF1F
:1053F00040F001004FF07F4232EA010108BF40F067
:105400000200012808BF05207047000000000000CE
:1054100070B5C1482DED020B2DED0E8B82B0119DA4
:1054200025F000449FEDBEDB9FEDBFEB84423EDBE9
:10543000A4F140511098A1F17F6108430FD0BC48FE
:10544000844202DC28D1109830B39DED100B02B0DD
:10545000BDEC0E8B02B0BDE8704001F061B99DED6E
:10546000100B53EC1D2B51EC100BFAF752FF9DED76
:10547000100B41EC180B53EC1E2B51EC100BFAF7F0
:1054800048FF53EC182BFAF79DFE41EC100B02B0CD
:10549000BDEC0E8B02B070BD012001F0A1F902B08D
:1054A000BDEC0E8B02B0BDE8704001F04DB9A148D3
:1054B0009FEDA18B844256DA9DED100BB4F1795F1C
:1054C0000ADA51EC100BFFF775FF042808BF01F052
:1054D0005BF99DED100BDAE753EC102B51EC100B40
:1054E000FAF717FF41EC190B95480621B0EE490A6F
:1054F000F0EE690A784401F07FF853EC192B51EC77
:10550000100BFAF706FF41EC1A0B8E48B0EE490A71
:10551000F0EE690A0421784401F06EF853EC192B7F
:1055200051EC100BFAF7F5FE53EC182BFAF74AFE84
:1055300041EC100B51EC1A0B53EC102BFAF75BFFFC
:10554000CDE900019DED000B53EC102B9DED100BF0
:1055500051EC100BFAF7DDFE9DED101B53EC112BF7
:10556000FAF730FED2E09DED100B51EC100B01F07C
:1055700031FE53EC182BFAF7C9FE9FED730BCDE902
:10558000000153EC102B9DED000B51EC100BFAF7C2
:10559000C0FE41EC190B6E480621B0EE490AF0EE50
:1055A000690A784401F028F853EC192B51EC100BE0
:1055B000FAF7AFFE41EC1B0B6648B0EE490AF0EE7D
:1055C000690A0421784401F017F853EC192B51ECC7
:1055D000100BFAF79EFE53EC182BFAF7F3FD41EC93
:1055E0001C0B51EC190B01F06BFE41EC180B5A48E7
:1055F0009FED5BABA04222DC53EC1C2B51EC1B0B50
:10560000FAF7F9FECDE900019DED000B51EC180B06
:1056100053EC102BFAF77DFE53EC182BFAF7D2FD62
:1056200053EC1A2BFAF775FE53EC1D2BFAF76BFEB1
:1056300053EC1E2BFAF76AFE41EC100B5FE08DED88
:10564000008B002000909DED000B51EC180B53ECEB
:10565000102BFAF7B7FD9DED000B41EC1E0B53EC40
:10566000102B51EC100BFAF754FE53EC192BFAF7F0
:105670004DFE53EC1E2BFAF7BEFE41EC190B53EC1A
:105680001C2B51EC1B0BFAF7B6FE41EC1B0B53EC39
:105690001A2B51EC190BFAF73CFE53EC1D2BFAF7C1
:1056A00035FE41EC190B53EC1A2B51EC180BFAF7A1
:1056B00030FE53EC1B2BFAF72CFE53EC192BFAF7A8
:1056C00022FE9DED000B41EC180B53EC1A2B51EC14
:1056D000100BFAF71EFE9FED249B53EC192BFAF7E3
:1056E00015FE41EC100B51EC180B53EC102BFAF794
:1056F0000AFE53EC192BFAF709FE41EC100B002DB2
:105700003FF7C5AE51EC100B81F0004141EC100B9E
:10571000BDE60000000000000000F03F00000000B7
:10572000075C143326A6913C182D4454FB21F93F05
:105730000000F07F0000E03F000000000000F03FAC
:10574000E01E0000EE1E0000000000000000E03F30
:10575000321E0000401E00003333EF3F0000000007
:105760000000000000000040182D4454FB21E93FD8
:1057700010EE100A10B510EE901A4FF0684202EBCE
:1057800040032DED028BB3F1654F3CBF02EB4102AC
:10579000B2F1654F7CD200BFC0F3C753C1F3C7520B
:1057A0009A1A1B2A09DD10F0004F14BF9FED6E0AF4
:1057B0009FED6E0ABDEC028B10BD12F11A0F1BDAC1
:1057C00011F0004F09D010F0004F0CBF9FED680A98
:1057D0009FED680ABDEC028B10BD80EE208A18EEAA
:1057E000100AFFF7FFFD042808BF00F0E1FFB0EE4C
:1057F000480ABDEC028B10BD4200B2EB410F37D915
:1058000010F0004F19BFDFED5C1A9FED5C1ADFED61
:105810005C1A9FED5C1AB0EE602A0A46F1EE400A6F
:1058200080F00041B0EE420A10460A1A5200B2F16E
:10583000807F34D2484010F0004FDFED532A9FEDB7
:10584000533A1DBFBEEE002A71EEE21A31EE431A42
:10585000B6EE002A04BF71EEA21A31EE031AF0EE82
:10586000402A42EE602A40EE020A82EEA02A18E0A8
:1058700011F0004F04BF9FED461AF0EE411AD4D04C
:1058800010F0004F1CBFDFED431A9FED431A00E0FC
:1058900026E004BFDFED411A9FED411AC5E780EE17
:1058A000202A22EE020ADFED3F0ADFED3F2ABDEC9F
:1058B000028B40EE202ADFED3D0A40EE220ADFEDAA
:1058C0003C2A40EE202ADFED3B0A40EE220A22EE7F
:1058D000000A00EE201A31EE020A30EE210A10BD55
:1058E0004FF07F42B2EB400F28BFB2EB410F05D221
:1058F000BDEC028BBDE8104000F056BF40EA01034A
:105900005B0008BF41F0FF410BD0B2EB400F08BF76
:10591000B2EB410F08D120F0804000EE100A21F0D8
:10592000804100EE901A37E7B2EB400F12BF5FEAFA
:10593000410240F0FF4001F000413FF42DAF4A002A
:1059400092EA40033FF528AF002AACBF9FED1A1A38
:105950009FED1A1A20EE010A60EE810A10EE100A7D
:1059600010EE901A18E70000DB0FC9BFDB0FC93F2C
:10597000DB0F4940DB0F49C00000C9BF22AAFDB9B7
:105980000000C93F22AAFD390060ED3EC30ACE37B0
:1059900000000000000049C022AA7DBA0000494072
:1059A00022AA7D3A2DAD65BD8FB8D53D0FB511BE8C
:1059B00061C84C3EA8AAAABE0000804F0000802FFC
:1059C0002DE9F04D2DED040B2DED0C8B96B0DDE99E
:1059D0002350259CDDF888A025F0004624F00048DF
:1059E000BAF1000F14BF0121002101EB4502FE496D
:1059F00053184A1093422AD3002814BF01230023CE
:105A000003EB44030B44F9498B4220D358EA0001CD
:105A10009FEDF78B6FD0DFF8E0B35D4503D1BAF1AE
:105A2000000F05D187E0BAF1000F08BF002100D0B8
:105A3000012101EB450111F5001F08D8002814BF12
:105A40000121002101EB440111F5001F0BD99DED4F
:105A5000241B9DED220B16B0BDEC0C8B04B0BDE8F1
:105A6000F04D00F067BE0027002DBCBFE34988451C
:105A700021DAE3498845A8BF02271CDAC3451ADCAE
:105A8000E04901EB2851142908DDC1F1340220FA64
:105A900002F101FA02F282420DD108E058B9C1F1D7
:105AA000140228FA02F101FA02F2424503D101F090
:105AB0000101C1F1020756EA0A011DD1002C1BDACF
:105AC000002D18BF022F01D0012F0AD0022000F0B4
:105AD00087FE16B0BDEC0C8B04B0BDE8F04D00F0B5
